:020000040000fa
:080000000002040000000000f2
:020000040000fa
:10040000cfc020000e5f22000e0188000000000017
:100410000c000700405622000100200011000700d8
:10042000000020000000e000020032000000020096
:1004300000000000c4240200000000000040da00b8
:100440000000fe004440a900000020000000e00081
:100450000300320000002000a00188004440a800f2
:100460000000060091018800800078000000eb0089
:1004700015003700e280400032a0b4009101ba00bc
:10048000e280400032a0b4009102ba00e280400055
:1004900032a0b4000002eb00472bde00f507b200eb
:1004a000602ce10004003a000059eb008301e900f0
:1004b000fdff3e00040037006128e100010032002a
:1004c0000082eb00040007001101ba000200e00006
:1004d000e8ff3a00000006003159ba008301e90044
:1004e0000c0032002159ba008301e90008003200f3
:1004f0000400e00003003a00e280400032a0b400b3
:10050000f5ff370011d9ba008301e900faff3a007c
:100510008100e800e180400032a0b4000000060045
:100520000040da000000fe00839f68000100e00048
:1005300002003d0060001000e08018000300e000b1
:1005400002003d0060011100e08119000500070074
:100550004f00e00002003b0060001000e080180047
:10056000000006006022b800060220000000d00053
:100570008180d2000482d2008582d2000000a000d7
:100580000202520083825a0003003100020242003c
:1005900083824a000000a1000603e900f3ff3a004d
:1005a000000006008001eb00020037008171780036
:1005b0008301e800828f5100fcff3a000000060032
:020000040000fa
:0200000401f009
:04000800ffff0000f6
:020000040000fa
:0200000401f009
:04000c00fbff0000f6
:020000040000fa
:0200000401f009
:040010009cff000051
:020000040000fa
:0200000401f009
:040014007fff00006a
:020000040000fa
:0200000401f009
:04001800e8ff0000fd
:020000040000fa
:0200000401f009
:04001c00deff000003
:020000040000fa
:1000080090020000900200009002000090020000a0
:100018009002000090020000900200009002000090
:10002800ee2100000a130000900200009002000078
:10003800041f0000f8130000900200009002000066
:100048003c25000090020000900200009002000091
:1000580090020000c2200000900200009002000000
:100068009002000090020000900200009002000040
:100078009002000090020000e614000090020000c8
:100088009002000090020000900200009002000020
:100098009002000090020000900200009002000010
:1000a8009002000090020000900200009002000000
:1000b80090020000900200009002000090020000f0
:1000c80090020000900200009002000090020000e0
:1000d80090020000900200009002000090020000d0
:1000e80090020000900200009002000090020000c0
:1000f80090020000900200009002000090020000b0
:10010800900200009002000090020000900200009f
:10011800900200009002000090020000900200008f
:10012800900200009002000090020000900200007f
:10013800900200009002000090020000900200006f
:10014800900200009002000090020000900200005f
:10015800900200009002000090020000900200004f
:10016800900200009002000090020000900200003f
:10017800900200009002000090020000900200002f
:10018800900200009002000090020000900200001f
:10019800900200009002000090020000900200000f
:1001a80090020000900200009002000090020000ff
:1001b80090020000900200009002000090020000ef
:1001c80090020000900200009002000090020000df
:1001d80090020000900200009002000090020000cf
:1001e80090020000900200009002000090020000bf
:0801f8009002000090020000db
:020000040000fa
:10020800900200009002000090020000900200009e
:10021800900200009002000090020000900200008e
:10022800ee2100000a130000900200009002000076
:10023800041f0000f8130000900200009002000064
:100248003c2500009002000090020000900200008f
:1002580090020000c22000009002000090020000fe
:10026800900200009002000090020000900200003e
:100278009002000090020000e614000090020000c6
:10028800900200009002000090020000900200001e
:10029800900200009002000090020000900200000e
:1002a80090020000900200009002000090020000fe
:1002b80090020000900200009002000090020000ee
:1002c80090020000900200009002000090020000de
:1002d80090020000900200009002000090020000ce
:1002e80090020000900200009002000090020000be
:1002f80090020000900200009002000090020000ae
:10030800900200009002000090020000900200009d
:10031800900200009002000090020000900200008d
:10032800900200009002000090020000900200007d
:10033800900200009002000090020000900200006d
:10034800900200009002000090020000900200005d
:10035800900200009002000090020000900200004d
:10036800900200009002000090020000900200003d
:10037800900200009002000090020000900200002d
:10038800900200009002000090020000900200001d
:10039800900200009002000090020000900200000d
:1003a80090020000900200009002000090020000fd
:1003b80090020000900200009002000090020000ed
:1003c80090020000900200009002000090020000dd
:1003d80090020000900200009002000090020000cd
:1003e80090020000900200009002000090020000bd
:0803f8009002000090020000d9
:020000040000fa
:1005c0002200fa0030079800410798000000eb0075
:1005d00020079800be009000600220000088b9004b
:1005e0008000780000b020000080400010079800d4
:1005f000be009000600220000088b90080007800f2
:1006000040812000008f4000be009000018140002a
:1006100060ad200000004100100078000001e800fb
:100620008180400060ad200000804000020878001a
:100630001e007800c00090001e009000410098004d
:100640001e007800d00090001e009000510098001d
:100650001e007800e00090001e00900061009800ed
:100660001e007800f00090001e00900071009800bd
:100670001e007800801090001e009000011098006d
:100680001e007800f00890001e009000710898008d
:100690003e0090008000400060ad200000804000df
:1006a000900078004e009000808f5000c800350008
:1006b0003e0090008000400060ad2000808040003f
:1006c0000000eb0080087800100020002007980050
:1006d0001e009000900090001e0078001000900016
:1006e000808f50002a0032001e0090001000900001
:1006f000001798001e009000900090001e007800e7
:1007000010009000008050000000e00003003d0059
:100710000080eb00700f98000200370011002000ed
:10072000710f98000e1190007e089000800051001b
:100730001e009000110098001e0090009000900094
:1007400000d02700808f50000a003c001e0090005f
:1007500010009000600f980000302800ee08900014
:10076000808f500005003d0002302800620f980085
:100770000200370000d02700600f98001e00900094
:10078000ee089000110098000000eb002007980090
:100790001e009000a00090001e0078002000900035
:1007a000808f50002a0032001e0090002000900030
:1007b000500f98001e009000a00090001e007800ce
:1007c00020009000008050000000e00003003d0089
:1007d0000081eb00420f980002003700100020005b
:1007e000400f98005e0990004e0890008000510074
:1007f0001e009000210098001e009000a0009000b4
:1008000000d02700808f50000a003c001e0090009e
:1008100020009000300f980000302800be089000a3
:10082000808f500005003d0002302800320f9800f4
:100830000200370000d02700300f98001e00900003
:10084000be089000210098000000eb0020079800ef
:100850001e009000b00090001e0078003000900054
:10086000808f50002a0032001e009000300090005f
:10087000200f98001e009000b00090001e0078002d
:1008800030009000008050000000e00003003d00b8
:100890000081eb00120f98000200370010002000ca
:1008a000100f98002e0990001e0890008000510043
:1008b0001e009000310098001e009000b0009000d3
:1008c00000d02700808f50000a003c001e009000de
:1008d00030009000000f9800003028008e08900033
:1008e000808f500005003d0002302800020f980064
:1008f0000200370000d02700000f98001e00900073
:100900008e089000310098000000eb00200798004e
:100910001e009000901090001e00780010109000b3
:10092000808f50002a0032001e00900010109000ae
:10093000700798001e009000901090001e00780034
:1009400010109000008050000000e00003003d0007
:100950000081eb00620798000200370010002000c1
:10096000600798007e0190006e00900080005100aa
:100970001e009000111098001e0090009010900032
:1009800000d02700808f50000a003c001e0090001d
:10099000101090005007980000302800de009000f2
:1009a000808f500005003d0002302800520798005b
:1009b0000200370000d02700500798001e0090006a
:1009c000de009000111098000000eb002007980056
:1009d0002e0090000080fa00000006001a00fa00c5
:1009e00030079800410798000000eb0020079800ae
:1009f000be009000600220000088b90080007800ee
:100a000000b020000080400010079800be00900059
:100a1000600220000088b90080007800408120003a
:100a2000008f4000be0090000181400060ad2000ba
:100a300000004100100078000001e80081804000c3
:100a400060ad200000804000020878001e007800a1
:100a5000c00090001e009000410098001e00780029
:100a6000d00090001e009000510098001e007800f9
:100a7000e00090001e009000610098001e007800c9
:100a8000e00090001e009000710098001e007800a9
:100a9000801090001e009000011098001e00780049
:100aa000f00890001e009000710898003e00900031
:100ab0008000400060ad2000008040009000780081
:100ac0004e009000808f5000640035003e00900082
:100ad0008000400060ad2000808040000000eb00fe
:100ae0008008780010002000200798001e00900069
:100af000100090000000e000130032001e00900083
:100b000010009000400f98001e0090001000900010
:100b10000000e00003003d000080eb00300f980073
:100b20000200370011002000310f98004e0990009c
:100b3000be089000010051009e00900090009800b7
:100b40000000eb00200798001e009000200090009d
:100b50000000e000130032001e0090002000900012
:100b6000200f98001e009000200090000000e00080
:100b700003003d000081eb00120f980002003700d7
:100b800010002000100f9800ae0890001e09900081
:100b9000028050009e009000a00098000000eb0032
:100ba000200798001e009000300090000000e00038
:100bb000130032001e00900030009000000f9800db
:100bc0001e009000300090000000e00003003d0097
:100bd0000080eb0070079800020037001100200031
:100be000710798000e099000fe009000010051006e
:100bf0009e009000b00098000000eb0020079800d5
:100c00001e009000101090000000e0001300320061
:100c10001e00900010109000600798001e009000c9
:100c2000101090000000e00003003d000081eb0088
:100c3000520798000200370010002000500798006b
:100c4000ee0090005e019000028050009e00900037
:100c5000901098000000eb00200798002e009000f4
:100c60000080fa00000006000400fa001007980057
:100c70009e009000600220000088b900800078008b
:100c800000b02000008f40009e0078000000eb00c4
:100c9000900098009e0078000000eb00a0009800f3
:100ca0009e0078000000eb00b00098009e007800e5
:100cb0000000eb00901098009e0078000000eb0010
:100cc000f00098009e0078000000eb00c000980043
:100cd0009e0078000000eb00d00098009e00780095
:100ce0000000eb00e00098009e0078000000eb00a0
:100cf000801098001e009000c200dd0080ae200031
:100d0000008140006000b8000089be001e00900015
:100d1000c200dd00c0ad2000008140006000b800ce
:100d20000089be001e0090008000400040af2000ff
:100d3000808040000000eb00800878001e009000da
:100d400080004000a0af2000808040000000eb0049
:100d5000800878001e0090008000400060ad2000f8
:100d6000808040000000eb00800878000080fa00de
:100d7000000006000200fa000000eb00000f7800ff
:100d8000090037001e0078008000400000ad200000
:100d9000808040000000eb00800878001e00780092
:100da000b1ff07001e0fe800200020009e0f10007a
:100db000f4ff34000080fa00000006000400fa008e
:100dc000000f7800110798009e0090001e00780028
:100dd000030907000080fa00000006000800fa007e
:100de0000000eb00200798008d003700ae00900057
:100df000600220000088b900f60040004081200019
:100e0000008040009000780011079800ae0090002c
:100e1000600220000088b900f000400040812000fe
:100e200000804000100f78002e00900080004000ed
:100e300000ad2000008040001000780030079800ce
:100e40003e009000e20f500036003200be009000dd
:100e5000e28f500007003c003e0090000000e000e0
:100e60000b003200be009000e18f500020003200e5
:100e7000650037003e009000e30f50005300320041
:100e8000be009000e48f50003f0032005e0037004b
:100e90008000eb002e009000c8ff07001e009000ad
:100ea000e10f500006003a002e0090008000400044
:100eb00000ad2000808040001000200080087800f5
:100ec0001e009000e20f500006003a002e00900035
:100ed0008000400000ad2000808040002000200005
:100ee000800878002e0090005fff0700490037005f
:100ef0009e0078002e009000b0ff07001e009000ba
:100f0000e10f5000430032002e00900080004000ae
:100f100000ad2000808040000000eb0080087800d9
:100f20003c0037001e009000e20f50000700320026
:100f30002e0090008000400000ad20008080400026
:100f40000000eb008008780032003700a10f20007d
:100f50002e0090009afd07000000e000060032001d
:100f60002e0090008000400000ad200080804000f6
:100f700040002000800878009e0078002e0090003d
:100f80002c000700230037001e009000e20f5000e5
:100f9000070032002e0090008000400000ad2000cd
:100fa0008080400030002000800878001900370061
:100fb000a10f20002e00900081fd07009e00780008
:100fc0002e0090001b00070012003700a10f200028
:100fd0002e00900081fe07000000e00006003200b5
:100fe0002e0090008000400000ad20008080400076
:100ff0000000eb00800878008000eb002e009000dd
:101000006eff0700030037008000eb002e00900009
:101010006aff07002e0090000000e80020079800fb
:101020002e009000e20f500070ff34000080fa00a4
:10103000000006001e00fa00889fbe008a1f78008c
:101040004007980051079800ce00900060022000f1
:101050000088b9008000780000b0200000804000c7
:1010600030079800ce009000600220000088b90090
:101070008000780040812000008040002007980018
:101080002e009000900890005e009000808f50002d
:1010900004003d002e00900010089000500f9800b2
:1010a0000b0037002e00900020089000de0090001a
:1010b000610f9800500f98005e099000ee099000b3
:1010c000830f510002003d006e0a9000540f9800fb
:1010d000de0a9000150798000000eb00000f780072
:1010e0004e0090000000e0000c003a002e0090003e
:1010f000100078000000d100610060000004e000f2
:10110000040032000000eb00c30a0700000f780063
:1011100002003700704d8000000f78004e009000f4
:10112000e10f50000c003a002e00900010007800f3
:101130000000d100610060000004e0000400320003
:1011400020002000b40a0700000f780002003700da
:10115000904d8000000f78004e009000e20f50008c
:101160000c003a002e009000100078000000d10022
:10117000610060000004e000040032004000200034
:10118000a50a0700000f780002003700b04d80006c
:10119000000f78001e0090001e005000905b880039
:1011a000ce0190003e009000100090006104b90054
:1011b000915b80003e009000400090000088de00bf
:1011c0006102b9008800780004007800000bb800c4
:1011d00005c0b900070178000001410009a0b9006d
:1011e0000001410082037800c218dd0000aa20003f
:1011f000008040000688be004e0290004e00900025
:10120000c200dd00c0ad2000008040001001be0023
:10121000905b8000cf80de000201400083814800a7
:10122000c220dd00c0ad2000008040000288be006a
:101230004e009000400f98004e009000c200dd006c
:10124000c0ad2000008040001001be003e009000b4
:1012500070009000cf80de00800f5100818f590018
:10126000060034003e009000700090006101b9005b
:10127000220f9800330f9800180037004e0090009e
:10128000c200dd00c0ad2000008040001001be00a3
:101290003e009000700090000000ea006102b9007a
:1012a000040f9800150f9800220f9800330f980034
:1012b0002e089000be0890000e0990009e09900034
:1012c000820f5000838f580004003d000e0a9000ea
:1012d0009e0a9000240f9800350f9800ce0a9000c7
:1012e000c228dd00c0ad2000008040002e09900023
:1012f000be0990000288be004e0590003e0090009e
:10130000200090006104b9004e009000c200dd0092
:10131000c0ad2000008040001001be003e009000e3
:10132000500090000202be00800078008100e900b9
:10133000030033008582d1000482d300fbff370015
:101340008800780004007800000bb80005c0b900e0
:10135000070178000001410009a0b9000001410027
:1013600082037800c250dd00c0aa20000080400047
:101370000688be004e009000c200dd0080ab200059
:10138000008140006000b8000089be004e0090005f
:10139000c200dd0040ac2000008140006000b800c9
:1013a0000089be002e009000100078004c00de0086
:1013b000610060000004e00008003200ce009000f0
:1013c0003e009000101090006101b900c208dd00dd
:1013d00040ac2000008040000288be004e0090001b
:1013e000c200dd0000aa2000008040001001be0005
:1013f0004e009000c200dd00c0aa20000080400026
:101400001000be0002014000838148004e009000a1
:10141000c200dd0080ab2000008040001000be0054
:1014200002014000838148004e009000c200dd00b0
:1014300040ac2000008040001000be0002004000d0
:1014400083804800a05b8800b15b8800a25b8000bd
:10145000b35b8000e0c7200001002000800f510036
:10146000818f590010003c00a05b8000b15b8000c0
:10147000600798007107980020382f00f1ff2f00b7
:101480006e019000fe019000800f5100818f590085
:1014900009003d0024382f00f5ff2f006407980055
:1014a0007507980004003700e0c720000100200005
:1014b00060079800710798006e019000fe0190008f
:1014c000a25b8800b35b8800a05b8000b15b8000fa
:1014d000800078004e00900038fe07004f0578002d
:1014e0004f04be000080fa00000006000800fa0069
:1014f000004f7800110798001e80fb00300798000d
:101500003e0090000000e000040032003e00900029
:10151000e10f500056003200a90037001e00900075
:10152000604090008080fb00d00f200000806000b1
:101530000000e0000a003a001e0090001000900039
:101540000000e00006003a00905e80000000e0002d
:1015500003003a000000eb0020079800a8003700c5
:101560001e009000604090008080fb00d00f2000a3
:1015700000806000e10f50003a003a001e00900029
:1015800090009000905e8000808f500035003a00ff
:101590001e009000404090000080fb006d00600045
:1015a000e40f50002c003a00d7cbbf00e24f5000b0
:1015b0000a003a001e00900090007800f0ff200022
:1015c000808f5000050036001e00900090007800cb
:1015d00000002200808f500008003600d7cbbf00eb
:1015e000e24f5000190032001e0090009000780079
:1015f000005f8000808f500014003a001e009000b1
:10160000404090000080fb004600de00610060006a
:101610000004e0000300320010c0b300deebb700ae
:10162000020037000040eb00deebb700805e800078
:101630000000e00002003a0010c0b300d4ebb70095
:101640000000eb00200798006d003700200020000c
:10165000200798006a00370040002000200798000b
:101660006700370030002000200798006400370032
:101670001e009000604090008080fb00d00f200092
:10168000008060000000e0000a003a001e009000a8
:10169000100090000000e00006003a00805e80002c
:1016a0000000e00003003a000000eb002007980073
:1016b000530037001e009000604090008080fb00c7
:1016c000d00f200000806000e10f500039003a0088
:1016d0001e00900090009000805e8000808f50007f
:1016e00034003a001e009000404090000080fb0053
:1016f0006d0060000000e0002b003a00d7cbbf0077
:10170000e24f50000a003a001e009000900078005e
:10171000f0ff2000808f5000050036001e00900072
:101720009000780000002200808f500008003600f2
:10173000d7cbbf00e24f5000180032001e009000cf
:1017400090007800105f8000808f500013003a00f6
:10175000805e80000000e0000d0032001e0090005e
:10176000404090008080fb00d0022000808060001c
:1017700000022000808f500003003a0010c0b30028
:10178000d4ebb700020037000040eb00d4ebb70009
:101790000000eb002007980019003700200020000f
:1017a000200798001600370040002000200798000e
:1017b0001300370030002000200798001000370089
:1017c0001e009000604090008080fb00d00f200041
:1017d000008060000000e00004003a001e0090005d
:1017e000100090000000e0000300320030002000f4
:1017f00020079800020037000000eb002007980047
:101800002e0090000080fa00000006000600fa009a
:10181000404798000040eb00104798000040eb0064
:10182000304798001f0037003e409000004f78007e
:101830003e4090000004e00003003a0010c0b300f6
:10184000004f7800050037003e409000e14f500007
:1018500002003a000040eb00004f78001e40780084
:10186000e1080700800078001e4078001fff070095
:10187000204798002e4090000004e000060032004f
:101880001e4090000004e00003003a001e40780073
:101890007d404000104798003e4090000040e80026
:1018a00030479800be4090004e40900080cf5000de
:1018b000ddff39001e4090000080fb000080fa0030
:1018c000000006000800fa000000eb00000f78009e
:1018d0000040eb00c4080700100798001e009000ad
:1018e00010007800005f880010c0b300be08070039
:1018f000100798001e00900010007800105f88000c
:10190000905e80006300b90080007800005f800076
:1019100080804000105f8000808f500009003600fa
:10192000115f8000805e800080804000005f80004a
:10193000808f500003003600d0012000300798004f
:1019400019003700805e80000000e0000d003200ca
:1019500010c0b300960807008d0c070040479800a0
:101960004e4090000004e000040032004e40900021
:101970000080fb00300798000b00370010c0b30058
:10198000cdebb700905e80000000e0000200320066
:101990000040eb00860807001e0078004c08070096
:1019a0000000eb00300798003e0090000080fa0035
:1019b000000006000c00fa000040eb0040479800d1
:1019c000660047002200200001402000de070700db
:1019d0003e0090000000e00023003200decbbf009c
:1019e0000004e000200032006800470022002000d0
:1019f00001422000d40707004e0090000000e000e4
:101a00001d0032004e00900001002000008fbe003b
:101a10003e0090006103b8009e0078000600780048
:101a2000000ab8001e0078000780b90005017800a0
:101a3000000141001e00900000b0b900000141000b
:101a400082027800048fbe001e00be00821a2600ab
:101a500003002000c3fa0700008fbe001e007800bc
:101a6000d05e8800040037000000eb0040079800bb
:101a70000000eb00d05e88004e0090000000e00007
:101a800006003a00decbbf000004e000090032008f
:101a9000f00120005007980021003700decbbf0086
:101aa0000004e00003003a00f00120005007980015
:101ab0001b003700905e80000000e000090032004b
:101ac0003b0c0700404798004e4090000004e000a7
:101ad000040032004e4090000080fb005007980048
:101ae0000f00370010c0b300ccebb700e4cbbf0051
:101af0000004e00008003a00d4cbbf000004e0007e
:101b000005003200905e80000000e000020032001c
:101b100000102000ee0707000000eb0050079800bf
:101b20005e0090000080fa00000006000200fa004b
:101b30000040eb00004f7800f0ef2f00cd070700ca
:101b40000040eb00ceebb7000040eb00ccebb70061
:101b5000905e80000000e00002003200180c0700d8
:101b6000004f78001e80fb000080fa000000060095
:101b70000200fa000040eb00004f78000040eb004c
:101b8000fd07070030cf2f00ba0707000040eb0029
:101b9000d4ebb7000040eb00e4ebb7000040eb00f3
:101ba000cdebb70010c0b300f3070700fc0b070034
:101bb000004f78001e80fb000080fa000000060045
:101bc0000c00fa00204798000040eb0010479800f6
:101bd0002e4090000080fb004400de0061006000a9
:101be0000004e00005003200d7cbbf00f1ceb30007
:101bf00001406000d7ebb7000e003700d7cbbf0025
:101c00000080fb004400de00610060000004e00092
:101c1000080032002e4090000080fb00ef006000c2
:101c2000d7cbbf000080fb006f006000808f5000aa
:101c300047013c002e4090006f4060002047980014
:101c4000d7cbbf00004f78001e4078004400dd0075
:101c5000004f78002e4090001e4f40001e4078003c
:101c6000dfebb7001e80fb00300798004004200027
:101c7000be009000808f50002d00320040042000f4
:101c80003e019000800f51000e003c002002200019
:101c9000be019000808f51002800320020022000f9
:101ca000be009000808f500001003c0023003700f0
:101cb000400220003e019000800f510017003200ca
:101cc0001e00370020082000be019000808f5100c8
:101cd0001a00320020082000be009000808f5000c3
:101ce00005003c00800420003e019000800f510060
:101cf0000f0032001100370040082000be019000a4
:101d0000808f51000a00320080082000be00900041
:101d1000808f50000600320008003700980b070043
:101d2000104798001e4090000004e00003003a00b5
:101d3000d5cbbf00b5fe0700104798001e409000ad
:101d40000004e000af003a001e80fb006101b90012
:101d5000f0fe2f00f1ff2f000201400083814800b8
:101d600042079800530798007007200001002000e8
:101d70004e019000de019000800f5100818f5900cc
:101d80009d003e004e009000de00900000600100cb
:101d900093003700bb003700750037009300370011
:101da0009500370094003700930037008f0037000c
:101db00091003700900037008f0037008e00370009
:101dc0008d0037008c0037008b0037008a00370009
:101dd000ac0037008200370084003700670037000e
:101de0008500370084003700830037007f0037000c
:101df00081003700800037007f0037007e00370009
:101e00007d0037007c0037007b0037007a00370008
:101e10007900370078003700770037007600370008
:101e20007500370074003700730037007200370008
:101e300071003700700037006f0037006e00370008
:101e40006d0037006c0037006b0037006a00370008
:101e5000600037005700370064003700600037002b
:101e60006500370064003700630037004600370024
:101e700061003700600037005f0037005e00370008
:101e80005d0037005c0037005b0037005a00370008
:101e90005900370058003700570037005600370008
:101ea0005500370054003700530037005200370008
:101eb00051003700500037004f0037004e00370008
:101ec0004d0037004c0037004b0037004a00370008
:101ed0004900370048003700470037004600370008
:101ee0004500370044003700430037004200370008
:101ef00041003700400037003f0037003e00370008
:101f00003d0037003c0037003b0037003a00370007
:101f10003900370038003700370037003600370007
:101f20003500370034003700330037003200370007
:101f300031003700300037002f0037002e00370007
:101f40002d0037002c0037002b0037002a00370007
:101f50001b00370012003700240037000d00370047
:101f60002500370024003700230037001c0037000d
:101f700030c1b300104798004200370051fe0700ff
:101f8000104798003f0037008afe0700104798006e
:101f90003c003700e5fe0700104798003900370085
:101fa000e2fe0700104798001e4090000004e00089
:101fb00034003a00eefe0700104798003100370069
:101fc000dafe0700104798001e4090000004e00071
:101fd0002c003a00e6fe0700104798002900370061
:101fe000e0cfb300104798002600370010c1b300bf
:101ff000104798002300370020c1b3001047980015
:1020000020003700d7cbbf000080fb0020079800de
:10201000ae009000e48f5000080032002e019000c6
:10202000e80f510004003200ae019000e28f510031
:102030000c00320013003700bcfe07001e40900069
:10204000fd4f500004003200c9fe070020c0b3005d
:10205000d7ebb7000300370040c0b300d7ebb700a1
:10206000080037001e409000f64f500003003a0071
:1020700010c0b300d7ebb7000200370020c0b30098
:10208000d7ebb7001e409000e14f40003000320017
:102090002e4090008080fb00d7cbbf000080fb006b
:1020a0006f006000808f5000260032001e409000bc
:1020b0000004e00006003200d7cbbf00d8ebb70029
:1020c000d7cbbf000044a000d7ebb7001700370004
:1020d000d9cbbf000004e00008003200d9cbbf001c
:1020e000104798002e409000d8ebb7002e4090008b
:1020f0000044a000204798000a00370081bd20005e
:10210000914078002e409000814f500003003e0027
:1021100000c0eb0010479800020037000040eb00c1
:10212000d8ebb7002e409000d7ebb700d7cbbf005d
:102130009e4090007a0607000040eb00d9ebb70004
:1021400003003700d7cbbf008040eb0074060700c8
:102150000080fa00000006000000fa000040eb00da
:10216000deebb7000040eb00d8ebb7000040eb001f
:10217000d9ebb7000040eb00ceebb7000040eb001e
:10218000ccebb7000040eb00cdebb7000040eb001c
:10219000e4ebb7000040eb00d4ebb70010c0b30095
:1021a000d7ebb700d7cbbf008040eb005c06070041
:1021b0000080fa00000006000000fa00cb050700ce
:1021c0000080fa00000006000200fa00000f78000c
:1021d0001e0078008000400020ba200000804000ef
:1021e000100078000080fa00000006000200fa00eb
:1021f000000f78001e0078008000400080ba2000a8
:1022000000804000100078000080fa000000060006
:102210000c00fa00100798001e009000800040009b
:10222000e0ba200000804000100078000000e000cc
:102230001d0032009e009000600220000088b9005e
:10224000fc004000408120000080400090007800a9
:1022500050002500808f50000e003c009e00900032
:10226000600220000088b900fc004000408120008e
:102270000080400010007800500798005e00900039
:102280000000e00005003d008000eb0051079800d1
:102290000200370052002500520798005e009000af
:1022a000000f78001c0037009e00900060022000a4
:1022b0000088b900fc004000408120000080400000
:1022c0009000780050002500808f50000e003c00e8
:1022d0009e009000600220000088b900fc004000d1
:1022e00040812000008040001000780040079800e6
:1022f000ce0090000100e00005003d000001eb0071
:10230000420798000200370050002500400798005f
:10231000ce009000010f78001e0190003207980057
:102320009e009000600220000088b90080007800c4
:102330004081200000804000100078004400de0052
:10234000610060000004a2000004e0000a003a00fe
:102350001e0090008000400020ba20000080400055
:10236000100078009e0f500003003d001000200078
:1023700020079800020037008000eb00210798003a
:102380003e0190003e01900082004100e0ba200032
:1023900000804000ae009000010878001e00900010
:1023a00080004000e0ba200000804000100078006b
:1023b0000080fa00000006000c00fa0010079800e8
:1023c0001e0090008000400040bb200000804000c4
:1023d000100078000000e0001d0032009e00900018
:1023e000600220000088b900fa004000408120000f
:1023f000008040009000780050002500808f500041
:102400000e003c009e009000600220000088b90091
:10241000fa00400040812000008040001000780059
:10242000500798005e0090000000e00005003d00ad
:102430008000eb0051079800020037005200250091
:10244000520798005e009000000f78001c003700d3
:102450009e009000600220000088b900fa00400051
:10246000408120000080400090007800500025004e
:10247000808f50000e003c009e0090006002200003
:102480000088b900fa004000408120000080400030
:102490001000780040079800ce0090000100e00096
:1024a00005003d000001eb004207980002003700e4
:1024b0005000250040079800ce009000010f7800e2
:1024c0001e019000320798009e00900060022000dc
:1024d0000088b90080007800408120000080400022
:1024e000100078004400de00610060000004a200db
:1024f0000004e0000a003a001e0090008000400046
:1025000020ba200000804000100078009e0f50008c
:10251000030034001000200020079800020037005c
:102520008000eb00210798003e0190003e019000e2
:102530008200410040bb200000804000ae009000bf
:10254000010878001e0090008000400040bb200081
:1025500000804000100078000080fa0000000600b3
:102560000600fa00200798002e009000800040002e
:1025700020ba200000804000900078001000210068
:102580000088b9000000e800cf80de00008fbe00a8
:102590002e0090008000400080ba200000804000a3
:1025a000100078006101b9001e00be00def70700d0
:1025b000008fbe002e0090008000400080ba2000f6
:1025c00000804000100078006101b9001e00be00cc
:1025d000d5f707000081eb008081eb00021f40006f
:1025e000039748001e0078000080fa0000000600f3
:1025f0000200fa00000f78001e0078008000400002
:10260000a0bb200000804000100078000080fa008d
:1026100000000600809fbe000200fa00b05c80004f
:102620000000e0004500320004003700205c80001c
:10263000505c8800000a8000205c880042c1bf0016
:10264000684060000004e000f8ff3a000000eb0082
:10265000b05c8800211420009140780080cfb30046
:1026600000c0600042e1b7002114200091407800d2
:1026700080cfb30000c060000004a00042e1b700ba
:102680000000eb00e05c880030003700e05c800078
:102690000000e00025003200205c8000505c8800d3
:1026a000000a8000205c88000000eb00e05c8800ed
:1026b000215c8000505c8000808f50000500340059
:1026c000205c8000515c800001005000f05b8800bd
:1026d0000600370061088000505c80008080500058
:1026e000205c800000804000f05b8800515c80002e
:1026f000805c8000808f500005003d00805c800081
:10270000515c800001005000c05b88000b00370066
:1027100061088000505c800080805000805c8000f8
:1027200000804000c05b880004003700000a800081
:10273000805c880010002000e05c880042c1bf007f
:10274000684060000004e000d0ff3a00305e800086
:102750000000e00004003400305e80000000e9006a
:10276000305e88001a003700c15b8000105d800079
:1027700000805000005e8800005e8000000f78003e
:102780001e0078000000e00003003d009e0078007d
:102790008100ea00010f7800d0c124009e0078007b
:1027a000808f50000a003400005e80000000e000ce
:1027b00004003d00d05d80000000e800d05d88008e
:1027c00003003700d05d80000000e900d05d880084
:1027d000c05b8000105d8800f05b8000405d880079
:1027e0008420a9000080fa004f00be0000400600cf
:1027f000809fbe000200fa00c05c80000000e00084
:102800004500320004003700305c8000605c8800c6
:10281000200a8000305c880046c1bf00684060002c
:102820000004e000f8ff3a000000eb00c05c880004
:10283000611420009140780080cfb30000c0600098
:1028400046e1b700611420009140780080cfb300ca
:1028500000c060000004a00046e1b7000000eb00eb
:10286000f05c880030003700f05c80000000e00081
:1028700025003200305c8000605c8800200a800007
:10288000305c88000000eb00f05c8800315c800068
:10289000605c8000808f500005003400305c800058
:1028a000615c800001005000005c88000600370079
:1028b00061088000605c800080805000305c800097
:1028c00000804000005c8800615c8000905c8000bb
:1028d000808f500005003d00905c8000615c8000ae
:1028e00001005000d05b88000b00370061088000b9
:1028f000605c800080805000905c80000080400020
:10290000d05b880004003700200a8000905c8800bb
:1029100010002000f05c880046c1bf0068406000e5
:102920000004e000d0ff3a00405e80000000e000bc
:1029300004003400405e80000000e900405e880032
:102940001a003700d15b8000205d800000805000bd
:10295000105e8800105e8000000f78001e00780076
:102960000000e00003003d009e0078008100ea00c6
:10297000010f7800d0c124009e007800808f5000a5
:102980000a003400105e80000000e00004003d00fa
:10299000e05d80000000e800e05d88000300370093
:1029a000e05d80000000e900e05d8800d05b800011
:1029b000205d8800005c8000505d880084a0a90034
:1029c0000080fa004f00be0000400600809fbe005d
:1029d0000200fa00d05c80000000e00045003200f8
:1029e00004003700405c8000705c8800c00a8000f2
:1029f000405c88005ac1bf00684060000004e000ed
:102a0000f8ff3a000000eb00d05c8800a115200020
:102a10009140780080cfb30000c060005ae1b70059
:102a2000a11520009140780080cfb30000c0600065
:102a30000004a0005ae1b7000000eb00005d880030
:102a400030003700005d80000000e000250032000b
:102a5000405c8000705c8800c00a8000405c880098
:102a60000000eb00005d8800415c8000705c80002d
:102a7000808f500005003400405c8000715c800055
:102a800001005000105c88000600370061088000db
:102a9000705c800080805000405c800000804000be
:102aa000105c8800715c8000a05c8000808f50000a
:102ab00005003d00a05c8000715c800001005000ba
:102ac000e05b88000b00370061088000705c8000cc
:102ad00080805000a05c800000804000e05b8800a7
:102ae00004003700c00a8000a05c880010002000ad
:102af000005d88005ac1bf00684060000004e0002b
:102b0000d0ff3a00505e80000000e0000400340076
:102b1000505e80000000e900505e88001a00370017
:102b2000e15b8000305d800000805000205e880006
:102b3000205e8000000f78001e0078000000e0009a
:102b400003003d009e0078008100ea00010f78003c
:102b5000d0c124009e007800808f50000a0034000d
:102b6000205e80000000e00004003d00f05d800079
:102b70000000e800f05d880003003700f05d800091
:102b80000000e900f05d8800e05b8000305d8800b7
:102b9000105c8000605d880086c0a9000080fa009b
:102ba0004f00be00004006000200fa000000eb00eb
:102bb000000f7800550037001e00780080004000ac
:102bc00060b920008080400010002000800878005c
:102bd0001e00780080004000c0b9200080804000c6
:102be0000000eb00800878001e00780080004000a4
:102bf00040b82000808040000000eb008008780092
:102c00001e00780080004000a0b8200080804000b6
:102c10000000eb00800878001e0078008000400073
:102c200000b92000808040000000eb0080087800a0
:102c30001e0078008000400080b7200080804000a7
:102c40000000eb00800878001e0078008000400043
:102c5000e0b72000808040000000eb008008780092
:102c60001e0078008000400020ba200080804000d4
:102c70000000eb00800878001e0078008000400013
:102c800080ba2000808040000000eb0080087800bf
:102c90001e00780080004000e0ba200080804000e4
:102ca0000000eb00800878001e00780080004000e3
:102cb00040bb2000808040000000eb0080087800ce
:102cc0001e0078008000400000bc20008080400092
:102cd0000000eb00800878001e00780080004000b3
:102ce000a0bb2000808040000000eb00800878003e
:102cf0001e0078008000400060bc20008080400002
:102d0000a0002000800878001e0fe80020002000ae
:102d10009e0f1000a8ff34000000eb008008880020
:102d20000000eb003008880001112000914078007d
:102d3000f0ccb30000c060000044a00010e1b70078
:102d4000801a26006008880011e1a80021142000e4
:102d50009140780080cfb30000c0600042e1b7002e
:102d600042e1a8002114200091407800f0c9b3008e
:102d700000c0600042e1b7002114200091407800bb
:102d800080cfb30000c060003040b30042e1b70024
:102d90008420a9009420a8006114200091407800ac
:102da00080cfb30000c0600046e1b70046e1a80054
:102db0006114200091407800f0c9b30000c06000a9
:102dc00046e1b700611420009140780080cfb30045
:102dd00000c060003040b30046e1b70084a0a90005
:102de00094a0a800a11520009140780080cfb300e6
:102df00000c060005ae1b7005ae1a800a115200008
:102e000091407800f0c9b30000c060005ae1b700fb
:102e1000a11520009140780080cfb30000c0600071
:102e20003040b3005ae1b70086c0a90096c0a800a0
:102e30000080fa00000006000200fa00000f78008f
:102e40001e0078008000400080bf2000008040000d
:102e5000100078000080fa00000006000600fa006a
:102e600010079800210798009e0090006002200043
:102e70000088b90080007800408120000080400078
:102e80009000780000022000008f60001e0090007b
:102e9000dffc07000000e0000c0032002e00900074
:102ea0000000e00002003d001e00e00005003a00c6
:102eb0002e0090000000e000040034001e00e0003e
:102ec00002003a000000eb00200798001e0090006e
:102ed00039fd07000000e0000c0032002e009000d9
:102ee0000000e000020034001e00e00005003a008f
:102ef0002e0090000000e00004003d001e00e000f5
:102f000002003a000000eb00200798002e0090001d
:102f10000080fa00000006000800fa00000f7800a8
:102f2000110798001e0090000000e00003003a0026
:102f30000000eb00300798002d0037009e0078005d
:102f4000600220000088b90041022000808040001b
:102f50004081200000804000100078000000e00068
:102f600016003d009e007800600220000088b90035
:102f7000410220008080400040812000008040000d
:102f80001000780020079800ae0090000100e000db
:102f900003003d002e0090000000ea00200798008a
:102fa0001e009000ae009000808f50000e00340094
:102fb0000000eb00100798000b0037009e0078001f
:102fc000600220000088b90041022000808040009b
:102fd0004081200000804000900078001e0090009a
:102fe00001004000100798001e0090003007980074
:102ff0003e0090000080fa00000006000c00fa007d
:1030000010079800210798009e00900060022000a1
:103010000088b900f8004000408120000080400096
:10302000100078000000e000090032009e009000cf
:10303000600220000088b900f800400040812000b4
:1030400000804000100078000000e0000f00340015
:103050009e009000600220000088b900f800400047
:103060004081200000804000100078005007980048
:10307000e0c72000de009000808f50000500340083
:10308000e0c7200050079800020037008000eb00e6
:10309000510798005e009000000f7800e1c7200003
:1030a0002e00900080805000e0c72000808f5000ec
:1030b0000e003c00e1c720002e00900080805000f0
:1030c000e0c720001e00500030079800410798001c
:1030d000ce0090003e009000808f500005003d0023
:1030e000be0090004107980002003700e0c72000b2
:1030f000400798004e0090000080fa000000060093
:103100000a00fa0010079800210798009e0090001e
:10311000600220000088b900f800400040812000d3
:1031200000804000100078000000e000090032003c
:103130009e009000600220000088b900f800400066
:103140004081200000804000100078000000e00076
:103150000f0034009e009000600220000088b9003b
:10316000f8004000408120000080400010007800fe
:1031700040079800e0c72000ce009000808f5000ec
:1031800005003400e0c72000400798000200370027
:103190008000eb00410798004e009000000f78007f
:1031a0002e0090009e0f500008003c00ae009000e2
:1031b000310798003e0090000000e00005003d004f
:1031c0008000eb0031079800020037001e007800f5
:1031d000300798003e0090000080fa0000000600d2
:1031e0001800fa00881f780010079800210798003f
:1031f0001e009000300f98002e0090000000e000ac
:1032000003003d008080eb00210f98000200370092
:1032100012002000220f9800ae019000130f9800ba
:103220001e0890000000e00003003d009e08900092
:103230008100ea00110f98009e00900060022000bb
:103240000088b900f8004000408120000080400064
:1032500010007800000f98001e0990007207980077
:10326000fe0190000e089000808f51000200340093
:103270008e089000710798002e099000fe019000c2
:103280000390b900000178003e0890003e089000cd
:103290008000400080bf20000080400002087800cd
:1032a0002e0090000000e00003003d008080eb0055
:1032b00061079800020037001200200062079800a2
:1032c000ee019000030f7800ae0090001e00900009
:1032d000e2fe0700200798002e009000500798009b
:1032e000de0090000100e00003003d005e01900060
:1032f0000201ea0052079800de0090001e009000d4
:1033000005ff0700200798001e00e0000a003d00ae
:103310001e049000ae0090001e00900037ff0700d2
:103320000001780088004400e0bf200000804000d9
:1033300002087800090037001e049000ae009000db
:103340001e0090006eff0700000178008800440016
:10335000e0bf200000804000020878001e009000be
:103360000000e0000b003a001e00e00002003c00fc
:10337000cde2a80001003700cde2a9001e009000b8
:1033800080004000e0bf2000008040001000780076
:10339000b00e88001e009000e10f50000b003a00b4
:1033a0001e00e00002003c00cda2a8000100370092
:1033b000cda2a9001e00900080004000e0bf2000c8
:1033c0000080400010007800c00e88001e009000b1
:1033d000e20f50000b003a001e00e00002003c002b
:1033e000cd62a80001003700cd62a9001e00900048
:1033f00080004000e0bf2000008040001000780006
:10340000d00e88009e019000430798009e00900017
:10341000600220000088b900f800400040812000d0
:1034200000804000900078002e009000808f5000b7
:1034300009003d009e009000600220000088b90055
:10344000f80040004081200000804000100078001b
:1034500030079800070037002e00900030079800d2
:10346000be0090000100e00002003d000001eb0002
:10347000320798001e007800be0190000098b90045
:10348000000178004e0090004e0090008000400047
:1034900080bf200000804000020878004f047800c0
:1034a0000080fa00000006000200fa000000eb00b5
:1034b000000f78000d0037001e00780080004000eb
:1034c00080bf2000808040000000eb008008780072
:1034d0001e00780080004000e0bf20008080400097
:1034e0000000eb00800878001e0fe800200020009c
:1034f0009e0f1000f0ff3400c1e1a9000000eb00b6
:10350000000e8800c0c1bf006f406000c0e1b7007e
:10351000011c20009140780030cfb30000c0600053
:10352000c0e1b700f0632000200e8800011c2000dd
:1035300091407800c0cfb30000c06000c0e1b70088
:103540000000eb00100e88000000eb00400e880029
:10355000c901a800c881a800c921a800c8a1a80065
:10356000c941a800c8c1a8000000eb00b00e880047
:103570000000eb00c00e88000000eb00d00e8800b9
:103580000000eb00500e8800b11c20009140780034
:1035900000cfb30000c06000cbe1b700310e800067
:1035a0000000280000806000a10f200001007000d2
:1035b000300e88000000eb00800e88008b20a900f0
:1035c000c1e1a8000080fa00000006000000fa0037
:1035d0009400a900d4c2a9008540a90000042000dd
:1035e0004012880085c0bf00644060000004e00015
:1035f000fcff320040128000eaebb7008540a900d2
:10360000200720004012880085c0bf006440600091
:103610000004e000fcff320040128000ebebb7003a
:103620008540a900f00f20004012880085c0bf002f
:10363000644060000004e000fcff320040128000a3
:10364000f6ebb7008540a900d4c2a8009400a800fa
:103650000080fa00000006000000fa00d4c2a900b1
:103660008540a9000000eb004012880085c0bf0023
:10367000644060000004e000fcff32004012800063
:10368000eaebb7008540a900200020004012880026
:1036900085c0bf00644060000004e000fcff320011
:1036a00040128000ebebb7008540a900d4c2a8000f
:1036b0000080fa00000006000600fa0010079800db
:1036c000414798001e009000c300dd004e4090006e
:1036d0000080fb0000807000000f7800d4c2a900b9
:1036e0008540a9001e4090000080fb004012880029
:1036f00085c0bf00644060000004e000fcff3200b1
:1037000040128000eaebb7008540a9001e40780017
:103710000080fb004012880085c0bf00644060004c
:103720000004e000fcff320040128000ebebb70029
:103730008540a9000080fa00000006000800fa0099
:1037400020079800614798002e009000c300dd001c
:103750006e4090000080fb00008070001007980011
:10376000d4c2a9008540a9003e4090000080fb0023
:103770004012880085c0bf00644060000004e00083
:10378000fcff320040128000004f78008540a90005
:103790002e4090000080fb004012880085c0bf00d2
:1037a000644060000004e000fcff32004012800032
:1037b000004f78008540a9000080fa000000060054
:1037c0000a00fa0020079800310798004207980085
:1037d0004e009000100798000040eb00004f78006a
:1037e00021c0b3003e009000d4ff07001300370053
:1037f0001e0090000000e00002003a0000c0eb0054
:10380000004f78008540a9001e80fb004012880010
:1038100085c0bf00644060000004e000fcff32008f
:1038200040128000804078002e009000014878000f
:103830002e0090000000e800200798001e00900075
:103840000000e900100798001e009000e10f400002
:10385000e7ff3a008540a900d4c2a8000080fa0022
:10386000000006000a00fa002007980031079800bf
:10387000420798004e0090001007980041c0b30026
:103880003e009000adff07000e0037008540a90004
:103890002e009000104078000080fb00401288004d
:1038a00085c0bf00644060000004e000fcff3200ff
:1038b00040128000004f78002e0090000000e800c9
:1038c000200798001e0090000000e90010079800f3
:1038d0001e009000e10f4000ecff3a008540a90077
:1038e000d4c2a8000080fa00000006000000fa0020
:1038f00036ff0700d05e80000000e00000003200cc
:10390000eacbbf000080fb00610060000004e00023
:103910000b003200220020000112200080be200097
:1039200009000700a1be200091407800e0ceb3005e
:1039300000c06000eaebb700e8cbbf00a0f80700ca
:103940000080fa00000006000800fa001007980046
:1039500021079800320798003e009000000f780081
:10396000170037009400a90021c0b3002e0090007a
:1039700051ff0700f00f20004012880085c0bf00f3
:10398000644060000004e000fcff32004012800050
:10399000804078001e009000014878001e009000d2
:1039a0000000e800100798009400a800d4c2a80006
:1039b0002e0090000000e800200798008540a90034
:1039c0001e0fe9000080eb009e0f1000e5ff3a009b
:1039d0000080fa00000006000a00fa0020079800a4
:1039e00031079800420798004e0090001007980099
:1039f000180037009400a90041c0b3003e009000b9
:103a00002dff07008540a9002e009000104078008f
:103a10000080fb00401288002e0090000000e800ab
:103a20002007980085c0bf00644060000004e000eb
:103a3000fcff320040128000004f78009400a80084
:103a40003e0090000000e800300798008540a90083
:103a5000d4c2a8001e0090000000e90010079800e2
:103a60001e009000e10f4000e2ff3a000080fa00e3
:103a7000000006000400fa00100798000e0078000d
:103a80002200200041202000afff07009e007800a8
:103a90001e00900000806000000f78009400a900d4
:103aa0001e0078000000e00002003a000040eb0039
:103ab000e6ebb7000e007800220020004120200035
:103ac000c5ff07009400a8000080fa00000006006f
:103ad0000400fa00100798000e0078002200200071
:103ae0004120200098ff07009e0078001e009000f3
:103af00000807000000f78009400a90010c0b3008f
:103b0000e6ebb7000e0078002200200041202000e4
:103b1000b1ff07009400a8000080fa000000060032
:103b20000400fa0020479800314798002e4090008a
:103b30000080fb00000f78000e00780022002000bb
:103b400001132000a4ff07003e409000e14f400019
:103b5000070032003e4090000080fb00000f78001c
:103b60000e00780022002000411320009aff070079
:103b70000080fa00000006000400fa0020479800c8
:103b800010c0b300004f78002e4090000080fb0072
:103b9000c300dd0070802000808040001200200003
:103ba0000e0078008cff07000080fa00000006007d
:103bb0000400fa00204798000040eb00004f780016
:103bc0002e4090000080fb00c300dd0070802000cc
:103bd00080804000120020000e0078007eff070069
:103be0000080fa00000006000200fa00004f780092
:103bf0001e80fb00c300dd000080200080804000ac
:103c0000e0be2000820020004fff0700e0be200041
:103c10000080fa00000006000800fa003007980053
:103c20006000b80010079800210798000000eb0022
:103c3000000f7800100037003e0090009e007800d2
:103c40004300dd000100400080004000009c200097
:103c500000804000100078006101b8001e00900054
:103c6000ae009000000041008180490010079800dc
:103c7000210798001e0fe800700020009e0f100022
:103c8000edff34001e009000ae0090004d09dd00f5
:103c90004300de0000007100c388de000080fa00ef
:103ca000000006000000fa000000eb00e04d880074
:103cb0000000eb00f04d880023c3bf007f40600090
:103cc00023e3b700513220009140780000ceb300ca
:103cd00000c06000a040b30025e3b700113220000f
:103ce00091407800c0cfb30000c0600021e3b7006e
:103cf000013220009140780000ceb30000c0700077
:103d000020e3b7002043a8002143a8002343a800d4
:103d10003132200091407800c0cfb30000c0600075
:103d200023e3b70025e3a90080c2b30024e3b70072
:103d30002183a900213220009140780030ccb300cb
:103d400000c060008041b30022e3b70021332000af
:103d50009140780080cfb30000c060003040b300d5
:103d600032e3b7003003a8003023a8003043a80096
:103d70000080eb00601988002c03a9002c23a90007
:103d800085a0a90095a0a90021e3a8000080fa0061
:103d9000000006000000fa00013820009140780081
:103da000f0ccb30000c0600001c2b300014070005d
:103db00080e3b7000138200091407800c0cfb30005
:103dc00000c060000014a00080e3b70000302000b5
:103dd000401c880070032000501c8800d000200088
:103de000101c880000702000201c8800006020004b
:103df000301c88008480a9009480a80081e3a8007a
:103e00000080fa0000000600809fbe00829fbe0076
:103e10000200fa000000eb00e04d880040608000e6
:103e20000000e00068003a000000eb00000f78009e
:103e300061003700e04d80004300dd001e014000be
:103e40001e007800800040000070220000804000ca
:103e5000100078008001780082004100009c200062
:103e60000080400003087800e04d80004300dd0042
:103e70009e0140001e00780000004000f00040005d
:103e800000702200008040001000780000017800df
:103e900003804100f0004000009c200000804000b2
:103ea00002087800e04d80004300dd009e014000e4
:103eb0001e007800000040000102200080804000c9
:103ec000007022000080400010007800000178009f
:103ed000038041000102200080804000009c2000ff
:103ee0000080400002087800e04d80004300dd00c3
:103ef0009e0140001e0078000000400001032000e9
:103f00008080400000702200008040001000780097
:103f10000001780003804100010320008080400000
:103f2000009c20000080400002087800e04d8000e6
:103f30004300dd009e0140001e00780000004000ac
:103f400001042000808040000070220000804000ba
:103f50001000780000017800038041000104200077
:103f600080804000009c2000008040000208780013
:103f7000e04d80004300dd009e0140001e007800ff
:103f800000004000010620008080400000702200f8
:103f9000008040001000780000017800038041009c
:103fa0000106200080804000009c2000008040002e
:103fb000020878001e0fe800700020009e0f10001d
:103fc0009cff3400670037000000eb00000f780012
:103fd00061003700e04d80004300dd001e0140001d
:103fe0001e00780080004000007022000080400029
:103ff000100078008001780082004100009c2000c1
:104000000080400003087800e04d80004300dd00a0
:104010009e0140001e00780000004000f0004000bb
:10402000007022000080400010007800000178003d
:1040300003804100f0004000009c20000080400010
:1040400002087800e04d80004300dd009e01400042
:104050001e00780000004000010220008080400027
:1040600000702200008040001000780000017800fd
:10407000038041000102200080804000009c20005d
:104080000080400002087800e04d80004300dd0021
:104090009e0140001e007800000040000103200047
:1040a00080804000007022000080400010007800f6
:1040b000000178000380410001032000808040005f
:1040c000009c20000080400002087800e04d800045
:1040d0004300dd009e0140001e007800000040000b
:1040e0000104200080804000007022000080400019
:1040f00010007800000178000380410001042000d6
:1041000080804000009c2000008040000208780071
:10411000e04d80004300dd009e0140001e0078005d
:104120000000400001062000808040000070220056
:1041300000804000100078000001780003804100fa
:104140000106200080804000009c2000008040008c
:10415000020878001e0fe800700020009e0f10007b
:104160009cff3400406080000000a2004060880096
:104170008480a9000080fa004f01be004f00be00fd
:10418000004006000000fa0085a0a9000080fa00a7
:10419000004006000000fa00c3c2bf00614060009a
:1041a0000080fb000080fa00000006000000fa001a
:1041b0000080fa00000006000000fa000080fa000b
:1041c000000006000000fa00fbf707000000eb000b
:1041d0000080fa00000006000000fa000080fa00eb
:1041e000000006000000fa00ebcbbf000080fb00df
:1041f000610060000004e0000b00320010c0b3005a
:10420000ceebb700925e8000015f8000c08d200081
:104210006bfd070040812000c18d20007100090066
:10422000315878002007b1000080fa000000060035
:104230000800fa00140007000e0078008200200039
:10424000019c20005efd07003e00be002e01be0066
:1042500064882000009abe000292be0060882000a0
:104260004195200055000900b05878006005b10064
:10427000825e8000115f80004095200079fd07007c
:104280000080fa00000006000000fa000000eb00c9
:10429000d6f707001045880010002000d3f707006c
:1042a000e04588000000eb00c7f7070000458800e4
:1042b00010002000c4f70700d04588000000eb0084
:1042c000cbf807002045880010002000c8f8070040
:1042d000f045880020002000c4f70700b0468800a1
:1042e00020002000b8f70700a0468800200020002a
:1042f000bff80700c04688000000eb0046fe07003c
:10430000804488002000200043fe070050458800bc
:104310004000200040fe070020468800600020008a
:104320003dfe0700c0448800c044800090458800de
:10433000c044800060468800c044800090448800eb
:10434000c044800060458800c0448000304688003a
:104350001000200030fe0700d0448800300020000c
:104360002dfe0700a0458800500020002afe07000f
:10437000704688000000eb00affa0700f0448800a8
:1043800010002000acfa0700c045880010408000f3
:1043900070448800204080004045880040408000f4
:1043a0000020a00030458800504080000020a00080
:1043b00000468800200020009ffa070090468800f1
:1043c0003040800010468800604080000020a0003f
:1043d000d04688000080fa00000006003600f80091
:1043e000809fbe00829fbe00849fbe00869fbe004d
:1043f0000000fa00d4c2a8008400a90096fc0700bf
:10440000d4cbbf000004e0000a003200cccbbf00d8
:104410000004e0000200320072ff070001003700d4
:104420006dff0700cdcbbf000004e00001003200ab
:104430007fff070010002000004088000080fa0085
:104440004f03be004f02be004f01be004f00be0032
:104450003600f900004006000400fa000040eb00be
:1044600020479800a0052000805e8800800720007b
:10447000905e880060882000620520008000eb00cc
:1044800048f0070040812000220720008000eb0058
:1044900044f00700c08d2000820720008000eb0060
:1044a00040f0070040952000a20520008000eb00ae
:1044b0003cf007000000eb00000f78000d00370013
:1044c0001e00780080004000208020008080400096
:1044d0000000eb00800878001e007800800040009b
:1044e00080802000808040000000eb008008780081
:1044f0001e0fe800200020009e0f1000f0ff340087
:104500000000eb00704088006000b8008040880028
:10451000914088000000eb00004088001600070072
:104520008200a8008220a8008240a800d4c2a8006f
:104530008400a9000e80e800120020000114200071
:1045400001fd07002e409000e54f5000f9ff3a00b2
:10455000120020005100200050bd2000fafc07008e
:104560000000eb0043fd07009400a800faf60700e6
:104570000080fa00000006000000fa008540a90053
:104580009540a9000000eb001012880042a2a8008c
:104590002124200091407800c0cfb30000c060000b
:1045a0000014a00042e2b7002124200091407800ce
:1045b00030ceb30000c060008041b30042e2b700db
:1045c00042c2a8004302a9004322a9004342a90015
:1045d00040c2a90041e2a800d4c2a8000080fa00ad
:1045e000000006000000fa00410a20009140780017
:1045f00080cfb30000c060003040b300a4e0b7003b
:10460000210b200091407800f0c8b30000c060008a
:1046100001c2b30001407000b2e0b700a10a20005f
:1046200091407800f0c8b30000c0600001c5b3003d
:1046300001407000aae0b700810a20009140780094
:1046400080cfb30000c060000024a000a8e0b70045
:10465000410a200091407800f0c8b30000c060001b
:1046600001c3b30001407000a4e0b700610a20005c
:1046700091407800f0c8b30000c0600001c4b300ee
:1046800001407000a6e0b700f10a200091407800d8
:1046900080cfb30000c060000024a000afe0b700ee
:1046a0000080fa00000006000000fa00000a200066
:1046b000303a880044c7bf00f043b20044e7b70077
:1046c000417420009140780000ceb30000c060002b
:1046d0007041b30044e7b70042c7bf000042b200d8
:1046e0000004e000fcff32000080fa000000060039
:1046f0000000fa000000eb00101688000000eb003c
:10470000501688000000eb0090168800c082a900b7
:10471000c102a800c8e2a800c942a800c962a80056
:10472000d062a900d082a800d0c2a900d0e2a9001e
:10473000d102a900d122a800c002a800c022a8006e
:10474000c802a800c822a800c842a800c862a800e1
:10475000d002a800d022a800c882a800c922a800c0
:10476000d042a800c8a2a800c8c2a800c902a800d8
:10477000c942a900c962a900c982a900c9a2a900a9
:10478000c9c2a900c9e2a9000080fa000000060021
:104790000000fa002174200062042000730520004c
:1047a000824878008348780042c7a9002168200029
:1047b0009140780000ceb30000c060004041b300db
:1047c00082e6b700816a20009140780000ceb300f5
:1047d00000c060009041b300a8e6b700616d200002
:1047e0009140780000ceb30000c060009040b3005c
:1047f000d6e6b700716d20009140780000ceb3007e
:1048000000c060000034a000d7e6b700816d200032
:104810009140780000ceb30000c060007040b3004b
:10482000d8e6b700e16820009140780000ceb300e0
:1048300000c060005040b3008ee6b700f168200071
:104840009140780000ceb30000c060006040b3002b
:104850008fe6b700416920009140780000ceb30098
:1048600000c060000034a00094e6b700217420006e
:104870006204200073052000824878008348780095
:1048800042c7a8000080fa00000006000600fa00f7
:10489000200798000000eb00100798000a0037007e
:1048a0000000eb00000f7800010037001e0fe80049
:1048b000700020009e0f1000fcff34001e009000ce
:1048c0000000e800100798009e0090002e00900065
:1048d000808f5000f2ff35000080fa0000000600d3
:1048e0000600fa00200798000000eb00100798006f
:1048f0000a0037000000eb00000f780001003700cd
:104900001e0fe800f0f321009e0f1000fcff3400a2
:104910001e0090000000e800100798009e00900024
:104920002e009000808f5000f2ff35000080fa00ca
:10493000000006000600fa00200798000000eb00c7
:10494000100798000a0037000000eb00000f780005
:10495000010037001e0fe800f03120009e0f10000c
:10496000fcff34001e0090000000e80010079800d3
:104970009e0090002e009000808f5000f2ff3500c6
:104980000080fa00000006000600fa0046ff07005b
:1049900057ff07007eff070012ff07008c0007008b
:1049a000c1fa0700f3f007007ff80700bdfc07001d
:1049b000f8fc07001c00070001003700c482a800b3
:1049c000f4fd07000000e000fcff3200a2fe07003b
:1049d000c482a90003ff070030118000100798006f
:1049e0001e00780012e22400110009000200d80025
:1049f0008000fd008040eb00414798000000e0008f
:104a000002003a0010c0b300404798001e0fe800b3
:104a1000ce4090000104e000010032006f0007006a
:104a2000e8fd0700eeff37000000fa000000eb0091
:104a3000306088000000eb00900888000000eb0068
:104a4000500888002111200091407800f0ccb3007c
:104a500000c060000044a00012e1b700409c2000ac
:104a6000700888008500a90013e1a8009500a8003f
:104a70000080fa00000006003600f800809fbe00ab
:104a8000829fbe00849fbe00869fbe000000fa0089
:104a90008500a900d462a800d462a900cff0070065
:104aa000306080000000e800306088000080fa007c
:104ab0004f03be004f02be004f01be004f00be00bc
:084ac0003600f9000040060079
:020000040000fa
:104ac800080c0000020000000200000000000000c6
:104ad800ae090000f20000000000000000270000fe
:104ae80070000000000000000026000070000000b8
:104af80000000000a00a0000d8000000000000002c
:104b0800780b0000540000000000000000080000be
:104b1800ae010000000000000a0c000002000000c6
:104b280000000000e60b000012000000000000007a
:104b3800cc0b00001a00000000000000f80b000079
:104b48000c00000000000000040c0000040000003d
:084b5800000000000000000055
:020000040000fa
:104b60000000fa000000eb000080fa0000000600e0
:104b70000000fa000000eb000080fa0000000600d0
:104b80000000fa000000eb000080fa0000000600c0
:104b90000000fa000000eb000080fa0000000600b0
:104ba0000000fa000000eb000080fa0000000600a0
:104bb0000000fa000000eb000080fa000000060090
:104bc0000000fa000000eb000080fa000000060080
:104bd0000000fa000080fa00000006000000fa0061
:104be000c2c2bf00704060000004e000020032005a
:104bf000c482a90001003700c482a8000080fa0026
:044c000000000600aa
:00000001FF
