:020000040000fa
:080000000018040000000000dc
:020000040000fa
:10300000efba20000eff20000e0188000000000033
:103010000c000700e06b23000100200011000700f6
:10302000000020000000e00002003200000002006a
:103030000000000032330200000000000040da000f
:103040000000fe004440a900000020000000e00055
:103050000300320000002000a00188004440a800c6
:103060000000060091018800800078000000eb005d
:1030700015003700e280400032a0b4009101ba0090
:10308000e280400032a0b4009102ba00e280400029
:1030900032a0b4000002eb00472bde00f507b200bf
:1030a000602ce10004003a000059eb008301e900c4
:1030b000fdff3e00040037006128e10001003200fe
:1030c0000082eb00040007001101ba000200e000da
:1030d000e8ff3a00000006003159ba008301e90018
:1030e0000c0032002159ba008301e90008003200c7
:1030f0000400e00003003a00e280400032a0b40087
:10310000f5ff370011d9ba008301e900faff3a0050
:103110008100e800e180400032a0b4000000060019
:103120006022b800060220000000d0008180d2009a
:103130000482d2008582d2000000a0000202520068
:1031400083825a00030031000202420083824a0057
:103150000000a1000603e900f3ff3a0000000600aa
:103160008001eb0002003700817178008301e800e4
:10317000828f5100fcff3a00000006006011b80089
:103180000002eb00050220004600dd006182200005
:10319000810040003100780000014100e0814900d9
:1031a0000402e800850f5200faff3a004b1add00d6
:1031b0004510de0000007200c598de000000060029
:1031c0006011b8008000eb006480200034007800bb
:1031d00000014100e08149008100e800f08f5000cb
:1031e000faff3a004c1add004410de0000007200c5
:1031f000c498de00000006000001eb004249880090
:103200003249880021e3a90025c3bf0001ceb300e5
:10321000014060005040b30025e3b70010c0b30088
:1032200024e3b70023c3bf007f40600023e3b7005f
:1032300025e3a90020c3bf007f4060000046b30023
:1032400020e3b70023c3bf00c3cfb3000340600037
:1032500023e3b7002043a8002143a8002223a800ad
:103260002063a9002343a80022c3bf00fdc0500073
:1032700001406000c040b30022e3b7003003a80063
:103280003023a8003043a8003063a80062198800ea
:103290002c03a9002c23a9002c43a9002c63a9000e
:1032a0002c83a8002ca3a8002cc3a8002ce3a80002
:1032b0002d03a80021c3bf000340600021e3b70035
:1032c00021e3a80085a0a90095a0a80000000600a1
:1032d0003600f800809fbe00829fbe00849fbe0023
:1032e000869fbe0085a0a9002243e200150035009c
:1032f000801880005049880090188000604988003c
:10330000a018800070498800b018800080498800ab
:103310000008ec00e40f5000010036000000eb0054
:10332000004088000000e0000f0032004f03be00a4
:103330004f02be004f01be004f00be003600f90034
:1033400000400600001880005049880010188000d6
:10335000604988002018800070498800301880007b
:1033600080498800eaff3700d462a800d462a9002f
:1033700069040700930207000428ec004f03be0015
:103380004f02be004f01be004f00be003600f900e4
:1033900000400600ebff3700620220000281b90006
:1033a00084b320008401410084ab2000040141006b
:1033b0000002400045af200064807a000000e80071
:1033c00000b27a0042039000c601980052039000b8
:1033d000d601980062039000e60198007203900005
:1033e000f60198000213900086119800720b90006d
:1033f000f60998000003eb00810f50004b003500e8
:103400000000eb0000b27a009300900012009000e0
:1034100016002000808f50000e0032000080500007
:103420000082eb00010033001400200004805000f3
:103430009001980001d02700810f500045003c000a
:1034400001302800810f50004200350090019800a3
:103450000003eb00a300900022009000808f50003a
:103460000e003200008050000082eb0001003300ab
:103470001400200004805000a001980001d0270013
:10348000810f50002f003c0001302800810f5000b8
:103490002c003500a00198000003eb00b300900061
:1034a00032009000808f50000e00320000805000eb
:1034b0000082eb0001003300140020000480500063
:1034c000b001980001d02700810f500025003c007a
:1034d00001302800810f500022003500b001980013
:1034e0000003eb009310900012109000808f5000aa
:1034f0000e003200008050000081eb00010033001c
:1035000012002000028050009011980001d0270086
:10351000810f500007003c0001302800810f50004f
:1035200004003500901198000003eb0006007800bd
:103530000000060001007800901198000003eb00e5
:10354000faff370001007800a00198000003eb00ab
:10355000d2ff370001007800900198000003eb00d3
:10356000bcff370001007800b00198000003eb00b9
:10357000dcff3700620220000281b90084b3200022
:103580008401410084ab200004014100000240009e
:1035900045af200064807a000000e80000b27a00a5
:1035a00042039000c601980052039000d601980093
:1035b00062039000e601980062039000f601980013
:1035c000021390008611980072099000f209980089
:1035d0000001eb00810f5000270035000000eb00d8
:1035e00000b27a0013009000120020000000e000fa
:1035f000060032008080eb00010035001100200041
:1036000001005000900198000001eb0023009000a1
:103610000000e000060032008080eb000100350071
:103620001100200001005000a00198000001eb00f3
:10363000330090000000e000060032008080eb00c4
:10364000010035001100200001005000b001980079
:103650000001eb00131090000000e00006003200b3
:103660008080eb00010035001100200001005000b7
:10367000901198000001eb000200780000000600a5
:10368000889fbe00800478006002200000c8b90056
:1036900082b32000000141000004eb0018019800f3
:1036a00028019800380198001811980078019800b6
:1036b0004801980058019800680198000811980086
:1036c000c248dd00c0ae2000008040006011b8009c
:1036d0000288be0000af2000808040008288be00cb
:1036e0004648dd0081af20000100400002042000b8
:1036f000880078009afe070089804400a0ae200070
:103700008830780080ae20008830780040af2000fc
:10371000883078004f04be0000000600870c370098
:10372000ec874700889fbe008a9fbe008c9fbe002a
:103730008e1f780080bf9f0081017800600220000a
:103740000fb997000090b90082b320000201400039
:10375000d2b79f0082ab200002004000c0b79f009c
:10376000100c9000830f54009d003500200890003d
:1037700003047800808f5100a2003500cfb197007c
:10378000930178006280610099003a008a498000c4
:103790000a015400125b88005fb297004400900059
:1037a0000090de00940090000183b900e6b79f000e
:1037b000f7b79f008fbb9700423fdd0000b72000a6
:1037c000000047006fb29700ffb297000488be0068
:1037d00006af200006004700cf91de003002410016
:1037e000a0824900dfb39700770090006101b90023
:1037f000820f5200838f5a0006003c000000ea004e
:10380000cf80de000401be00800f5200818f5a007d
:103810007a003500060047000288be005fb09700be
:1038200020029000cfa2de00500090000000e900ce
:10383000030033008381d1000281d300fbff3700f6
:103840000416b80003a0b9000d0040000591b900ae
:1038500082064000c0b62000000047000c88be0071
:103860000fb997008204410083ae2000698479007b
:10387000c6ae2000060347004512dd0008024200e4
:103880000402420087af200064817b00cf91de00fc
:1038900036001100a68019000001be00a5ae200070
:1038a00069807a000000550000b27b008ab47a007b
:1038b000cf80de0002054000838548000a8bbe00f1
:1038c0000800e800ff0f5000010034000000eb008a
:1038d00081ae200080b478005fb197003200900084
:1038e000cf80de000a02b80001d1b9000501410015
:1038f0000b80b90080024100dfb1970063009000a7
:103900000000e900030033008582d1000482d30067
:10391000fbff370080b62000000047000488be008f
:1039200040b62000000147000009eb00321178008a
:10393000000021004fb39700160060000300320022
:1039400013109000cf80de000089be006fb3970097
:10395000ffb397000600460087804e000400400039
:103960008580480032024000a2824800f45a880054
:10397000055b88000400be00c27d2000030020001b
:10398000c57d2000850f5000e08f580009003c00e5
:10399000f05a8000015b800002812f00f3ff2f00ae
:1039a000820f5000838f580002003500f25a8000c9
:1039b000035b8000f25a8800035b88008200780075
:1039c0000fb89700dd0b07004f0778004f06be00c9
:1039d0004f05be004f04be00cf00b100000006003e
:1039e00080017800930178006280610067ff3200f7
:1039f000f3fd07000005780065ff37000001be00f9
:103a000084ff370000047800cfb197005cff3700d7
:103a1000ee874700889fbe008a9fbe008c9fbe0035
:103a20008e1f780080bf9f00810178006002200017
:103a30000fb997000090b90082b320000201400046
:103a4000d2b79f0082ab200002004000c0b79f00a9
:103a5000100c9000830f5400a1003d000800e0000e
:103a6000a5003500830f5400ad003d008083eb00be
:103a7000b7b79f000300e0000200350010002000ef
:103a8000b0b79f005d0207000005780000015400f8
:103a9000125b8800dfb09700410090000090de00cc
:103aa000910090000182b900e4b79f00f5b79f0034
:103ab0008fba9700422fdd0000b7200000004700ba
:103ac0006fb39700ffb397000688be0006af2000d3
:103ad00006004700cf91de0030024100a08249007d
:103ae000dfb39700770090006101b900820f5200a8
:103af000838f5a0006003c000000ea00cf80de0001
:103b00000401be00800f5200818f5a008f003500e3
:103b1000060047000288be005fb0970020029000b8
:103b2000cfa2de00500090000000e9000300330047
:103b30008381d1000281d300fbff37000416b80057
:103b400003a0b9000d0040000591b90082064000b5
:103b5000c0b62000000047000c88be000fb99700d7
:103b60008204410083ae200069847900c6ae200043
:103b7000060347004512dd0008024200040242002d
:103b800087af200064817b00cf91de0036001100fa
:103b9000a68019000001be00a5ae200069807a0051
:103ba0000000550000b27b008ab47a00cf80de00ae
:103bb00002054000838548000a8bbe000800e8002b
:103bc000ff0f5000010034000000eb0081ae200028
:103bd00080b478005fb1970032009000cf80de00a3
:103be0000a02b80001d1b900050141000b80b900fb
:103bf00080024100dfb19700630090000000e900ff
:103c0000030033008582d1000482d300fbff37001c
:103c100080b62000000047000488be0040b62000a7
:103c2000000147000009eb0032117800000021007c
:103c30004fb397001600600003003200131090008d
:103c4000cf80de000089be006fb39700ffb39700fe
:103c50000600460087804e00040040008580480032
:103c600032024000a2824800f45a8800055b8800b6
:103c70000400be00c27d200003002000c57d20009e
:103c8000850f5000e08f580008003c00f05a80007b
:103c9000015b80006011b800e00f5000e08f580019
:103ca00002003500f25a8000035b8000f25a88005f
:103cb000035b88003fb3970002b0b9008000780032
:103cc0000fb897001d0b07004f0778004f06be0086
:103cd0004f05be004f04be00ef00b100000006001b
:103ce000a008900003007800818f51001300350078
:103cf0000000e0005bff3d00830f5400150035001d
:103d0000cfb29700a508900003007800818f510082
:103d100001003d00010078000004ea0053ff370075
:103d20004fb397002608900003047800808f51005d
:103d30004eff3d00000478004cff37000100780082
:103d40000000e00047ff3d00ebff37000001be0030
:103d50006fff37000804ea0044ff3700881f78002f
:103d60000004eb00b8578800d8598800e85988004b
:103d7000f8598800d85a8800385a8800085a8800ac
:103d8000185a8800285a8800c85a88006000b8006d
:103d900060578800715788008057880091578800c5
:103da000020420008800780080af2000ecfc0700af
:103db0005857880048578800a85788004f04780053
:103dc00000000600889fbe008a1f78007956800098
:103dd000f90fb2004a568000c05580000004b200be
:103de000d70b0700b8578000e20f54006200320082
:103df0003c003400e40f5400d70032006e003d0058
:103e0000a15780008100e800a1578800005680007b
:103e1000005a880010568000105a880020568000f2
:103e2000205a8800305a8800c0568000c05a880046
:103e3000b0568000b05a8800900f2000808f50004c
:103e400023003400f42aef00d05980001100200034
:103e50000000e000060032008080eb000100350029
:103e60001100200001005000d05988008000eb00b4
:103e7000e05980000000e000060032008080eb0086
:103e8000010035001100200001005000e0598800b9
:103e90008000eb00f05980000000e00006003200d6
:103ea0008080eb000100350011002000010050006f
:103eb000f05988008000eb00d05a80000000e0003c
:103ec000b2003a000100e00001003200b057880063
:103ed0006000b800990a07004f0578004f04be0043
:103ee000000006000800e0002a003a008800780080
:103ef00008007800910a0700e18f54009e0032000c
:103f0000e28f540015013200e38f5400f2ff3a00b3
:103f100060002000b0578800d8598800e859880010
:103f2000f8598800d85a8800385a8800085a8800fa
:103f3000185a8800285a8800c85a8800ec2aef00ce
:103f4000ee2aef00f02aef00f22aef000204200030
:103f50008800780080af200081fc07005857880057
:103f600048578800a85788004f0578004f04be00c6
:103f700000000600dbff3700e28f5400180032001b
:103f8000f62aef004f0578004f04be00000006003f
:103f9000d4ff3700e10f5400cdff3a008a007800cb
:103fa0000000eb00650a0700e18f5400caff3200f1
:103fb000f62aef00f3ff3700e60f5400c4ff3a0083
:103fc000e38f5400eeff3a006000b80090fe070057
:103fd0004f0578004f04be0000000600c1ff370007
:103fe000a15780008100e800a1578800005680009a
:103ff000005a880010568000105a88002056800011
:10400000205a880030568000305a8800c056800000
:10401000c05a8800b0568000b05a8800900f200027
:10402000808f500045003400f42aef00d159800001
:10403000d055800012002000808f50000d0032000b
:10404000008050000081eb000100330012002000ce
:104050000280500001d02700810f500067003c0013
:1040600001302800810f500064003500d0598800cd
:104070000001eb00e1598000e0558000808f500086
:104080000d003200008050000081eb000100330081
:10409000120020000280500001d02700810f500044
:1040a00052003c0001302800810f50004f003500c5
:1040b000e05988000001eb00f1598000f0558000c4
:1040c000808f50000d003200008050000081eb0016
:1040d00001003300120020000280500001d02700b0
:1040e000810f50003d003c0001302800810f50003e
:1040f0003a003500f05988000001eb00d15a8000e9
:10410000d0568000808f500029003200008050007f
:104110000081eb00010033001200200002805000fb
:1041200001d02700810f500029003c0001302800f9
:10413000810f500026003500d05a88008a00780090
:104140000000eb0076fd07004f0578004f04be002d
:104150000000060063ff3700e28f54002b0032009e
:1041600030002000b05788004f0578004f04be0093
:10417000000006005bff3700b95788004f05780044
:104180004f04be000000060056ff37008080eb00a1
:104190000000e00001003500110020000100500087
:1041a000d05a88006000b800e40907004aff3700d1
:1041b0000200e000e1ff320040002000b05788001c
:1041c0008a0078000000eb0055fd0700deff370095
:1041d00001007800d05a8800d8ff3700010078002d
:1041e000f05988000001eb00c4ff3700010078009f
:1041f000e05988000001eb00afff370001007800b4
:10420000d05988000001eb009aff3700a1578000c9
:104210008100e800a157880000568000005a8800fd
:1042200010568000105a880020568000205a8800be
:1042300030568000305a8800c0568000c05a88002e
:10424000b0568000b05a8800900f2000808f500038
:10425000baff3400f42aef00d1598000d055800015
:10426000808f50000c003200008050000081eb0075
:1042700001003300120020000280500001d027000e
:10428000810f500032003c0001302800810f5000a7
:104290002f003500d0598800e1598000e05580009a
:1042a000808f50000c003200008050000081eb0035
:1042b00001003300120020000280500001d02700ce
:1042c000810f50001f003c0001302800810f50007a
:1042d0001c003500e0598800f1598000f05580003d
:1042e000808f50000c003200008050000081eb00f5
:1042f00001003300120020000280500001d027008e
:10430000810f50000c003c0001302800810f50004c
:1043100009003500f0598800d15a8000d05680003d
:10432000808f500079ff3a008a0078000000eb008f
:10433000fbfc070084ff370001007800f05988007b
:10434000f5ff370001007800e0598800e2ff3700f0
:1043500001007800d0598800cfff3700b957880096
:10436000d8598800e8598800f8598800d85a880038
:10437000385a8800085a8800185a8800285a880035
:10438000c85a8800ec2aef00ee2aef00f02aef006e
:10439000f22aef00020420008800780080af20009d
:1043a0006ffb07005857880048578800a8578800b7
:1043b000edfe370090498000010220000000e0007f
:1043c00002003200010078000000060000007800c2
:1043d00000000600fdff3700a04980000101200019
:1043e0000000e0000200320001007800000006003a
:1043f0000000780000000600fdff3700f05080004c
:1044000000000600604a8000714a8000000006003b
:10441000804a8000914a800000000600b049800078
:1044200000000600881f78000004eb00c8498800df
:104430006000b800e0498800f1498800804a88009f
:10444000914a8800284a8800d8498800004a880094
:10445000114a8800604a8800714a8800384a8800fa
:104460000204200088007800809d20003cfb0700ab
:1044700002082000880078008095200038fb0700a3
:104480004f04780000000600881f78000004eb004d
:10449000f8508800b0772000e0508800d85088009d
:1044a000a00f2000c0508800b84a8800a84a8800a1
:1044b000c84988006000b800e0498800f1498800d8
:1044c000804a8800914a8800284a8800a8498800c4
:1044d00098498800d8498800004a8800114a880015
:1044e000604a8800714a8800384a8800b8498800c4
:1044f0000204200088007800809d200018fb07003f
:1045000002082000880078008095200014fb070036
:104510004f04780000000600881f7800c05080001b
:10452000f00f500005003c00180ae20003003400c0
:10453000b84980000800e000ae003200180aed0023
:104540008000eb0002003300c15080008100e900d0
:10455000c15088003609e20002003a004f0478009a
:10456000000006001000200004fb07008000780017
:10457000d0508000008050006700b900f0508800e3
:10458000b05780000000e00098003200e50f5000b6
:1045900096003200314a80008100e8000001eb0003
:1045a000700f2000808f500002003c00324a8000d3
:1045b0000201e800324a8800314a80000100e00030
:1045c00035003a003a09ec00ef0f5000ad003c0016
:1045d0003a09ec00d0498800d3498000f0508000af
:1045e000f25080000280b900c219dd00829d2000d7
:1045f000828141008089be004029ef004229ef00fe
:104600000002eb00820278003501be00004a800003
:10461000114a80000200400083804800004a880060
:10462000114a88000402e800f00f5200f6ff3a0039
:10463000004a8000114a80004c09dd004400de0081
:1046400000007100c488de00604a8800714a88005a
:10465000984980000800e0000f003a00624a80009c
:10466000734a800000a4230091d62000800f5100df
:10467000818f590008003400f150800080a9230088
:10468000808f50008e003c00f150800080562c003e
:10469000808f50008a003500214a80008100e800a8
:1046a0000001eb00f0262000808f500002003c004b
:1046b000224a80000201e800224a8800214a800044
:1046c0000100e00024003a003809ec00ff0f500020
:1046d0005c003c003809ec00c0498800c3498000f8
:1046e000f0508000f25080000280b900c219dd0055
:1046f00082952000828141008089be003c29ef0024
:104700003e29ef000002eb00060220008202780042
:104710003501be00e0498000f14980000200400000
:1047200083804800e0498800f14988000402e800dd
:10473000860f5200f6ff3a00e0498000f149800000
:104740004b09dd004500de0000007100c588de0079
:10475000804a8800914a8800a84980000800e0004b
:104760007eff3a00824a8000934a800000e42a00db
:10477000b12e2000800f5100818f590077ff340047
:1047800030002000b049880010002000a0498800b7
:10479000c84988003c29ef003e29ef005029ef006e
:1047a0005229ef00284a8800d84988004029ef00a4
:1047b0004229ef004c29ef004e29ef00384a8800cb
:1047c0000204200088007800809d200064fa070021
:1047d00002082000880078008095200060fa070019
:1047e0004f047800000006005eff37001e2aef002d
:1047f00068ff37000800780060fa07005629b40007
:10480000100020005dfa07005429b400c150800058
:10481000e18f500049ff3a00b04a80004400de00ba
:10482000e0508800a04a80004400de00d05088009c
:10483000d0508000f80f50003a003e00b149880087
:104840003eff370001007800c0498800c34980005e
:10485000f0508000f25080000280b900c219dd00e3
:1048600082952000828141008089be003c29ef00b2
:104870003e29ef000002eb000602200082027800d1
:10488000a3ff370001007800d0498800d349800099
:10489000f0508000f25080000280b900c219dd00a3
:1048a000829d2000828141008089be004029ef0066
:1048b0004229ef000002eb008202780052ff37002d
:1048c00020002000b0498800100020009049880096
:1048d000c84988003c29ef003e29ef005029ef002d
:1048e0005229ef00284a8800d84988004029ef0063
:1048f0004229ef004c29ef004e29ef00384a88008a
:104900000204200088007800809d200014fa07002f
:1049100002082000880078008095200010fa070027
:104920005dff3700b8498800b84a8800a84a880067
:1049300040062000c050880000ff3700000006003d
:10494000c4c2bf004400de00610060000004a20099
:104950004400dd00412c2000914078000144a1007a
:1049600080c0700001007800c4e2b70000000600bb
:10497000c3c2bf006100600000000600b40407006d
:104980000000050000000600990bab0001003a0092
:104990000000060010c0b3008aebb700325c800054
:1049a000c15b8000c0a520004701070080ab20004c
:1049b000c1a520002500090031587800000006003c
:1049c000889fbe0030002000ecf9070030558800b9
:1049d00020002000e9f90700405588000000eb00a6
:1049e000e6f907005055880010002000e3f90700a1
:1049f000605588000000eb004107070070558800f3
:104a0000285780006bfe07008004780072fe0700c4
:104a100009047400000474000820a000b855880040
:104a200076fe07000000e0000600350073fe070078
:104a30000055880030578000105588004f04be0094
:104a4000000006006dfe07000000ea000055880027
:104a500030578000105588004f04be00000006004b
:104a6000f8ff37000800fa00d5ff07008200200099
:104a7000019c200068805700130107004fb8970081
:104a8000dfb897006fb99700ffb99700c05488004e
:104a9000d1548800e2548800f354880001a2200019
:104aa00082a920001f000900b2587800425c8000f3
:104ab000b15b800000a22000310107000080fa00f5
:104ac000000006008540a9009540a9004222ef00a1
:104ad00042a2a80042c2bf00c1cfb30001406000a3
:104ae0000014a00042e2b70042c2bf0031ceb300c2
:104af000014060008041b30042e2b70042c2a8001a
:104b00004302a9004322a9004342a90040c2a900d0
:104b100041e2a800d4c2a800000006000200fa008a
:104b2000881f78000040eb00c0ff9f00c8032000f2
:104b3000485c8800385c8800020220008000eb009e
:104b400080a9200086f90700620220008000eb00a7
:104b500080ab200082f90700080178008000eb009c
:104b6000c0a520007ef90700080178008000eb0056
:104b700000a220007af90700e62aef00e42aef00fd
:104b8000e22aef00de2aef00e02aef008540a900cc
:104b90009540a9004222ef0042a2a80042c2bf00f5
:104ba000c1cfb300014060000014a00042e2b70092
:104bb00042c2bf0031ceb300014060008041b3006b
:104bc00042e2b70042c2a8004302a9004322a90062
:104bd0004342a90040c2a90041e2a800d4c2a800f3
:104be0008200a8008220a8008240a800d4c2a800a9
:104bf0008400a900120020000114200064805700e6
:104c0000050107004ff89700e54f5000f9ff3a0003
:104c1000120020005100200040b82000fe000700d4
:104c20000000eb00c90107009400a800f80307008a
:104c30004f0478000080fa00000006003600f800fb
:104c4000809fbe00829fbe00849fbe00869fbe00e4
:104c50000800fa00d4c2a8008400a9005d00070083
:104c6000854be200040032008c4be20009003a0060
:104c70008b4be20015003a000080fa004f03be00a3
:104c80004f02be004f01be004f00be003600f900cb
:104c900000400600990bab00f5ff320010c0b300d6
:104ca0008aebb700325c8000c15b8000c0a52000a9
:104cb0008500070080ab2000c1a520002500090069
:104cc000315878008b4be200ebff32003cff0700cd
:104cd00082002000019c2000688057007a000700b5
:104ce0004fb89700dfb897006fb99700ffb99700ea
:104cf000c0548800d1548800e2548800f3548800de
:104d000001a2200082a920001f000900b2587800eb
:104d1000425c8000b15b800000a220009800070088
:104d20000080fa004f03be004f02be004f01be00dc
:104d30004f00be003600f90000400600d5ff3700e6
:104d4000000005000000050000000500000005004f
:104d50000000050000000500000005009400a90007
:104d6000d4c2a9008540a900000420004012880098
:104d700085c0bf000028a300fdff32004012800064
:104d800098ebb7008540a90020072000401288005a
:104d900085c0bf000028a300fdff32004012800044
:104da00099ebb7008540a900f00f20004012880061
:104db00085c0bf000028a300fdff32004012800024
:104dc0008eebb7008540a900d4c2a8009400a800cb
:104dd00000000600d4c2a9008540a9004822ef00c7
:104de00085c0bf000028a300fdff320040128000f4
:104df00098ebb7008540a9002000200040128800f1
:104e000085c0bf000028a300fdff320040128000d3
:104e100099ebb7008540a900d4c2a80000000600a5
:104e20004300dd008180fb0081007000d4c2a90036
:104e30008540a9004808de004012880085c0bf00f8
:104e40000028a300fdff32004012800098ebb7005d
:104e50008540a9000180fb004012880085c0bf008a
:104e60000028a300fdff32004012800099ebb7003c
:104e70008540a900000006004300dd008180fb00a2
:104e800081007000d4c2a9008540a9004808de0056
:104e90004012880085c0bf000028a300fdff32003b
:104ea000401280008540a9000180fb00401288006c
:104eb00085c0bf000028a300fdff32004012800023
:104ec0008540a9000000060080017800c308dd00cd
:104ed0000110a000d4c2a9008540a9004808de0046
:104ee0004012880085c0bf000028a300fdff3200eb
:104ef000401280008540a9000180fb00401288001c
:104f000085c0bf000028a300fdff320040128000d2
:104f10008540a9000200e900e10f400011003200c5
:104f2000800078000042eb000081eb000100e0000f
:104f30000f003a0000c2eb00f00f20008540a900ee
:104f40004012880085c0bf000028a300fdff32008a
:104f500040128000805978008100e900810f5100e3
:104f6000f2ff3a008540a900d4c2a8000000060064
:104f70000480fb008540a90040128800f1ff370043
:104f800080017800c308dd000120a000d4c2a90080
:104f90008540a9004808de004012880085c0bf0097
:104fa0000028a300fdff3200401280008540a900c8
:104fb0000180fb004012880085c0bf000028a300cc
:104fc000fdff3200401280008540a9000200e90088
:104fd000e10f40000d003200830078000300400024
:104fe0000001e8008540a9001180fb004012880004
:104ff00085c0bf000028a300fdff320040128000e2
:105000008100e800810f5100f6ff3a008540a900b9
:10501000d4c2a80000000600000278000200e900e7
:10502000e10f40002400320000804000f50f200016
:105030000001e8009400a900c309dd000310a000ee
:10504000d4c2a9008540a9004818de00401288009b
:1050500085c0bf000028a300fdff32004012800081
:1050600098ebb7008540a9000380fb004012880040
:1050700085c0bf000028a300fdff32004012800061
:1050800099ebb7008540a9004512880085c0bf0094
:105090000028a300fdff320040128000005a780073
:1050a0009400a800d4c2a8008100e8008540a900af
:1050b000828f5000dfff3a00000006008002780077
:1050c0000200e000250032000002eb009400a9007d
:1050d000c309dd000320a000d4c2a9008540a900b7
:1050e0004818de004012880085c0bf000028a300d9
:1050f000fdff32004012800098ebb7008540a90008
:105100000380fb004012880085c0bf000028a30078
:10511000fdff32004012800099ebb7008540a900e6
:105120008540a90064c07a000080fb00401288001e
:1051300085c0bf000028a300fdff320040128000a0
:105140009400a8008100e8008540a900d4c2a8000e
:105150000402e800840f5100dcff3a000000060062
:105160009400a900d4c2a9008540a9000004200031
:105170004012880085c0bf000028a300fdff320058
:105180004012800098ebb7008540a900200720005e
:105190004012880085c0bf000028a300fdff320038
:1051a0004012800099ebb7008540a900f00f200065
:1051b0004012880085c0bf000028a300fdff320018
:1051c000401280008eebb7008540a900d4c2a80031
:1051d0009400a800980bab002c00320002122000b3
:1051e000c6a72000f50f2000241220009400a9007b
:1051f000c310dd000110a000d4c2a9008540a900a1
:105200004808de004012880085c0bf000028a300c7
:10521000fdff320040128000804178008540a900e7
:105220000180fb004012880085c0bf000028a30059
:10523000fdff320040128000804078008540a900c8
:105240004512880085c0bf000028a300fdff320082
:105250004012800000717b009400a800d4c2a80016
:105260000201e8008540a900840f5100dfff3a00e9
:105270000100780099ebb700e0ceb30000c06100f8
:1052800098ebb7009ccbbf00fe02070000000600b1
:105290000080fb004300dd0005b9200001802000f4
:1052a0000101400073002000f60f20009400a900c7
:1052b000c310dd000110a000d4c2a9008540a900e0
:1052c0004808de004012880085c0bf000028a30007
:1052d000fdff320040128000004278008540a900a6
:1052e0000180fb004012880085c0bf000028a30099
:1052f000fdff320040128000804078008540a90008
:105300004612880085c0bf000028a300fdff3200c0
:1053100040128000805a78009400a800d4c2a800ef
:105320000201e8008540a9008301e900e18f410006
:10533000deff3a000100780099ebb7000400780026
:1053400098ebb70000b92000000006000200fa0048
:10535000000278008f83e900870178004220200056
:10536000f60f2000652020009400a900c310dd0086
:105370000110a000d4c2a9008540a9004808de00a1
:105380004012880085c0bf000028a300fdff320046
:105390004012800098ebb7008540a9000180fb0017
:1053a0004012880085c0bf000028a300fdff320026
:1053b0004012800099ebb7008540a9004612880092
:1053c00085c0bf000028a300fdff3200401280000e
:1053d000805978009400a800d4c2a8000201e80017
:1053e0008540a900850f5100dfff3a00ffb8970004
:1053f00001006200f0bf9f009400a900422020003d
:105400000000e00001003a009eebb7009400a90004
:10541000c310dd000120a000d4c2a9008540a9006e
:105420004808de004012880085c0bf000028a300a5
:10543000fdff32004012800098ebb7008540a900c4
:105440000180fb004012880085c0bf000028a30037
:10545000fdff32004012800099ebb7008540a900a3
:105460008540a9003780fb004012880085c0bf003e
:105470000028a300fdff3200401280009400a80025
:105480000201e8008540a900d4c2a80060202000e5
:10549000800f5100ddff3a009400a8000080fa0060
:1054a000000006000200fa00000278008f83e90085
:1054b0008701780042202000f60f200065202000a0
:1054c0009400a900c310dd000110a000d4c2a900ff
:1054d0008540a9004808de004012880085c0bf0052
:1054e0000028a300fdff32004012800098ebb700b7
:1054f0008540a9000180fb004012880085c0bf00e4
:105500000028a300fdff32004012800099ebb70095
:105510008540a9004612880085c0bf000028a3006e
:10552000fdff320040128000805978009400a800ee
:10553000d4c2a8000201e8008540a900850f5100ef
:10554000dfff3a007fb8970000007200f0bf9f00b5
:105550009400a90010c0b3009eebb70042202000c9
:10556000632020009400a900c310dd000120a000ea
:10557000d4c2a9008540a9004808de004012880076
:1055800085c0bf000028a300fdff3200401280004c
:1055900098ebb7008540a9000180fb00401288000d
:1055a00085c0bf000028a300fdff3200401280002c
:1055b00099ebb7008540a9008540a9003780fb0022
:1055c0004012880085c0bf000028a300fdff320004
:1055d000401280009400a8000201e8008540a90064
:1055e000d4c2a800830f5100deff3a009400a80047
:1055f0000080fa00000006000200fa000080fb00b4
:10560000f0bf9f000f83e90006027800031320001b
:10561000251320009400a9004319dd000220a000fa
:10562000d4c2a9008540a9004810de0040128800bd
:1056300085c0bf000028a300fdff3200401280009b
:1056400098ebb7008540a9000280fb00401288005b
:1056500085c0bf000028a300fdff3200401280007b
:1056600099ebb7008540a9008540a9003480fb0074
:105670004012880085c0bf000028a300fdff320053
:10568000401280009400a8008301e8008540a90032
:10569000d4c2a800858f5100deff3a00e1cf400060
:1056a000260032000180fb00f0bf9f004213200063
:1056b000631320009400a900c310dd000120a000a6
:1056c000d4c2a9008540a9004808de004012880025
:1056d00085c0bf000028a300fdff320040128000fb
:1056e00098ebb7008540a9000180fb0040128800bc
:1056f00085c0bf000028a300fdff320040128000db
:1057000099ebb7008540a9008540a9003680fb00d1
:105710004012880085c0bf000028a300fdff3200b2
:10572000401280009400a8000201e8008540a90012
:10573000d4c2a800830f5100deff3a000080fa00b7
:10574000000006009400a9000080fb004300dd007b
:105750007180200001004000c300dd000120a00096
:10576000d4c2a9008540a9004808de004012880084
:1057700085c0bf000028a300fdff3200401280005a
:1057800098ebb7008540a9000180fb00401288001b
:1057900085c0bf000028a300fdff3200401280003a
:1057a00099ebb7008540a9008540a90010002000b2
:1057b0004012880085c0bf000028a300fdff320012
:1057c000401280009400a8008540a900d4c2a8001f
:1057d000000006009400a9000080fb004300dd00eb
:1057e0007180200001004000c300dd000120a00006
:1057f000d4c2a9008540a9004808de0040128800f4
:1058000085c0bf000028a300fdff320040128000c9
:1058100098ebb7008540a9000180fb00401288008a
:1058200085c0bf000028a300fdff320040128000a9
:1058300099ebb7008540a9008540a9004822ef00f8
:1058400085c0bf000028a300fdff32004012800089
:105850009400a8008540a900d4c2a800000006005a
:10586000010178000004e00006003200e14f500022
:105870001900320061409000d00fb2005100320098
:105880003000050061409000d00fb2000c003200e3
:10589000e10f5000faff3a0091009000305c800068
:1058a000808f5000f6ff3a00424090008081fb005c
:1058b0006d806100e40f50001000320040000500d0
:1058c000110090000000e000edff3a00860be200be
:1058d000ebff3a000000050061409000d00fb200dd
:1058e0000e003a00110090000000e000e4ff3a00d2
:1058f000880be200e2ff3a000000050020b820001b
:1059000021c0b30090cf10001d003200c05b8000aa
:10591000920f10002100320020000500e10f50001e
:10592000d7ff3a0011029000405c8000800f5200c7
:10593000d3ff3a00414090008081fb006d80610000
:10594000deff3a0020b8200021c0b30090cf100045
:1059500024003200b05b8000920f1000eeff3a008e
:105960000400e000dbff3200d302b200000220009e
:10597000808f510010003200856bef0000000500a1
:1059800092007800f0ff2000808f5000e2ff360088
:1059900000002200808f5000dfff3e0003007800ef
:1059a0000004b2000b00320010c0b3007bebb70064
:1059b000880be200c7ff3a0010c0b30085ebb700c8
:1059c00000000500110090000000e000c1ff32005f
:1059d000300005007bebb700880be200f6ff3200d9
:1059e000bcff370092007800f0ff2000808f50004d
:1059f000c9ff360000002200808f5000d8ff36001b
:105a0000200005000040eb0021fe07001000780098
:105a1000c05b880010c0b3001dfe070010017800b5
:105a2000b25b8800c35b8000305c80006300b9001b
:105a300000804100800f510005003100405c800073
:105a400000004100d1012000808f51000700390083
:105a5000880be20007003a00860be2000e003a00d5
:105a60000000eb008ffe07008000eb0001007800d3
:105a70000000060010c0b30056ff0700b3fc07008b
:105a80000004e0000a003a0010c0b3008bebb7003e
:105a9000860be200f2ff32000040eb004dff0700f2
:105aa0000000eb007ffe07008000eb00efff3700f7
:105ab0008080fb000100780000000600edff370049
:105ac0000400fa0022002000014020000f80e900bd
:105ad00051fd07007fb897000000e000020032008f
:105ae0007b4be20012003a000000eb00e0bf9f0099
:105af0007e2bef007b4be2001c003a00860be2009d
:105b00001e003a0010c0b3008cebb700744be200eb
:105b100004003a00854be20002003200860be200ee
:105b20001d003a000000eb000080fa0000000600b3
:105b300022002000014220006480570036fd07004b
:105b4000efb897000100e000eaff32007fb897004d
:105b50000008b800821a26000300200070f5070034
:105b6000f05b88007b4be200e4ff3a00f00120008c
:105b70000080fa0000000600edff370075fc07000a
:105b80000004e000dfff32000080fb000080fa002c
:105b900000000600e6ff37000010200041fe07006d
:105ba0000000eb000080fa0000000600e0ff370074
:105bb000f0ef2f00e5fd07008a6bef008c6bef0024
:105bc0000000eb00860be20001003a000000060036
:105bd00061fc07000080fb00000006000040eb00b5
:105be000d8fe070030cf2f00d8fd07000040eb00a3
:105bf00085ebb70074ebb7008bebb70010c0b300b8
:105c0000d0fe070052fc07000080fb0000000600e9
:105c10008040eb008000fd007bebb70081ebb7001c
:105c200080ebb7008aebb7008cebb7008000fd007b
:105c30008000fd008bebb70074ebb70085ebb7007d
:105c40008000fd0010c0b30082ebb7006afe370091
:105c500043fd3700889fbe008a9fbe008c1f7800de
:105c6000804578000000eb000b04e0002f003200bc
:105c700019c0b3000044eb000845780009467800dd
:105c80000940780082fd0700000178000904e00067
:105c90001a003200e1cf540044003200604090000e
:105ca000d00fb20003003a00120090000000e000a4
:105cb000030032000a04e00001003a007dc5440000
:105cc0000844e80088cf55001700320019c0b3001f
:105cd0000804e000eaff32008044eb00e14f54008a
:105ce000e7ff3200884478000940780068fd07002b
:105cf000000178000904e000e6ff3a0060409000ef
:105d0000d00fb2000d003a00120090000000e00039
:105d1000e8ff3a00860be200e6ff3a000844e8009c
:105d200088cf5500e9ff3a000a80fb004f06780053
:105d30004f05be004f04be0000000600e10f5000fa
:105d4000dcff3a0092009000305c8000808f5000b1
:105d5000d8ff3a00424090008080fb006d806000d8
:105d6000e40f5000d3ff3a0020b8200023c0b30056
:105d700090cf11002f003200c05b8000920f100006
:105d8000ccff3a00010078000004b2003900320074
:105d90000c0078007bebb700880be200c8ff3a00ec
:105da0000c00780085ebb700c5ff3700604090001d
:105db000d00fb20019003200e10f5000bdff3a00d1
:105dc00092009000405c8000808f5000b9ff3a0044
:105dd000424090008081fb006d806100b5ff3a0079
:105de00020b8200024c0b300904f120019003200e8
:105df000b05b8000920f1000aeff3a000100e0009f
:105e0000afff3200d302b20000022000808f5100a9
:105e1000e3ff3200856bef00a9ff3700120090000e
:105e20000000e000a3ff3a00880be200a1ff3a0067
:105e3000a3ff370012017800f0ff2000800f51000f
:105e40009cff360000002200800f5100cdff36007d
:105e500098ff370012017800f0ff2000800f5100fa
:105e600094ff360000002200800f5100e3ff36004f
:105e700090ff37007bebb700880be20090ff3a0001
:105e8000c7ff3700889fbe008a9fbe008c9fbe0060
:105e90008e1f7800804178008080fb000148a300bd
:105ea0005700320022b82000124178000244a100bd
:105eb0000200780082ebb700efc561004410dd00fe
:105ec00080c44500090078007aebb70080c4b300b5
:105ed00080cf54002a0032005800360040c8b3007a
:105ee00080cf5400260032006440400080cf540030
:105ef000230032000980fb000100200071005000e7
:105f0000e080580072072000820f5000e08f580098
:105f10005800360028c1b30022b820001241780092
:105f20008b80fb006f006100808f50002b003200df
:105f30000804e000170132000200780081ebb7008e
:105f40000244a0000200780082ebb7000240780013
:105f500088407800a8fd0700806bef004f077800ad
:105f60004f06be004f05be004f04be0000000600f5
:105f700075fb0700004478000004e00008003a00c8
:105f80004db820009d4678000000eb000d04e000b5
:105f9000b1003a00004478000004e000d5ff320070
:105fa00082cbbf00e44f500039013200e84f50006f
:105fb00031013200e24f500045013200e14f440010
:105fc000e6ff320022b82000124178008b80fb00ef
:105fd0006f006100808f5000d5ff3a008040eb00d9
:105fe0000240780084fd07004f0778004f06be008e
:105ff0004f05be004f04be0000000600dcff370066
:1060000022b82000124178000280fb000048a30063
:10601000a9ff3200ef8060006f006000808f5000a9
:10602000a5ff34004f0778004f06be004f05be00a5
:106030004f04be0000000600cdff370040c2b30091
:1060400080cf5400caff320040c4b30080cf540058
:10605000cbff32000980fb000100200071005000de
:10606000e080580072072000820f5000e08f580037
:10607000a8ff3e00006001003d0137004d013700e0
:106080005001370047013700a2ff3700a1ff37005a
:10609000a0ff3700430137009eff37009dff370008
:1060a0009cff37009bff37009aff370099ff3700ae
:1060b00098ff370097ff37003e0137002c0137006b
:1060c000380137004601370092ff370091ff370053
:1060d00090ff3700330137008eff37008dff370008
:1060e0008cff37008bff37008aff370089ff3700ae
:1060f00088ff370087ff370086ff370085ff3700ae
:1061000084ff370083ff370082ff370081ff3700ad
:1061100080ff37007fff37007eff37007dff3700ad
:106120007cff37007bff37007aff370079ff3700ad
:1061300078ff370077ff3700f7003700f6003700a9
:10614000180137000a01370072ff370071ff37006e
:1061500070ff37001f0137006eff37006dff3700fb
:106160006cff37006bff37006aff370069ff3700ad
:1061700068ff370067ff370066ff370065ff3700ad
:1061800064ff370063ff370062ff370061ff3700ad
:1061900060ff37005fff37005eff37005dff3700ad
:1061a0005cff37005bff37005aff370059ff3700ad
:1061b00058ff370057ff370056ff370055ff3700ad
:1061c00054ff370053ff370052ff370051ff3700ad
:1061d00050ff37004fff37004eff37004dff3700ad
:1061e0004cff37004bff37004aff370049ff3700ad
:1061f00048ff370047ff370046ff370045ff3700ad
:1062000044ff370043ff370042ff370041ff3700ac
:1062100040ff37003fff37003eff37003dff3700ac
:106220003cff37003bff37003aff370039ff3700ac
:1062300038ff370037ff3700ab003700aa003700c0
:10624000d8003700ce00370032ff370031ff37006b
:1062500030ff3700c60037001ac0b3000044eb001f
:10626000084678000a4778000a40780008fc0700d2
:10627000000178000a04e0001a003200e14f5500e6
:106280005400320060409000d00fb20003003a008a
:10629000120090000000e000030032000c04e00057
:1062a00001003a007d4645000844e80088cf5600ca
:1062b000170032001ac0b3000804e000eaff320001
:1062c0000045eb00e14f5400e7ff3200084578003d
:1062d0000a407800eefb0700000178000a04e000a5
:1062e000e6ff3a0060409000d00fb2000d003a0087
:1062f000120090000000e000e8ff3a00860be20088
:10630000e6ff3a000844e80088cf5600e9ff3a006b
:106310000c80fb00004478000004e00020ff3a00fd
:10632000f4fe3700e10f5000dcff3a0092009000cd
:10633000305c8000808f5000d8ff3a0042409000cf
:106340008080fb006d806000e40f5000d3ff3a00b6
:1063500020b8200023c0b30090cf1100ad00320060
:10636000c05b8000920f1000ccff3a000100780063
:106370000004b200b70032000e0078007bebb700db
:10638000880be200c8ff3a000e00780085ebb700ea
:10639000c5ff370008b82000184478000804e00062
:1063a00028003a0013b8200093417800035ce10014
:1063b00065003e0000c4eb000b00780082ebb700e4
:1063c0000b407800884078008bfc0700806bef0062
:1063d000e2fe370060409000d00fb2002000320093
:1063e000e10f5000adff3a0092009000405c800049
:1063f000808f5000a9ff3a00424090008081fb004e
:106400006d806100a5ff3a0020b8200024c0b300d1
:10641000904f120087003200b05b8000920f100096
:106420009eff3a000100e0009fff3200d302b2005d
:1064300000022000808f5100d3ff3200856bef00f7
:1064400099ff37000b00780081ebb7000b44a000e8
:106450000b00780082ebb7000b407800d9ff3700c3
:10646000120090000000e0008cff3a00880be20070
:106470008aff3a008cff3700f0ef2f00b3fb0700d4
:106480008a6bef008c6bef00860be20057003a003e
:10649000fd4f5400320032000040eb00a9fc070021
:1064a00030cf2f00a9fb0700856bef00746bef0066
:1064b0008b6bef0010c0b300a2fc070024fa0700aa
:1064c00022c0b3000001fd0082ebb7000001fd0017
:1064d000f64f54004b00320022c0b3000200780097
:1064e00082ebb700b5fe3700f0ef2f0097fb0700f7
:1064f0008a6bef008c6bef000000eb00860be20074
:106500000200320014fa07000080fb00004478000b
:106510000004e000a9fe3a000040eb0089fc0700ff
:1065200030cf2f0089fb0700856bef00746bef0005
:106530008b6bef0010c0b30082fc070004fa070069
:10654000004478009dfe37000800780081ebb7001a
:106550000b00780082ebb7000b40780099ff370002
:1065600042c0b3000200780082ebb7006cfe370037
:10657000e8cfb30022b820001241780068fe37004f
:10658000f0ef2f0071fb07008a6bef008c6bef00c0
:106590000000eb00860be20016003a000044780091
:1065a00086fe370018c1b30022b8200012417800df
:1065b0005bfe37000044eb0022b820001241780057
:1065c00057fe370038c1b30022b8200012417800ce
:1065d00053fe37003afd07000044780077fe37008d
:1065e00008fd07000044780074fe3700daf9070060
:1065f000a7ff3700d8f907000080fb0000447800af
:106600006efe370012c0b3000200780082ebb700c4
:1066100043fe370012017800f0ff2000800f510088
:106620001eff360000002200800f51004fff360091
:106630001aff370012017800f0ff2000800f510090
:1066400016ff360000002200800f510075ff360053
:1066500012ff37007bebb700880be20012ff3a0015
:1066600049ff3700889fbe00430107004f01070024
:10667000730107002c010700b0f807006d00070048
:10668000b6f50700dcf207007ff70700b901070045
:10669000b7f807000000e00004003a00c482a80038
:1066a000b3f807000000e000fcff32001bf9070010
:1066b000c482a9001c0107000004eb0019e22400b9
:1066c000110009000904d8008000fd000804e8005a
:1066d0000000e00007003200a8f8070011000900e0
:1066e0000904d8008000fd000804e8000000e00074
:1066f000f9ff3a0092f80700a0f80700f7ff37000b
:106700000000400061ba20006080780000000600b0
:106710000001be000100e0000d0032006002200018
:106720000090b9004002b00082ab20006000790008
:106730000000e00003003500808141000300780084
:10674000000006000000ea00808f5100fbff3d00c2
:106750000000200000000600faff3700000178006a
:10676000600220000091b9007801410080ab200058
:106770006200780053002000e40f50000400340051
:1067800080017800c07d2000808f51000b003c000c
:10679000c27d200001005100717d2000810f50005a
:1067a0000c003c0083005100810f500001003500b7
:1067b000000006000100780000000600800178005b
:1067c000c27d200001005100717d2000810f50002a
:1067d000f4ff34000100780000000600000178009a
:1067e000600220000091b9007801410080ab2000d8
:1067f0006201780050002000e40f510004003400d2
:1068000002007800c27d2000820f500007003c008b
:10681000810f50000300350001007800e58f500023
:10682000010035000000060050000500020078005d
:10683000f7ff37000001eb00325d8800225d880021
:10684000c1e1a900020e8800c0c1bf006f40600016
:10685000c0e1b700c0c1bf0031cfb300014060004c
:10686000c0e1b700303f2000200e8800c0c1bf004b
:10687000c1cfb30001406000c0e1b700120e880034
:10688000420e8800c901a900c921a900c941a90077
:10689000c881a800c801a800c8a1a800c821a800f4
:1068a000520e8800cbc1bf0001cfb3000140600091
:1068b000cbe1b700ca41a800300e800001002800db
:1068c00001006000a000b300300e8800620e880056
:1068d000ccc1bf0001ccb300014060006040b300f8
:1068e000cce1b700cdc1bf00014060006040b30003
:1068f000cde1b700720e8800ce21a900ce01a8001c
:10690000ce61a900ce41a800b20e8800c20e880058
:10691000cea1a900ce81a800d20e8800ca21a9006c
:10692000820e88008b20a9009b20a900c1e1a8004d
:10693000000006008b20a90000400600889fbe00d2
:106940008a1f78008004780001047800b3f60700fd
:10695000e10f5000440032001a0020000004eb0058
:1069600016002000080178000802780088027800ec
:10697000c87d200083ab20006002200000c8b90061
:1069800078004000e08179008983440003007800aa
:10699000828f5100010034000200780000b0b9007d
:1069a00062ba200080337900545d880005f0a100b0
:1069b000300e80000100280001006000050070001a
:1069c000300e880051002000e48f51000400340094
:1069d00083007800c07d2000808f510020003c00a3
:1069e000707d2000800f540010003c00c07d20000e
:1069f0000100500088007800800f54000b00350023
:106a000040ba2000813378000a00e0000c00350015
:106a1000205d8000b00e880080302000a00e88002d
:106a20004f0578004f04be0000000600800078008b
:106a300040ba2000813378000a00e000f4ff3d00f6
:106a400020c02000a00e8800205d8000c00e8800bd
:106a50004f0578004f04be0000000600f3ff37002a
:106a600080007800deff37000800e00014003500e9
:106a700000057800baff32006002200000c8b900ab
:106a80004002b00083ab2000608079000000e0008d
:106a90001d003500000444000800e0000c00350033
:106aa000080178001100350008027800c2c2de003b
:106ab000c07d20000804500016002000aeff370003
:106ac0000804ea000085eb00ebff3a00a4ff370062
:106ad0000801ea0008027800c2c2de00c07d200082
:106ae000080450000083eb00a3ff37000801ea0010
:106af00008027800c2c2de00c07d200008045000f9
:106b0000160020009cff37000000ea00800f5400b0
:106b1000e1ff3d000004eb00080178000800e00000
:106b2000e1ff3d00f1ff37008500a9009500a900b5
:106b3000a4c0bf0081cfb300014060003040b3006b
:106b4000a4e0b700b2c0bf00f1c8b30001406000cc
:106b50000054a000b2e0b70000c7b300aa60b700bd
:106b60008460a900a5c0bf00014060000043b300dd
:106b7000a5e0b70000000600000a2000303a8800b7
:106b800044c7bf00f043b20044e7b70044c7bf00aa
:106b90000034a1007041b30044e7b70042c7bf0012
:106ba0000058a300fdff3200000006000000eb00cb
:106bb000101688005016880090168800c082a90020
:106bc000c102a800c8e2a800c942a800c962a80082
:106bd000d062a900d082a800d0c2a900d0e2a9004a
:106be000d102a900d122a800c002a800c022a8009a
:106bf000c802a800c822a800c842a800c8a2a800cd
:106c0000d042a900d002a900c8c2a800c862a90049
:106c1000d022a900c882a800c922a800c902a800e1
:106c2000c942a900c962a900c982a900c9a2a900d4
:106c3000c9c2a900c9e2a900d002a900000006004b
:106c4000217420006204200073052000824878002f
:106c50008348780042c7a90082c6bf0001ceb300b6
:106c6000014060004041b30082e6b700a8c6bf0003
:106c7000014060009041b300a8e6b700d6c6bf004f
:106c8000014060009040b300d6e6b700d7c6bf0011
:106c9000014060000034a000d7e6b700d8c6bf00ae
:106ca000014060007040b300d8e6b70021742000b6
:106cb0006204200073052000824878008348780031
:106cc00042c7a800000006000000e00007003400f2
:106cd0000001eb00810020008100e900feff3a0086
:106ce0000201e800820f5000faff3a00000006009f
:106cf0000000e000070034000001eb0001f4210077
:106d00008100e900feff3a000201e800820f500016
:106d1000faff3a00000006000000e000070034001f
:106d20000001eb00013220008100e900feff3a0083
:106d30000201e800820f5000faff3a00000006004e
:106d40000000e00002003200ac0be2000200320062
:106d5000d402a90000000600d402a800000006002a
:106d600010002000605d880000000600ac2bef00e2
:0c6d700000000600ac2bef000000060045
:020000040000fa
:0200000401f009
:04000800ffff0000f6
:020000040000fa
:0200000401f009
:04000c00fbff0000f6
:020000040000fa
:0200000401f009
:040010009cff000051
:020000040000fa
:0200000401f009
:040014007fff00006a
:020000040000fa
:0200000401f009
:04001800e8ff0000fd
:020000040000fa
:0200000401f009
:04001c00deff000003
:020000040000fa
:1000080008370000083700000837000008370000ec
:1000180008370000083700000837000008370000dc
:100028001e260000083700000837000008370000c7
:1000380008370000083700000837000008370000bc
:1000480008370000083700000837000008370000ac
:10005800083700006819000008370000083700005a
:10006800083700000837000008370000083700008c
:10007800083700000837000008370000083700007c
:10008800083700000837000008370000083700006c
:10009800083700000837000008370000083700005c
:1000a800083700000837000008370000083700004c
:1000b800083700000837000008370000083700003c
:1000c800083700000837000008370000083700002c
:1000d800083700000837000008370000083700001c
:1000e800083700000837000008370000083700000c
:1000f80008370000083700000837000008370000fc
:10010800083700009a34000008370000083700005c
:1001180008370000083700000837000008370000db
:1001280008370000083700000837000008370000cb
:1001380008370000083700000837000008370000bb
:1001480008370000083700000837000008370000ab
:10015800083700000837000008370000083700009b
:10016800083700000837000008370000083700008b
:10017800083700000837000008370000083700007b
:10018800083700000837000008370000083700006b
:10019800083700000837000008370000083700005b
:1001a800083700000837000008370000083700004b
:1001b800083700000837000008370000083700003b
:1001c800083700000837000008370000083700002b
:1001d800083700000837000008370000083700001b
:1001e800083700000837000008370000083700000b
:0801f800083700000837000081
:020000040000fa
:1002080008370000083700000837000008370000ea
:1002180008370000083700000837000008370000da
:100228001e260000083700000837000008370000c5
:1002380008370000083700000837000008370000ba
:1002480008370000083700000837000008370000aa
:100258000837000068190000083700000837000058
:10026800083700000837000008370000083700008a
:10027800083700000837000008370000083700007a
:10028800083700000837000008370000083700006a
:10029800083700000837000008370000083700005a
:1002a800083700000837000008370000083700004a
:1002b800083700000837000008370000083700003a
:1002c800083700000837000008370000083700002a
:1002d800083700000837000008370000083700001a
:1002e800083700000837000008370000083700000a
:1002f80008370000083700000837000008370000fa
:10030800083700009a34000008370000083700005a
:1003180008370000083700000837000008370000d9
:1003280008370000083700000837000008370000c9
:1003380008370000083700000837000008370000b9
:1003480008370000083700000837000008370000a9
:100358000837000008370000083700000837000099
:100368000837000008370000083700000837000089
:100378000837000008370000083700000837000079
:100388000837000008370000083700000837000069
:100398000837000008370000083700000837000059
:1003a8000837000008370000083700000837000049
:1003b8000837000008370000083700000837000039
:1003c8000837000008370000083700000837000029
:1003d8000837000008370000083700000837000019
:1003e8000837000008370000083700000837000009
:0803f80008370000083700007f
:020000040000fa
:106d7c00a00b000004000000020000000000000056
:106d8c0000000000000800003201000000000000bc
:106d9c00e80a00008c00000000000000320900002e
:106dac00ee00000000000000200a0000c8000000f7
:106dbc0000000000a80b0000020000000000000012
:106dcc008e0b00001200000000000000740b00008d
:106ddc001a00000000000000aa0b000002000000d6
:106dec000200000000000000a40b000004000000e2
:106dfc0000000000ac0b00000200000000000000ce
:046e0c000000000082
:020000040000fa
:086e10000040da000000fe0062
:00000001FF
