:020000040000fa
:080000000002040000000000f2
:020000040000fa
:100400000fa720000e7f22000e01880000000000d0
:100410000c000700a00824000100200011000700c4
:10042000000020000000e000020032000000020096
:1004300000000000f0400200000000000040da0070
:100440000000fe004440a900000020000000e00081
:100450000300320000002000a00188004440a800f2
:100460000000060091018800800078000000eb0089
:1004700015003700e280400032a0b4009101ba00bc
:10048000e280400032a0b4009102ba00e280400055
:1004900032a0b4000002eb00472bde00f507b200eb
:1004a000602ce10004003a000059eb008301e900f0
:1004b000fdff3e00040037006128e100010032002a
:1004c0000082eb00040007001101ba000200e00006
:1004d000e8ff3a00000006003159ba008301e90044
:1004e0000c0032002159ba008301e90008003200f3
:1004f0000400e00003003a00e280400032a0b400b3
:10050000f5ff370011d9ba008301e900faff3a007c
:100510008100e800e180400032a0b4000000060045
:100520000040da000000fe006022b8000602200051
:100530000000d0008180d2000482d2008582d200e7
:100540000000a0000202520083825a000300310022
:100550000202420083824a000000a1000603e90073
:10056000f3ff3a00000006008001eb0002003700b4
:10057000817178008301e800828f5100fcff3a000e
:040580000000060071
:020000040000fa
:0200000401f009
:04000800ffff0000f6
:020000040000fa
:0200000401f009
:04000c00fbff0000f6
:020000040000fa
:0200000401f009
:040010009cff000051
:020000040000fa
:0200000401f009
:040014007fff00006a
:020000040000fa
:0200000401f009
:04001800e8ff0000fd
:020000040000fa
:0200000401f009
:04001c00deff000003
:020000040000fa
:1000080090020000900200009002000090020000a0
:100018009002000090020000900200009002000090
:10002800fa3a0000900200009002000090020000de
:100038009002000090020000900200009002000070
:100048005a41000090020000900200009002000057
:1000580090020000fe3d00009002000090020000a7
:100068009002000090020000900200001240000080
:100078009002000090020000900200009002000030
:100088009002000090020000900200009002000020
:100098009002000090020000900200009002000010
:1000a8009002000090020000900200009002000000
:1000b80090020000900200009002000090020000f0
:1000c80090020000900200009002000090020000e0
:1000d80090020000900200009002000090020000d0
:1000e80090020000900200009002000090020000c0
:1000f80090020000900200009002000090020000b0
:10010800900200009c3c0000900200009002000059
:10011800900200009002000090020000900200008f
:10012800900200009002000090020000900200007f
:10013800900200009002000090020000900200006f
:10014800900200009002000090020000900200005f
:10015800900200009002000090020000900200004f
:10016800900200009002000090020000900200003f
:10017800900200009002000090020000900200002f
:10018800900200009002000090020000900200001f
:10019800900200009002000090020000900200000f
:1001a80090020000900200009002000090020000ff
:1001b80090020000900200009002000090020000ef
:1001c80090020000900200009002000090020000df
:1001d80090020000900200009002000090020000cf
:1001e80090020000900200009002000090020000bf
:0801f8009002000090020000db
:020000040000fa
:10020800900200009002000090020000900200009e
:10021800900200009002000090020000900200008e
:10022800fa3a0000900200009002000090020000dc
:10023800900200009002000090020000900200006e
:100248005a41000090020000900200009002000055
:1002580090020000fe3d00009002000090020000a5
:10026800900200009002000090020000124000007e
:10027800900200009002000090020000900200002e
:10028800900200009002000090020000900200001e
:10029800900200009002000090020000900200000e
:1002a80090020000900200009002000090020000fe
:1002b80090020000900200009002000090020000ee
:1002c80090020000900200009002000090020000de
:1002d80090020000900200009002000090020000ce
:1002e80090020000900200009002000090020000be
:1002f80090020000900200009002000090020000ae
:10030800900200009c3c0000900200009002000057
:10031800900200009002000090020000900200008d
:10032800900200009002000090020000900200007d
:10033800900200009002000090020000900200006d
:10034800900200009002000090020000900200005d
:10035800900200009002000090020000900200004d
:10036800900200009002000090020000900200003d
:10037800900200009002000090020000900200002d
:10038800900200009002000090020000900200001d
:10039800900200009002000090020000900200000d
:1003a80090020000900200009002000090020000fd
:1003b80090020000900200009002000090020000ed
:1003c80090020000900200009002000090020000dd
:1003d80090020000900200009002000090020000cd
:1003e80090020000900200009002000090020000bd
:0803f8009002000090020000d9
:020000040000fa
:1005840000004000a1a32000608078000000060065
:100594004200dd00e1a32000010240006011b80028
:1005a4008000eb003400780000014100e081490044
:1005b4008100e800e28f5000faff3a008380d10006
:1005c4000280d30000000600000178006380600010
:1005d400e10f50000c003200d0e9ab0005003a00f6
:1005e40002004100a1a32000010040001008e8001f
:1005f4000000060002014100c208de0080a42000c1
:100604000131780000000600c209de00e0fd23008d
:10061400808f5100f0ff3e008200410080a4200042
:100624008330780000000600d442a800cc62a80001
:100634000000eb0083a42000a2a320008000780027
:1006440001b07900013079000080e800e40f500027
:10065400fbff3a00000006000000400081a42000d7
:100664006080780000000600c8a2a900cea2a800fd
:10067400c8c2a900cec2a800d442a900cc62a90075
:10068400d402a900d422a900000000000000000048
:100694000000000000000000000000000000000056
:1006a4000000000000000000000000000000000046
:1006b4000000000000000000000000000000000036
:1006c4000000000000000000000000000000000026
:1006d4000000000000000000000000000000000016
:1006e4000000000000000000000000000000000006
:1006f40000000000000000000000000000000000f6
:1007040000000000000000000000000000000000e5
:1007140000000000000000000000000000000000d5
:1007240000000000000000000000000000000000c5
:1007340000000000000000000000000000000000b5
:1007440000000000000000000000000000000000a5
:100754000000000000000000000000000000000095
:100764000000000000000000000000000000000085
:100774000000000000000000000000000000000075
:100784000000000000000000000000000000000065
:100794000000000000000000000000000000000055
:1007a4000000000000000000000000000000000045
:1007b4000000000000000000000000000000000035
:1007c4000000000000000000000000000000000025
:1007d4000000000000000000000000000000000015
:1007e4000000000000000000000000000000000005
:1007f4000000000000000000d402a800d422a800d9
:10080400cca2a800ccc2a800000000000000000098
:1008140000000000000000000000000000000000d4
:1008240000000000000000000000000000000000c4
:1008340000000000000000000000000000000000b4
:1008440000000000000000000000000000000000a4
:100854000000000000000000000000000000000094
:100864000000000000000000000000000000000084
:100874000000000000000000000000000000000074
:100884000000000000000000000000000000000064
:100894000000000000000000000000000000000054
:1008a4000000000000000000000000000000000044
:1008b4000000000000000000000000000000000034
:1008c4000000000000000000d402a900d422a90006
:1008d4000000000000000000000000000000000014
:1008e4000000000000000000000000000000000004
:1008f40000000000000000000000000000000000f4
:1009040000000000000000000000000000000000e3
:1009140000000000000000000000000000000000d3
:1009240000000000000000000000000000000000c3
:1009340000000000000000000000000000000000b3
:1009440000000000000000000000000000000000a3
:100954000000000000000000000000000000000093
:100964000000000000000000000000000000000083
:100974000000000000000000000000000000000073
:100984000000000000000000000000000000000063
:10099400d402a800d422a800cca2a900ccc2a900e9
:1009a4000000000000000000000000000000000043
:1009b4000000000000000000000000000000000033
:1009c4000000000000000000000000000000000023
:1009d4000000000000000000000000000000000013
:1009e4000000000000000000000000000000000003
:1009f40000000000000000000000000000000000f3
:100a040000000000000000000000000000000000e2
:100a140000000000000000000000000000000000d2
:100a240000000000000000000000000000000000c2
:100a340000000000000000000000000000000000b2
:100a440000000000000000000000000000000000a2
:100a54000000000000000000000000000000000092
:100a6400d402a900d422a900000000000000000064
:100a74000000000000000000000000000000000072
:100a84000000000000000000000000000000000062
:100a94000000000000000000000000000000000052
:100aa4000000000000000000000000000000000042
:100ab4000000000000000000000000000000000032
:100ac4000000000000000000000000000000000022
:100ad4000000000000000000000000000000000012
:100ae4000000000000000000000000000000000002
:100af40000000000000000000000000000000000f2
:100b040000000000000000000000000000000000e1
:100b140000000000000000000000000000000000d1
:100b24000000000000000000d402a800d422a800a5
:100b3400cca2a800ccc2a800000000000000000065
:100b440000000000000000000000000000000000a1
:100b54000000000000000000000000000000000091
:100b64000000000000000000000000000000000081
:100b74000000000000000000000000000000000071
:100b84000000000000000000000000000000000061
:100b94000000000000000000000000000000000051
:100ba4000000000000000000000000000000000041
:100bb4000000000000000000000000000000000031
:100bc4000000000000000000000000000000000021
:100bd4000000000000000000000000000000000011
:100be4000000000000000000000000000000000001
:100bf4000000000000000000d402a900d422a900d3
:100c040000000000000000000000000000000000e0
:100c140000000000000000000000000000000000d0
:100c240000000000000000000000000000000000c0
:100c340000000000000000000000000000000000b0
:100c440000000000000000000000000000000000a0
:100c54000000000000000000000000000000000090
:100c64000000000000000000000000000000000080
:100c74000000000000000000000000000000000070
:100c84000000000000000000000000000000000060
:100c94000000000000000000000000000000000050
:100ca4000000000000000000000000000000000040
:100cb4000000000000000000000000000000000030
:100cc400d402a800d422a800cca2a900ccc2a900b6
:100cd4000000000000000000000000000000000010
:100ce4000000000000000000000000000000000000
:100cf40000000000000000000000000000000000f0
:100d040000000000000000000000000000000000df
:100d140000000000000000000000000000000000cf
:100d240000000000000000000000000000000000bf
:100d340000000000000000000000000000000000af
:100d4400000000000000000000000000000000009f
:100d5400000000000000000000000000000000008f
:100d6400000000000000000000000000000000007f
:100d7400000000000000000000000000000000006f
:100d8400000000000000000000000000000000005f
:100d9400d402a900d422a900000000000000000031
:100da400000000000000000000000000000000003f
:100db400000000000000000000000000000000002f
:100dc400000000000000000000000000000000001f
:100dd400000000000000000000000000000000000f
:100de40000000000000000000000000000000000ff
:100df40000000000000000000000000000000000ef
:100e040000000000000000000000000000000000de
:100e140000000000000000000000000000000000ce
:100e240000000000000000000000000000000000be
:100e340000000000000000000000000000000000ae
:100e4400000000000000000000000000000000009e
:100e54000000000000000000d402a800d422a80072
:100e6400cca2a800ccc2a800000000000000000032
:100e7400000000000000000000000000000000006e
:100e8400000000000000000000000000000000005e
:100e9400000000000000000000000000000000004e
:100ea400000000000000000000000000000000003e
:100eb400000000000000000000000000000000002e
:100ec400000000000000000000000000000000001e
:100ed400000000000000000000000000000000000e
:100ee40000000000000000000000000000000000fe
:100ef40000000000000000000000000000000000ee
:100f040000000000000000000000000000000000dd
:100f140000000000000000000000000000000000cd
:100f24000000000000000000d402a900d422a9009f
:100f340000000000000000000000000000000000ad
:100f4400000000000000000000000000000000009d
:100f5400000000000000000000000000000000008d
:100f6400000000000000000000000000000000007d
:100f7400000000000000000000000000000000006d
:100f8400000000000000000000000000000000005d
:100f9400000000000000000000000000000000004d
:100fa400000000000000000000000000000000003d
:100fb400000000000000000000000000000000002d
:100fc400000000000000000000000000000000001d
:100fd400000000000000000000000000000000000d
:100fe40000000000000000000000000000000000fd
:100ff400d402a800d422a800cca2a900ccc2a90083
:1010040000000000000000000000000000000000dc
:1010140000000000000000000000000000000000cc
:1010240000000000000000000000000000000000bc
:1010340000000000000000000000000000000000ac
:10104400000000000000000000000000000000009c
:10105400000000000000000000000000000000008c
:10106400000000000000000000000000000000007c
:10107400000000000000000000000000000000006c
:10108400000000000000000000000000000000005c
:10109400000000000000000000000000000000004c
:1010a400000000000000000000000000000000003c
:1010b400000000000000000000000000000000002c
:1010c400d402a900d422a9000000000000000000fe
:1010d400000000000000000000000000000000000c
:1010e40000000000000000000000000000000000fc
:1010f40000000000000000000000000000000000ec
:1011040000000000000000000000000000000000db
:1011140000000000000000000000000000000000cb
:1011240000000000000000000000000000000000bb
:1011340000000000000000000000000000000000ab
:10114400000000000000000000000000000000009b
:10115400000000000000000000000000000000008b
:10116400000000000000000000000000000000007b
:10117400000000000000000000000000000000006b
:101184000000000000000000d402a800d422a8003f
:10119400cca2a800ccc2a8000000000000000000ff
:1011a400000000000000000000000000000000003b
:1011b400000000000000000000000000000000002b
:1011c400000000000000000000000000000000001b
:1011d400000000000000000000000000000000000b
:1011e40000000000000000000000000000000000fb
:1011f40000000000000000000000000000000000eb
:1012040000000000000000000000000000000000da
:1012140000000000000000000000000000000000ca
:1012240000000000000000000000000000000000ba
:1012340000000000000000000000000000000000aa
:10124400000000000000000000000000000000009a
:101254000000000000000000d402a900d422a9006c
:10126400000000000000000000000000000000007a
:10127400000000000000000000000000000000006a
:10128400000000000000000000000000000000005a
:10129400000000000000000000000000000000004a
:1012a400000000000000000000000000000000003a
:1012b400000000000000000000000000000000002a
:1012c400000000000000000000000000000000001a
:1012d400000000000000000000000000000000000a
:1012e40000000000000000000000000000000000fa
:1012f40000000000000000000000000000000000ea
:1013040000000000000000000000000000000000d9
:1013140000000000000000000000000000000000c9
:10132400d402a800d422a800cca2a900ccc2a9004f
:1013340000000000000000000000000000000000a9
:101344000000000000000000000000000000000099
:101354000000000000000000000000000000000089
:101364000000000000000000000000000000000079
:101374000000000000000000000000000000000069
:101384000000000000000000000000000000000059
:101394000000000000000000000000000000000049
:1013a4000000000000000000000000000000000039
:1013b4000000000000000000000000000000000029
:1013c4000000000000000000000000000000000019
:1013d4000000000000000000000000000000000009
:1013e40000000000000000000000000000000000f9
:1013f400d402a900d422a9000000000000000000cb
:1014040000000000000000000000000000000000d8
:1014140000000000000000000000000000000000c8
:1014240000000000000000000000000000000000b8
:1014340000000000000000000000000000000000a8
:101cd4000000000000000000d402a800d422a800e4
:101ce400cca2a800ccc2a8000000000000000000a4
:101cf40000000000000000000000000000000000e0
:101d040000000000000000000000000000000000cf
:101d140000000000000000000000000000000000bf
:101d240000000000000000000000000000000000af
:101d3400000000000000000000000000000000009f
:101d4400000000000000000000000000000000008f
:101d5400000000000000000000000000000000007f
:101d6400000000000000000000000000000000006f
:101d7400000000000000000000000000000000005f
:101d8400000000000000000000000000000000004f
:101d9400000000000000000000000000000000003f
:101da4000000000000000000d402a900d422a90011
:101db400000000000000000000000000000000001f
:101dc400000000000000000000000000000000000f
:101dd40000000000000000000000000000000000ff
:101de40000000000000000000000000000000000ef
:101df40000000000000000000000000000000000df
:101e040000000000000000000000000000000000ce
:101e140000000000000000000000000000000000be
:101e240000000000000000000000000000000000ae
:101e3400000000000000000000000000000000009e
:101e4400000000000000000000000000000000008e
:101e5400000000000000000000000000000000007e
:101e6400000000000000000000000000000000006e
:101e7400d402a800d422a800cca2a800ccc2a800f6
:101e8400000000000000000000000000000000004e
:101e9400000000000000000000000000000000003e
:101ea400000000000000000000000000000000002e
:101eb400000000000000000000000000000000001e
:101ec400000000000000000000000000000000000e
:101ed40000000000000000000000000000000000fe
:101ee40000000000000000000000000000000000ee
:101ef40000000000000000000000000000000000de
:101f040000000000000000000000000000000000cd
:101f140000000000000000000000000000000000bd
:101f240000000000000000000000000000000000ad
:101f3400000000000000000000000000000000009d
:101f4400d402a900d422a90000000000000000006f
:101f5400000000000000000000000000000000007d
:101f6400000000000000000000000000000000006d
:101f7400000000000000000000000000000000005d
:101f8400000000000000000000000000000000004d
:101f9400000000000000000000000000000000003d
:101fa400000000000000000000000000000000002d
:101fb400000000000000000000000000000000001d
:101fc400000000000000000000000000000000000d
:101fd40000000000000000000000000000000000fd
:101fe40000000000000000000000000000000000ed
:101ff40000000000000000000000000000000000dd
:102004000000000000000000d402a800d422a800b0
:10201400cca2a800ccc2a800000000000000000070
:1020240000000000000000000000000000000000ac
:10203400000000000000000000000000000000009c
:10204400000000000000000000000000000000008c
:10205400000000000000000000000000000000007c
:10206400000000000000000000000000000000006c
:10207400000000000000000000000000000000005c
:10208400000000000000000000000000000000004c
:10209400000000000000000000000000000000003c
:1020a400000000000000000000000000000000002c
:1020b400000000000000000000000000000000001c
:1020c400000000000000000000000000000000000c
:1020d4000000000000000000d402a900d422a900de
:1020e40000000000000000000000000000000000ec
:1020f40000000000000000000000000000000000dc
:1021040000000000000000000000000000000000cb
:1021140000000000000000000000000000000000bb
:1021240000000000000000000000000000000000ab
:10213400000000000000000000000000000000009b
:10214400000000000000000000000000000000008b
:10215400000000000000000000000000000000007b
:10216400000000000000000000000000000000006b
:10217400000000000000000000000000000000005b
:10218400000000000000000000000000000000004b
:10219400000000000000000000000000000000003b
:1021a400d402a800d422a800cca2a800ccc2a800c3
:1021b400000000000000000000000000000000001b
:1021c400000000000000000000000000000000000b
:1021d40000000000000000000000000000000000fb
:1021e40000000000000000000000000000000000eb
:1021f40000000000000000000000000000000000db
:1022040000000000000000000000000000000000ca
:1022140000000000000000000000000000000000ba
:1022240000000000000000000000000000000000aa
:10223400000000000000000000000000000000009a
:10224400000000000000000000000000000000008a
:10225400000000000000000000000000000000007a
:10226400000000000000000000000000000000006a
:10227400d402a900d422a90000000000000000003c
:10228400000000000000000000000000000000004a
:10229400000000000000000000000000000000003a
:1022a400000000000000000000000000000000002a
:1022b400000000000000000000000000000000001a
:1022c400000000000000000000000000000000000a
:1022d40000000000000000000000000000000000fa
:1022e40000000000000000000000000000000000ea
:1022f40000000000000000000000000000000000da
:1023040000000000000000000000000000000000c9
:1023140000000000000000000000000000000000b9
:1023240000000000000000000000000000000000a9
:102334000000000000000000d402a800d422a8007d
:10234400cca2a800ccc2a80000000000000000003d
:102354000000000000000000000000000000000079
:102364000000000000000000000000000000000069
:102374000000000000000000000000000000000059
:102384000000000000000000000000000000000049
:102394000000000000000000000000000000000039
:1023a4000000000000000000000000000000000029
:1023b4000000000000000000000000000000000019
:1023c4000000000000000000000000000000000009
:1023d40000000000000000000000000000000000f9
:1023e40000000000000000000000000000000000e9
:1023f40000000000000000000000000000000000d9
:102404000000000000000000d402a900d422a900aa
:1024140000000000000000000000000000000000b8
:1024240000000000000000000000000000000000a8
:102434000000000000000000000000000000000098
:102444000000000000000000000000000000000088
:102454000000000000000000000000000000000078
:102464000000000000000000000000000000000068
:102474000000000000000000000000000000000058
:102484000000000000000000000000000000000048
:102494000000000000000000000000000000000038
:1024a4000000000000000000000000000000000028
:1024b4000000000000000000000000000000000018
:1024c4000000000000000000000000000000000008
:1024d400d402a800d422a800cca2a800ccc2a80090
:1024e40000000000000000000000000000000000e8
:1024f40000000000000000000000000000000000d8
:1025040000000000000000000000000000000000c7
:1025140000000000000000000000000000000000b7
:1025240000000000000000000000000000000000a7
:102534000000000000000000000000000000000097
:102544000000000000000000000000000000000087
:102554000000000000000000000000000000000077
:102564000000000000000000000000000000000067
:102574000000000000000000000000000000000057
:102584000000000000000000000000000000000047
:102594000000000000000000000000000000000037
:1025a400d402a900d422a900000000000000000009
:1025b4000000000000000000000000000000000017
:1025c4000000000000000000000000000000000007
:1025d40000000000000000000000000000000000f7
:1025e40000000000000000000000000000000000e7
:1025f40000000000000000000000000000000000d7
:1026040000000000000000000000000000000000c6
:1026140000000000000000000000000000000000b6
:1026240000000000000000000000000000000000a6
:102634000000000000000000000000000000000096
:102644000000000000000000000000000000000086
:102654000000000000000000000000000000000076
:102664000000000000000000d402a800d422a8004a
:10267400cca2a800ccc2a80000000000000000000a
:102684000000000000000000000000000000000046
:102694000000000000000000000000000000000036
:1026a4000000000000000000000000000000000026
:1026b4000000000000000000000000000000000016
:1026c4000000000000000000000000000000000006
:1026d40000000000000000000000000000000000f6
:1026e40000000000000000000000000000000000e6
:1026f40000000000000000000000000000000000d6
:1027040000000000000000000000000000000000c5
:1027140000000000000000000000000000000000b5
:1027240000000000000000000000000000000000a5
:102734000000000000000000d402a900d422a90077
:102744000000000000000000000000000000000085
:102754000000000000000000000000000000000075
:102764000000000000000000000000000000000065
:102774000000000000000000000000000000000055
:102784000000000000000000000000000000000045
:102794000000000000000000000000000000000035
:1027a4000000000000000000000000000000000025
:1027b4000000000000000000000000000000000015
:1027c4000000000000000000000000000000000005
:1027d40000000000000000000000000000000000f5
:1027e40000000000000000000000000000000000e5
:1027f40000000000000000000000000000000000d5
:10280400d402a800d422a800cca2a800ccc2a8005c
:1028140000000000000000000000000000000000b4
:1028240000000000000000000000000000000000a4
:102834000000000000000000000000000000000094
:102844000000000000000000000000000000000084
:102854000000000000000000000000000000000074
:102864000000000000000000000000000000000064
:102874000000000000000000000000000000000054
:102884000000000000000000000000000000000044
:102894000000000000000000000000000000000034
:1028a4000000000000000000000000000000000024
:1028b4000000000000000000000000000000000014
:1028c4000000000000000000000000000000000004
:1028d400d402a900d422a9000000000000000000d6
:1028e40000000000000000000000000000000000e4
:1028f40000000000000000000000000000000000d4
:1029040000000000000000000000000000000000c3
:1029140000000000000000000000000000000000b3
:102e94000000000000000000c8a2a800cea2a90003
:102ea400c8c2a800cec2a9000000000000000000b3
:102eb400000000000000000000000000000000000e
:102ec40000000000000000000000000000000000fe
:102ed40000000000000000000000000000000000ee
:102ee40000000000000000000000000000000000de
:1033a4000000000000000000d402a800d422a800fd
:1033b4000000000000000000000000000000000009
:1033c40000000000000000000000000000000000f9
:1033d40000000000000000000000000000000000e9
:1033e40000000000000000000000000000000000d9
:1033f40000000000000000000000000000000000c9
:1034040000000000000000000000000000000000b8
:1034140000000000000000000000000000000000a8
:103424000000000000000000000000000000000098
:103434000000000000000000000000000000000088
:103444000000000000000000000000000000000078
:103454000000000000000000000000000000000068
:103464000000000000000000000000000000000058
:10347400d402a900d422a900a12c200091407800f4
:10348400c508de00e1806000a22c20001241780013
:103494004611de0061016100000000000000000030
:1034a4000000000000000000000000000000000018
:1034b4000000000000000000000000000000000008
:1034c40000000000000000000000000000000000f8
:1034d40000000000000000000000000000000000e8
:1034e40000000000000000000000000000000000d8
:1034f40000000000000000000000000000000000c8
:1035040000000000000000000000000000000000b7
:1035140000000000000000000000000000000000a7
:103524000000000000000000000000000000000097
:103534000000000000000000000000000000000087
:103544000000000000000000000000000000000077
:1035540000000000000000008180fb00818040002a
:103564000281fb0002014100d402a800d422a80079
:103574000000000000000000000000000000000047
:103584000000000000000000000000000000000037
:103594000000000000000000000000000000000027
:1035a4000000000000000000000000000000000017
:1035b4000000000000000000000000000000000007
:1035c40000000000000000000000000000000000f7
:1035d40000000000000000000000000000000000e7
:1035e40000000000000000000000000000000000d7
:1035f40000000000000000000000000000000000c7
:1036040000000000000000000000000000000000b6
:1036140000000000000000000000000000000000a6
:103624000000000000000000000000000000000096
:10363400d402a900d422a900cac2bf004500de00fa
:103644006100600080807000cac2bf004600de00d6
:103654006100600000017100000000000000000033
:103664000000000000000000000000000000000056
:103674000000000000000000000000000000000046
:103684000000000000000000000000000000000036
:103694000000000000000000000000000000000026
:1036a4000000000000000000000000000000000016
:1036b4000000000000000000000000000000000006
:1036c40000000000000000000000000000000000f6
:1036d40000000000000000000000000000000000e6
:1036e40000000000000000000000000000000000d6
:1036f40000000000000000000000000000000000c6
:1037040000000000000000000000000000000000b5
:103714000000000000000000818040000201410020
:10372400d402a800d422a800000000000000000079
:103734000000000000000000000000000000000085
:103744000000000000000000000000000000000075
:103754000000000000000000000000000000000065
:103764000000000000000000000000000000000055
:103774000000000000000000000000000000000045
:103784000000000000000000000000000000000035
:103794000000000000000000000000000000000025
:1037a4000000000000000000000000000000000015
:1037b4000000000000000000000000000000000005
:1037c40000000000000000000000000000000000f5
:1037d40000000000000000000000000000000000e5
:1037e4000000000000000000d402a900d422a900b7
:1037f400cac2bf004500de00610060008080700026
:10380400cac2bf004600de00610060000001710012
:1038140000000000000000000000000000000000a4
:103824000000000000000000000000000000000094
:103834000000000000000000000000000000000084
:103844000000000000000000000000000000000074
:103854000000000000000000000000000000000064
:103864000000000000000000000000000000000054
:103874000000000000000000000000000000000044
:103884000000000000000000000000000000000034
:103894000000000000000000000000000000000024
:1038a4000000000000000000000000000000000014
:1038b4000000000000000000000000000000000004
:1038c40000000000000000000000000000000000f4
:1038d4008180400002014100d402a800d422a80043
:1038e40000000000000000000000000000000000d4
:1038f40000000000000000000000000000000000c4
:1039040000000000000000000000000000000000b3
:1039140000000000000000000000000000000000a3
:103924000000000000000000000000000000000093
:103934000000000000000000000000000000000083
:103944000000000000000000000000000000000073
:103954000000000000000000000000000000000063
:103964000000000000000000000000000000000053
:103974000000000000000000000000000000000043
:103984000000000000000000000000000000000033
:103994000000000000000000000000000000000023
:1039a400d402a900d422a900cac2bf004500de0087
:1039b4006100600080807000cac2bf004600de0063
:1039c40061006000000171000000000000000000c0
:1039d40000000000000000000000000000000000e3
:1039e40000000000000000000000000000000000d3
:1039f40000000000000000000000000000000000c3
:103a040000000000000000000000000000000000b2
:103a140000000000000000000000000000000000a2
:103a24000000000000000000000000000000000092
:103a34000000000000000000000000000000000082
:103a44000000000000000000000000000000000072
:103a54000000000000000000000000000000000062
:103a64000000000000000000000000000000000052
:103a74000000000000000000000000000000000042
:103a840000000000000000008180400002014100ad
:103a9400d402a800d422a800000000000000000006
:103aa4000000000000000000000000000000000012
:103ab4000000000000000000000000000000000002
:103ac40000000000000000000000000000000000f2
:103ad40000000000000000000000000000000000e2
:103ae40000000000000000000000000000000000d2
:103af40000000000000000000000000000000000c2
:103b040000000000000000000000000000000000b1
:103b140000000000000000000000000000000000a1
:103b24000000000000000000000000000000000091
:103b34000000000000000000000000000000000081
:103b44000000000000000000000000000000000071
:103b54000000000000000000d402a900d422a90043
:103b6400cac2bf004500de006100600080807000b2
:103b7400cac2bf004600de0061006000000171009f
:103b84000000000000000000000000000000000031
:103b94000000000000000000000000000000000021
:103ba4000000000000000000000000000000000011
:103bb4000000000000000000000000000000000001
:103bc40000000000000000000000000000000000f1
:103bd40000000000000000000000000000000000e1
:103be40000000000000000000000000000000000d1
:103bf40000000000000000000000000000000000c1
:103c040000000000000000000000000000000000b0
:103c140000000000000000000000000000000000a0
:103c24000000000000000000000000000000000090
:103c34000000000000000000000000000000000080
:103c44008180400002014100d402a800d422a800cf
:103c54000000000000000000000000000000000060
:103c64000000000000000000000000000000000050
:103c74000000000000000000000000000000000040
:103c84000000000000000000000000000000000030
:103c94000000000000000000000000000000000020
:103ca4000000000000000000000000000000000010
:103cb4000000000000000000000000000000000000
:103cc40000000000000000000000000000000000f0
:103cd40000000000000000000000000000000000e0
:103ce40000000000000000000000000000000000d0
:103cf40000000000000000000000000000000000c0
:103d040000000000000000000000000000000000af
:103d1400d402a900d422a900cac2bf004500de0013
:103d24006100600080807000cac2bf004600de00ef
:103d3400610060000001710000000000000000004c
:103d4400000000000000000000000000000000006f
:103d5400000000000000000000000000000000005f
:103d6400000000000000000000000000000000004f
:103d7400000000000000000000000000000000003f
:103d8400000000000000000000000000000000002f
:103d9400000000000000000000000000000000001f
:103da400000000000000000000000000000000000f
:103db40000000000000000000000000000000000ff
:103dc40000000000000000000000000000000000ef
:103dd40000000000000000000000000000000000df
:103de40000000000000000000000000000000000cf
:103df400000000000000000081804000020141003a
:103e0400d402a800d422a800000000000000000092
:103e1400000000000000000000000000000000009e
:103e2400000000000000000000000000000000008e
:103e3400000000000000000000000000000000007e
:103e4400000000000000000000000000000000006e
:103e5400000000000000000000000000000000005e
:103e6400000000000000000000000000000000004e
:103e7400000000000000000000000000000000003e
:103e8400000000000000000000000000000000002e
:103e9400000000000000000000000000000000001e
:103ea400000000000000000000000000000000000e
:103eb40000000000000000000000000000000000fe
:103ec4000000000000000000d402a900d422a900d0
:103ed400cac2bf004500de0061006000808070003f
:103ee400cac2bf004600de0061006000000171002c
:103ef40000000000000000000000000000000000be
:103f040000000000000000000000000000000000ad
:103f1400000000000000000000000000000000009d
:103f2400000000000000000000000000000000008d
:103f3400000000000000000000000000000000007d
:103f4400000000000000000000000000000000006d
:103f5400000000000000000000000000000000005d
:103f6400000000000000000000000000000000004d
:103f7400000000000000000000000000000000003d
:103f8400000000000000000000000000000000002d
:103f9400000000000000000000000000000000001d
:103fa400000000000000000000000000000000000d
:103fb4008180400002014100d402a800d422a8005c
:103fc40000000000000000000000000000000000ed
:103fd40000000000000000000000000000000000dd
:103fe40000000000000000000000000000000000cd
:103ff40000000000000000000000000000000000bd
:1040040000000000000000000000000000000000ac
:10401400000000000000000000000000000000009c
:10402400000000000000000000000000000000008c
:10403400000000000000000000000000000000007c
:10404400000000000000000000000000000000006c
:10405400000000000000000000000000000000005c
:10406400000000000000000000000000000000004c
:10407400000000000000000000000000000000003c
:10408400d402a900d422a900cac2bf004500de00a0
:104094006100600080807000cac2bf004600de007c
:1040a40061006000000171000000000000000000d9
:1040b40000000000000000000000000000000000fc
:1040c40000000000000000000000000000000000ec
:1040d40000000000000000000000000000000000dc
:1040e40000000000000000000000000000000000cc
:1040f40000000000000000000000000000000000bc
:1041040000000000000000000000000000000000ab
:10411400000000000000000000000000000000009b
:10412400000000000000000000000000000000008b
:10413400000000000000000000000000000000007b
:10414400000000000000000000000000000000006b
:10415400000000000000000000000000000000005b
:1041640000000000000000008180400002014100c6
:10417400000000000000000000000000000000003b
:10418400000000000000000000000000000000002b
:10419400000000000000000000000000000000001b
:1041a400000000000000000000000000000000000b
:10499400d402a800d422a8000000000000000000f7
:1049a4000000000000000000000000000000000003
:1049b40000000000000000000000000000000000f3
:1049c40000000000000000000000000000000000e3
:1049d40000000000000000000000000000000000d3
:1049e40000000000000000000000000000000000c3
:1049f40000000000000000000000000000000000b3
:104a040000000000000000000000000000000000a2
:104a14000000000000000000000000000000000092
:104a24000000000000000000000000000000000082
:104a34000000000000000000000000000000000072
:104a44000000000000000000000000000000000062
:104a54000000000000000000d402a900d422a90034
:104a6400cac2bf004500de006100600080807000a3
:104a7400cac2bf004600de00610060000001710090
:104a84000000000000000000000000000000000022
:104a94000000000000000000000000000000000012
:104aa4000000000000000000000000000000000002
:104ab40000000000000000000000000000000000f2
:104ac40000000000000000000000000000000000e2
:104ad40000000000000000000000000000000000d2
:104ae40000000000000000000000000000000000c2
:104af40000000000000000000000000000000000b2
:104b040000000000000000000000000000000000a1
:104b14000000000000000000000000000000000091
:104b24000000000000000000000000000000000081
:104b34000000000000000000000000000000000071
:104b44008180400002014100d402a800d422a800c0
:104b54000000000000000000000000000000000051
:104b64000000000000000000000000000000000041
:104b74000000000000000000000000000000000031
:104b84000000000000000000000000000000000021
:104b94000000000000000000000000000000000011
:104ba4000000000000000000000000000000000001
:104bb40000000000000000000000000000000000f1
:104bc40000000000000000000000000000000000e1
:104bd40000000000000000000000000000000000d1
:104be40000000000000000000000000000000000c1
:104bf40000000000000000000000000000000000b1
:104c040000000000000000000000000000000000a0
:104c1400d402a900d422a900cac2bf004500de0004
:104c24006100600080807000cac2bf004600de00e0
:104c3400610060000001710000000000000000003d
:104c44000000000000000000000000000000000060
:104c54000000000000000000000000000000000050
:104c64000000000000000000000000000000000040
:104c74000000000000000000000000000000000030
:104c84000000000000000000000000000000000020
:104c94000000000000000000000000000000000010
:104ca4000000000000000000000000000000000000
:104cb40000000000000000000000000000000000f0
:104cc40000000000000000000000000000000000e0
:104cd40000000000000000000000000000000000d0
:104ce40000000000000000000000000000000000c0
:104cf400000000000000000081804000020141002b
:104d0400d402a800d422a800000000000000000083
:104d1400000000000000000000000000000000008f
:104d2400000000000000000000000000000000007f
:104d3400000000000000000000000000000000006f
:104d4400000000000000000000000000000000005f
:104d5400000000000000000000000000000000004f
:104d6400000000000000000000000000000000003f
:104d7400000000000000000000000000000000002f
:104d8400000000000000000000000000000000001f
:104d9400000000000000000000000000000000000f
:104da40000000000000000000000000000000000ff
:104db40000000000000000000000000000000000ef
:104dc4000000000000000000d402a900d422a900c1
:104dd400cac2bf004500de00610060008080700030
:104de400cac2bf004600de0061006000000171001d
:104df40000000000000000000000000000000000af
:104e0400000000000000000000000000000000009e
:104e1400000000000000000000000000000000008e
:104e2400000000000000000000000000000000007e
:104e3400000000000000000000000000000000006e
:104e4400000000000000000000000000000000005e
:104e5400000000000000000000000000000000004e
:104e6400000000000000000000000000000000003e
:104e7400000000000000000000000000000000002e
:104e8400000000000000000000000000000000001e
:104e9400000000000000000000000000000000000e
:104ea40000000000000000000000000000000000fe
:104eb4008180400002014100d402a800d422a8004d
:104ec40000000000000000000000000000000000de
:104ed40000000000000000000000000000000000ce
:104ee40000000000000000000000000000000000be
:104ef40000000000000000000000000000000000ae
:104f0400000000000000000000000000000000009d
:104f1400000000000000000000000000000000008d
:104f2400000000000000000000000000000000007d
:104f3400000000000000000000000000000000006d
:104f4400000000000000000000000000000000005d
:104f5400000000000000000000000000000000004d
:104f6400000000000000000000000000000000003d
:104f7400000000000000000000000000000000002d
:104f8400d402a900d422a900cac2bf004500de0091
:104f94006100600080807000cac2bf004600de006d
:104fa40061006000000171000000000000000000ca
:104fb40000000000000000000000000000000000ed
:104fc40000000000000000000000000000000000dd
:104fd40000000000000000000000000000000000cd
:104fe40000000000000000000000000000000000bd
:104ff40000000000000000000000000000000000ad
:10500400000000000000000000000000000000009c
:10501400000000000000000000000000000000008c
:10502400000000000000000000000000000000007c
:10503400000000000000000000000000000000006c
:10504400000000000000000000000000000000005c
:10505400000000000000000000000000000000004c
:1050640000000000000000008180400002014100b7
:10507400d402a800d422a800000000000000000010
:10508400000000000000000000000000000000001c
:10509400000000000000000000000000000000000c
:1050a40000000000000000000000000000000000fc
:1050b40000000000000000000000000000000000ec
:1050c40000000000000000000000000000000000dc
:1050d40000000000000000000000000000000000cc
:1050e40000000000000000000000000000000000bc
:1050f40000000000000000000000000000000000ac
:10510400000000000000000000000000000000009b
:10511400000000000000000000000000000000008b
:10512400000000000000000000000000000000007b
:105134000000000000000000d402a900d422a9004d
:10514400cac2bf004500de006100600080807000bc
:10515400cac2bf004600de006100600000017100a9
:10516400000000000000000000000000000000003b
:10517400000000000000000000000000000000002b
:10518400000000000000000000000000000000001b
:10519400000000000000000000000000000000000b
:1051a40000000000000000000000000000000000fb
:1051b40000000000000000000000000000000000eb
:1051c40000000000000000000000000000000000db
:1051d40000000000000000000000000000000000cb
:1051e40000000000000000000000000000000000bb
:1051f40000000000000000000000000000000000ab
:10520400000000000000000000000000000000009a
:10521400000000000000000000000000000000008a
:105224008180400002014100d402a800d422a800d9
:10523400000000000000000000000000000000006a
:10524400000000000000000000000000000000005a
:10525400000000000000000000000000000000004a
:10526400000000000000000000000000000000003a
:10527400000000000000000000000000000000002a
:10528400000000000000000000000000000000001a
:10529400000000000000000000000000000000000a
:1052a40000000000000000000000000000000000fa
:1052b40000000000000000000000000000000000ea
:1052c40000000000000000000000000000000000da
:1052d40000000000000000000000000000000000ca
:1052e40000000000000000000000000000000000ba
:1052f400d402a900d422a900cac2bf004500de001e
:105304006100600080807000cac2bf004600de00f9
:105314006100600000017100000000000000000056
:105324000000000000000000000000000000000079
:105334000000000000000000000000000000000069
:105344000000000000000000000000000000000059
:105354000000000000000000000000000000000049
:105364000000000000000000000000000000000039
:105374000000000000000000000000000000000029
:105384000000000000000000000000000000000019
:105394000000000000000000000000000000000009
:1053a40000000000000000000000000000000000f9
:1053b40000000000000000000000000000000000e9
:1053c40000000000000000000000000000000000d9
:1053d4000000000000000000818040000201410044
:1053e400d402a800d422a80000000000000000009d
:1053f40000000000000000000000000000000000a9
:105404000000000000000000000000000000000098
:105414000000000000000000000000000000000088
:105424000000000000000000000000000000000078
:105434000000000000000000000000000000000068
:105444000000000000000000000000000000000058
:105454000000000000000000000000000000000048
:105464000000000000000000000000000000000038
:105474000000000000000000000000000000000028
:105484000000000000000000000000000000000018
:105494000000000000000000000000000000000008
:1054a4000000000000000000d402a900d422a900da
:1054b400cac2bf004500de00610060008080700049
:1054c400cac2bf004600de00610060000001710036
:1054d40000000000000000000000000000000000c8
:1054e40000000000000000000000000000000000b8
:1054f40000000000000000000000000000000000a8
:105504000000000000000000000000000000000097
:105514000000000000000000000000000000000087
:105524000000000000000000000000000000000077
:105534000000000000000000000000000000000067
:105544000000000000000000000000000000000057
:105554000000000000000000000000000000000047
:105564000000000000000000000000000000000037
:105574000000000000000000000000000000000027
:105584000000000000000000000000000000000017
:105594008180400002014100d402a800d422a80066
:1055a40000000000000000000000000000000000f7
:1055b40000000000000000000000000000000000e7
:1055c40000000000000000000000000000000000d7
:1055d40000000000000000000000000000000000c7
:1055e40000000000000000000000000000000000b7
:1055f40000000000000000000000000000000000a7
:105604000000000000000000000000000000000096
:105614000000000000000000000000000000000086
:105624000000000000000000000000000000000076
:105634000000000000000000000000000000000066
:105644000000000000000000000000000000000056
:105654000000000000000000000000000000000046
:10566400d402a900d422a900cac2bf004500de00aa
:105674006100600080807000cac2bf004600de0086
:1056840061006000000171000000000000000000e3
:105694000000000000000000000000000000000006
:1056a40000000000000000000000000000000000f6
:1056b40000000000000000000000000000000000e6
:1056c40000000000000000000000000000000000d6
:1058b4000000000000000000d442a800cc62a80050
:1058c40000000000000000000000000000000000d4
:1058d40000000000000000000000000000000000c4
:1058e40000000000000000000000000000000000b4
:1058f40000000000000000000000000000000000a4
:105904000000000000000000000000000000000093
:105914000000000000000000000000000000000083
:105924000000000000000000000000000000000073
:105934000000000000000000000000000000000063
:105944000000000000000000000000000000000053
:105954000000000000000000000000000000000043
:10596400d402a900d422a900c8a2a900cea2a800ea
:10597400c8c2a900cec2a80063806000e10f500035
:105984001e003200d0e9ab0016003a003a2aec00bf
:1059940063006100e10f500020003200d0e9ab0049
:1059a400240032004210de00505288003052800041
:1059b40080004000e2a3200043528000833079003d
:1059c400e480400053528000833079000000e800f6
:1059d400e10f5000010034000000eb003052880059
:1059e400000006004208de004052880063006100a7
:1059f400e10f5000e9ff3a0008003700c209de0059
:105a0400e0fd2300808f5100deff3e0043528800fa
:105a140063006100e10f5000e0ff3a00c210de00b5
:105a2400e0fd2300808f5000dcff3e0051528800cf
:105a3400deff37003c2aec00dcff37000101780070
:105a44000004e00006003200e14f5000190032006b
:105a540061409000d00fb2005100320030000500c8
:105a640061409000d00fb2000c003200e10f5000f2
:105a7400faff3a009100900090518000808f50000e
:105a8400f6ff3a00424090008081fb006d80610087
:105a9400e40f500010003200400005001100900097
:105aa4000000e000edff3a00320ae200ebff3a00aa
:105ab4000000050061409000d00fb2000e003a00d3
:105ac400110090000000e000e4ff3a00340ae20014
:105ad400e2ff3a0000000500e0a2200021c0b3006c
:105ae40090cf10001d00320020518000920f100052
:105af4002100320020000500e10f5000d7ff3a00da
:105b040011029000a0518000800f5200d3ff3a0090
:105b1400414090008081fb006d806100deff3a000f
:105b2400e0a2200021c0b30090cf10002400320076
:105b340010518000920f1000eeff3a000400e000c4
:105b4400dbff3200d302b20000022000808f51003c
:105b540010003200316aef00000005009200780066
:105b6400f0ff2000808f5000e2ff3600000022008a
:105b7400808f5000dfff3e00030078000004b20075
:105b84000b00320010c0b30027eab700340ae20069
:105b9400c7ff3a0010c0b30031eab70000000500a7
:105ba400110090000000e000c1ff32003000050049
:105bb40027eab700340ae200f6ff3200bcff3700e0
:105bc40092007800f0ff2000808f5000c9ff36005b
:105bd40000002200808f5000d8ff3600200005000e
:105be4000040eb0063040700100078002051880097
:105bf40010c0b3005f040700100178001251880040
:105c040023518000905180006300b900008041005e
:105c1400800f510005003100a051800000004100b8
:105c2400d1012000808f510007003900340ae200be
:105c340007003a00320ae2000e003a000000eb00ce
:105c4400d10407008000eb0001007800000006008a
:105c540010c0b30098050700b70907000004e0006e
:105c64000a003a0010c0b30037eab700320ae20073
:105c7400f2ff32000040eb008f0507000000eb004c
:105c8400c10407008000eb00efff37008080fb00b9
:105c94000100780000000600edff37000400fa0060
:105ca4002200200001402000648057009303070075
:105cb4006fb897000000e00002003200274ae200bb
:105cc40012003a000000eb00f0bf9f005051880022
:105cd400274ae2001c003a00320ae2001e003a00a1
:105ce40010c0b30038eab700204ae20004003a00ca
:105cf400314ae20002003200320ae2001d003a009a
:105d04000000eb000080fa000000060022002000e2
:105d1400014220000f80e900780307007fb8970054
:105d24000000e000eaff32006fb997000200b800fb
:105d3400821a260003002000fae907005051880067
:105d4400274ae200e4ff3a00f00120000080fa0054
:105d540000000600edff3700790907000004e000a9
:105d6400dfff32000080fb000080fa000000060024
:105d7400e6ff370000102000830407000000eb005a
:105d84000080fa0000000600e0ff3700f0ef2f006b
:105d940027040700366aef00386aef000000eb00c2
:105da400320ae20001003a0000000600650907001b
:105db4000080fb00000006000040eb001a0507000d
:105dc40030cf2f001a0407000040eb0031eab7007f
:105dd40020eab70037eab70010c0b3001205070085
:105de400560907000080fb00000006008040eb001d
:105df4008000fd0027eab7002deab7002ceab700bf
:105e040036eab70038eab7008000fd008000fd00e4
:105e140037eab70020eab70031eab7008000fd0096
:105e240010c0b3002eeab700ac0437008503370076
:105e3400889fbe008a9fbe008c1f78008045780032
:105e44000000eb000b04e0002f00320019c0b30087
:105e54000044eb00084578000946780009407800c2
:105e6400c4030700000178000904e0001a003200ae
:105e7400e1cf54004400320060409000d00fb200e3
:105e840003003a00120090000000e000030032001a
:105e94000a04e00001003a007dc544000844e8001b
:105ea40088cf55001700320019c0b3000804e00081
:105eb400eaff32008044eb00e14f5400e7ff320078
:105ec4008844780009407800aa030700000178009c
:105ed4000904e000e6ff3a0060409000d00fb200f1
:105ee4000d003a00120090000000e000e8ff3a00c4
:105ef400320ae200e6ff3a000844e80088cf550081
:105f0400e9ff3a000a80fb004f0678004f05be0007
:105f14004f04be0000000600e10f5000dcff3a0011
:105f24009200900090518000808f5000d8ff3a007a
:105f3400424090008080fb006d806000e40f5000c0
:105f4400d3ff3a00e0a2200023c0b30090cf110099
:105f54002f00320020518000920f1000ccff3a0035
:105f6400010078000004b200390032000c0078000f
:105f740027eab700340ae200c8ff3a000c007800b0
:105f840031eab700c5ff370060409000d00fb2007f
:105f940019003200e10f5000bdff3a00920090005a
:105fa400a0518000808f5000b9ff3a004240900019
:105fb4008081fb006d806100b5ff3a00e0a2200003
:105fc40024c0b300904f1200190032001051800019
:105fd400920f1000aeff3a000100e000afff320064
:105fe400d302b20000022000808f5100e3ff320090
:105ff400316aef00a9ff3700120090000000e000b2
:10600400a3ff3a00340ae200a1ff3a00a3ff3700dd
:1060140012017800f0ff2000800f51009cff360031
:1060240000002200800f5100cdff360098ff37009a
:1060340012017800f0ff2000800f510094ff360019
:1060440000002200800f5100e3ff360090ff37006c
:1060540027eab700340ae20090ff3a00c7ff37008e
:10606400889fbe008a9fbe008c9fbe008e1f780052
:10607400804178008080fb000148a3005700320073
:10608400e2a22000124178000244a100020078003c
:106094002eeab700efc561004410dd0080c445005e
:1060a4000900780026eab70080c4b30080cf54000a
:1060b4002a0032005800360040c8b30080cf540094
:1060c400260032006440400080cf54002300320098
:1060d4000980fb000100200071005000e08058009e
:1060e40072072000820f5000e08f580058003600dd
:1060f40028c1b300e2a22000124178008b80fb008b
:106104006f006100808f50002b0032000804e00013
:1061140017013200020078002deab7000244a00003
:10612400020078002eeab700024078008840780028
:10613400ea0307002c6aef004f0778004f06be0001
:106144004f05be004f04be0000000600790807009a
:10615400004478000004e00008003a000da3200089
:106164009d4678000000eb000d04e000b1003a0009
:10617400004478000004e000d5ff32002ecabf00be
:10618400e44f500039013200e84f50003101320031
:10619400e24f500045013200e14f4400e6ff320077
:1061a400e2a22000124178008b80fb006f006100a6
:1061b400808f5000d5ff3a008040eb000240780009
:1061c400c60307004f0778004f06be004f05be0008
:1061d4004f04be0000000600dcff3700e2a22000ee
:1061e400124178000280fb000048a300a9ff32009e
:1061f400ef8060006f006000808f5000a5ff3400c6
:106204004f0778004f06be004f05be004f04be0086
:1062140000000600cdff370040c2b30080cf540019
:10622400caff320040c4b30080cf5400cbff320019
:106234000980fb000100200071005000e08058003c
:1062440072072000820f5000e08f5800a8ff3e0024
:10625400006001003d0137004d0137005001370057
:1062640047013700a2ff3700a1ff3700a0ff370026
:10627400430137009eff37009dff37009cff370026
:106284009bff37009aff370099ff370098ff3700cc
:1062940097ff37003e0137002c01370038013700e3
:1062a4004601370092ff370091ff370090ff370017
:1062b400330137008eff37008dff37008cff370026
:1062c4008bff37008aff370089ff370088ff3700cc
:1062d40087ff370086ff370085ff370084ff3700cc
:1062e40083ff370082ff370081ff370080ff3700cc
:1062f4007fff37007eff37007dff37007cff3700cc
:106304007bff37007aff370079ff370078ff3700cb
:1063140077ff3700f7003700f60037001801370021
:106324000a01370072ff370071ff370070ff370032
:106334001f0137006eff37006dff37006cff370019
:106344006bff37006aff370069ff370068ff3700cb
:1063540067ff370066ff370065ff370064ff3700cb
:1063640063ff370062ff370061ff370060ff3700cb
:106374005fff37005eff37005dff37005cff3700cb
:106384005bff37005aff370059ff370058ff3700cb
:1063940057ff370056ff370055ff370054ff3700cb
:1063a40053ff370052ff370051ff370050ff3700cb
:1063b4004fff37004eff37004dff37004cff3700cb
:1063c4004bff37004aff370049ff370048ff3700cb
:1063d40047ff370046ff370045ff370044ff3700cb
:1063e40043ff370042ff370041ff370040ff3700cb
:1063f4003fff37003eff37003dff37003cff3700cb
:106404003bff37003aff370039ff370038ff3700ca
:1064140037ff3700ab003700aa003700d800370039
:10642400ce00370032ff370031ff370030ff37002e
:10643400c60037001ac0b3000044eb0008467800d9
:106444000a4778000a4078004a02070000017800f1
:106454000a04e0001a003200e14f550054003200f3
:1064640060409000d00fb20003003a001200900088
:106474000000e000030032000c04e00001003a00d8
:106484007d4645000844e80088cf560017003200d6
:106494001ac0b3000804e000eaff32000045eb0034
:1064a400e14f5400e7ff3200084578000a407800c5
:1064b40030020700000178000a04e000e6ff3a0019
:1064c40060409000d00fb2000d003a00120090001e
:1064d4000000e000e8ff3a00320ae200e6ff3a007a
:1064e4000844e80088cf5600e9ff3a000c80fb001e
:1064f400004478000004e00020ff3a00f4fe370076
:10650400e10f5000dcff3a009200900090518000af
:10651400808f5000d8ff3a00424090008080fb00fa
:106524006d806000e40f5000d3ff3a00e0a2200029
:1065340023c0b30090cf1100ad0032002051800081
:10654400920f1000ccff3a00010078000004b20062
:10655400b70032000e00780027eab700340ae200e0
:10656400c8ff3a000e00780031eab700c5ff3700d3
:10657400c8a22000184478000804e00028003a006b
:10658400d3a2200093417800035ce10065003e0043
:1065940000c4eb000b0078002eeab7000b40780033
:1065a40088407800cd0207002c6aef00e2fe370035
:1065b40060409000d00fb20020003200e10f500084
:1065c400adff3a0092009000a0518000808f5000ef
:1065d400a9ff3a00424090008081fb006d80610079
:1065e400a5ff3a00e0a2200024c0b300904f12009f
:1065f4008700320010518000920f10009eff3a0075
:106604000100e0009fff3200d302b200000220002c
:10661400808f5100d3ff3200316aef0099ff3700b9
:106624000b0078002deab7000b44a0000b007800a3
:106634002eeab7000b407800d9ff37001200900013
:106644000000e0008cff3a00340ae2008aff3a00be
:106654008cff3700f0ef2f00f5010700366aef00da
:10666400386aef00320ae20057003a00fd4f540046
:10667400320032000040eb00eb02070030cf2f0065
:10668400eb010700316aef00206aef00376aef0080
:1066940010c0b300e40207002807070022c0b300bb
:1066a4000001fd002eeab7000001fd00f64f540082
:1066b4004b00320022c0b300020078002eeab7007b
:1066c400b5fe3700f0ef2f00d9010700366aef005e
:1066d400386aef000000eb00320ae20002003200e8
:1066e400180707000080fb00004478000004e00065
:1066f400a9fe3a000040eb00cb02070030cf2f0088
:10670400cb010700316aef00206aef00376aef001f
:1067140010c0b300c4020700080707000044780053
:106724009dfe3700080078002deab7000b007800c2
:106734002eeab7000b40780099ff370042c0b3003f
:10674400020078002eeab7006cfe3700e8cfb300f1
:10675400e2a220001241780068fe3700f0ef2f001b
:10676400b3010700366aef00386aef000000eb005f
:10677400320ae20016003a000044780086fe370030
:1067840018c1b300e2a22000124178005bfe37007a
:106794000044eb00e2a220001241780057fe3700cb
:1067a40038c1b300e2a220001241780053fe370042
:1067b4003afd07000044780077fe370008fd070023
:1067c4000044780074fe3700de060700a7ff370098
:1067d400dc0607000080fb00004478006efe3700f2
:1067e40012c0b300020078002eeab70043fe37005f
:1067f40012017800f0ff2000800f51001eff3600c8
:1068040000002200800f51004fff36001aff3700ae
:1068140012017800f0ff2000800f510016ff3600af
:1068240000002200800f510075ff360012ff370070
:1068340027eab700340ae20012ff3a0049ff3700a2
:106844009400a900d4c2a9008540a9000004200036
:106854004012880085c0bf000028a300fdff32005d
:106864004012800056eab7008540a90020072000a6
:106874004012880085c0bf000028a300fdff32003d
:106884004012800057eab7008540a900f00f2000ad
:106894004012880085c0bf000028a300fdff32001d
:1068a400401280004ceab7008540a900d4c2a80079
:1068b4009400a80000000600d4c2a9008540a900e5
:1068c4004822ef0085c0bf000028a300fdff32006e
:1068d4004012800056eab7008540a900200020003d
:1068e4004012880085c0bf000028a300fdff3200cd
:1068f4004012800057eab7008540a900d4c2a8001e
:10690400000006004300dd008180fb008100700070
:10691400d4c2a9008540a9004808de0040128800be
:1069240085c0bf000028a300fdff32004012800094
:1069340056eab7008540a9000180fb004012880098
:1069440085c0bf000028a300fdff32004012800074
:1069540057eab7008540a900000006004300dd00a7
:106964008180fb0081007000d4c2a9008540a90089
:106974004808de004012880085c0bf000028a3003c
:10698400fdff3200401280008540a9000180fb0019
:106994004012880085c0bf000028a300fdff32001c
:1069a400401280008540a9000000060080017800a4
:1069b400c308dd000110a000d4c2a9008540a900cd
:1069c4004808de004012880085c0bf000028a300ec
:1069d400fdff3200401280008540a9000180fb00c9
:1069e4004012880085c0bf000028a300fdff3200cc
:1069f400401280008540a9000200e900e10f400038
:106a040011003200800078000042eb000081eb00ae
:106a14000100e0000f003a0000c2eb00f00f20007c
:106a24008540a9004012880085c0bf000028a3004b
:106a3400fdff320040128000805978008100e90097
:106a4400810f5100f2ff3a008540a900d4c2a8008a
:106a5400000006000480fb008540a9004012880065
:106a6400f1ff370080017800c308dd000120a00099
:106a7400d4c2a9008540a9004808de00401288005d
:106a840085c0bf000028a300fdff32004012800033
:106a94008540a9000180fb004012880085c0bf002a
:106aa4000028a300fdff3200401280008540a900a9
:106ab4000200e900e10f40000d003200830078007d
:106ac400030040000001e8008540a9001180fb009c
:106ad4004012880085c0bf000028a300fdff3200db
:106ae400401280008100e800810f5100f6ff3a0057
:106af4008540a900d4c2a800000006000002780066
:106b04000200e900e10f4000240032000080400050
:106b1400f50f20000001e8009400a900c309dd007e
:106b24000310a000d4c2a9008540a9004818de00c3
:106b34004012880085c0bf000028a300fdff32007a
:106b44004012800056eab7008540a9000380fb008c
:106b54004012880085c0bf000028a300fdff32005a
:106b64004012800057eab7008540a900451288000a
:106b740085c0bf000028a300fdff32004012800042
:106b8400005a78009400a800d4c2a8008100e8004c
:106b94008540a900828f5000dfff3a000000060004
:106ba400800278000200e000250032000002eb00c1
:106bb4009400a900c309dd000320a000d4c2a900e9
:106bc4008540a9004818de004012880085c0bf0037
:106bd4000028a300fdff32004012800056eab700ef
:106be4008540a9000380fb004012880085c0bf00d7
:106bf4000028a300fdff32004012800057eab700ce
:106c04008540a9008540a90065407a000080fb000a
:106c14004012880085c0bf000028a300fdff320099
:106c2400401280009400a8008100e8008540a9007b
:106c3400d4c2a8000402e800840f5100dcff3a002b
:106c4400000006009400a900d4c2a9008540a90050
:106c5400000420004012880085c0bf000028a30063
:106c6400fdff32004012800056eab7008540a900bb
:106c7400200720004012880085c0bf000028a30020
:106c8400fdff32004012800057eab7008540a9009a
:106c9400f00f20004012880085c0bf000028a30028
:106ca400fdff3200401280004ceab7008540a90085
:106cb400d4c2a8009400a800560aab002c003200ed
:106cc40002122000a6932000f50f200024122000b9
:106cd4009400a900c310dd000110a000d4c2a900d3
:106ce4008540a9004808de004012880085c0bf0026
:106cf4000028a300fdff320040128000804178008c
:106d04008540a9000180fb004012880085c0bf00b7
:106d14000028a300fdff320040128000804078006c
:106d24008540a9004512880085c0bf000028a30043
:106d3400fdff320040128000007379009400a80027
:106d4400d4c2a8000201e8008540a900840f5100c4
:106d5400dfff3a000100780057eab700e0ceb30045
:106d640000c0610056eab7005acabf00bcfc070065
:106d7400000006000080fb004300dd00e5a42000c5
:106d8400018020000101400073002000f60f200064
:106d94009400a900c310dd000110a000d4c2a90012
:106da4008540a9004808de004012880085c0bf0065
:106db4000028a300fdff320040128000004278004a
:106dc4008540a9000180fb004012880085c0bf00f7
:106dd4000028a300fdff32004012800080407800ac
:106de4008540a9004612880085c0bf000028a30082
:106df400fdff320040128000805a78009400a80001
:106e0400d4c2a8000201e8008540a9008301e9007a
:106e1400e18f4100deff3a000100780057eab70035
:106e24000400780056eab700e0a420000000060041
:106e34000200fa00000278008f83e90087017800dd
:106e440042202000f60f2000652020009400a900b5
:106e5400c310dd000110a000d4c2a9008540a90020
:106e64004808de004012880085c0bf000028a30047
:106e7400fdff32004012800056eab7008540a900a9
:106e84000180fb004012880085c0bf000028a300d9
:106e9400fdff32004012800057eab7008540a90088
:106ea4004612880085c0bf000028a300fdff320001
:106eb40040128000805978009400a800d4c2a80031
:106ec4000201e8008540a900850f5100dfff3a0068
:106ed400ffb8970001006200f0bf9f009400a90072
:106ee400422020000000e00001003a005ceab70004
:106ef4009400a900c310dd000120a000d4c2a900a1
:106f04008540a9004808de004012880085c0bf0003
:106f14000028a300fdff32004012800056eab700ab
:106f24008540a9000180fb004012880085c0bf0095
:106f34000028a300fdff32004012800057eab7008a
:106f44008540a9008540a9003780fb0040128800d5
:106f540085c0bf000028a300fdff3200401280005e
:106f64009400a8000201e8008540a900d4c2a8004a
:106f740060202000800f5100ddff3a009400a8003b
:106f84000080fa00000006000200fa000002780007
:106f94008f83e9008701780042202000f60f20004b
:106fa400652020009400a900c310dd000110a0009a
:106fb400d4c2a9008540a9004808de004012880018
:106fc40085c0bf000028a300fdff320040128000ee
:106fd40056eab7008540a9000180fb0040128800f2
:106fe40085c0bf000028a300fdff320040128000ce
:106ff40057eab7008540a9004612880085c0bf0043
:107004000028a300fdff3200401280008059780060
:107014009400a800d4c2a8000201e8008540a90099
:10702400850f5100dfff3a007fb89700000072001f
:10703400f0bf9f009400a90010c0b3005ceab70041
:1070440042202000632020009400a900c310dd002a
:107054000120a000d4c2a9008540a9004808de0090
:107064004012880085c0bf000028a300fdff320045
:107074004012800056eab7008540a9000180fb0059
:107084004012880085c0bf000028a300fdff320025
:107094004012800057eab7008540a9008540a90046
:1070a4003780fb004012880085c0bf000028a30081
:1070b400fdff3200401280009400a8000201e800a5
:1070c4008540a900d4c2a800830f5100deff3a0016
:1070d4009400a8000080fa00000006000200fa00f4
:1070e4000080fb00f0bf9f000f83e90006027800d8
:1070f40003132000251320009400a9004319dd0088
:107104000220a000d4c2a9008540a9004810de00d6
:107114004012880085c0bf000028a300fdff320094
:107124004012800056eab7008540a9000280fb00a7
:107134004012880085c0bf000028a300fdff320074
:107144004012800057eab7008540a9008540a90095
:107154003480fb004012880085c0bf000028a300d3
:10716400fdff3200401280009400a8008301e80073
:107174008540a900d4c2a800858f5100deff3a00e3
:10718400e1cf4000260032000180fb00f0bf9f00e9
:1071940042132000631320009400a900c310dd00f3
:1071a4000120a000d4c2a9008540a9004808de003f
:1071b4004012880085c0bf000028a300fdff3200f4
:1071c4004012800056eab7008540a9000180fb0008
:1071d4004012880085c0bf000028a300fdff3200d4
:1071e4004012800057eab7008540a9008540a900f5
:1071f4003680fb004012880085c0bf000028a30031
:10720400fdff3200401280009400a8000201e80053
:107214008540a900d4c2a800830f5100deff3a00c4
:107224000080fa00000006009400a9000080fb0022
:107234004300dd007180200001004000c300dd0038
:107244000120a000d4c2a9008540a9004808de009e
:107254004012880085c0bf000028a300fdff320053
:107264004012800056eab7008540a9000180fb0067
:107274004012880085c0bf000028a300fdff320033
:107284004012800057eab7008540a9008540a90054
:10729400100020004012880085c0bf000028a30011
:1072a400fdff3200401280009400a8008540a90030
:1072b400d4c2a800000006009400a9000080fb00ce
:1072c4004300dd007180200001004000c300dd00a8
:1072d4000120a000d4c2a9008540a9004808de000e
:1072e4004012880085c0bf000028a300fdff3200c3
:1072f4004012800056eab7008540a9000180fb00d7
:107304004012880085c0bf000028a300fdff3200a2
:107314004012800057eab7008540a9008540a900c3
:107324004822ef0085c0bf000028a300fdff320003
:10733400401280009400a8008540a900d4c2a8008f
:1073440000000600c3c2bf00610060000000060028
:10735400b6fa07000000050000000600570aab005b
:1073640001003a000000060010c0b30036eab7007e
:107374009251800021518000409720008bfd07002e
:10738400009d200041972000250009003158780015
:10739400000006001000200079e40700604e880019
:1073a400100020007ae40700404e88000000eb0043
:1073b40077e40700e04d88000000eb0070e407006c
:1073c400504e880030002000b2010700f04d8800c4
:1073d40020002000af010700004e88000000eb00f1
:1073e400ac010700104e880010002000a90107001e
:1073f400204e88000000eb00be000700304e8800dd
:10740400e04f80000020a000704e8800f04f800004
:10741400d04d8800000006000800fa00ddff0700d8
:1074240082002000019c2000688057005ffd070057
:107434004fb89700dfb897006fb99700ffb997006e
:10744400804d8800914d8800a24d8800b34d88007e
:1074540081932000029b20001f000900b25878008d
:10746400a251800011518000809320007dfd07000f
:107474000080fa00000006008540a9009540a9009c
:107484004222ef0042a2a80042c2bf00c1cfb30013
:10749400014060000014a00042e2b70042c2bf00f5
:1074a40031ceb300014060008041b30042e2b70036
:1074b40042c2a8004302a9004322a9004342a900f2
:1074c40040c2a90041e2a800d4c2a80000000600fe
:1074d4000200fa00881f78000040eb00c0ff9f0004
:1074e400c8032000a8518800985188000202200097
:1074f4008000eb00009b20001ae4070062022000d9
:107504008000eb00009d200016e4070008017800cd
:107514008000eb004097200012e407000801780087
:107524008000eb00809320000ee40700fe29ef00aa
:10753400fc29ef00fa29ef00f629ef00f829ef0003
:107544008540a9009540a9004222ef0042a2a8006c
:1075540042c2bf00c1cfb300014060000014a000cc
:1075640042e2b70042c2bf0031ceb3000140600026
:107574008041b30042e2b70042c2a8004302a9001e
:107584004322a9004342a90040c2a90041e2a80045
:10759400d4c2a8008200a8008220a8008240a800cb
:1075a400d4c2a8008400a900120020000114200005
:1075b4006480570051fd07004ff89700e54f5000d5
:1075c400f9ff3a00120020005100200000a320001f
:1075d4004afd07000000eb0015fe07009400a80018
:1075e40002fa07004f0478000080fa000000060049
:1075f4003600f800809fbe00829fbe00849fbe00bc
:10760400869fbe000800fa00d4c2a8008400a90026
:10761400a9fc0700314ae20004003200384ae200c3
:1076240009003a00374ae20015003a000080fa00e7
:107634004f03be004f02be004f01be004f00be000c
:107644003600f90000400600570aab00f5ff32008f
:1076540010c0b30036eab700925180002151800077
:1076640040972000d1fc0700009d20004197200096
:107674002500090031587800374ae200ebff320058
:1076840044ff070082002000019c2000688057000e
:10769400c6fc07004fb89700dfb897006fb9970092
:1076a400ffb99700804d8800914d8800a24d880055
:1076b400b34d880081932000029b20001f00090025
