:020000040000fa
:080000000018040000000000dc
:020000040000fa
:10300000cfbe20000eff20000e018800000000004f
:103010000c000700002b2500010020001100070014
:10302000000020000000e00002003200000002006a
:1030300000000000de470200000000000040da004f
:103040000000fe004440a900000020000000e00055
:103050000300320000002000a00188004440a800c6
:103060000000060091018800800078000000eb005d
:1030700015003700e280400032a0b4009101ba0090
:10308000e280400032a0b4009102ba00e280400029
:1030900032a0b4000002eb00472bde00f507b200bf
:1030a000602ce10004003a000059eb008301e900c4
:1030b000fdff3e00040037006128e10001003200fe
:1030c0000082eb00040007001101ba000200e000da
:1030d000e8ff3a00000006003159ba008301e90018
:1030e0000c0032002159ba008301e90008003200c7
:1030f0000400e00003003a00e280400032a0b40087
:10310000f5ff370011d9ba008301e900faff3a0050
:103110008100e800e180400032a0b4000000060019
:103120006022b800060220000000d0008180d2009a
:103130000482d2008582d2000000a0000202520068
:1031400083825a00030031000202420083824a0057
:103150000000a1000603e900f3ff3a0000000600aa
:103160008001eb0002003700817178008301e800e4
:10317000828f5100fcff3a00000006006011b80089
:103180000002eb00050220004600dd006182200005
:10319000810040003100780000014100e0814900d9
:1031a0000402e800850f5200faff3a004b1add00d6
:1031b0004510de0000007200c598de000000060029
:1031c0006011b8008000eb006480200034007800bb
:1031d00000014100e08149008100e800f08f5000cb
:1031e000faff3a004c1add004410de0000007200c5
:1031f000c498de00000006000001eb004249880090
:103200003249880021e3a90025c3bf0001ceb300e5
:10321000014060005040b30025e3b70010c0b30088
:1032200024e3b70023c3bf007f40600023e3b7005f
:1032300025e3a90020c3bf007f4060000046b30023
:1032400020e3b70023c3bf00c3cfb3000340600037
:1032500023e3b7002043a8002143a8002223a800ad
:103260002063a9002343a80022c3bf00fdc0500073
:1032700001406000c040b30022e3b7003003a80063
:103280003023a8003043a8003063a80062198800ea
:103290002c03a9002c23a9002c43a9002c63a9000e
:1032a0002c83a8002ca3a8002cc3a8002ce3a80002
:1032b0002d03a80021c3bf000340600021e3b70035
:1032c00021e3a80085a0a90095a0a80000000600a1
:1032d0003600f800809fbe00829fbe00849fbe0023
:1032e000869fbe00881f780085a0a9002243e200c7
:1032f0003100350080188000504988009418800003
:1033000064498800a018800070498800b4188000c3
:10331000844988004349800083804100000c2000dc
:10332000010040006282200084498000043079005e
:10333000000820000100400074498000043079003a
:1033400050498000803079000104b0006449800059
:10335000843079000300e800ff0f500001003400c2
:103360000000eb00404988002609ec00ef0f5000f8
:10337000010034000000eb00304988000840800064
:103380000804e800e40f5400010036000004eb00dc
:10339000084088000800e000100032004f04780068
:1033a0004f03be004f02be004f01be004f00be00e3
:1033b0003600f900004006000018800050498800df
:1033c0001418800064498800201880007049880023
:1033d0003418800084498800ceff3700d462a800ea
:1033e000d462a90039040700c102070010020700d7
:1033f000971807000428ec00f15e80008100e800c7
:10340000f15e880082568000e05e8000800f5100ef
:103410000b003200f85e880018408800e25e8800e9
:103420004f0478004f03be004f02be004f01be00a4
:103430004f00be003600f90000400600deff3700f6
:10344000401f2000808f5000f4ff36001000200045
:1034500010408800e25e8800f1ff3700005f8800be
:10346000cbc2bf00b22c200012417800a12c20005a
:1034700091407800c408de00610060004200dd0079
:103480006201610002007000e180600001007000d4
:10349000105f880040578800e00be2000500320012
:1034a0008000400060b8200061007800a00e880015
:1034b000000006008000400060b720006100780036
:1034c000a00e880000000600809fbe00821f7800ca
:1034d0008660a900cbc2bf00b22c20001241780048
:1034e000a12c200091407800c408de00610060003b
:1034f0004200dd006201610002007000e1806000b6
:1035000001007000105f8800e00be200070032004d
:103510008000400060b8200061007800a00e8800a4
:103520004f0178004f00be000040060080004000c0
:1035300060b7200061007800a00e88004f0178007d
:103540004f00be0000400600f8ff3700e02bef0000
:10355000cbc2bf00b22c200012417800a12c200069
:1035600091407800c408de00610060004200dd0088
:103570006201610002007000e180600001007000e3
:10358000105f88000000400061b72000e0807800f4
:10359000a10e88006020a80062a0a80062c0a80058
:1035a0006820a8006aa0a8006ac0a8008660a900d8
:1035b0009660a80000000600620220000281b900a7
:1035c000a4b3200084014100a4ab20000401410009
:1035d0000002400065af200064807a000000e8002f
:1035e00000b27a0042039000c60198005203900096
:1035f000d601980062039000e601980072039000e3
:10360000f60198000213900086119800720b90004a
:10361000f60998000003eb00810f50004b003500c5
:103620000000eb0000b27a009300900012009000be
:1036300016002000808f50000e00320000805000e5
:103640000082eb00010033001400200004805000d1
:103650009001980001d02700810f500045003c00e8
:1036600001302800810f5000420035009001980081
:103670000003eb00a300900022009000808f500018
:103680000e003200008050000082eb000100330089
:103690001400200004805000a001980001d02700f1
:1036a000810f50002f003c0001302800810f500096
:1036b0002c003500a00198000003eb00b30090003f
:1036c00032009000808f50000e00320000805000c9
:1036d0000082eb0001003300140020000480500041
:1036e000b001980001d02700810f500025003c0058
:1036f00001302800810f500022003500b0019800f1
:103700000003eb009310900012109000808f500087
:103710000e003200008050000081eb0001003300f9
:1037200012002000028050009011980001d0270064
:10373000810f500007003c0001302800810f50002d
:1037400004003500901198000003eb00060078009b
:103750000000060001007800901198000003eb00c3
:10376000faff370001007800a00198000003eb0089
:10377000d2ff370001007800900198000003eb00b1
:10378000bcff370001007800b00198000003eb0097
:10379000dcff3700620220000281b900a4b32000e0
:1037a00084014100a4ab200004014100000240005c
:1037b00065af200064807a000000e80000b27a0063
:1037c00042039000c601980052039000d601980071
:1037d00062039000e601980062039000f6019800f1
:1037e000021390008611980072099000f209980067
:1037f0000001eb00810f5000270035000000eb00b6
:1038000000b27a0013009000120020000000e000d7
:10381000060032008080eb0001003500110020001e
:1038200001005000900198000001eb00230090007f
:103830000000e000060032008080eb00010035004f
:103840001100200001005000a00198000001eb00d1
:10385000330090000000e000060032008080eb00a2
:10386000010035001100200001005000b001980057
:103870000001eb00131090000000e0000600320091
:103880008080eb0001003500110020000100500095
:10389000901198000001eb00020078000000060083
:1038a000889fbe00800478006002200000c8b90034
:1038b000a2b32000000141000004eb0018019800b1
:1038c0002801980038019800181198007801980094
:1038d0004801980058019800680198000811980064
:1038e000c248dd00e0ae2000008040006011b8005a
:1038f0000288be0020af2000808040008288be0089
:103900004648dd00a1af2000010040000204200075
:103910008800780012fe070089804400c0ae2000b5
:1039200088307800a0ae20008830780060af20009a
:10393000883078004f04be00000006000000eb0055
:10394000c0578800d6ff370012163700ec874700b3
:10395000889fbe008a9fbe008c9fbe008e1f78008d
:1039600080bf9f0081017800600220000fb997009e
:103970000090b900a2b3200002014000d2b79f001e
:10398000a2ab200002004000c0b79f00100c9000c6
:10399000830f5400040035002008900003047800d1
:1039a000808f5100a0003500cfb1970093017800bf
:1039b00062806100970032000000eb0007170700eb
:1039c000000578000a015400225b88005fb297006e
:1039d000440090000090de00940090000183b90044
:1039e000e6b79f00f7b79f008fbb9700423fdd000f
:1039f00020b72000000047006fb29700ffb2970089
:103a00000488be0026af200006004700cf91de00ec
:103a100030024100a0824900dfb397007700900098
:103a20006101b900820f5200838f5a0006003c00ea
:103a30000000ea00cf80de000401be00800f5200cb
:103a4000818f5a0076003500060047000288be00cc
:103a50005fb0970020029000cfa2de0050009000df
:103a60000000e900030033008381d1000281d3000c
:103a7000fbff37000416b80003a0b9000d0040009a
:103a80000591b90082064000e0b620000000470022
:103a90000c88be000fb9970082044100a3ae20003d
:103aa00069847900e6ae2000060347004512dd0078
:103ab0000802420004024200a7af200064817b009c
:103ac000cf91de0036001100a68019000001be0073
:103ad000c5ae200069807a000000550000b27b006e
:103ae0008ab47a00cf80de0002054000838548005a
:103af0000a8bbe000800e800ff0f500001003400f0
:103b00000000eb00a1ae200080b478005fb1970008
:103b100032009000cf80de000a02b80001d1b90067
:103b2000050141000b80b90080024100dfb1970020
:103b3000630090000000e900030033008582d1009b
:103b40000482d300fbff3700a0b62000000047002e
:103b50000488be0060b62000000147000009eb00a9
:103b600032117800000021004fb39700160060006a
:103b70000300320013109000cf80de000089be00e9
:103b80006fb39700ffb397000600460087804e0092
:103b9000040040008580480032024000a2824800b4
:103ba000045b8800155b88000400be00c27d200015
:103bb00003002000c57d2000850f5000e08f5800d5
:103bc00009003c00005b8000115b800002812f0037
:103bd000f3ff2f00820f5000838f58000200350042
:103be000025b8000135b8000025b8800135b88002f
:103bf000820078000fb8970053ff07004f07780046
:103c00004f06be004f05be004f04be00cf00b100fe
:103c1000000006008a1607000005780069ff3700db
:103c20000001be0088ff3700000478005eff370007
:103c3000889fbe008a1f78000208e200010032005f
:103c4000f82aef0089568000f90fb2005a5680001a
:103c5000c8578000e20f5400220032000e003400ea
:103c6000e40f5400350032002e003d00a10f20006b
:103c70000000eb00c7fe07000000e000010032007a
:103c8000f82aef006000b8002fff07004f0578000a
:103c90004f04be00000006000800e00018003a00d3
:103ca000880078000800780027ff0700e18f5400a3
:103cb0002a003200e28f54003b003200e38f5400b0
:103cc000f2ff3a0060002000c0578800080078002a
:103cd000f3fe07004f0578004f04be000000060009
:103ce000edff3700e28f540021003200f82aef0088
:103cf0004f0578004f04be0000000600e6ff3700c5
:103d0000e10f5400dfff3a008a0078000000eb006a
:103d10000dff0700e18f5400dcff3200f82aef00ae
:103d2000f3ff3700e60f5400d6ff3a00e38f54004c
:103d3000d4ff3200f82aef00edff3700e28f540085
:103d40002000320030002000c05788004f05780066
:103d50004f04be0000000600cfff3700c95788009f
:103d60004f0578004f04be0000000600caff370070
:103d7000a10f20000000eb000ffe07000000e00094
:103d80000200320040002000c05788008a007800fe
:103d90000000eb00edfe07004f0578004f04be0069
:103da00000000600bcff3700c957880008007800f3
:103db000bbfe07004f0578004f04be000000060060
:103dc000b5ff3700a10f20000000eb00fafd07004f
:103dd0008a0078000000eb00dcfe0700eeff3700f1
:103de00000000600a0498000010220000000e00061
:103df0000200320001007800000006000000780098
:103e000000000600fdff3700b049800001012000de
:103e10000000e0000200320001007800000006000f
:103e20000000780000000600fdff37000051800010
:103e300000000600704a8000814a800000000600f1
:103e4000904a8000a14a800000000600c04980001e
:103e50000000060080017800020278000000e00007
:103e6000090032004308dd00110009000380d8007a
:103e70000020b8004d09dd004300de0000007100a5
:103e8000c308de000000060000000600881f78005e
:103e90000004eb00d84988006000b800f0498800b1
:103ea000014a8800904a8800a14a8800384a880060
:103eb000e8498800104a8800214a8800704a880032
:103ec000814a8800484a880002042000880078005f
:103ed000a09d2000a2fc07000208200088007800b6
:103ee000a09520009efc07004f047800000006000b
:103ef000d0508000f00f500005003c001a0ae2008c
:103f000003003400c04980000000e000b30032002c
:103f10001a0aed008000eb0002003300d15080004f
:103f20008100e900d1508800c05780000000e00007
:103f300009003200e50f500007003200c049800040
:103f4000e40f50008d003200c0498000e10f5000a6
:103f500009003200000006003209e200f7ff3200db
:103f600040002000c0498800c0498000e40f500094
:103f7000f5ff3a00810037000000eb007ffc0700ee
:103f800080007800f0508000008050006d00b90083
:103f900000518800c05780000000e0008b003a000c
:103fa000202aef00414a80008100e8000001eb0078
:103fb000700f2000808f500002003c00424a8000b9
:103fc0000201e800424a8800414a80000100e00006
:103fd0002c003a003c09ec00ef0f5000a800340020
:103fe00001007800e0498800e3498000005180002a
:103ff000025180000280b900c219dd00a29d20009c
:10400000828141008089be004229ef004429ef00ef
:104010000002eb00820278003501be00104a8000e9
:10402000214a80000200400083804800104a880036
:10403000214a88000402e800f00f5200f6ff3a001f
:10404000104a8000214a80004c09dd004400de0057
:1040500000007100c488de00704a8800814a880030
:104060003409e20007003a00724a8000834a800067
:1040700000402800717d2100800f5100818f590080
:1040800094003c00314a80008100e8000001eb0010
:10409000f0262000808f500002003c00324a800051
:1040a0000201e800324a8800314a80000100e00045
:1040b00024003a003a09ec00ff0f50006000340081
:1040c00001007800d0498800d34980000051800069
:1040d000025180000280b900c219dd00a2952000c3
:1040e000828141008089be003e29ef004029ef0017
:1040f0000002eb0006022000820278003501be00bb
:10410000f0498000014a800002004000838048009e
:10411000f0498800014a88000402e800860f520036
:10412000f6ff3a00f0498000014a80004b09dd00ab
:104130004500de0000007100c588de00904a88005e
:10414000a14a88003609e20082ff3a00924a8000c4
:10415000a34a800000292700e1442000800f51007d
:10416000818f59007bff340030002000c049880057
:1041700010002000b049880044ff37000000eb0029
:10418000fefb0700f050880010002000fbfb07003a
:10419000e0508800f150800020702000808f500097
:1041a00004003600f1508000e018b000808f50000d
:1041b0004200360040002000c0498800c04980000d
:1041c000e10f500063ff3a006bff3700e50f50002e
:1041d00074ff3a00202aef0072ff3700e7fb070068
:1041e0005829b40010002000e4fb07005629b40051
:1041f000d2508000e10f510045ff3a00c04a8000d4
:104200004400de00f0508800b04a80004400de0028
:10421000e0508800f150800020702000808f500016
:104220003a003600f1508000e018b000808f500056
:1042300036003e00c24988009249880034ff3700aa
:104240003a09ec00d0498800d34980000051800031
:10425000025180000280b900c219dd00a295200041
:10426000828141008089be003e29ef004029ef0095
:104270000002eb0006022000820278009fff370058
:104280003c09ec00e0498800e349800000518000cf
:10429000025180000280b900c219dd00a29d2000f9
:1042a000828141008089be004229ef004429ef004d
:1042b0000002eb008202780057ff37001000200058
:1042c000c0498800c0498000e10f500021ff3a003a
:1042d00029ff37000151800000e22400808f500048
:1042e00004003c0001518000001e2b00808f500014
:1042f00064ff3d0020002000c0498800100020001d
:10430000a0498800e1fe07005eff37003829ef0072
:104310005829ef005629ef0040062000d0508800b1
:10432000fbfe3700881f78000004eb00085188006e
:10433000f8508800e8508800a00f2000d050880076
:10434000c84a8800b84a8800d84988006000b80088
:10435000f0498800014a8800904a8800a14a8800f4
:10436000384a8800b8498800a8498800e849880088
:10437000104a8800214a8800704a8800814a8800d3
:10438000484a8800c8498800020420008800780054
:10439000a09d200072fb0700020820008800780022
:1043a000a09520006efb07004f0478000000060077
:1043b00000000600c4c2bf004400de0061006000cf
:1043c0000004a2004400dd00412c20009140780050
:1043d0000144a10080c0700001007800c4e2b70071
:1043e000000006000000400001bb20006080780053
:1043f000000006004200dd0041bb20000102400039
:104400006011b8008000eb0034007800000141002a
:10441000e08149008100e800e28f5000faff3a0095
:104420008380d1000280d3000000060000017800e4
:1044300063806000e10f50000c003200baeaab006c
:1044400005003a000200410001bb200001004000cd
:104450001008e8000000060002014100c208de006a
:10446000e0bb20000131780000000600c209de0038
:10447000e0fd2300808f5100f0ff3e0082004100ec
:10448000e0bb20008330780000000600d442a80082
:10449000cc62a8000000eb00e3bb200002bb2000c0
:1044a0008000780001b07900013079000080e800d8
:1044b000e40f5000fbff3a0000000600000040003f
:1044c000e1bb20006080780000000600889fbe00ed
:1044d000c8a2a900cea2a800c8c2a900cec2a80046
:1044e000d442a900cc62a900d402a900d422a90018
:1044f00000000000000000000000000000000000bc
:1045000000000000000000000000000000000000ab
:10451000000000000000000000000000000000009b
:10452000000000000000000000000000000000008b
:10453000000000000000000000000000000000007b
:10454000000000000000000000000000000000006b
:10455000000000000000000000000000000000005b
:10456000000000000000000000000000000000004b
:10457000000000000000000000000000000000003b
:10458000000000000000000000000000000000002b
:10459000000000000000000000000000000000001b
:1045a000000000000000000000000000000000000b
:1045b00000000000000000000000000000000000fb
:1045c00000000000000000000000000000000000eb
:1045d00000000000000000000000000000000000db
:1045e00000000000000000000000000000000000cb
:1045f00000000000000000000000000000000000bb
:1046000000000000000000000000000000000000aa
:10461000000000000000000000000000000000009a
:10462000000000000000000000000000000000008a
:10463000000000000000000000000000000000007a
:10464000000000000000000000000000000000006a
:10465000000000000000000000000000000000005a
:10466000d402a800d422a800cca2a800ccc2a800e2
:10467000000000000000000000000000000000003a
:10468000000000000000000000000000000000002a
:10469000000000000000000000000000000000001a
:1046a000000000000000000000000000000000000a
:1046b00000000000000000000000000000000000fa
:1046c00000000000000000000000000000000000ea
:1046d00000000000000000000000000000000000da
:1046e00000000000000000000000000000000000ca
:1046f00000000000000000000000000000000000ba
:1047000000000000000000000000000000000000a9
:104710000000000000000000000000000000000099
:104720000000000000000000000000000000000089
:10473000d402a900d422a90000000000000000005b
:104740000000000000000000000000000000000069
:104750000000000000000000000000000000000059
:104760000000000000000000000000000000000049
:104770000000000000000000000000000000000039
:104780000000000000000000000000000000000029
:104790000000000000000000000000000000000019
:1047a0000000000000000000000000000000000009
:1047b00000000000000000000000000000000000f9
:1047c00000000000000000000000000000000000e9
:1047d00000000000000000000000000000000000d9
:1047e00000000000000000000000000000000000c9
:1047f0000000000000000000d402a800d422a8009d
:10480000cca2a900ccc2a90000000000000000005a
:104810000000000000000000000000000000000098
:104820000000000000000000000000000000000088
:104830000000000000000000000000000000000078
:104840000000000000000000000000000000000068
:104850000000000000000000000000000000000058
:104860000000000000000000000000000000000048
:104870000000000000000000000000000000000038
:104880000000000000000000000000000000000028
:104890000000000000000000000000000000000018
:1048a0000000000000000000000000000000000008
:1048b00000000000000000000000000000000000f8
:1048c0000000000000000000d402a900d422a900ca
:1048d00000000000000000000000000000000000d8
:1048e00000000000000000000000000000000000c8
:1048f00000000000000000000000000000000000b8
:1049000000000000000000000000000000000000a7
:104910000000000000000000000000000000000097
:104920000000000000000000000000000000000087
:104930000000000000000000000000000000000077
:104940000000000000000000000000000000000067
:104950000000000000000000000000000000000057
:104960000000000000000000000000000000000047
:104970000000000000000000000000000000000037
:104980000000000000000000000000000000000027
:10499000d402a800d422a800cca2a800ccc2a800af
:1049a0000000000000000000000000000000000007
:1049b00000000000000000000000000000000000f7
:1049c00000000000000000000000000000000000e7
:1049d00000000000000000000000000000000000d7
:1049e00000000000000000000000000000000000c7
:1049f00000000000000000000000000000000000b7
:104a000000000000000000000000000000000000a6
:104a10000000000000000000000000000000000096
:104a20000000000000000000000000000000000086
:104a30000000000000000000000000000000000076
:104a40000000000000000000000000000000000066
:104a50000000000000000000000000000000000056
:104a6000d402a900d422a900000000000000000028
:104a70000000000000000000000000000000000036
:104a80000000000000000000000000000000000026
:104a90000000000000000000000000000000000016
:104aa0000000000000000000000000000000000006
:104ab00000000000000000000000000000000000f6
:104ac00000000000000000000000000000000000e6
:104ad00000000000000000000000000000000000d6
:104ae00000000000000000000000000000000000c6
:104af00000000000000000000000000000000000b6
:104b000000000000000000000000000000000000a5
:104b10000000000000000000000000000000000095
:104b20000000000000000000d402a800d422a80069
:104b3000cca2a900ccc2a900000000000000000027
:104b40000000000000000000000000000000000065
:104b50000000000000000000000000000000000055
:104b60000000000000000000000000000000000045
:104b70000000000000000000000000000000000035
:104b80000000000000000000000000000000000025
:104b90000000000000000000000000000000000015
:104ba0000000000000000000000000000000000005
:104bb00000000000000000000000000000000000f5
:104bc00000000000000000000000000000000000e5
:104bd00000000000000000000000000000000000d5
:104be00000000000000000000000000000000000c5
:104bf0000000000000000000d402a900d422a90097
:104c000000000000000000000000000000000000a4
:104c10000000000000000000000000000000000094
:104c20000000000000000000000000000000000084
:104c30000000000000000000000000000000000074
:104c40000000000000000000000000000000000064
:104c50000000000000000000000000000000000054
:104c60000000000000000000000000000000000044
:104c70000000000000000000000000000000000034
:104c80000000000000000000000000000000000024
:104c90000000000000000000000000000000000014
:104ca0000000000000000000000000000000000004
:104cb00000000000000000000000000000000000f4
:104cc000d402a800d422a800cca2a800ccc2a8007c
:104cd00000000000000000000000000000000000d4
:104ce00000000000000000000000000000000000c4
:104cf00000000000000000000000000000000000b4
:104d000000000000000000000000000000000000a3
:104d10000000000000000000000000000000000093
:104d20000000000000000000000000000000000083
:104d30000000000000000000000000000000000073
:104d40000000000000000000000000000000000063
:104d50000000000000000000000000000000000053
:104d60000000000000000000000000000000000043
:104d70000000000000000000000000000000000033
:104d80000000000000000000000000000000000023
:104d9000d402a900d422a9000000000000000000f5
:104da0000000000000000000000000000000000003
:104db00000000000000000000000000000000000f3
:104dc00000000000000000000000000000000000e3
:104dd00000000000000000000000000000000000d3
:104de00000000000000000000000000000000000c3
:104df00000000000000000000000000000000000b3
:104e000000000000000000000000000000000000a2
:104e10000000000000000000000000000000000092
:104e20000000000000000000000000000000000082
:104e30000000000000000000000000000000000072
:104e40000000000000000000000000000000000062
:104e50000000000000000000d402a800d422a80036
:104e6000cca2a900ccc2a9000000000000000000f4
:104e70000000000000000000000000000000000032
:104e80000000000000000000000000000000000022
:104e90000000000000000000000000000000000012
:104ea0000000000000000000000000000000000002
:104eb00000000000000000000000000000000000f2
:104ec00000000000000000000000000000000000e2
:104ed00000000000000000000000000000000000d2
:104ee00000000000000000000000000000000000c2
:104ef00000000000000000000000000000000000b2
:104f000000000000000000000000000000000000a1
:104f10000000000000000000000000000000000091
:104f20000000000000000000d402a900d422a90063
:104f30000000000000000000000000000000000071
:104f40000000000000000000000000000000000061
:104f50000000000000000000000000000000000051
:104f60000000000000000000000000000000000041
:104f70000000000000000000000000000000000031
:104f80000000000000000000000000000000000021
:104f90000000000000000000000000000000000011
:104fa0000000000000000000000000000000000001
:104fb00000000000000000000000000000000000f1
:104fc00000000000000000000000000000000000e1
:104fd00000000000000000000000000000000000d1
:104fe00000000000000000000000000000000000c1
:104ff000d402a800d422a800cca2a800ccc2a80049
:1050000000000000000000000000000000000000a0
:105010000000000000000000000000000000000090
:105020000000000000000000000000000000000080
:105030000000000000000000000000000000000070
:105040000000000000000000000000000000000060
:105050000000000000000000000000000000000050
:105060000000000000000000000000000000000040
:105070000000000000000000000000000000000030
:105080000000000000000000000000000000000020
:105090000000000000000000000000000000000010
:1050a0000000000000000000000000000000000000
:1050b00000000000000000000000000000000000f0
:1050c000d402a900d422a9000000000000000000c2
:1050d00000000000000000000000000000000000d0
:1050e00000000000000000000000000000000000c0
:1050f00000000000000000000000000000000000b0
:10510000000000000000000000000000000000009f
:10511000000000000000000000000000000000008f
:10512000000000000000000000000000000000007f
:10513000000000000000000000000000000000006f
:10514000000000000000000000000000000000005f
:10515000000000000000000000000000000000004f
:10516000000000000000000000000000000000003f
:10517000000000000000000000000000000000002f
:105180000000000000000000d402a800d422a80003
:10519000cca2a900ccc2a9000000000000000000c1
:1051a00000000000000000000000000000000000ff
:1051b00000000000000000000000000000000000ef
:1051c00000000000000000000000000000000000df
:1051d00000000000000000000000000000000000cf
:1051e00000000000000000000000000000000000bf
:1051f00000000000000000000000000000000000af
:10520000000000000000000000000000000000009e
:10521000000000000000000000000000000000008e
:10522000000000000000000000000000000000007e
:10523000000000000000000000000000000000006e
:10524000000000000000000000000000000000005e
:105250000000000000000000d402a900d422a90030
:10526000000000000000000000000000000000003e
:10527000000000000000000000000000000000002e
:10528000000000000000000000000000000000001e
:10529000000000000000000000000000000000000e
:1052a00000000000000000000000000000000000fe
:1052b00000000000000000000000000000000000ee
:1052c00000000000000000000000000000000000de
:1052d00000000000000000000000000000000000ce
:1052e00000000000000000000000000000000000be
:1052f00000000000000000000000000000000000ae
:10530000000000000000000000000000000000009d
:10531000000000000000000000000000000000008d
:10532000d00020008f100700d402a800d422a800cb
:10533000cca2a800ccc2a800000000000000000021
:10534000000000000000000000000000000000005d
:10535000000000000000000000000000000000004d
:10536000000000000000000000000000000000003d
:10537000000000000000000000000000000000002d
:10538000000000000000000000000000000000001d
:10539000000000000000000000000000000000000d
:1053a00000000000000000000000000000000000fd
:1053b00000000000000000000000000000000000ed
:1053c00000000000000000000000000000000000dd
:1053d00000000000000000000000000000000000cd
:1053e00000000000000000000000000000000000bd
:1053f0000000000000000000d402a900d422a9008f
:10540000000000000000000000000000000000009c
:10541000000000000000000000000000000000008c
:10542000000000000000000000000000000000007c
:10543000000000000000000000000000000000006c
:10544000000000000000000000000000000000005c
:10545000000000000000000000000000000000004c
:10546000000000000000000000000000000000003c
:10547000000000000000000000000000000000002c
:10548000000000000000000000000000000000001c
:10549000000000000000000000000000000000000c
:1054a00000000000000000000000000000000000fc
:1054b00000000000000000000000000000000000ec
:1054c000d402a800d422a800cca2a800ccc2a80074
:1054d00000000000000000000000000000000000cc
:1054e00000000000000000000000000000000000bc
:1054f00000000000000000000000000000000000ac
:10550000000000000000000000000000000000009b
:10551000000000000000000000000000000000008b
:10552000000000000000000000000000000000007b
:10553000000000000000000000000000000000006b
:10554000000000000000000000000000000000005b
:10555000000000000000000000000000000000004b
:10556000000000000000000000000000000000003b
:10557000000000000000000000000000000000002b
:10558000000000000000000000000000000000001b
:10559000d402a900d422a9000000000000000000ed
:1055a00000000000000000000000000000000000fb
:1055b00000000000000000000000000000000000eb
:1055c00000000000000000000000000000000000db
:1055d00000000000000000000000000000000000cb
:1055e00000000000000000000000000000000000bb
:1055f00000000000000000000000000000000000ab
:10560000000000000000000000000000000000009a
:10561000000000000000000000000000000000008a
:10562000000000000000000000000000000000007a
:10563000000000000000000000000000000000006a
:10564000000000000000000000000000000000005a
:105650000000000000000000d402a800d422a8002e
:10566000cca2a800ccc2a8000000000000000000ee
:10567000000000000000000000000000000000002a
:10568000000000000000000000000000000000001a
:10569000000000000000000000000000000000000a
:1056a00000000000000000000000000000000000fa
:1056b00000000000000000000000000000000000ea
:1056c00000000000000000000000000000000000da
:1056d00000000000000000000000000000000000ca
:1056e00000000000000000000000000000000000ba
:1056f00000000000000000000000000000000000aa
:105700000000000000000000000000000000000099
:105710000000000000000000000000000000000089
:105720000000000000000000d402a900d422a9005b
:105730000000000000000000000000000000000069
:105740000000000000000000000000000000000059
:105750000000000000000000000000000000000049
:105760000000000000000000000000000000000039
:105770000000000000000000000000000000000029
:105780000000000000000000000000000000000019
:105790000000000000000000000000000000000009
:1057a00000000000000000000000000000000000f9
:1057b00000000000000000000000000000000000e9
:1057c00000000000000000000000000000000000d9
:1057d00000000000000000000000000000000000c9
:1057e00000000000000000000000000000000000b9
:1057f000d402a800d422a800cca2a800ccc2a80041
:105800000000000000000000000000000000000098
:105810000000000000000000000000000000000088
:105820000000000000000000000000000000000078
:105830000000000000000000000000000000000068
:105840000000000000000000000000000000000058
:105850000000000000000000000000000000000048
:105860000000000000000000000000000000000038
:105870000000000000000000000000000000000028
:105880000000000000000000000000000000000018
:105890000000000000000000000000000000000008
:1058a00000000000000000000000000000000000f8
:1058b00000000000000000000000000000000000e8
:1058c000d402a900d422a9000000000000000000ba
:1058d00000000000000000000000000000000000c8
:1058e00000000000000000000000000000000000b8
:1058f00000000000000000000000000000000000a8
:105900000000000000000000000000000000000097
:105910000000000000000000000000000000000087
:105920000000000000000000000000000000000077
:105930000000000000000000000000000000000067
:105940000000000000000000000000000000000057
:105950000000000000000000000000000000000047
:105960000000000000000000000000000000000037
:105970000000000000000000000000000000000027
:105980000000000000000000d402a800d422a800fb
:10599000cca2a800ccc2a8000000000000000000bb
:1059a00000000000000000000000000000000000f7
:1059b00000000000000000000000000000000000e7
:1059c00000000000000000000000000000000000d7
:1059d00000000000000000000000000000000000c7
:1059e00000000000000000000000000000000000b7
:1059f00000000000000000000000000000000000a7
:105a00000000000000000000000000000000000096
:105a10000000000000000000000000000000000086
:105a20000000000000000000000000000000000076
:105a30000000000000000000000000000000000066
:105a40000000000000000000000000000000000056
:105a50000000000000000000d402a900d422a90028
:105a60000000000000000000000000000000000036
:105a70000000000000000000000000000000000026
:105a80000000000000000000000000000000000016
:105a90000000000000000000000000000000000006
:105aa00000000000000000000000000000000000f6
:105ab00000000000000000000000000000000000e6
:105ac00000000000000000000000000000000000d6
:105ad00000000000000000000000000000000000c6
:105ae00000000000000000000000000000000000b6
:105af00000000000000000000000000000000000a6
:105b00000000000000000000000000000000000095
:105b10000000000000000000000000000000000085
:105b2000d402a800d422a800cca2a800ccc2a8000d
:105b30000000000000000000000000000000000065
:105b40000000000000000000000000000000000055
:105b50000000000000000000000000000000000045
:105b60000000000000000000000000000000000035
:105b70000000000000000000000000000000000025
:105b80000000000000000000000000000000000015
:105b90000000000000000000000000000000000005
:105ba00000000000000000000000000000000000f5
:105bb00000000000000000000000000000000000e5
:105bc00000000000000000000000000000000000d5
:105bd00000000000000000000000000000000000c5
:105be00000000000000000000000000000000000b5
:105bf000d402a900d422a900000000000000000087
:105c00000000000000000000000000000000000094
:105c10000000000000000000000000000000000084
:105c20000000000000000000000000000000000074
:105c30000000000000000000000000000000000064
:105c40000000000000000000000000000000000054
:105c50000000000000000000000000000000000044
:105c60000000000000000000000000000000000034
:105c70000000000000000000000000000000000024
:105c80000000000000000000000000000000000014
:105c90000000000000000000000000000000000004
:105ca00000000000000000000000000000000000f4
:105cb0000000000000000000d402a800d422a800c8
:105cc000cca2a800ccc2a800000000000000000088
:105cd00000000000000000000000000000000000c4
:105ce00000000000000000000000000000000000b4
:105cf00000000000000000000000000000000000a4
:105d00000000000000000000000000000000000093
:105d10000000000000000000000000000000000083
:105d20000000000000000000000000000000000073
:105d30000000000000000000000000000000000063
:105d40000000000000000000000000000000000053
:105d50000000000000000000000000000000000043
:105d60000000000000000000000000000000000033
:105d70000000000000000000000000000000000023
:105d80000000000000000000d402a900d422a900f5
:105d90000000000000000000000000000000000003
:105da00000000000000000000000000000000000f3
:105db00000000000000000000000000000000000e3
:105dc00000000000000000000000000000000000d3
:105dd00000000000000000000000000000000000c3
:105de00000000000000000000000000000000000b3
:105df00000000000000000000000000000000000a3
:105e00000000000000000000000000000000000092
:105e10000000000000000000000000000000000082
:105e20000000000000000000000000000000000072
:105e30000000000000000000000000000000000062
:105e40000000000000000000000000000000000052
:105e5000d402a800d422a800cca2a800ccc2a800da
:105e60000000000000000000000000000000000032
:105e70000000000000000000000000000000000022
:105e80000000000000000000000000000000000012
:105e90000000000000000000000000000000000002
:105ea00000000000000000000000000000000000f2
:105eb00000000000000000000000000000000000e2
:105ec00000000000000000000000000000000000d2
:105ed00000000000000000000000000000000000c2
:105ee00000000000000000000000000000000000b2
:105ef00000000000000000000000000000000000a2
:105f00000000000000000000000000000000000091
:105f10000000000000000000000000000000000081
:105f2000d402a900d422a900000000000000000053
:105f30000000000000000000000000000000000061
:105f40000000000000000000000000000000000051
:105f50000000000000000000000000000000000041
:105f60000000000000000000000000000000000031
:105f70000000000000000000000000000000000021
:105f80000000000000000000000000000000000011
:105f90000000000000000000000000000000000001
:105fa00000000000000000000000000000000000f1
:105fb00000000000000000000000000000000000e1
:105fc00000000000000000000000000000000000d1
:105fd00000000000000000000000000000000000c1
:105fe0000000000000000000800020005d0d0700a0
:105ff000c8a2a800cea2a900c8c2a800cec2a9000b
:1060000080002000570d0700d402a800d422a80069
:106010000000000000000000000000000000000080
:106020000000000000000000000000000000000070
:106030000000000000000000000000000000000060
:106040000000000000000000000000000000000050
:106050000000000000000000000000000000000040
:106060000000000000000000000000000000000030
:106070000000000000000000000000000000000020
:106080000000000000000000000000000000000010
:106090000000000000000000000000000000000000
:1060a00000000000000000000000000000000000f0
:1060b00000000000000000000000000000000000e0
:1060c00000000000000000000000000000000000d0
:1060d000d402a900d422a900cac2bf004500de0034
:1060e00061016000cac2bf004600de00e10060003e
:1060f00000000000000000000000000000000000a0
:10610000000000000000000000000000000000008f
:10611000000000000000000000000000000000007f
:10612000000000000000000000000000000000006f
:10613000000000000000000000000000000000005f
:10614000000000000000000000000000000000004f
:10615000000000000000000000000000000000003f
:10616000000000000000000000000000000000002f
:10617000000000000000000000000000000000001f
:10618000000000000000000000000000000000000f
:1061900000000000000000000000000000000000ff
:1061a00000000000000000000000000000000000ef
:1061b0000280fb00000140000180fb0080014000e4
:1061c000d402a800d422a8000000000000000000b3
:1061d00000000000000000000000000000000000bf
:1061e00000000000000000000000000000000000af
:1061f000000000000000000000000000000000009f
:10620000000000000000000000000000000000008e
:10621000000000000000000000000000000000007e
:10622000000000000000000000000000000000006e
:10623000000000000000000000000000000000005e
:10624000000000000000000000000000000000004e
:10625000000000000000000000000000000000003e
:10626000000000000000000000000000000000002e
:10627000000000000000000000000000000000001e
:106280000000000000000000d402a900d422a900f0
:10629000cac2bf004500de006100600080007100de
:1062a000cac2bf004600de006100600000807100cd
:1062b00000000000000000000000000000000000de
:1062c00000000000000000000000000000000000ce
:1062d00000000000000000000000000000000000be
:1062e00000000000000000000000000000000000ae
:1062f000000000000000000000000000000000009e
:10630000000000000000000000000000000000008d
:10631000000000000000000000000000000000007d
:10632000000000000000000000000000000000006d
:10633000000000000000000000000000000000005d
:10634000000000000000000000000000000000004d
:10635000000000000000000000000000000000003d
:10636000000000000000000000000000000000002d
:106370008180400000014000d402a800d422a8007f
:10638000000000000000000000000000000000000d
:1063900000000000000000000000000000000000fd
:1063a00000000000000000000000000000000000ed
:1063b00000000000000000000000000000000000dd
:1063c00000000000000000000000000000000000cd
:1063d00000000000000000000000000000000000bd
:1063e00000000000000000000000000000000000ad
:1063f000000000000000000000000000000000009d
:10640000000000000000000000000000000000008c
:10641000000000000000000000000000000000007c
:10642000000000000000000000000000000000006c
:10643000000000000000000000000000000000005c
:10644000d402a900d422a900cac2bf004500de00c0
:106450006100600080807000cac2bf004600de009c
:1064600061006000000071000000000000000000fa
:10647000000000000000000000000000000000001c
:10648000000000000000000000000000000000000c
:1064900000000000000000000000000000000000fc
:1064a00000000000000000000000000000000000ec
:1064b00000000000000000000000000000000000dc
:1064c00000000000000000000000000000000000cc
:1064d00000000000000000000000000000000000bc
:1064e00000000000000000000000000000000000ac
:1064f000000000000000000000000000000000009c
:10650000000000000000000000000000000000008b
:10651000000000000000000000000000000000007b
:1065200000000000000000008180400000014000e9
:10653000d402a800d422a80000000000000000003f
:10654000000000000000000000000000000000004b
:10655000000000000000000000000000000000003b
:10656000000000000000000000000000000000002b
:10657000000000000000000000000000000000001b
:10658000000000000000000000000000000000000b
:1065900000000000000000000000000000000000fb
:1065a00000000000000000000000000000000000eb
:1065b00000000000000000000000000000000000db
:1065c00000000000000000000000000000000000cb
:1065d00000000000000000000000000000000000bb
:1065e00000000000000000000000000000000000ab
:1065f0000000000000000000d402a900d422a9007d
:10660000cac2bf004500de006100600080807000eb
:10661000cac2bf004600de006100600000007100d9
:10662000000000000000000000000000000000006a
:10663000000000000000000000000000000000005a
:10664000000000000000000000000000000000004a
:10665000000000000000000000000000000000003a
:10666000000000000000000000000000000000002a
:10667000000000000000000000000000000000001a
:10668000000000000000000000000000000000000a
:1066900000000000000000000000000000000000fa
:1066a00000000000000000000000000000000000ea
:1066b00000000000000000000000000000000000da
:1066c00000000000000000000000000000000000ca
:1066d00000000000000000000000000000000000ba
:1066e0008180400000014000d402a800d422a8000c
:1066f000000000000000000000000000000000009a
:106700000000000000000000000000000000000089
:106710000000000000000000000000000000000079
:106720000000000000000000000000000000000069
:106730000000000000000000000000000000000059
:106740000000000000000000000000000000000049
:106750000000000000000000000000000000000039
:106760000000000000000000000000000000000029
:106770000000000000000000000000000000000019
:106780000000000000000000000000000000000009
:1067900000000000000000000000000000000000f9
:1067a00000000000000000000000000000000000e9
:1067b000d402a900d422a900cac2bf004500de004d
:1067c0006100600080807000cac2bf004600de0029
:1067d0006100600000007100000000000000000087
:1067e00000000000000000000000000000000000a9
:1067f0000000000000000000000000000000000099
:106800000000000000000000000000000000000088
:106810000000000000000000000000000000000078
:106820000000000000000000000000000000000068
:106830000000000000000000000000000000000058
:106840000000000000000000000000000000000048
:106850000000000000000000000000000000000038
:106860000000000000000000000000000000000028
:106870000000000000000000000000000000000018
:106880000000000000000000000000000000000008
:106890000000000000000000818040000001400076
:1068a000d402a800d422a8000000000000000000cc
:1068b00000000000000000000000000000000000d8
:1068c00000000000000000000000000000000000c8
:1068d00000000000000000000000000000000000b8
:1068e00000000000000000000000000000000000a8
:1068f0000000000000000000000000000000000098
:106900000000000000000000000000000000000087
:106910000000000000000000000000000000000077
:106920000000000000000000000000000000000067
:106930000000000000000000000000000000000057
:106940000000000000000000000000000000000047
:106950000000000000000000000000000000000037
:106960000000000000000000d402a900d422a90009
:10697000cac2bf004500de00610060008080700078
:10698000cac2bf004600de00610060000000710066
:1069900000000000000000000000000000000000f7
:1069a00000000000000000000000000000000000e7
:1069b00000000000000000000000000000000000d7
:1069c00000000000000000000000000000000000c7
:1069d00000000000000000000000000000000000b7
:1069e00000000000000000000000000000000000a7
:1069f0000000000000000000000000000000000097
:106a00000000000000000000000000000000000086
:106a10000000000000000000000000000000000076
:106a20000000000000000000000000000000000066
:106a30000000000000000000000000000000000056
:106a40000000000000000000000000000000000046
:106a50008180400000014000d402a800d422a80098
:106a60000000000000000000000000000000000026
:106a70000000000000000000000000000000000016
:106a80000000000000000000000000000000000006
:106a900000000000000000000000000000000000f6
:106aa00000000000000000000000000000000000e6
:106ab00000000000000000000000000000000000d6
:106ac00000000000000000000000000000000000c6
:106ad00000000000000000000000000000000000b6
:106ae00000000000000000000000000000000000a6
:106af0000000000000000000000000000000000096
:106b00000000000000000000000000000000000085
:106b10000000000000000000000000000000000075
:106b2000d402a900d422a900cac2bf004500de00d9
:106b30006100600080807000cac2bf004600de00b5
:106b40006100600000007100000000000000000013
:106b50000000000000000000000000000000000035
:106b60000000000000000000000000000000000025
:106b70000000000000000000000000000000000015
:106b80000000000000000000000000000000000005
:106b900000000000000000000000000000000000f5
:106ba00000000000000000000000000000000000e5
:106bb00000000000000000000000000000000000d5
:106bc00000000000000000000000000000000000c5
:106bd00000000000000000000000000000000000b5
:106be00000000000000000000000000000000000a5
:106bf0000000000000000000000000000000000095
:106c00000000000000000000818040000001400002
:106c1000d402a800d422a800000000000000000058
:106c20000000000000000000000000000000000064
:106c30000000000000000000000000000000000054
:106c40000000000000000000000000000000000044
:106c50000000000000000000000000000000000034
:106c60000000000000000000000000000000000024
:106c70000000000000000000000000000000000014
:106c80000000000000000000000000000000000004
:106c900000000000000000000000000000000000f4
:106ca00000000000000000000000000000000000e4
:106cb00000000000000000000000000000000000d4
:106cc00000000000000000000000000000000000c4
:106cd0000000000000000000d402a900d422a90096
:106ce000cac2bf004500de00610060008080700005
:106cf000cac2bf004600de006100600000007100f3
:106d00000000000000000000000000000000000083
:106d10000000000000000000000000000000000073
:106d20000000000000000000000000000000000063
:106d30000000000000000000000000000000000053
:106d40000000000000000000000000000000000043
:106d50000000000000000000000000000000000033
:106d60000000000000000000000000000000000023
:106d70000000000000000000000000000000000013
:106d80000000000000000000000000000000000003
:106d900000000000000000000000000000000000f3
:106da00000000000000000000000000000000000e3
:106db00000000000000000000000000000000000d3
:106dc0000184400080044000d0002000e509070055
:106dd000d402a800d422a800000000000000000097
:106de00000000000000000000000000000000000a3
:106df0000000000000000000000000000000000093
:106e00000000000000000000000000000000000082
:106e10000000000000000000000000000000000072
:106e20000000000000000000000000000000000062
:106e30000000000000000000000000000000000052
:106e40000000000000000000000000000000000042
:106e50000000000000000000000000000000000032
:106e60000000000000000000000000000000000022
:106e70000000000000000000000000000000000012
:106e80000000000000000000000000000000000002
:106e90000000000000000000d402a900d422a900d4
:106ea000cac2bf004500de006100600080007400bf
:106eb000cac2bf004600de006100600000807400ae
:106ec00000000000000000000000000000000000c2
:106ed00000000000000000000000000000000000b2
:106ee00000000000000000000000000000000000a2
:106ef0000000000000000000000000000000000092
:106f00000000000000000000000000000000000081
:106f10000000000000000000000000000000000071
:106f20000000000000000000000000000000000061
:106f30000000000000000000000000000000000051
:106f40000000000000000000000000000000000041
:106f50000000000000000000000000000000000031
:106f60000000000000000000000000000000000021
:106f70000000000000000000000000000000000011
:106f80008180400000014000d402a800d422a80063
:106f900000000000000000000000000000000000f1
:106fa00000000000000000000000000000000000e1
:106fb00000000000000000000000000000000000d1
:106fc00000000000000000000000000000000000c1
:106fd00000000000000000000000000000000000b1
:106fe00000000000000000000000000000000000a1
:106ff0000000000000000000000000000000000091
:107000000000000000000000000000000000000080
:107010000000000000000000000000000000000070
:107020000000000000000000000000000000000060
:107030000000000000000000000000000000000050
:107040000000000000000000000000000000000040
:10705000d402a900d422a900cac2bf004500de00a4
:107060006100600080807000cac2bf004600de0080
:1070700061006000000071000000000000000000de
:107080000000000000000000000000000000000000
:1070900000000000000000000000000000000000f0
:1070a00000000000000000000000000000000000e0
:1070b00000000000000000000000000000000000d0
:1070c00000000000000000000000000000000000c0
:1070d00000000000000000000000000000000000b0
:1070e00000000000000000000000000000000000a0
:1070f0000000000000000000000000000000000090
:10710000000000000000000000000000000000007f
:10711000000000000000000000000000000000006f
:10712000000000000000000000000000000000005f
:1071300000000000000000008180400000014000cd
:10714000d402a800d422a800000000000000000023
:10715000000000000000000000000000000000002f
:10716000000000000000000000000000000000001f
:10717000000000000000000000000000000000000f
:1071800000000000000000000000000000000000ff
:1071900000000000000000000000000000000000ef
:1071a00000000000000000000000000000000000df
:1071b00000000000000000000000000000000000cf
:1071c00000000000000000000000000000000000bf
:1071d00000000000000000000000000000000000af
:1071e000000000000000000000000000000000009f
:1071f000000000000000000000000000000000008f
:107200000000000000000000d402a900d422a90060
:10721000cac2bf004500de006100600080807000cf
:10722000cac2bf004600de006100600000007100bd
:10723000000000000000000000000000000000004e
:10724000000000000000000000000000000000003e
:10725000000000000000000000000000000000002e
:10726000000000000000000000000000000000001e
:10727000000000000000000000000000000000000e
:1072800000000000000000000000000000000000fe
:1072900000000000000000000000000000000000ee
:1072a00000000000000000000000000000000000de
:1072b00000000000000000000000000000000000ce
:1072c00000000000000000000000000000000000be
:1072d00000000000000000000000000000000000ae
:1072e000000000000000000000000000000000009e
:1072f0008180400000014000d402a800d422a800f0
:10730000000000000000000000000000000000007d
:10731000000000000000000000000000000000006d
:10732000000000000000000000000000000000005d
:10733000000000000000000000000000000000004d
:10734000000000000000000000000000000000003d
:10735000000000000000000000000000000000002d
:10736000000000000000000000000000000000001d
:10737000000000000000000000000000000000000d
:1073800000000000000000000000000000000000fd
:1073900000000000000000000000000000000000ed
:1073a00000000000000000000000000000000000dd
:1073b00000000000000000000000000000000000cd
:1073c000d402a900d422a900cac2bf004500de0031
:1073d0006100600080807000cac2bf004600de000d
:1073e000610060000000710000000000000000006b
:1073f000000000000000000000000000000000008d
:10740000000000000000000000000000000000007c
:10741000000000000000000000000000000000006c
:10742000000000000000000000000000000000005c
:10743000000000000000000000000000000000004c
:10744000000000000000000000000000000000003c
:10745000000000000000000000000000000000002c
:10746000000000000000000000000000000000001c
:10747000000000000000000000000000000000000c
:1074800000000000000000000000000000000000fc
:1074900000000000000000000000000000000000ec
:1074a000000000000000000081804000000140005a
:1074b000d402a800d422a8000000000000000000b0
:1074c00000000000000000000000000000000000bc
:1074d00000000000000000000000000000000000ac
:1074e000000000000000000000000000000000009c
:1074f000000000000000000000000000000000008c
:10750000000000000000000000000000000000007b
:10751000000000000000000000000000000000006b
:10752000000000000000000000000000000000005b
:10753000000000000000000000000000000000004b
:10754000000000000000000000000000000000003b
:10755000000000000000000000000000000000002b
:10756000000000000000000000000000000000001b
:107570000000000000000000d402a900d422a900ed
:10758000cac2bf004500de0061006000808070005c
:10759000cac2bf004600de0061006000000071004a
:1075a00000000000000000000000000000000000db
:1075b00000000000000000000000000000000000cb
:1075c00000000000000000000000000000000000bb
:1075d00000000000000000000000000000000000ab
:1075e000000000000000000000000000000000009b
:1075f000000000000000000000000000000000008b
:10760000000000000000000000000000000000007a
:10761000000000000000000000000000000000006a
:10762000000000000000000000000000000000005a
:10763000000000000000000000000000000000004a
:10764000000000000000000000000000000000003a
:10765000000000000000000000000000000000002a
:107660008180400000014000d402a800d422a8007c
:10767000000000000000000000000000000000000a
:1076800000000000000000000000000000000000fa
:1076900000000000000000000000000000000000ea
:1076a00000000000000000000000000000000000da
:1076b00000000000000000000000000000000000ca
:1076c00000000000000000000000000000000000ba
:1076d00000000000000000000000000000000000aa
:1076e000000000000000000000000000000000009a
:1076f000000000000000000000000000000000008a
:107700000000000000000000000000000000000079
:107710000000000000000000000000000000000069
:107720000000000000000000000000000000000059
:10773000d402a900d422a900cac2bf004500de00bd
:107740006100600080807000cac2bf004600de0099
:1077500061006000000071000000000000000000f7
:107760000000000000000000000000000000000019
:107770000000000000000000000000000000000009
:1077800000000000000000000000000000000000f9
:1077900000000000000000000000000000000000e9
:1077a00000000000000000000000000000000000d9
:1077b00000000000000000000000000000000000c9
:1077c00000000000000000000000000000000000b9
:1077d00000000000000000000000000000000000a9
:1077e0000000000000000000000000000000000099
:1077f0000000000000000000000000000000000089
:107800000000000000000000000000000000000078
:1078100000000000000000008180400000014000e6
:10782000d402a800d422a80000000000000000003c
:107830000000000000000000000000000000000048
:107840000000000000000000000000000000000038
:107850000000000000000000000000000000000028
:107860000000000000000000000000000000000018
:107870000000000000000000000000000000000008
:1078800000000000000000000000000000000000f8
:1078900000000000000000000000000000000000e8
:1078a00000000000000000000000000000000000d8
:1078b00000000000000000000000000000000000c8
:1078c00000000000000000000000000000000000b8
:1078d00000000000000000000000000000000000a8
:1078e0000000000000000000d402a900d422a9007a
:1078f000cac2bf004500de006100600080807000e9
:10790000cac2bf004600de006100600000007100d6
:107910000000000000000000000000000000000067
:107920000000000000000000000000000000000057
:107930000000000000000000000000000000000047
:107940000000000000000000000000000000000037
:107950000000000000000000000000000000000027
:107960000000000000000000000000000000000017
:107970000000000000000000000000000000000007
:1079800000000000000000000000000000000000f7
:1079900000000000000000000000000000000000e7
:1079a00000000000000000000000000000000000d7
:1079b00000000000000000000000000000000000c7
:1079c00000000000000000000000000000000000b7
:1079d0008180400080044000d402a800d422a80086
:1079e0000000000000000000000000000000000097
:1079f0000000000000000000000000000000000087
:107a00000000000000000000000000000000000076
:107a10000000000000000000000000000000000066
:107a20000000000000000000000000000000000056
:107a30000000000000000000000000000000000046
:107a40000000000000000000000000000000000036
:107a50000000000000000000000000000000000026
:107a60000000000000000000000000000000000016
:107a70000000000000000000000000000000000006
:107a800000000000000000000000000000000000f6
:107a900000000000000000000000000000000000e6
:107aa000d402a900d422a900cac2bf004500de004a
:107ab00061006000a82c2000184478004644de00d5
:107ac00061046400000000000000000000000000ed
:107ad00000000000000000000000000000000000a6
:107ae0000000000000000000000000000000000096
:107af0000000000000000000000000000000000086
:107b00000000000000000000000000000000000075
:107cf00000000000d442a800cc62a80000000000f0
:107d00000000000000000000000000000000000073
:107d10000000000000000000000000000000000063
:107d20000000000000000000000000000000000053
:107d30000000000000000000000000000000000043
:107d40000000000000000000000000000000000033
:107d50000000000000000000000000000000000023
:107d60000000000000000000000000000000000013
:107d70000000000000000000000000000000000003
:107d800000000000000000000000000000000000f3
:107d9000000000000000000000000000d402a90064
:107da000d422a900c8a2a900cea2a800c8c2a900d6
:107db000cec2a8000080fb00808070000000eb00b5
:107dc0009af107000884fb008880740010002000ee
:107dd00096f10700e15d80000180400042bb200079
:107de000f35d80000330790064004000035e800092
:107df000033079000100e800e10f50000100340079
:107e00000000eb00e05d88004f04be0000000600ab
:107e1000c3c2bf00610060000000060066040700e6
:107e20000000050000000600cd0bab0001003a0089
:107e30000000060010c0b300acebb700425d80004c
:107e4000d15c8000e0a520001b010700a0ab200052
:107e5000e1a5200025000900315878000000060047
:107e6000889fbe000000eb005ef10700b05588005f
:107e70000000eb005ff10700905588000000eb0068
:107e8000ef0507003055880030002000bbec0700ec
:107e90004055880020002000b8ec070050558800ad
:107ea0000000eb00b5ec07006055880010002000d2
:107eb000b2ec0700705588000000eb006804070072
:107ec0008055880038578000c6ef0700800478008e
:107ed000cdef070009047400000474000820a0001e
:107ee000c8558800d1ef07000000e000060035000b
:107ef000ceef0700105588004057800020558800bd
:107f00004f04be0000000600c8ef07000000ea00b2
:107f10001055880040578000205588004f04be004f
:107f200000000600f8ff37000800fa00ccff070049
:107f300082002000019c200068805700de000700be
:107f40004fb89700dfb897006fb99700ffb9970057
:107f5000d0548800e1548800f2548800035588000a
:107f600021a22000a2a920001f000900b258780019
:107f7000525d8000c15c800020a22000f00007005c
:107f80000080fa00000006003600f800809fbe0066
:107f9000829fbe00849fbe00869fbe00d4c2a80000
:107fa0008400a90087000700a74be200040032000c
:107fb000ae4be20010003a00ad4be20006003a0082
:107fc0004f03be004f02be004f01be004f00be0077
:107fd0003600f90000400600d3ff07004f03be0043
:107fe0004f02be004f01be004f00be003600f90038
:107ff00000400600f8ff37008bff0700ad4be200a2
:10800000efff3200f4ff37008540a9009540a9003a
:108010004222ef0042a2a80042c2bf00c1cfb3007b
:10802000014060000014a00042e2b70042c2bf005d
:1080300031ceb300014060008041b30042e2b7009e
:1080400042c2a8004302a9004322a9004342a9005a
:1080500040c2a90041e2a800d4c2a8000000060066
:108060000200fa00881f78000040eb00c0ff9f006c
:10807000c8032000585d8800485d88000202200087
:108080008000eb00a0a9200035ec07006202200070
:108090008000eb00a0ab200031ec07000801780065
:1080a0008000eb00e0a520002dec0700080178001f
:1080b0008000eb0020a2200029ec0700e82aef0056
:1080c000e62aef00e42aef00e02aef00e22aef00c0
:1080d000cdff07008200a8008220a8008240a800ef
:1080e000d4c2a8008400a9001200200001142000be
:1080f00064805700ac0007004ff89700e54f500030
:10810000f9ff3a00120020005100200060ba200060
:10811000a50007000000eb00eb0007009400a8009a
:10812000950307004f0478000080fa000000060065
:10813000000005000000050000000500000005002b
:108140000000050000000500000005009400a900e3
:10815000d4c2a9008540a900000420004012880074
:1081600085c0bf000028a300fdff32004012800040
:10817000ccebb7008540a900200720004012880002
:1081800085c0bf000028a300fdff32004012800020
:10819000cdebb7008540a900f00f20004012880009
:1081a00085c0bf000028a300fdff32004012800000
:1081b000c2ebb7008540a900d4c2a8009400a80073
:1081c00000000600d4c2a9008540a9004822ef00a3
:1081d00085c0bf000028a300fdff320040128000d0
:1081e000ccebb7008540a900200020004012880099
:1081f00085c0bf000028a300fdff320040128000b0
:10820000cdebb7008540a900d4c2a800000006004d
:108210004300dd008180fb0081007000d4c2a90012
:108220008540a9004808de004012880085c0bf00d4
:108230000028a300fdff320040128000ccebb70005
:108240008540a9000180fb004012880085c0bf0066
:108250000028a300fdff320040128000cdebb700e4
:108260008540a900000006004300dd008180fb007e
:1082700081007000d4c2a9008540a9004808de0032
:108280004012880085c0bf000028a300fdff320017
:10829000401280008540a9000180fb004012880048
:1082a00085c0bf000028a300fdff320040128000ff
:1082b0008540a90000000600889fbe008004780069
:1082c000010078000204780021c0b300e6ff070037
:1082d0000800e900e10f4000110032008000780042
:1082e0008041eb000081eb000100e00010003a004b
:1082f00080c1eb00f00f20008540a90040128800eb
:1083000085c0bf000028a300fdff3200401280009e
:10831000805c78008100e900810f5100f2ff3a0093
:108320008540a900d4c2a8004f04be00000006008a
:108330000380fb008540a90040128800f0ff370051
:10834000889fbe0080047800010078000204780055
:1083500041c0b300c4ff07000800e900e10f40007e
:108360000d00320089007800008044000001e80020
:108370008540a9001180fb004012880085c0bf0025
:108380000028a300fdff3200401280008100e800b9
:10839000828f5000f6ff3a008540a900d4c2a800a1
:1083a0004f04be0000000600889fbe008a9fbe00ea
:1083b000800478000200e900e10f40001400320060
:1083c0000104780000804000fb0f20000005e80059
:1083d0009400a90021c0b300080078008cff0700ba
:1083e0004b12880085c0bf000028a300fdff3200ab
:1083f00040128000805c78009400a800d4c2a800dd
:108400000804e8008540a9008a0f5400f0ff3a00f4
:108410004f05be004f04be00000006004bff0700e2
:10842000cc0bab0001003a00000006002200200047
:108430000112200000bd2000dbff0700cccbbf00f5
:10844000e1ceb30001406000ccebb700d0cbbf0061
:108450008e013700889fbe008a1f78008004780054
:108460000200e900e10f400014003200010478002e
:10847000008040000005e8009400a90041c0b3005e
:108480000800780062ff07008540a9003980fb00e2
:108490004012880085c0bf000028a300fdff320005
:1084a000401280009400a8000804e8008540a9005c
:1084b000d4c2a8008a0f5400efff3a004f0578009d
:1084c0004f04be00000006000200fa00881f78007a
:1084d0000004780022002000412020006480570022
:1084e000b1ff0700efb8970001006400e0bf9f00f4
:1084f0009400a9000000e00001003a00d2ebb700b0
:10850000220020004120200064805700d1ff070096
:108510009400a8004f0478000080fa0000000600d4
:108520000200fa00881f7800000478002200200072
:1085300041202000648057009bff07006fb8970020
:1085400000007400e0bf9f009400a90010c0b300b9
:10855000d2ebb700220020004120200064805700a9
:10856000bcff07009400a8004f0478000080fa00c8
:10857000000006000200fa00881f7800014478001d
:108580000080fb00e0bf9f002200200001132000bc
:1085900064805700afff0700e14f4400060032003f
:1085a0000880fb00e0bf9f00220020004113200054
:1085b00064805700a7ff07004f0478000080fa008e
:1085c000000006000200fa0011c0b300e1ff9f00a6
:1085d0000080fb004300dd0071802000810040002e
:1085e000120020000f80e9009aff07000080fa00c7
:1085f000000006000200fa008040eb00e1ff9f004f
:108600000080fb004300dd007180200081004000fd
:10861000120020000f80e9008eff07000080fa00a2
:1086200000000600881f780048bc20000080fb0086
:108630004300dd0001802000810040008200200016
:108640000800780058ff0700080078004f04780001
:1086500000000600010178000004e000060032007e
:10866000e14f50001900320061409000d00fb2007d
:10867000510032003000050061409000d00fb20080
:108680000c003200e10f5000faff3a009100900018
:10869000405d8000808f5000f6ff3a00424090001d
:1086a0008081fb006d806100e40f500010003200fb
:1086b00040000500110090000000e000edff3a00ce
:1086c000a80be200ebff3a000000050061409000bb
:1086d000d00fb2000e003a00110090000000e00040
:1086e000e4ff3a00aa0be200e2ff3a0000000500b6
:1086f00040ba200021c0b30090cf10001d0032000e
:10870000d05c8000920f1000210032002000050094
:10871000e10f5000d7ff3a0011029000505d800039
:10872000800f5200d3ff3a00414090008081fb004f
:108730006d806100deff3a0040ba200021c0b30026
:1087400090cf100024003200c05c8000920f100017
:10875000eeff3a000400e000dbff3200d302b2007b
:1087600000022000808f510010003200a76bef0044
:108770000000050092007800f0ff2000808f50007c
:10878000e2ff360000002200808f5000dfff3e0035
:10879000030078000004b2000b00320010c0b300e8
:1087a0009debb700aa0be200c7ff3a0010c0b30070
:1087b000a7ebb70000000500110090000000e000ea
:1087c000c1ff3200300005009debb700aa0be200ac
:1087d000f6ff3200bcff370092007800f0ff200067
:1087e000808f5000c9ff360000002200808f5000ab
:1087f000d8ff360020000500889fbe008a9fbe007b
:10880000004578000000eb000a04e0001900320087
:1088100019c0b3000044eb00884578000940780097
:1088200080ff0700800078000940780089ff07007a
:108830000004e000030032000b04e00001003a00f5
:10884000fdc544000844e800884f55000800320088
:1088500019c0b3000804e000f0ff32008044eb00d0
:10886000e14f5400edff320088447800ebff370001
:108870000b80fb004f05be004f04be000000060049
:108880000040eb0067ff070010007800d05c880014
:1088900010c0b30063ff070010017800c25c8800bd
:1088a000d35c8000405d80006300b900008041001f
:1088b000800f510005003100505d80000000410034
:1088c000d1012000808f510007003900aa0be2007f
:1088d00007003a00a80be2000e003a000000eb008f
:1088e0000fff07008000eb00010078000000060089
:1088f00010c0b3003fff070010fe07000004e000b7
:108900000a003a0010c0b300adebb700a80be200bc
:10891000f2ff32000040eb0036ff07000000eb00e2
:10892000fffe07008000eb00efff37008080fb00b8
:108930000100780000000600edff37000400fa0097
:1089400022002000014020000f80e90096fe070071
:108950007fb897000000e000020032009d4be2006b
:1089600012003a000000eb00e0bf9f00a02bef00d8
:108970009d4be2001c003a00a80be2001e003a00ea
:1089800010c0b300aeebb700964be20004003a0013
:10899000a74be20002003200a80be2001d003a00e3
:1089a0000000eb000080fa0000000600220020001a
:1089b00001422000648057007bfe0700efb897005b
:1089c0000100e000eaff32007fb897000008b8001d
:1089d000821a260003002000d1e90700005d88000c
:1089e0009d4be200e4ff3a00f00120000080fa0015
:1089f00000000600edff3700d2fd07000004e00094
:108a0000dfff32000080fb000080fa00000006005b
:108a1000e6ff370000102000c1fe07000000eb0059
:108a20000080fa0000000600e0ff3700f0ef2f00a2
:108a3000a5fe0700ac6bef00ae6bef000000eb0093
:108a4000a80be20001003a0000000600befd07008e
:108a50000080fb00000006000040eb00d9fe07008c
:108a600030cf2f0098fe07000040eb00a7ebb700c7
:108a700096ebb700adebb70010c0b300d1fe070016
:108a8000affd07000080fb0000000600889fbe00cd
:108a90008a1f7800804178008080fb000148a30095
:108aa0005000320042ba2000124178000244a10076
:108ab00002007800a4ebb7006fc561004410dd0030
:108ac00000444500080078009cebb70080c4b30068
:108ad000804f5400280032004f00360040c8b300d9
:108ae000804f54002400320064404000804f540006
:108af000210032000880fb000100200071005000be
:108b0000e080580072072000820f5000e08f58006c
:108b10004f00360029c1b30042ba2000124178004c
:108b20008a80fb006f006100808f500026003200b9
:108b30000904e000bf00320002007800a3ebb70098
:108b40000244a00002007800a4ebb700a4cbbf0051
:108b50008940780087fe0700a26bef004f05780080
:108b60004f04be000000060073fd0700804478003b
:108b70000004e00005003a00a6cbbf001eff07007e
:108b8000804478000004e000daff3200a4cbbf008c
:108b9000e44f5000bd003200e84f5000ba003200f0
:108ba000e24f5000bf003200e1cf4400ebff320043
:108bb00042ba2000124178008a80fb006f006100f9
:108bc000808f5000daff3a008040eb0002407800ce
:108bd00068fe07004f0578004f04be000000060045
:108be000e1ff370042ba2000124178000280fb000a
:108bf0000048a300b0ff3200ef8060006f0060000b
:108c0000808f5000acff34004f0578004f04be0049
:108c100000000600d4ff370040c2b300804f54006c
:108c2000d1ff320040c4b300804f5400d2ff320065
:108c30000880fb000100200071005000e080580017
:108c400072072000820f5000e08f5800b1ff3e00f5
:108c500000600100b2003700b8003700c0003700e4
:108c6000bd003700abff3700aaff3700a9ff370070
:108c7000b9003700a7ff3700a6ff3700a5ff370070
:108c8000a4ff3700a3ff3700a2ff3700a1ff370082
:108c9000a0ff3700a9003700a1003700ae00370061
:108ca000a80037009bff37009aff370099ff370075
