:020000040000fa
:080000000018040000000000dc
:020000040000fa
:103000008fbc20000eff20000e0188000000000091
:103010000c000700800f25000100200011000700b0
:10302000000020000000e00002003200000002006a
:10303000000000004c460200000000000040da00e2
:103040000000fe004440a900000020000000e00055
:103050000300320000002000a00188004440a800c6
:103060000000060091018800800078000000eb005d
:1030700015003700e280400032a0b4009101ba0090
:10308000e280400032a0b4009102ba00e280400029
:1030900032a0b4000002eb00472bde00f507b200bf
:1030a000602ce10004003a000059eb008301e900c4
:1030b000fdff3e00040037006128e10001003200fe
:1030c0000082eb00040007001101ba000200e000da
:1030d000e8ff3a00000006003159ba008301e90018
:1030e0000c0032002159ba008301e90008003200c7
:1030f0000400e00003003a00e280400032a0b40087
:10310000f5ff370011d9ba008301e900faff3a0050
:103110008100e800e180400032a0b4000000060019
:10312000020ab900001bb9000200b8008100420089
:1031300081004300000006006022b8000602200063
:103140000000d0008180d2000482d2008582d200ab
:103150000000a0000202520083825a0003003100e6
:103160000202420083824a000000a1000603e90037
:10317000f3ff3a00000006008001eb000200370078
:10318000817178008301e800828f5100fcff3a00d2
:10319000000006006011b8000002eb0005022000ec
:1031a0004600dd006182200081004000310078008f
:1031b00000014100e08149000402e800850f52004f
:1031c000faff3a004b1add004510de0000007200e5
:1031d000c598de00000006006011b8008000eb001a
:1031e000648020003400780000014100e081490043
:1031f0008100e800f08f5000faff3a004c1add0021
:103200004410de0000007200c498de0000000600da
:103210000001eb00424988003249880021e3a900ff
:1032200025c3bf0001ceb300014060005040b30091
:1032300025e3b70010c0b30024e3b70023c3bf00e9
:103240007f40600023e3b70025e3a90020c3bf004f
:103250007f4060000046b30020e3b70023c3bf00f7
:10326000c3cfb3000340600023e3b7002043a800ae
:103270002143a8002223a8002063a9002343a8001b
:1032800022c3bf00fdc0500001406000c040b30039
:1032900022e3b7003003a8003023a8003043a80081
:1032a000621988002c03a9002c23a9002c43a90033
:1032b0002c63a9002c83a8002ca3a8002cc3a80071
:1032c0002ce3a8002d03a80021c3bf000340600029
:1032d00021e3b70021e3a80085a0a90095a0a800dc
:1032e000000006003600f800809fbe00829fbe00ee
:1032f000849fbe00869fbe0085a0a9002243e200f5
:10330000090035008018800050498800931880001b
:1033100063498800a418800074498800b0188000b0
:10332000804988000800370003188000534988004e
:1033300014188000644988002018800070498800b3
:103340003318800083498800424980000200410010
:1033500003082000808141006182200074498000c0
:1033600084b178005349800003b078000004b000b5
:103370006449800004b078000200e800ff0f5000ac
:10338000010034000000eb00404988002609ec00f1
:10339000ef0f5000010034000000eb0030498800be
:1033a0000008ec00e40f5000010036000000eb00c4
:1033b000004088000000e00007003a00d462a80046
:1033c000d462a90011040700e60207005c020700ae
:1033d000c31707000428ec004f03be004f02be00d5
:1033e0004f01be004f00be003600f900004006004d
:1033f0000000e00004003200c20be20002003a00cc
:10340000cc22a80000000600cc22a9000000060083
:1034100010002000105e880000000600c22bef00a4
:1034200000000600c22bef00000006006202200030
:103430000281b90084b320008401410084ab2000e4
:10344000040141000002400046af200064007b0000
:103450000000e80000327b00c2029000c501980025
:10346000d2029000d5019800e2029000e501980098
:10347000f2029000f50198008212900085119800e8
:10348000f20a9000f50998008002eb00810f5000cd
:103490004f0035000000eb0000327b0093009000ed
:1034a0001200900015002000808f50000f003200a5
:1034b000008050000082eb00010033001400200067
:1034c000048050009001980001d02700810f500027
:1034d00003003c0001302800810f500001003d0036
:1034e00001007800900198008002eb00a30090009a
:1034f00022009000808f50000f00320000805000aa
:103500000082eb0001003300140020000480500012
:10351000a001980001d02700810f500003003c005b
:1035200001302800810f500001003d0001007800ab
:10353000a00198008002eb00b300900032009000e0
:10354000808f50000f003200008050000082eb009e
:10355000010033001400200004805000b0019800e6
:1035600001d02700810f500003003c0001302800eb
:10357000810f500001003d0001007800b00198006b
:103580008002eb009310900012109000808f50008a
:103590000f003200008050000081eb00010033007a
:1035a00012002000028050009011980001d02700e6
:1035b000810f500003003c0001302800810f5000b3
:1035c00001003d0001007800901198008002eb009e
:1035d0000500780000000600620220000281b900a8
:1035e00084b320008401410084ab20000401410029
:1035f0000002400045af200064807a000000e8002f
:1036000000b27a0042039000c60198005203900075
:10361000d601980062039000e601980062039000d2
:10362000f60198000213900086119800720990002c
:10363000f20998000001eb00810f500027003500cf
:103640000000eb0000b27a0013009000120020008e
:103650000000e000060032008080eb000100350031
:103660001100200001005000900198000001eb00c3
:10367000230090000000e000060032008080eb0094
:10368000010035001100200001005000a001980049
:103690000001eb00330090000000e0000600320063
:1036a0008080eb0001003500110020000100500077
:1036b000b00198000001eb00131090000000e00042
:1036c000060032008080eb00010035001100200070
:1036d00001005000901198000001eb0002007800fa
:1036e00000000600889fbe00800478006002200071
:1036f00000c8b90082b32000000141000004eb00c3
:1037000018019800280198003801980018119800b5
:1037100078019800480198005801980068019800c5
:1037200008119800c248dd00c0ae200000804000b3
:103730006011b8000288be0000af20008080400009
:103740008288be004648dd0081af200001004000b5
:10375000020420008800780087fe0700898044006a
:10376000a0ae20008830780080ae2000883078003d
:1037700040af2000883078004f04be0000000600f3
:103780000000eb00b0578800d6ff3700aa153700bd
:10379000ea874700889fbe008a9fbe008c9fbe00bc
:1037a0008e1f7800000678008101780060022000fa
:1037b00000e0b90082b320000205400082ab200087
:1037c000020740001e0c9000888f510005003c004d
:1037d0002e08900003047800808f510001003d0006
:1037e000000478009e0078006280600003003200d0
:1037f0000000eb009c16070001003700b41607001c
:103800008006780000015400125b88004a00900096
:103810000090de009a0090000182b900d4b79f00aa
:10382000e5b79f00c260dd0000b7200000804000c7
:103830000488be0000af200080804000cf91de00f1
:1038400031034100a18349007a0090006102b90070
:10385000840f5300858f5b0007003c000000ea00e6
:103860006101b9000602be00820f5300838f5b0026
:1038700001003d000202be00c265dd0000af200075
:10388000008045000488be002a009000cf80de0042
:103890005a0190000201e900030033008582d10043
:1038a0000482d300fbff37000401be001cfe0700aa
:1038b000f0b79f0081bf9f00c0b620000080450088
:1038c0007fb497008fbc97000888be008c04460028
:1038d00080ae200069047800c6ae20000683450053
:1038e0004562dd00080242000402420087af20006a
:1038f00064817b00cf91de0036001100a6801900a4
:103900000001be00a5ae200069807a00008056004c
:1039100000b27b008db47a00cf80de00020140004f
:1039200083814800028bbe000800e800ff0f5000b2
:10393000010034000000eb0081ae200080b478006c
:103940003a009000cf80de00f5fd07000001be00c8
:103950006a0090000000e900030033008381d10079
:103960000281d300fbff370080b6200000804500b5
:103970000288be0040b6200000834500000beb002b
:1039800036137800000021001e00600003003200a2
:103990001a109000cf80de00008bbe005fb297004f
:1039a000efb297007fb497008fbc970004004400eb
:1039b00085804c00000041008180490036014000b4
:1039c000a6814800f25a8800035b88000200be000e
:1039d000c27d200003002000c47d2000840f500021
:1039e000e08f580009003c00f05a8000015b800025
:1039f00002812f00f3ff2f00820f5000838f5800a9
:103a000002003500f25a8000035b8000f25a880001
:103a1000035b8800820078000c0078005bff0700e1
:103a20004f0778004f06be004f05be004f04be0092
:103a3000af00b10000000600ec874700889fbe0081
:103a40008a9fbe008c9fbe008e1f78000006780003
:103a5000810178006002200000e0b90082b32000fc
:103a60008205400082ab2000020740001e0c90003f
:103a7000888f5100030034000800e00013003d006f
:103a800007003700ae08900003007800818f5100d6
:103a900001003d00010078000000e0000b003d0047
:103aa000888f5100020034000804ea000e0037003d
:103ab000ae08900003007800818f510001003d00a6
:103ac000010078000004ea0007003700888f5100e9
:103ad00005003c002e08900003047800808f510000
:103ae00001003d00000478000080eb00c0b79f009b
:103af0000300e0000200350011002000c1b79f0064
:103b0000f50007008006780000015400125b880071
:103b10004b0090000090de009b0090000182b900f5
:103b2000d4b79f00e5b79f00c260dd0000b720005a
:103b3000008040000488be0000af2000808040006c
:103b4000cf91de0031034100a18349007b0090004a
:103b50006102b900840f5300858f5b0007003c00b1
:103b60000000ea006101b9000602be00820f5300a6
:103b7000838f5b0001003d000202be004265dd0054
:103b800000af2000000045000488be002b0090001c
:103b9000cf80de005b0190000201e90003003300ea
:103ba0008582d1000482d300fbff37000401be00f0
:103bb0005bfd0700f0b79f0081bf9f00c0b62000eb
:103bc000000045007fb497008fbc97000888be00b6
:103bd0008c04460080ae200069047800c6ae200048
:103be000060345004562dd0008024200040242006f
:103bf00087af200064817b00cf91de00360011008a
:103c0000a68019000001be00a5ae200069807a00e0
:103c10000080560000b27b008db47a00cf80de00b9
:103c20000201400083814800028bbe000800e800ca
:103c3000ff0f5000010034000000eb0081ae2000b7
:103c400080b478003b009000cf80de0034fd070098
:103c50000001be006b0090000000e900030033008b
:103c60008381d1000281d300fbff370080b62000a2
:103c7000000045000288be0040b620000003450059
:103c8000000beb0036137800000021001e006000de
:103c9000030032001b109000cf80de00008bbe00be
:103ca0005fb29700efb297007fb497008fbc970088
:103cb0000400440085804c000000410081804900e0
:103cc00036014000a6814800f25a8800035b880054
:103cd0000200be00c27d200003002000c47d200041
:103ce000840f5000e08f580008003c00f05a80001c
:103cf000015b80006011b800e00f5000e08f5800b9
:103d000002003500f25a8000035b8000f25a8800fe
:103d1000035b8800cfb2970002a8b900800078004a
:103d20000c00780099fe07004f0778004f06be0090
:103d30004f05be004f04be00cf00b10000000600da
:103d4000889fbe008a1f780079568000f90fb20064
:103d50004a568000c05580000004b200a4fd070050
:103d6000b8578000e20f54002400320005003c00e8
:103d70000800e00009003200e10f540043003a005f
:103d800018003700e40f54002600320031003500df
:103d9000e60f54003d003a003500370088007800f7
:103da0000800780079fe0700e18f540002003a0015
:103db000b957880037003700e28f540002003a00fc
:103dc000b957880004003700e38f540031003a00ef
:103dd00060002000b05788000800780041fe07000e
:103de0002c0037008a0078000000eb0067fe070017
:103df000e18f5400270032001f003700e28f54008b
:103e00001d003a00a10f20000000eb0087fd070015
:103e10000000e0000b00320040002000b057880096
:103e200008003700e28f5400030032003000200009
:103e3000b057880017003700a10f20000000eb00ea
:103e40007afd07008a0078000000eb0050fe0700b2
:103e500010003700a10f20000000eb00defd07007e
:103e60000000e00009003200f62aef0007003700ea
:103e7000e38f540002003200f62aef0005003700fd
:103e80006000b800ecfe0700020037006000b800d8
:103e90003efe07004f0578004f04be0000000600fc
:103ea00090498000010220000000e00001003a007b
:103eb000800078000100780000000600a049800022
:103ec000010120000000e00001003a0080007800bd
:103ed0000100780000000600f0508000000006009d
:103ee000604a8000714a800000000600804a80001d
:103ef000914a800000000600b049800000000600e2
:103f0000881f78000004eb00c84988006000b800f2
:103f1000e0498800f1498800804a8800914a880079
:103f2000284a8800d8498800004a8800114a880039
:103f3000604a8800714a8800384a880002042000dc
:103f400088007800809d20008bfc0700020820007c
:103f5000880078008095200087fc07004f047800d7
:103f600000000600881f7800c0508000f00f50004d
:103f700026003c00180ae20024003400b04980000a
:103f80000000e00021003a00b84a800081fc0700f0
:103f900000044400b84a8800a84a800010002000ad
:103fa0007cfc070000044400a84a8800c25080003e
:103fb000e10f510015003a00b04a80004400de00d5
:103fc000e0508800a04a80004400de00d050880005
:103fd000e150800020702000808f500006003600e5
:103fe000e1508000e018b000808f500002003e00d9
:103ff000b2498800050037003629ef005629ef0046
:104000005429ef0040062000c0508800180aed0037
:104010008000eb0002003300c15080008100e90005
:10402000c15088003609e200900032000000eb0029
:1040300058fc070080007800e050800000805000ad
:104040006d00b900f0508800b05780000000e0001b
:1040500002003200e50f500001003a001e2aef0076
:10406000314a80008100e8000001eb00700f200061
:10407000808f500002003c00324a80000201e800bc
:10408000324a8800314a80000100e00039003a00dd
:104090003a09ec00ef0f50000200340001007800f4
:1040a000010037003a09ec00d0498800d34980006c
:1040b000f0508000f25080000280b900c219dd008b
:1040c000829d2000828141008089be004029ef004e
:1040d0004229ef008001eb00004a8000114a800075
:1040e00032024000b2824800044a8800154a880023
:1040f0008301e800f08f5100f7ff3a00004a80008a
:10410000114a8000cc0add004400de00008072000d
:10411000c488de00604a8800714a88003209e200e3
:1041200014003a00624a8000734a800000a4230011
:1041300091d62000800f5100818f59000d0034006e
:10414000f150800080a92300808f500004003c00c3
:10415000f150800080562c00808f500005003d00fb
:1041600020002000b04988001000200090498800fd
:1041700063ff0700214a80008100e8000001eb0096
:10418000f0262000808f500002003c00224a800070
:104190000201e800224a8800214a80000100e00074
:1041a00024003a003809ec00ff0f500002003400f0
:1041b00001007800010037003809ec00c049880090
:1041c000c3498000f0508000f25080000280b900a6
:1041d000c219dd0082952000828141008089be00e5
:1041e0003c29ef003e29ef008001eb000402200093
:1041f000e0498000f149800032034000b28348006a
:10420000e6498800f74988008301e800848f51005f
:10421000f7ff3a00e0498000f1498000cb0bdd0058
:104220004500de0000807300c588de00804a8800fb
:10423000914a88003409e2000c003a00824a80006a
:10424000934a800000e42a00b12e2000800f510024
:10425000818f59000500340030002000b0498800eb
:1042600010002000a049880025ff07004f047800b7
:1042700000000600881f78000004eb00f85088005a
:10428000e8508800d8508800a00f2000c050880057
:10429000b84a8800a84a8800c84988006000b80069
:1042a000e0498800f1498800804a8800914a8800e6
:1042b000284a8800a849880098498800d849880079
:1042c000004a8800114a8800604a8800714a8800c4
:1042d000384a8800b8498800020420008800780025
:1042e000809d2000a4fb07000208200088007800c1
:1042f00080952000a0fb07004f0478000000060016
:1043000000000600c4c2bf004400de00610060007f
:104310000004a2004400dd00412c20009140780000
:104320000144a10080c0700001007800c4e2b70021
:104330000000060000004000e1b820006080780026
:10434000000006004200dd0021b92000010240000b
:104350006011b8008000eb003400780000014100db
:10436000e08149008100e800e28f5000faff3a0046
:104370008380d1000280d300000006000001780095
:10438000c209de0033578800e3806000e18f5000ef
:1043900003003a00e0fd2300808f51000700360043
:1043a00082004100b8eaab0005003a00e0b8200006
:1043b000008040001008e800000006008200410074
:1043c000c0b920008330780000000600d442a80065
:1043d000cc62a8000000eb00c3b920008000780088
:1043e000e2b8200001b07900013079000080e800d7
:1043f000e40f5000fbff3a00000006000000400000
:10440000c1b920006080780000000600889fbe00cf
:10441000c8a2a900cea2a800c8c2a900cec2a80006
:10442000d442a900cc62a900d402a900d422a900d8
:10443000000000000000000000000000000000007c
:10444000000000000000000000000000000000006c
:10445000000000000000000000000000000000005c
:10446000000000000000000000000000000000004c
:10447000000000000000000000000000000000003c
:10448000000000000000000000000000000000002c
:10449000000000000000000000000000000000001c
:1044a000000000000000000000000000000000000c
:1044b00000000000000000000000000000000000fc
:1044c00000000000000000000000000000000000ec
:1044d00000000000000000000000000000000000dc
:1044e00000000000000000000000000000000000cc
:1044f00000000000000000000000000000000000bc
:1045000000000000000000000000000000000000ab
:10451000000000000000000000000000000000009b
:10452000000000000000000000000000000000008b
:10453000000000000000000000000000000000007b
:10454000000000000000000000000000000000006b
:10455000000000000000000000000000000000005b
:10456000000000000000000000000000000000004b
:10457000000000000000000000000000000000003b
:10458000000000000000000000000000000000002b
:10459000000000000000000000000000000000001b
:1045a000d402a800d422a800cca2a800ccc2a800a3
:1045b00000000000000000000000000000000000fb
:1045c00000000000000000000000000000000000eb
:1045d00000000000000000000000000000000000db
:1045e00000000000000000000000000000000000cb
:1045f00000000000000000000000000000000000bb
:1046000000000000000000000000000000000000aa
:10461000000000000000000000000000000000009a
:10462000000000000000000000000000000000008a
:10463000000000000000000000000000000000007a
:10464000000000000000000000000000000000006a
:10465000000000000000000000000000000000005a
:10466000000000000000000000000000000000004a
:10467000d402a900d422a90000000000000000001c
:10468000000000000000000000000000000000002a
:10469000000000000000000000000000000000001a
:1046a000000000000000000000000000000000000a
:1046b00000000000000000000000000000000000fa
:1046c00000000000000000000000000000000000ea
:1046d00000000000000000000000000000000000da
:1046e00000000000000000000000000000000000ca
:1046f00000000000000000000000000000000000ba
:1047000000000000000000000000000000000000a9
:104710000000000000000000000000000000000099
:104720000000000000000000000000000000000089
:104730000000000000000000d402a800d422a8005d
:10474000cca2a900ccc2a90000000000000000001b
:104750000000000000000000000000000000000059
:104760000000000000000000000000000000000049
:104770000000000000000000000000000000000039
:104780000000000000000000000000000000000029
:104790000000000000000000000000000000000019
:1047a0000000000000000000000000000000000009
:1047b00000000000000000000000000000000000f9
:1047c00000000000000000000000000000000000e9
:1047d00000000000000000000000000000000000d9
:1047e00000000000000000000000000000000000c9
:1047f00000000000000000000000000000000000b9
:104800000000000000000000d402a900d422a9008a
:104810000000000000000000000000000000000098
:104820000000000000000000000000000000000088
:104830000000000000000000000000000000000078
:104840000000000000000000000000000000000068
:104850000000000000000000000000000000000058
:104860000000000000000000000000000000000048
:104870000000000000000000000000000000000038
:104880000000000000000000000000000000000028
:104890000000000000000000000000000000000018
:1048a0000000000000000000000000000000000008
:1048b00000000000000000000000000000000000f8
:1048c00000000000000000000000000000000000e8
:1048d000d402a800d422a800cca2a800ccc2a80070
:1048e00000000000000000000000000000000000c8
:1048f00000000000000000000000000000000000b8
:1049000000000000000000000000000000000000a7
:104910000000000000000000000000000000000097
:104920000000000000000000000000000000000087
:104930000000000000000000000000000000000077
:104940000000000000000000000000000000000067
:104950000000000000000000000000000000000057
:104960000000000000000000000000000000000047
:104970000000000000000000000000000000000037
:104980000000000000000000000000000000000027
:104990000000000000000000000000000000000017
:1049a000d402a900d422a9000000000000000000e9
:1049b00000000000000000000000000000000000f7
:1049c00000000000000000000000000000000000e7
:1049d00000000000000000000000000000000000d7
:1049e00000000000000000000000000000000000c7
:1049f00000000000000000000000000000000000b7
:104a000000000000000000000000000000000000a6
:104a10000000000000000000000000000000000096
:104a20000000000000000000000000000000000086
:104a30000000000000000000000000000000000076
:104a40000000000000000000000000000000000066
:104a50000000000000000000000000000000000056
:104a60000000000000000000d402a800d422a8002a
:104a7000cca2a900ccc2a9000000000000000000e8
:104a80000000000000000000000000000000000026
:104a90000000000000000000000000000000000016
:104aa0000000000000000000000000000000000006
:104ab00000000000000000000000000000000000f6
:104ac00000000000000000000000000000000000e6
:104ad00000000000000000000000000000000000d6
:104ae00000000000000000000000000000000000c6
:104af00000000000000000000000000000000000b6
:104b000000000000000000000000000000000000a5
:104b10000000000000000000000000000000000095
:104b20000000000000000000000000000000000085
:104b30000000000000000000d402a900d422a90057
:104b40000000000000000000000000000000000065
:104b50000000000000000000000000000000000055
:104b60000000000000000000000000000000000045
:104b70000000000000000000000000000000000035
:104b80000000000000000000000000000000000025
:104b90000000000000000000000000000000000015
:104ba0000000000000000000000000000000000005
:104bb00000000000000000000000000000000000f5
:104bc00000000000000000000000000000000000e5
:104bd00000000000000000000000000000000000d5
:104be00000000000000000000000000000000000c5
:104bf00000000000000000000000000000000000b5
:104c0000d402a800d422a800cca2a800ccc2a8003c
:104c10000000000000000000000000000000000094
:104c20000000000000000000000000000000000084
:104c30000000000000000000000000000000000074
:104c40000000000000000000000000000000000064
:104c50000000000000000000000000000000000054
:104c60000000000000000000000000000000000044
:104c70000000000000000000000000000000000034
:104c80000000000000000000000000000000000024
:104c90000000000000000000000000000000000014
:104ca0000000000000000000000000000000000004
:104cb00000000000000000000000000000000000f4
:104cc00000000000000000000000000000000000e4
:104cd000d402a900d422a9000000000000000000b6
:104ce00000000000000000000000000000000000c4
:104cf00000000000000000000000000000000000b4
:104d000000000000000000000000000000000000a3
:104d10000000000000000000000000000000000093
:104d20000000000000000000000000000000000083
:104d30000000000000000000000000000000000073
:104d40000000000000000000000000000000000063
:104d50000000000000000000000000000000000053
:104d60000000000000000000000000000000000043
:104d70000000000000000000000000000000000033
:104d80000000000000000000000000000000000023
:104d90000000000000000000d402a800d422a800f7
:104da000cca2a900ccc2a9000000000000000000b5
:104db00000000000000000000000000000000000f3
:104dc00000000000000000000000000000000000e3
:104dd00000000000000000000000000000000000d3
:104de00000000000000000000000000000000000c3
:104df00000000000000000000000000000000000b3
:104e000000000000000000000000000000000000a2
:104e10000000000000000000000000000000000092
:104e20000000000000000000000000000000000082
:104e30000000000000000000000000000000000072
:104e40000000000000000000000000000000000062
:104e50000000000000000000000000000000000052
:104e60000000000000000000d402a900d422a90024
:104e70000000000000000000000000000000000032
:104e80000000000000000000000000000000000022
:104e90000000000000000000000000000000000012
:104ea0000000000000000000000000000000000002
:104eb00000000000000000000000000000000000f2
:104ec00000000000000000000000000000000000e2
:104ed00000000000000000000000000000000000d2
:104ee00000000000000000000000000000000000c2
:104ef00000000000000000000000000000000000b2
:104f000000000000000000000000000000000000a1
:104f10000000000000000000000000000000000091
:104f20000000000000000000000000000000000081
:104f3000d402a800d422a800cca2a800ccc2a80009
:104f40000000000000000000000000000000000061
:104f50000000000000000000000000000000000051
:104f60000000000000000000000000000000000041
:104f70000000000000000000000000000000000031
:104f80000000000000000000000000000000000021
:104f90000000000000000000000000000000000011
:104fa0000000000000000000000000000000000001
:104fb00000000000000000000000000000000000f1
:104fc00000000000000000000000000000000000e1
:104fd00000000000000000000000000000000000d1
:104fe00000000000000000000000000000000000c1
:104ff00000000000000000000000000000000000b1
:10500000d402a900d422a900000000000000000082
:105010000000000000000000000000000000000090
:105020000000000000000000000000000000000080
:105030000000000000000000000000000000000070
:105040000000000000000000000000000000000060
:105050000000000000000000000000000000000050
:105060000000000000000000000000000000000040
:105070000000000000000000000000000000000030
:105080000000000000000000000000000000000020
:105090000000000000000000000000000000000010
:1050a0000000000000000000000000000000000000
:1050b00000000000000000000000000000000000f0
:1050c0000000000000000000d402a800d422a800c4
:1050d000cca2a900ccc2a900000000000000000082
:1050e00000000000000000000000000000000000c0
:1050f00000000000000000000000000000000000b0
:10510000000000000000000000000000000000009f
:10511000000000000000000000000000000000008f
:10512000000000000000000000000000000000007f
:10513000000000000000000000000000000000006f
:10514000000000000000000000000000000000005f
:10515000000000000000000000000000000000004f
:10516000000000000000000000000000000000003f
:10517000000000000000000000000000000000002f
:10518000000000000000000000000000000000001f
:105190000000000000000000d402a900d422a900f1
:1051a00000000000000000000000000000000000ff
:1051b00000000000000000000000000000000000ef
:1051c00000000000000000000000000000000000df
:1051d00000000000000000000000000000000000cf
:1051e00000000000000000000000000000000000bf
:1051f00000000000000000000000000000000000af
:10520000000000000000000000000000000000009e
:10521000000000000000000000000000000000008e
:10522000000000000000000000000000000000007e
:10523000000000000000000000000000000000006e
:10524000000000000000000000000000000000005e
:10525000000000000000000000000000000000004e
:10526000d0002000e50f0700d402a800d422a80037
:10527000cca2a800ccc2a8000000000000000000e2
:10528000000000000000000000000000000000001e
:10529000000000000000000000000000000000000e
:1052a00000000000000000000000000000000000fe
:1052b00000000000000000000000000000000000ee
:1052c00000000000000000000000000000000000de
:1052d00000000000000000000000000000000000ce
:1052e00000000000000000000000000000000000be
:1052f00000000000000000000000000000000000ae
:10530000000000000000000000000000000000009d
:10531000000000000000000000000000000000008d
:10532000000000000000000000000000000000007d
:105330000000000000000000d402a900d422a9004f
:10534000000000000000000000000000000000005d
:10535000000000000000000000000000000000004d
:10536000000000000000000000000000000000003d
:10537000000000000000000000000000000000002d
:10538000000000000000000000000000000000001d
:10539000000000000000000000000000000000000d
:1053a00000000000000000000000000000000000fd
:1053b00000000000000000000000000000000000ed
:1053c00000000000000000000000000000000000dd
:1053d00000000000000000000000000000000000cd
:1053e00000000000000000000000000000000000bd
:1053f00000000000000000000000000000000000ad
:10540000d402a800d422a800cca2a800ccc2a80034
:10541000000000000000000000000000000000008c
:10542000000000000000000000000000000000007c
:10543000000000000000000000000000000000006c
:10544000000000000000000000000000000000005c
:10545000000000000000000000000000000000004c
:10546000000000000000000000000000000000003c
:10547000000000000000000000000000000000002c
:10548000000000000000000000000000000000001c
:10549000000000000000000000000000000000000c
:1054a00000000000000000000000000000000000fc
:1054b00000000000000000000000000000000000ec
:1054c00000000000000000000000000000000000dc
:1054d000d402a900d422a9000000000000000000ae
:1054e00000000000000000000000000000000000bc
:1054f00000000000000000000000000000000000ac
:10550000000000000000000000000000000000009b
:10551000000000000000000000000000000000008b
:10552000000000000000000000000000000000007b
:10553000000000000000000000000000000000006b
:10554000000000000000000000000000000000005b
:10555000000000000000000000000000000000004b
:10556000000000000000000000000000000000003b
:10557000000000000000000000000000000000002b
:10558000000000000000000000000000000000001b
:105590000000000000000000d402a800d422a800ef
:1055a000cca2a800ccc2a8000000000000000000af
:1055b00000000000000000000000000000000000eb
:1055c00000000000000000000000000000000000db
:1055d00000000000000000000000000000000000cb
:1055e00000000000000000000000000000000000bb
:1055f00000000000000000000000000000000000ab
:10560000000000000000000000000000000000009a
:10561000000000000000000000000000000000008a
:10562000000000000000000000000000000000007a
:10563000000000000000000000000000000000006a
:10564000000000000000000000000000000000005a
:10565000000000000000000000000000000000004a
:105660000000000000000000d402a900d422a9001c
:10567000000000000000000000000000000000002a
:10568000000000000000000000000000000000001a
:10569000000000000000000000000000000000000a
:1056a00000000000000000000000000000000000fa
:1056b00000000000000000000000000000000000ea
:1056c00000000000000000000000000000000000da
:1056d00000000000000000000000000000000000ca
:1056e00000000000000000000000000000000000ba
:1056f00000000000000000000000000000000000aa
:105700000000000000000000000000000000000099
:105710000000000000000000000000000000000089
:105720000000000000000000000000000000000079
:10573000d402a800d422a800cca2a800ccc2a80001
:105740000000000000000000000000000000000059
:105750000000000000000000000000000000000049
:105760000000000000000000000000000000000039
:105770000000000000000000000000000000000029
:105780000000000000000000000000000000000019
:105790000000000000000000000000000000000009
:1057a00000000000000000000000000000000000f9
:1057b00000000000000000000000000000000000e9
:1057c00000000000000000000000000000000000d9
:1057d00000000000000000000000000000000000c9
:1057e00000000000000000000000000000000000b9
:1057f00000000000000000000000000000000000a9
:10580000d402a900d422a90000000000000000007a
:105810000000000000000000000000000000000088
:105820000000000000000000000000000000000078
:105830000000000000000000000000000000000068
:105840000000000000000000000000000000000058
:105850000000000000000000000000000000000048
:105860000000000000000000000000000000000038
:105870000000000000000000000000000000000028
:105880000000000000000000000000000000000018
:105890000000000000000000000000000000000008
:1058a00000000000000000000000000000000000f8
:1058b00000000000000000000000000000000000e8
:1058c0000000000000000000d402a800d422a800bc
:1058d000cca2a800ccc2a80000000000000000007c
:1058e00000000000000000000000000000000000b8
:1058f00000000000000000000000000000000000a8
:105900000000000000000000000000000000000097
:105910000000000000000000000000000000000087
:105920000000000000000000000000000000000077
:105930000000000000000000000000000000000067
:105940000000000000000000000000000000000057
:105950000000000000000000000000000000000047
:105960000000000000000000000000000000000037
:105970000000000000000000000000000000000027
:105980000000000000000000000000000000000017
:105990000000000000000000d402a900d422a900e9
:1059a00000000000000000000000000000000000f7
:1059b00000000000000000000000000000000000e7
:1059c00000000000000000000000000000000000d7
:1059d00000000000000000000000000000000000c7
:1059e00000000000000000000000000000000000b7
:1059f00000000000000000000000000000000000a7
:105a00000000000000000000000000000000000096
:105a10000000000000000000000000000000000086
:105a20000000000000000000000000000000000076
:105a30000000000000000000000000000000000066
:105a40000000000000000000000000000000000056
:105a50000000000000000000000000000000000046
:105a6000d402a800d422a800cca2a800ccc2a800ce
:105a70000000000000000000000000000000000026
:105a80000000000000000000000000000000000016
:105a90000000000000000000000000000000000006
:105aa00000000000000000000000000000000000f6
:105ab00000000000000000000000000000000000e6
:105ac00000000000000000000000000000000000d6
:105ad00000000000000000000000000000000000c6
:105ae00000000000000000000000000000000000b6
:105af00000000000000000000000000000000000a6
:105b00000000000000000000000000000000000095
:105b10000000000000000000000000000000000085
:105b20000000000000000000000000000000000075
:105b3000d402a900d422a900000000000000000047
:105b40000000000000000000000000000000000055
:105b50000000000000000000000000000000000045
:105b60000000000000000000000000000000000035
:105b70000000000000000000000000000000000025
:105b80000000000000000000000000000000000015
:105b90000000000000000000000000000000000005
:105ba00000000000000000000000000000000000f5
:105bb00000000000000000000000000000000000e5
:105bc00000000000000000000000000000000000d5
:105bd00000000000000000000000000000000000c5
:105be00000000000000000000000000000000000b5
:105bf0000000000000000000d402a800d422a80089
:105c0000cca2a800ccc2a800000000000000000048
:105c10000000000000000000000000000000000084
:105c20000000000000000000000000000000000074
:105c30000000000000000000000000000000000064
:105c40000000000000000000000000000000000054
:105c50000000000000000000000000000000000044
:105c60000000000000000000000000000000000034
:105c70000000000000000000000000000000000024
:105c80000000000000000000000000000000000014
:105c90000000000000000000000000000000000004
:105ca00000000000000000000000000000000000f4
:105cb00000000000000000000000000000000000e4
:105cc0000000000000000000d402a900d422a900b6
:105cd00000000000000000000000000000000000c4
:105ce00000000000000000000000000000000000b4
:105cf00000000000000000000000000000000000a4
:105d00000000000000000000000000000000000093
:105d10000000000000000000000000000000000083
:105d20000000000000000000000000000000000073
:105d30000000000000000000000000000000000063
:105d40000000000000000000000000000000000053
:105d50000000000000000000000000000000000043
:105d60000000000000000000000000000000000033
:105d70000000000000000000000000000000000023
:105d80000000000000000000000000000000000013
:105d9000d402a800d422a800cca2a800ccc2a8009b
:105da00000000000000000000000000000000000f3
:105db00000000000000000000000000000000000e3
:105dc00000000000000000000000000000000000d3
:105dd00000000000000000000000000000000000c3
:105de00000000000000000000000000000000000b3
:105df00000000000000000000000000000000000a3
:105e00000000000000000000000000000000000092
:105e10000000000000000000000000000000000082
:105e20000000000000000000000000000000000072
:105e30000000000000000000000000000000000062
:105e40000000000000000000000000000000000052
:105e50000000000000000000000000000000000042
:105e6000d402a900d422a900000000000000000014
:105e70000000000000000000000000000000000022
:105e80000000000000000000000000000000000012
:105e90000000000000000000000000000000000002
:105ea00000000000000000000000000000000000f2
:105eb00000000000000000000000000000000000e2
:105ec00000000000000000000000000000000000d2
:105ed00000000000000000000000000000000000c2
:105ee00000000000000000000000000000000000b2
:105ef00000000000000000000000000000000000a2
:105f00000000000000000000000000000000000091
:105f10000000000000000000000000000000000081
:105f2000000000000000000080002000b30c07000b
:105f3000c8a2a800cea2a900c8c2a800cec2a900cb
:105f400080002000ad0c0700d402a800d422a800d5
:105f50000000000000000000000000000000000041
:105f60000000000000000000000000000000000031
:105f70000000000000000000000000000000000021
:105f80000000000000000000000000000000000011
:105f90000000000000000000000000000000000001
:105fa00000000000000000000000000000000000f1
:105fb00000000000000000000000000000000000e1
:105fc00000000000000000000000000000000000d1
:105fd00000000000000000000000000000000000c1
:105fe00000000000000000000000000000000000b1
:105ff00000000000000000000000000000000000a1
:106000000000000000000000000000000000000090
:10601000d402a900d422a900cac2bf004500de00f4
:1060200061016000cac2bf004600de00e1006000fe
:106030000000000000000000000000000000000060
:106040000000000000000000000000000000000050
:106050000000000000000000000000000000000040
:106060000000000000000000000000000000000030
:106070000000000000000000000000000000000020
:106080000000000000000000000000000000000010
:106090000000000000000000000000000000000000
:1060a00000000000000000000000000000000000f0
:1060b00000000000000000000000000000000000e0
:1060c00000000000000000000000000000000000d0
:1060d00000000000000000000000000000000000c0
:1060e00000000000000000000000000000000000b0
:1060f0000280fb00000140000180fb0080014000a5
:10610000d402a800d422a800000000000000000073
:10611000000000000000000000000000000000007f
:10612000000000000000000000000000000000006f
:10613000000000000000000000000000000000005f
:10614000000000000000000000000000000000004f
:10615000000000000000000000000000000000003f
:10616000000000000000000000000000000000002f
:10617000000000000000000000000000000000001f
:10618000000000000000000000000000000000000f
:1061900000000000000000000000000000000000ff
:1061a00000000000000000000000000000000000ef
:1061b00000000000000000000000000000000000df
:1061c0000000000000000000d402a900d422a900b1
:1061d000cac2bf004500de0061006000800071009f
:1061e000cac2bf004600de0061006000008071008e
:1061f000000000000000000000000000000000009f
:10620000000000000000000000000000000000008e
:10621000000000000000000000000000000000007e
:10622000000000000000000000000000000000006e
:10623000000000000000000000000000000000005e
:10624000000000000000000000000000000000004e
:10625000000000000000000000000000000000003e
:10626000000000000000000000000000000000002e
:10627000000000000000000000000000000000001e
:10628000000000000000000000000000000000000e
:1062900000000000000000000000000000000000fe
:1062a00000000000000000000000000000000000ee
:1062b0008180400000014000d402a800d422a80040
:1062c00000000000000000000000000000000000ce
:1062d00000000000000000000000000000000000be
:1062e00000000000000000000000000000000000ae
:1062f000000000000000000000000000000000009e
:10630000000000000000000000000000000000008d
:10631000000000000000000000000000000000007d
:10632000000000000000000000000000000000006d
:10633000000000000000000000000000000000005d
:10634000000000000000000000000000000000004d
:10635000000000000000000000000000000000003d
:10636000000000000000000000000000000000002d
:10637000000000000000000000000000000000001d
:10638000d402a900d422a900cac2bf004500de0081
:106390006100600080807000cac2bf004600de005d
:1063a00061006000000071000000000000000000bb
:1063b00000000000000000000000000000000000dd
:1063c00000000000000000000000000000000000cd
:1063d00000000000000000000000000000000000bd
:1063e00000000000000000000000000000000000ad
:1063f000000000000000000000000000000000009d
:10640000000000000000000000000000000000008c
:10641000000000000000000000000000000000007c
:10642000000000000000000000000000000000006c
:10643000000000000000000000000000000000005c
:10644000000000000000000000000000000000004c
:10645000000000000000000000000000000000003c
:1064600000000000000000008180400000014000aa
:10647000d402a800d422a800000000000000000000
:10648000000000000000000000000000000000000c
:1064900000000000000000000000000000000000fc
:1064a00000000000000000000000000000000000ec
:1064b00000000000000000000000000000000000dc
:1064c00000000000000000000000000000000000cc
:1064d00000000000000000000000000000000000bc
:1064e00000000000000000000000000000000000ac
:1064f000000000000000000000000000000000009c
:10650000000000000000000000000000000000008b
:10651000000000000000000000000000000000007b
:10652000000000000000000000000000000000006b
:106530000000000000000000d402a900d422a9003d
:10654000cac2bf004500de006100600080807000ac
:10655000cac2bf004600de0061006000000071009a
:10656000000000000000000000000000000000002b
:10657000000000000000000000000000000000001b
:10658000000000000000000000000000000000000b
:1065900000000000000000000000000000000000fb
:1065a00000000000000000000000000000000000eb
:1065b00000000000000000000000000000000000db
:1065c00000000000000000000000000000000000cb
:1065d00000000000000000000000000000000000bb
:1065e00000000000000000000000000000000000ab
:1065f000000000000000000000000000000000009b
:10660000000000000000000000000000000000008a
:10661000000000000000000000000000000000007a
:106620008180400000014000d402a800d422a800cc
:10663000000000000000000000000000000000005a
:10664000000000000000000000000000000000004a
:10665000000000000000000000000000000000003a
:10666000000000000000000000000000000000002a
:10667000000000000000000000000000000000001a
:10668000000000000000000000000000000000000a
:1066900000000000000000000000000000000000fa
:1066a00000000000000000000000000000000000ea
:1066b00000000000000000000000000000000000da
:1066c00000000000000000000000000000000000ca
:1066d00000000000000000000000000000000000ba
:1066e00000000000000000000000000000000000aa
:1066f000d402a900d422a900cac2bf004500de000e
:106700006100600080807000cac2bf004600de00e9
:106710006100600000007100000000000000000047
:106720000000000000000000000000000000000069
:106730000000000000000000000000000000000059
:106740000000000000000000000000000000000049
:106750000000000000000000000000000000000039
:106760000000000000000000000000000000000029
:106770000000000000000000000000000000000019
:106780000000000000000000000000000000000009
:1067900000000000000000000000000000000000f9
:1067a00000000000000000000000000000000000e9
:1067b00000000000000000000000000000000000d9
:1067c00000000000000000000000000000000000c9
:1067d0000000000000000000818040000001400037
:1067e000d402a800d422a80000000000000000008d
:1067f0000000000000000000000000000000000099
:106800000000000000000000000000000000000088
:106810000000000000000000000000000000000078
:106820000000000000000000000000000000000068
:106830000000000000000000000000000000000058
:106840000000000000000000000000000000000048
:106850000000000000000000000000000000000038
:106860000000000000000000000000000000000028
:106870000000000000000000000000000000000018
:106880000000000000000000000000000000000008
:1068900000000000000000000000000000000000f8
:1068a0000000000000000000d402a900d422a900ca
:1068b000cac2bf004500de00610060008080700039
:1068c000cac2bf004600de00610060000000710027
:1068d00000000000000000000000000000000000b8
:1068e00000000000000000000000000000000000a8
:1068f0000000000000000000000000000000000098
:106900000000000000000000000000000000000087
:106910000000000000000000000000000000000077
:106920000000000000000000000000000000000067
:106930000000000000000000000000000000000057
:106940000000000000000000000000000000000047
:106950000000000000000000000000000000000037
:106960000000000000000000000000000000000027
:106970000000000000000000000000000000000017
:106980000000000000000000000000000000000007
:106990008180400000014000d402a800d422a80059
:1069a00000000000000000000000000000000000e7
:1069b00000000000000000000000000000000000d7
:1069c00000000000000000000000000000000000c7
:1069d00000000000000000000000000000000000b7
:1069e00000000000000000000000000000000000a7
:1069f0000000000000000000000000000000000097
:106a00000000000000000000000000000000000086
:106a10000000000000000000000000000000000076
:106a20000000000000000000000000000000000066
:106a30000000000000000000000000000000000056
:106a40000000000000000000000000000000000046
:106a50000000000000000000000000000000000036
:106a6000d402a900d422a900cac2bf004500de009a
:106a70006100600080807000cac2bf004600de0076
:106a800061006000000071000000000000000000d4
:106a900000000000000000000000000000000000f6
:106aa00000000000000000000000000000000000e6
:106ab00000000000000000000000000000000000d6
:106ac00000000000000000000000000000000000c6
:106ad00000000000000000000000000000000000b6
:106ae00000000000000000000000000000000000a6
:106af0000000000000000000000000000000000096
:106b00000000000000000000000000000000000085
:106b10000000000000000000000000000000000075
:106b20000000000000000000000000000000000065
:106b30000000000000000000000000000000000055
:106b400000000000000000008180400000014000c3
:106b5000d402a800d422a800000000000000000019
:106b60000000000000000000000000000000000025
:106b70000000000000000000000000000000000015
:106b80000000000000000000000000000000000005
:106b900000000000000000000000000000000000f5
:106ba00000000000000000000000000000000000e5
:106bb00000000000000000000000000000000000d5
:106bc00000000000000000000000000000000000c5
:106bd00000000000000000000000000000000000b5
:106be00000000000000000000000000000000000a5
:106bf0000000000000000000000000000000000095
:106c00000000000000000000000000000000000084
:106c10000000000000000000d402a900d422a90056
:106c2000cac2bf004500de006100600080807000c5
:106c3000cac2bf004600de006100600000007100b3
:106c40000000000000000000000000000000000044
:106c50000000000000000000000000000000000034
:106c60000000000000000000000000000000000024
:106c70000000000000000000000000000000000014
:106c80000000000000000000000000000000000004
:106c900000000000000000000000000000000000f4
:106ca00000000000000000000000000000000000e4
:106cb00000000000000000000000000000000000d4
:106cc00000000000000000000000000000000000c4
:106cd00000000000000000000000000000000000b4
:106ce00000000000000000000000000000000000a4
:106cf0000000000000000000000000000000000094
:106d00000184400080044000d00020003b090700bf
:106d1000d402a800d422a800000000000000000057
:106d20000000000000000000000000000000000063
:106d30000000000000000000000000000000000053
:106d40000000000000000000000000000000000043
:106d50000000000000000000000000000000000033
:106d60000000000000000000000000000000000023
:106d70000000000000000000000000000000000013
:106d80000000000000000000000000000000000003
:106d900000000000000000000000000000000000f3
:106da00000000000000000000000000000000000e3
:106db00000000000000000000000000000000000d3
:106dc00000000000000000000000000000000000c3
:106dd0000000000000000000d402a900d422a90095
:106de000cac2bf004500de00610060008000740080
:106df000cac2bf004600de0061006000008074006f
:106e00000000000000000000000000000000000082
:106e10000000000000000000000000000000000072
:106e20000000000000000000000000000000000062
:106e30000000000000000000000000000000000052
:106e40000000000000000000000000000000000042
:106e50000000000000000000000000000000000032
:106e60000000000000000000000000000000000022
:106e70000000000000000000000000000000000012
:106e80000000000000000000000000000000000002
:106e900000000000000000000000000000000000f2
:106ea00000000000000000000000000000000000e2
:106eb00000000000000000000000000000000000d2
:106ec0008180400000014000d402a800d422a80024
:106ed00000000000000000000000000000000000b2
:106ee00000000000000000000000000000000000a2
:106ef0000000000000000000000000000000000092
:106f00000000000000000000000000000000000081
:106f10000000000000000000000000000000000071
:106f20000000000000000000000000000000000061
:106f30000000000000000000000000000000000051
:106f40000000000000000000000000000000000041
:106f50000000000000000000000000000000000031
:106f60000000000000000000000000000000000021
:106f70000000000000000000000000000000000011
:106f80000000000000000000000000000000000001
:106f9000d402a900d422a900cac2bf004500de0065
:106fa0006100600080807000cac2bf004600de0041
:106fb000610060000000710000000000000000009f
:106fc00000000000000000000000000000000000c1
:106fd00000000000000000000000000000000000b1
:106fe00000000000000000000000000000000000a1
:106ff0000000000000000000000000000000000091
:107000000000000000000000000000000000000080
:107010000000000000000000000000000000000070
:107020000000000000000000000000000000000060
:107030000000000000000000000000000000000050
:107040000000000000000000000000000000000040
:107050000000000000000000000000000000000030
:107060000000000000000000000000000000000020
:10707000000000000000000081804000000140008e
:10708000d402a800d422a8000000000000000000e4
:1070900000000000000000000000000000000000f0
:1070a00000000000000000000000000000000000e0
:1070b00000000000000000000000000000000000d0
:1070c00000000000000000000000000000000000c0
:1070d00000000000000000000000000000000000b0
:1070e00000000000000000000000000000000000a0
:1070f0000000000000000000000000000000000090
:10710000000000000000000000000000000000007f
:10711000000000000000000000000000000000006f
:10712000000000000000000000000000000000005f
:10713000000000000000000000000000000000004f
:107140000000000000000000d402a900d422a90021
:10715000cac2bf004500de00610060008080700090
:10716000cac2bf004600de0061006000000071007e
:10717000000000000000000000000000000000000f
:1071800000000000000000000000000000000000ff
:1071900000000000000000000000000000000000ef
:1071a00000000000000000000000000000000000df
:1071b00000000000000000000000000000000000cf
:1071c00000000000000000000000000000000000bf
:1071d00000000000000000000000000000000000af
:1071e000000000000000000000000000000000009f
:1071f000000000000000000000000000000000008f
:10720000000000000000000000000000000000007e
:10721000000000000000000000000000000000006e
:10722000000000000000000000000000000000005e
:107230008180400000014000d402a800d422a800b0
:10724000000000000000000000000000000000003e
:10725000000000000000000000000000000000002e
:10726000000000000000000000000000000000001e
:10727000000000000000000000000000000000000e
:1072800000000000000000000000000000000000fe
:1072900000000000000000000000000000000000ee
:1072a00000000000000000000000000000000000de
:1072b00000000000000000000000000000000000ce
:1072c00000000000000000000000000000000000be
:1072d00000000000000000000000000000000000ae
:1072e000000000000000000000000000000000009e
:1072f000000000000000000000000000000000008e
:10730000d402a900d422a900cac2bf004500de00f1
:107310006100600080807000cac2bf004600de00cd
:10732000610060000000710000000000000000002b
:10733000000000000000000000000000000000004d
:10734000000000000000000000000000000000003d
:10735000000000000000000000000000000000002d
:10736000000000000000000000000000000000001d
:10737000000000000000000000000000000000000d
:1073800000000000000000000000000000000000fd
:1073900000000000000000000000000000000000ed
:1073a00000000000000000000000000000000000dd
:1073b00000000000000000000000000000000000cd
:1073c00000000000000000000000000000000000bd
:1073d00000000000000000000000000000000000ad
:1073e000000000000000000081804000000140001b
:1073f000d402a800d422a800000000000000000071
:10740000000000000000000000000000000000007c
:10741000000000000000000000000000000000006c
:10742000000000000000000000000000000000005c
:10743000000000000000000000000000000000004c
:10744000000000000000000000000000000000003c
:10745000000000000000000000000000000000002c
:10746000000000000000000000000000000000001c
:10747000000000000000000000000000000000000c
:1074800000000000000000000000000000000000fc
:1074900000000000000000000000000000000000ec
:1074a00000000000000000000000000000000000dc
:1074b0000000000000000000d402a900d422a900ae
:1074c000cac2bf004500de0061006000808070001d
:1074d000cac2bf004600de0061006000000071000b
:1074e000000000000000000000000000000000009c
:1074f000000000000000000000000000000000008c
:10750000000000000000000000000000000000007b
:10751000000000000000000000000000000000006b
:10752000000000000000000000000000000000005b
:10753000000000000000000000000000000000004b
:10754000000000000000000000000000000000003b
:10755000000000000000000000000000000000002b
:10756000000000000000000000000000000000001b
:10757000000000000000000000000000000000000b
:1075800000000000000000000000000000000000fb
:1075900000000000000000000000000000000000eb
:1075a0008180400000014000d402a800d422a8003d
:1075b00000000000000000000000000000000000cb
:1075c00000000000000000000000000000000000bb
:1075d00000000000000000000000000000000000ab
:1075e000000000000000000000000000000000009b
:1075f000000000000000000000000000000000008b
:10760000000000000000000000000000000000007a
:10761000000000000000000000000000000000006a
:10762000000000000000000000000000000000005a
:10763000000000000000000000000000000000004a
:10764000000000000000000000000000000000003a
:10765000000000000000000000000000000000002a
:10766000000000000000000000000000000000001a
:10767000d402a900d422a900cac2bf004500de007e
:107680006100600080807000cac2bf004600de005a
:1076900061006000000071000000000000000000b8
:1076a00000000000000000000000000000000000da
:1076b00000000000000000000000000000000000ca
:1076c00000000000000000000000000000000000ba
:1076d00000000000000000000000000000000000aa
:1076e000000000000000000000000000000000009a
:1076f000000000000000000000000000000000008a
:107700000000000000000000000000000000000079
:107710000000000000000000000000000000000069
:107720000000000000000000000000000000000059
:107730000000000000000000000000000000000049
:107740000000000000000000000000000000000039
:1077500000000000000000008180400000014000a7
:10776000d402a800d422a8000000000000000000fd
:107770000000000000000000000000000000000009
:1077800000000000000000000000000000000000f9
:1077900000000000000000000000000000000000e9
:1077a00000000000000000000000000000000000d9
:1077b00000000000000000000000000000000000c9
:1077c00000000000000000000000000000000000b9
:1077d00000000000000000000000000000000000a9
:1077e0000000000000000000000000000000000099
:1077f0000000000000000000000000000000000089
:107800000000000000000000000000000000000078
:107810000000000000000000000000000000000068
:107820000000000000000000d402a900d422a9003a
:10783000cac2bf004500de006100600080807000a9
:10784000cac2bf004600de00610060000000710097
:107850000000000000000000000000000000000028
:107860000000000000000000000000000000000018
:107870000000000000000000000000000000000008
:1078800000000000000000000000000000000000f8
:1078900000000000000000000000000000000000e8
:1078a00000000000000000000000000000000000d8
:1078b00000000000000000000000000000000000c8
:1078c00000000000000000000000000000000000b8
:1078d00000000000000000000000000000000000a8
:1078e0000000000000000000000000000000000098
:1078f0000000000000000000000000000000000088
:107900000000000000000000000000000000000077
:107910008180400080044000d402a800d422a80046
:107920000000000000000000000000000000000057
:107930000000000000000000000000000000000047
:107940000000000000000000000000000000000037
:107950000000000000000000000000000000000027
:107960000000000000000000000000000000000017
:107970000000000000000000000000000000000007
:1079800000000000000000000000000000000000f7
:1079900000000000000000000000000000000000e7
:1079a00000000000000000000000000000000000d7
:1079b00000000000000000000000000000000000c7
:1079c00000000000000000000000000000000000b7
:1079d00000000000000000000000000000000000a7
:1079e000d402a900d422a900cac2bf004500de000b
:1079f00061006000a82c2000184478004644de0096
:107a000061046400000000000000000000000000ad
:107a10000000000000000000000000000000000066
:107a20000000000000000000000000000000000056
:107a30000000000000000000000000000000000046
:107a40000000000000000000000000000000000036
:107c300000000000d442a800cc62a80000000000b0
:107c40000000000000000000000000000000000034
:107c50000000000000000000000000000000000024
:107c60000000000000000000000000000000000014
:107c70000000000000000000000000000000000004
:107c800000000000000000000000000000000000f4
:107c900000000000000000000000000000000000e4
:107ca00000000000000000000000000000000000d4
:107cb00000000000000000000000000000000000c4
:107cc00000000000000000000000000000000000b4
:107cd000000000000000000000000000d402a90025
:107ce000d422a900c8a2a900cea2a800c8c2a90097
:107cf000cec2a8000080fb00808070000000eb0076
:107d00009ef107000884fb008880740010002000aa
:107d10009af10700d15c800022b920000180400068
:107d2000e35c80000330790064004000f35c800075
:107d3000033079000100e800e10f50000100340039
:107d40000000eb00d05c88004f04be00000006007d
:107d5000c3c2bf006100600000000600cd03070041
:107d60000000050000000600ab0bab000a0032006b
:107d700010c0b3008aebb700325c8000c15b8000aa
:107d8000c0a520000801070080ab2000c1a520008d
:107d9000250009003158780000000600889fbe00c9
:107da0000000eb0063f10700a05588000000eb0025
:107db00064f107008055880030002000f5ec0700d2
:107dc0003055880020002000f2ec07004055880064
:107dd0000000eb00efec0700505588001000200079
:107de000ecec0700605588000000eb00ca030700b8
:107df000705588002857800029f00700800478001b
:107e00002ef0070009047400000474000820a0008c
:107e1000b855880030f007000000e00003003d0086
:107e20002df007000000ea00010037002af00700eb
:107e30000055880030578000105588004f04be0060
:107e4000000006000800fa00d4ff070082002000ae
:107e5000019c200068805700d30007004fb89700ae
:107e6000dfb897006fb99700ffb9970084a9200089
:107e7000009abe000292be0000a2200081a920004c
:107e80001f00090031587800425c8000b15b80001f
:107e900000a22000e10007000080fa0000000600b8
:107ea0008540a9009540a9004222ef0042a2a80007
:107eb00042c2bf00c1cfb300014060000014a00067
:107ec00042e2b70042c2bf0031ceb30001406000c1
:107ed0008041b30042e2b70042c2a8004302a900b9
:107ee0004322a9004342a90040c2a90041e2a800e0
:107ef000d4c2a800000006000200fa00881f780023
:107f00000040eb00c0ff9f00c8032000485c8800d1
:107f1000385c8800020220008000eb0080a920006d
:107f200095ec0700620220008000eb0080ab20008f
:107f300091ec0700080178008000eb00c0a520004c
:107f40008dec0700080178008000eb0000a2200003
:107f500089ec0700e62aef00e42aef00e22aef00ae
:107f6000de2aef00e02aef00cdff07008200a80024
:107f70008220a8008240a800d4c2a8008400a900e2
:107f8000120020000114200064805700ba0007008e
:107f90004ff89700e54f5000f9ff3a00120020001b
:107fa0005100200040b82000b30007000000eb00a3
:107fb000f80007009400a800260307004f0478008b
:107fc0000080fa00000006003600f800809fbe0026
:107fd000829fbe00849fbe00869fbe00d4c2a800c0
:107fe0008400a90033000700854be2000600320040
:107ff0008c4be200010032005bff07008b4be2007c
:10800000010032008fff07004f03be004f02be0089
:108010004f01be004f00be003600f90000400600d0
:10802000000005000000050000000500000005003c
:108030000000050000000500000005009400a900f4
:10804000d4c2a9008540a900000420004012880085
:1080500085c0bf000028a300fdff32004012800051
:10806000aaebb7008540a900200720004012880035
:1080700085c0bf000028a300fdff32004012800031
:10808000abebb7008540a900f00f2000401288003c
:1080900085c0bf000028a300fdff32004012800011
:1080a000a0ebb7008540a900d4c2a8009400a800a6
:1080b00000000600d4c2a9008540a9004822ef00b4
:1080c00085c0bf000028a300fdff320040128000e1
:1080d000aaebb7008540a9002000200040128800cc
:1080e00085c0bf000028a300fdff320040128000c1
:1080f000abebb7008540a900d4c2a8000000060081
:108100004300dd008180fb0081007000d4c2a90023
:108110008540a9004808de004012880085c0bf00e5
:108120000028a300fdff320040128000aaebb70038
:108130008540a9000180fb004012880085c0bf0077
:108140000028a300fdff320040128000abebb70017
:108150008540a900000006004300dd008180fb008f
:1081600081007000d4c2a9008540a9004808de0043
:108170004012880085c0bf000028a300fdff320028
:10818000401280008540a9000180fb004012880059
:1081900085c0bf000028a300fdff32004012800010
:1081a0008540a90000000600889fbe00800478007a
:1081b000010078000204780021c0b300e6ff070048
:1081c000880078008041eb000001eb000c003700d4
:1081d0000100e00001003a0080c1eb008540a900e9
:1081e0000380fb004012880085c0bf000028a30068
:1081f000fdff320040128000807479000201e80027
:108200008100e900880f5100f1ff3a008540a90084
:10821000d4c2a8004f04be0000000600889fbe0024
:1082200080047800010078000204780041c0b300a7
:10823000c9ff07008000eb00090037008540a90056
:1082400069c078000080fb004012880085c0bf0034
:108250000028a300fdff3200401280008100e800ea
:10826000888f5000f5ff3a008540a900d4c2a800cd
:108270004f04be0000000600889fbe008a9fbe001b
:108280008005780001047800020578008004eb0086
:10829000100037009400a90021c0b3000800780046
:1082a00097ff0700f00f20004012880085c0bf0034
:1082b0000028a300fdff32004012800080f57c0002
:1082c0009400a800d4c2a8000804e8008540a900d2
:1082d0008904e8008a8f5400eeff3a004f05be0083
:1082e0004f04be000000060054ff0700aa0bab00bd
:1082f0000a0032002200200001122000e0ba200013
:10830000ddff0700aacbbf00e1ceb3000140600053
:10831000aaebb700aecbbf007d010700000006004e
:10832000889fbe008a9fbe00800578000104780007
:10833000020578008004eb00110037009400a900ca
:1083400041c0b300080078006dff07008540a90018
:108350006bc07c000080fb004012880085c0bf001d
:108360000028a300fdff3200401280009400a80006
:108370000804e8008540a900d4c2a8008904e800e8
:108380008a8f5400edff3a004f05be004f04be0037
:10839000000006000200fa00881f78000004780040
:1083a000220020004120200064805700b2ff070017
:1083b000efb8970001006400e0bf9f009400a9009f
:1083c0000000e00001003a00b0ebb70022002000fe
:1083d0004120200064805700d1ff07009400a800ce
:1083e0004f0478000080fa00000006000200fa0046
:1083f000881f78000004780022002000412020001f
:10840000648057009cff07006fb89700000074005d
:10841000e0bf9f009400a90010c0b300b0ebb7000c
:10842000220020004120200064805700bcff07008c
:108430009400a8004f0478000080fa0000000600b5
:108440000200fa00881f7800014478000080fb00d9
:10845000e0bf9f002200200001132000648057002d
:10846000afff0700e14f4400060032000880fb0028
:10847000e0bf9f00220020004113200064805700cd
:10848000a7ff07004f0478000080fa0000000600f4
:108490000200fa0011c0b300e1ff9f000080fb0062
:1084a0004300dd00718020008100400012002000a8
:1084b0000f80e9009aff07000080fa000000060024
:1084c0000200fa008040eb00e1ff9f000080fb000b
:1084d0004300dd0071802000810040001200200078
:1084e0000f80e9008eff07000080fa000000060000
:1084f000881f780028ba20000080fb004300dd00c0
:1085000001802000810040008200200008007800e7
:1085100059ff0700080078004f04780000000600ab
:10852000010178000004e00003003200e14f500038
:1085300058003a002a00370061409000d00fb20086
:1085400006003a00110090000000e0005a003a00d6
:10855000860be2005500320057003700e10f500053
:1085600055003a0091009000305c8000808f5000f0
:1085700051003a00c24190006d806100e40f50004c
:108580004c003a0020b8200021c0b30090cf10006a
:1085900008003a0092007800f0ff2000808f500021
:1085a0004300360000002200808f50000400360097
:1085b0003f003700c05b8000920f10003c003a0083
:1085c000030078000004b2000100320010c0b300c4
:1085d0007bebb700880be20034003a00280037003c
:1085e00061409000d00fb20006003a0011009000e8
:1085f0000000e00030003a00880be2002b0032005f
:108600002d003700e10f50002b003a0011029000be
:10861000405c8000800f520027003a0041409000eb
:108620008081fb006d80610022003a0020b82000ac
:1086300021c0b30090cf100008003a0092007800eb
:10864000f0ff2000808f500019003600000022004b
:10865000808f50000400360015003700b05b8000aa
:10866000920f100012003a000400e0000f003200e8
:10867000d302b20000022000808f510003003a00b4
:1086800010c0b30085ebb70008003700856bef0022
:108690000600370061409000d00fb20006003a009b
:1086a000110090000000e00003003a000000050007
:1086b000200005004000050030000500889fbe0036
:1086c0008a9fbe00804578000045eb008004eb00e7
:1086d0001200370018c0b3000904e00004003200a3
:1086e0000044eb00e14f50000100320009447800e3
:1086f000084078007eff070080007800084078007e
:1087000087ff07000004e000030032000a04e000d5
:1087100001003a007d4544008904e80009407800e2
:108720008bcf5400ebff39000a80fb004f05be00e1
:108730004f04be00000006000040eb006cff070085
:1087400010007800c05b880010c0b30068ff07000d
:1087500010017800b25b8800c35b8000305c800051
:108760006300b90000804100820f50000500360010
:10877000405c800000004100d1012000808f51004a
:1087800012003900880be2000900320010c0b3006b
:108790004bff070025fe07000004e0000200320046
:1087a0008080fb000900370010c0b3008bebb700de
:1087b000860be200020032000040eb0040ff0700a1
:1087c0000000eb0009ff07008000eb0001007800cb
:1087d000000006000400fa002200200001402000f2
:1087e0000f80e900a4fe07007fb897000000e000ba
:1087f000140032007b4be200120032002200200005
:1088000001422000648057009bfe07006fb897006c
:108810000000e0000e003200010020007fb9970048
:10882000030020003eea0700821a26000300200011
:1088300041ea0700f05b88007b4be20006003a004b
:10884000170037000000eb00e0bf9f007e2bef0019
:108850007b4be20012003a00860be200050032007a
:10886000f4fd07000004e000020032000080fb007d
:108870000e00370010c0b3008cebb700744be20061
:1088800009003a00854be20007003200860be20047
:108890000500320000102000d4fe0700020037005f
:1088a000f0012000010037000000eb000080fa001a
:1088b00000000600f0ef2f00b6fe07008a6bef0005
:1088c0008c6bef000040eb00860be20001003200f1
:1088d000d9fd07000080fb00000006000040eb000f
:1088e000ebfe070030cf2f00aafe07000040eb0090
:1088f00085ebb70074ebb7008bebb70010c0b3008b
:10890000e3fe0700cafd07000080fb000000060030
:10891000889fbe008a1f780022b82000124178008c
:10892000804178008080fb000148a30004003200f1
:108930000244a1000200780082ebb7000700370074
:108940000280fb000048a30004003200ef806000ba
:108950006f006000808f5000bb003c006fc561005d
:1089600082cbbf004400dd000a44400008007800cc
:108970007aebb70080c4b300804f5400110032007e
:1089800005003e0040c2b300804f54000900320091
:1089900040c4b3000400370040c8b300804f540007
:1089a0000800320064404000804f5400050032004f
:1089b000090037009cfd0700804478000004e000b7
:1089c00060003a0084cbbf003cff07008044780081
:1089d0000004e0005b003a0080c2b300804f540006
:1089e000410032001d003e00f84f54003e003200ae
:1089f0000b003e00f24f54003d00320003003e00e9
:108a0000f14f54003c003a004c003700f34f540043
:108a10003b003200f44f540037003a003200370078
:108a200020c2b300804f54004400320004003e00d6
:108a30000040e900804f54002f003a002c0037001e
:108a400030c2b300804f5400270032000040e800dd
:108a5000804f540028003a002b00370080c4b30038
:108a6000804f54002a0032000d003e006640500046
:108a7000804f54002f00320004003e000040e90007
:108a8000804f54001c003a002a00370030c4b30065
:108a9000804f5400140032000040e8000f003700ff
:108aa00030c8b300804f54000f00320007003e0072
:108ab00000c0e900804f54001a0032000040e80076
:108ac000804f54000c003a001600370040c8b30035
:108ad000804f54001100320064404000804f540029
:108ae00005003a001500370019c1b3002f00370008
:108af0008044eb002d00370029c1b3002b00370064
:108b000088447800290037000bff07000100370078
:108b100030ff0700804478002200370065ff07001f
:108b2000fcff370063ff0700804478000004e0008a
:108b30001c003a0069ff0700f6ff3700e9cfb300d9
:108b40001a00370082cbbf00e44f5000060032000d
:108b5000e84f500003003200e24f500011003a008d
:108b60000900370053ff0700fdcf54000400320016
:108b70005aff070020c0b30082ebb70002003700a5
:108b800040c0b30003003700f6cf540003003a00a2
:108b900010c0b30082ebb7000400370020c0b30060
:108ba00082ebb700e1cf44002700320022b820005a
:108bb000124178008a80fb006f006100808f5000b6
:108bc0001e0032000904e0000600320002007800b6
:108bd00081ebb7000244a0000200780082ebb700ee
:108be0001100370009b82000994478000904e0001a
:108bf000040032000a00780081ebb7000a44a000ac
:108c00000700370081cbbf000054e10002003e00a6
:108c100080c4eb00020037000900780081ebb70048
:108c20000a00780082ebb70082cbbf008940780051
:108c300003fe0700806bef00030037008040eb006d
:108c400002407800fefd07004f0578004f04be008b
:108c5000000006008040eb008000fd007bebb700c9
:108c600081ebb70080ebb7008aebb7008cebb70065
:108c70008000fd008000fd008bebb70074ebb700b7
:108c800085ebb7008000fd0010c0b30082ebb70099
:108c9000ebfd370094fd3700881f7800ff000700c8
:108ca0000b01070033010700e800070094ed0700ff
