:020000040000fa
:080000000002040000000000f2
:020000040000fa
:100400004fb820000e5f22000e018800000000009f
:100410000c000700004d2200010020001100070021
:10042000000020000000e000020032000000020096
:100430000000000082240200000000000040da00fa
:100440000000fe004440a900000020000000e00081
:100450000300320000002000a00188004440a800f2
:100460000000060091018800800078000000eb0089
:1004700015003700e280400032a0b4009101ba00bc
:10048000e280400032a0b4009102ba00e280400055
:1004900032a0b4000002eb00472bde00f507b200eb
:1004a000602ce10004003a000059eb008301e900f0
:1004b000fdff3e00040037006128e100010032002a
:1004c0000082eb00040007001101ba000200e00006
:1004d000e8ff3a00000006003159ba008301e90044
:1004e0000c0032002159ba008301e90008003200f3
:1004f0000400e00003003a00e280400032a0b400b3
:10050000f5ff370011d9ba008301e900faff3a007c
:100510008100e800e180400032a0b4000000060045
:100520000040da000000fe00839f68000100e00048
:1005300002003d0060001000e08018000300e000b1
:1005400002003d0060011100e08119000500070074
:100550004f00e00002003b0060001000e080180047
:10056000000006006022b800060220000000d00053
:100570008180d2000482d2008582d2000000a000d7
:100580000202520083825a0003003100020242003c
:1005900083824a000000a1000603e900f3ff3a004d
:1005a000000006008001eb00020037008171780036
:1005b0008301e800828f5100fcff3a000000060032
:020000040000fa
:0200000401f009
:04000800ffff0000f6
:020000040000fa
:0200000401f009
:04000c00fbff0000f6
:020000040000fa
:0200000401f009
:040010009cff000051
:020000040000fa
:0200000401f009
:040014007fff00006a
:020000040000fa
:0200000401f009
:04001800e8ff0000fd
:020000040000fa
:0200000401f009
:04001c00deff000003
:020000040000fa
:1000080090020000900200009002000090020000a0
:100018009002000090020000900200009002000090
:100028007a210000f0130000900200009002000006
:10003800c41e0000de1400009002000090020000c0
:100048005a24000090020000900200009002000074
:100058009002000082200000900200009002000040
:100068009002000090020000900200009002000040
:100078009002000090020000900200009002000030
:100088009002000090020000900200009002000020
:100098009002000090020000900200009002000010
:1000a8009002000090020000900200009002000000
:1000b80090020000900200009002000090020000f0
:1000c80090020000900200009002000090020000e0
:1000d80090020000900200009002000090020000d0
:1000e80090020000900200009002000090020000c0
:1000f80090020000900200009002000090020000b0
:10010800900200009002000090020000900200009f
:10011800900200009002000090020000900200008f
:10012800900200009002000090020000900200007f
:10013800900200009002000090020000900200006f
:10014800900200009002000090020000900200005f
:10015800900200009002000090020000900200004f
:10016800900200009002000090020000900200003f
:10017800900200009002000090020000900200002f
:10018800900200009002000090020000900200001f
:10019800900200009002000090020000900200000f
:1001a80090020000900200009002000090020000ff
:1001b80090020000900200009002000090020000ef
:1001c80090020000900200009002000090020000df
:1001d80090020000900200009002000090020000cf
:1001e80090020000900200009002000090020000bf
:0801f8009002000090020000db
:020000040000fa
:10020800900200009002000090020000900200009e
:10021800900200009002000090020000900200008e
:100228007a210000f0130000900200009002000004
:10023800c41e0000de1400009002000090020000be
:100248005a24000090020000900200009002000072
:10025800900200008220000090020000900200003e
:10026800900200009002000090020000900200003e
:10027800900200009002000090020000900200002e
:10028800900200009002000090020000900200001e
:10029800900200009002000090020000900200000e
:1002a80090020000900200009002000090020000fe
:1002b80090020000900200009002000090020000ee
:1002c80090020000900200009002000090020000de
:1002d80090020000900200009002000090020000ce
:1002e80090020000900200009002000090020000be
:1002f80090020000900200009002000090020000ae
:10030800900200009002000090020000900200009d
:10031800900200009002000090020000900200008d
:10032800900200009002000090020000900200007d
:10033800900200009002000090020000900200006d
:10034800900200009002000090020000900200005d
:10035800900200009002000090020000900200004d
:10036800900200009002000090020000900200003d
:10037800900200009002000090020000900200002d
:10038800900200009002000090020000900200001d
:10039800900200009002000090020000900200000d
:1003a80090020000900200009002000090020000fd
:1003b80090020000900200009002000090020000ed
:1003c80090020000900200009002000090020000dd
:1003d80090020000900200009002000090020000cd
:1003e80090020000900200009002000090020000bd
:0803f8009002000090020000d9
:020000040000fa
:1005c0002200fa0030079800410798000000eb0075
:1005d00020079800be009000600220000088b9004b
:1005e00080007800e09e2000008040001007980006
:1005f000be009000600220000088b90080007800f2
:1006000000812000008f4000be009000018140006a
:10061000209d200000004100100078000001e8004b
:1006200081804000209d200000804000020878006a
:100630001e007800c00090001e009000410098004d
:100640001e007800d00090001e009000510098001d
:100650001e007800e00090001e00900061009800ed
:100660001e007800f00090001e00900071009800bd
:100670001e007800801090001e009000011098006d
:100680001e007800f00890001e009000710898008d
:100690003e00900080004000209d2000008040002f
:1006a000900078004e009000808f5000c800350008
:1006b0003e00900080004000209d2000808040008f
:1006c0000000eb0080087800100020002007980050
:1006d0001e009000900090001e0078001000900016
:1006e000808f50002a0032001e0090001000900001
:1006f000001798001e009000900090001e007800e7
:1007000010009000008050000000e00003003d0059
:100710000080eb00700f98000200370011002000ed
:10072000710f98000e1190007e089000800051001b
:100730001e009000110098001e0090009000900094
:1007400000d02700808f50000a003c001e0090005f
:1007500010009000600f980000302800ee08900014
:10076000808f500005003d0002302800620f980085
:100770000200370000d02700600f98001e00900094
:10078000ee089000110098000000eb002007980090
:100790001e009000a00090001e0078002000900035
:1007a000808f50002a0032001e0090002000900030
:1007b000500f98001e009000a00090001e007800ce
:1007c00020009000008050000000e00003003d0089
:1007d0000081eb00420f980002003700100020005b
:1007e000400f98005e0990004e0890008000510074
:1007f0001e009000210098001e009000a0009000b4
:1008000000d02700808f50000a003c001e0090009e
:1008100020009000300f980000302800be089000a3
:10082000808f500005003d0002302800320f9800f4
:100830000200370000d02700300f98001e00900003
:10084000be089000210098000000eb0020079800ef
:100850001e009000b00090001e0078003000900054
:10086000808f50002a0032001e009000300090005f
:10087000200f98001e009000b00090001e0078002d
:1008800030009000008050000000e00003003d00b8
:100890000081eb00120f98000200370010002000ca
:1008a000100f98002e0990001e0890008000510043
:1008b0001e009000310098001e009000b0009000d3
:1008c00000d02700808f50000a003c001e009000de
:1008d00030009000000f9800003028008e08900033
:1008e000808f500005003d0002302800020f980064
:1008f0000200370000d02700000f98001e00900073
:100900008e089000310098000000eb00200798004e
:100910001e009000901090001e00780010109000b3
:10092000808f50002a0032001e00900010109000ae
:10093000700798001e009000901090001e00780034
:1009400010109000008050000000e00003003d0007
:100950000081eb00620798000200370010002000c1
:10096000600798007e0190006e00900080005100aa
:100970001e009000111098001e0090009010900032
:1009800000d02700808f50000a003c001e0090001d
:10099000101090005007980000302800de009000f2
:1009a000808f500005003d0002302800520798005b
:1009b0000200370000d02700500798001e0090006a
:1009c000de009000111098000000eb002007980056
:1009d0002e0090000080fa00000006001a00fa00c5
:1009e00030079800410798000000eb0020079800ae
:1009f000be009000600220000088b90080007800ee
:100a0000e09e20000080400010079800be0090008b
:100a1000600220000088b90080007800008120007a
:100a2000008f4000be00900001814000209d20000a
:100a300000004100100078000001e80081804000c3
:100a4000209d200000804000020878001e007800f1
:100a5000c00090001e009000410098001e00780029
:100a6000d00090001e009000510098001e007800f9
:100a7000e00090001e009000610098001e007800c9
:100a8000e00090001e009000710098001e007800a9
:100a9000801090001e009000011098001e00780049
:100aa000f00890001e009000710898003e00900031
:100ab00080004000209d20000080400090007800d1
:100ac0004e009000808f5000640035003e00900082
:100ad00080004000209d2000808040000000eb004e
:100ae0008008780010002000200798001e00900069
:100af000100090000000e000130032001e00900083
:100b000010009000400f98001e0090001000900010
:100b10000000e00003003d000080eb00300f980073
:100b20000200370011002000310f98004e0990009c
:100b3000be089000010051009e00900090009800b7
:100b40000000eb00200798001e009000200090009d
:100b50000000e000130032001e0090002000900012
:100b6000200f98001e009000200090000000e00080
:100b700003003d000081eb00120f980002003700d7
:100b800010002000100f9800ae0890001e09900081
:100b9000028050009e009000a00098000000eb0032
:100ba000200798001e009000300090000000e00038
:100bb000130032001e00900030009000000f9800db
:100bc0001e009000300090000000e00003003d0097
:100bd0000080eb0070079800020037001100200031
:100be000710798000e099000fe009000010051006e
:100bf0009e009000b00098000000eb0020079800d5
:100c00001e009000101090000000e0001300320061
:100c10001e00900010109000600798001e009000c9
:100c2000101090000000e00003003d000081eb0088
:100c3000520798000200370010002000500798006b
:100c4000ee0090005e019000028050009e00900037
:100c5000901098000000eb00200798002e009000f4
:100c60000080fa00000006000400fa001007980057
:100c70009e009000600220000088b900800078008b
:100c8000e09e2000008f40009e0078000000eb00f6
:100c9000900098009e0078000000eb00a0009800f3
:100ca0009e0078000000eb00b00098009e007800e5
:100cb0000000eb00901098009e0078000000eb0010
:100cc000f00098009e0078000000eb00c000980043
:100cd0009e0078000000eb00d00098009e00780095
:100ce0000000eb00e00098009e0078000000eb00a0
:100cf000801098001e009000e19d20004200dd0061
:100d0000008140006000b8000089be001e00900015
:100d1000619d20004200dd00008140006000b800bd
:100d20000089be001e0090004600dd0080007800b3
:100d3000e094200000804000020420008000eb00ce
:100d400018fe07001e00900080004000609e2000fa
:100d5000808040000000eb00800878001e009000ba
:100d600080004000a09e2000808040000000eb003a
:100d7000800878001e00900080004000209d200028
:100d8000808040000000eb00800878000080fa00be
:100d9000000006000200fa000000eb00000f7800df
:100da000090037001e00780080004000e09c200011
:100db000808040000000eb00800878001e00780072
:100dc000a9ff07001e0fe800100020009e0f100072
:100dd000f4ff34000080fa00000006000400fa006e
:100de000000f7800110798009e0090001e00780008
:100df000e40807000080fa00000006000800fa007e
:100e00000000eb00200798008d003700ae00900036
:100e1000600220000088b900f60040000081200038
:100e2000008040009000780011079800ae0090000c
:100e3000600220000088b900f0004000008120001e
:100e400000804000100f78002e00900080004000cd
:100e5000e09c2000008040001000780030079800df
:100e60003e009000e20f500036003200be009000bd
:100e7000e28f500007003c003e0090000000e000c0
:100e80000b003200be009000e18f500020003200c5
:100e9000650037003e009000e30f50005300320021
:100ea000be009000e48f50003f0032005e0037002b
:100eb0008000eb002e009000c8ff07001e0090008d
:100ec000e10f500006003a002e0090008000400024
:100ed000e09c200080804000100020008008780006
:100ee0001e009000e20f500006003a002e00900015
:100ef00080004000e09c2000808040002000200016
:100f0000800878002e00900057ff07004900370046
:100f10009e0078002e009000b0ff07001e00900099
:100f2000e10f5000430032002e009000800040008e
:100f3000e09c2000808040000000eb0080087800ea
:100f40003c0037001e009000e20f50000700320006
:100f50002e00900080004000e09c20008080400037
:100f60000000eb008008780032003700a10f20005d
:100f70002e00900092fd07000000e0000600320005
:100f80002e00900080004000e09c20008080400007
:100f900040002000800878009e0078002e0090001d
:100fa0002c000700230037001e009000e20f5000c5
:100fb000070032002e00900080004000e09c2000de
:100fc0008080400030002000800878001900370041
:100fd000a10f20002e00900079fd07009e007800f0
:100fe0002e0090001b00070012003700a10f200008
:100ff0002e00900079fe07000000e000060032009d
:101000002e00900080004000e09c20008080400086
:101010000000eb00800878008000eb002e009000bc
:101020006eff0700030037008000eb002e009000e9
:101030006aff07002e0090000000e80020079800db
:101040002e009000e10f500070ff34000080fa0085
:10105000000006002400fa00889fbe008a1f780066
:101060005007980061079800de00900060022000a1
:101070000088b90080007800e09e200000804000d9
:1010800040079800de009000600220000088b90050
:101090008000780000812000008040003007980028
:1010a0003e009000900890006e009000808f5000ed
:1010b00004003d003e0090001008900000179800ca
:1010c0000b0037003e00900020089000ee009000da
:1010d00011179800001798000e1190009e119000b3
:1010e000830f510002003d001e129000041798006b
:1010f0008e129000250798000000eb001007980062
:101100005e0090000000e0000c003a003e009000fd
:10111000100078000000d100610060000004e000d1
:1011200004003200200020009b0a070010079800ee
:101130000200370020528000100798005e009000e7
:10114000e10f50000c003a003e00900010007800c3
:101150000000d100610060000004e00004003200e3
:101160000000eb008c0a070010079800020037000f
:101170000052800010079800ae0090001e00900002
:1011800000805000d0518800de0190004e00900099
:10119000100090006104b900d15180004e00900011
:1011a000400090000088de006102b90088007800ed
:1011b00004007800000bb80005c0b90007017800f2
:1011c0000001410009a0b90000014100820378003c
:1011d000c218dd00e0922000008040000688be00ba
:1011e0005e0290005e009000619d20004200dd00e4
:1011f000008040001001be00d0518000cf80de0092
:101200000201400083814800619d20004220dd00f2
:10121000008040000288be005e009000700f9800c1
:101220005e009000619d20004200dd0000804000d3
:101230001001be004e00900070009000cf80de00d4
:10124000800f5100818f5900060034004e0090003d
:10125000700090006101b900520f9800630f980070
:10126000180037005e009000619d20004200dd0004
:10127000008040001001be004e0090007000900001
:101280000000ea006102b900340f9800450f980091
:10129000520f9800630f98005e089000ee089000cf
:1012a0003e099000ce099000820f5000838f5800b5
:1012b00004003d003e0a9000ce0a9000540f9800b2
:1012c000650f9800619d2000fe0a90004228dd0015
:1012d000008040005e099000ee0990000288be0088
:1012e0005e0590004e009000200090006104b9005f
:1012f0005e009000619d20004200dd000080400003
:101300001001be004e009000500090000202be008e
:10131000800078008100e900030033008582d1005d
:101320000482d300fbff37008800780004007800b7
:10133000000bb80005c0b9000701780000014100aa
:1013400009a0b9000001410082037800c250dd000d
:1013500060932000008040000688be005e00900080
:1013600080004000a09e200000804000100f780008
:101370005e0290005e009000e19d20004200dd00d2
:10138000008040001001be005e0090009e007800ca
:101390004500dd000100400080004000e094200096
:1013a0000080400010007800cf80de000001510076
:1013b00081815900e19d20004220dd000080400035
:1013c0000288be005e0190009e0178005e009000e1
:1013d00080004000609e2000008040009000780067
:1013e0001e009000010250004510dd000300400087
:1013f00080004000e0942000008040000408780055
:101400005e00900080004000609e20000080400050
:101410001e019000020878005e0290005e009000bd
:10142000e19d20004200dd00008040001001be0070
:101430005e0090009e0078004500dd000100400045
:1014400080004000e0942000008040001000780000
:10145000cf80de000201400083814800e19d200032
:101460004220dd00008040000288be00de019000c6
:10147000230f98001e00e800ff0f500003003c00ff
:101480001e02e800140f9800020037008002eb00f3
:10149000150f98002e0890002e0890008000400044
:1014a000a09e2000008040009e0890000108780067
:1014b0005e0590004e009000300090006104b9007d
:1014c0005e009000e19d20004200dd0000804000b1
:1014d0001002be008800780004007800000bb800fd
:1014e00005c0b900070178000001410009a0b9005a
:1014f00000014100820378004e00900060009000df
:101500000601be00000278000402e9000300330077
:101510008381d1000281d300fbff3700c250dd0080
:10152000e0932000008040000288be005e01900031
:101530005e009000c200dd00e093200000804000cb
:101540001000be0080017800820041002080200051
:1015500000804000030878005e009000c200dd00bb
:1015600060942000008140006000b8000089be0047
:101570003e009000100078004c00de00610060002a
:101580000004e00008003200de0090004e009000f1
:10159000101090006101b900c208dd0060942000c5
:1015a000008040000288be005e009000c200dd00a6
:1015b000e0922000008040001001be005e0090001c
:1015c000c200dd0060932000008040001000be00db
:1015d00002014000838148005e009000c200dd00ef
:1015e000e0932000008040001000be000201400097
:1015f000838148005e009000c200dd0060942000fe
:10160000008040001000be000200400083804800bf
:10161000e0518800f1518800e2518000f3518000d0
:10162000e0c7200001002000800f5100818f590089
:1016300010003c00e0518000f151800070079800dc
:10164000010f980020382f00f1ff2f007e0190003d
:101650008e099000800f5100818f590009003d00d4
:1016600024382f00f5ff2f0074079800050f98000d
:1016700004003700e0c72000010020007007980038
:10168000010f98007e0190008e099000e2518800c1
:10169000f3518800e0518000f15180008000780013
:1016a0005e009000cdfd07004f0578004f04be009e
:1016b0000080fa00000006000800fa00004f7800e1
:1016c000110798001e80fb00300798003e00900034
:1016d0000000e000040032003e009000e10f5000e6
:1016e00056003200a90037001e00900060409000b4
:1016f0008080fb00d00f2000008060000000e00030
:101700000a003a001e009000100090000000e00067
:1017100006003a00705a80000000e00003003a0022
:101720000000eb0020079800a80037001e00900082
:10173000604090008080fb00d00f2000008060009f
:10174000e10f50003a003a001e0090009000900017
:10175000705a8000808f500035003a001e009000c3
:10176000404090000080fb006d006000e40f5000de
:101770002c003a0053cbbf00e24f50000a003a0061
:101780001e00900090007800f0ff2000808f500035
:10179000050036001e009000900078000000220036
:1017a000808f50000800360053cbbf00e24f50003e
:1017b000190032001e00900090007800e05a80006e
:1017c000808f500014003a001e00900040409000ae
:1017d0000080fb004600de00610060000004e000c5
:1017e0000300320010c0b3005aebb700020037000c
:1017f0000040eb005aebb700605a80000000e000a8
:1018000002003a0010c0b30050ebb7000000eb003c
:10181000200798006d003700200020002007980066
:101820006a0037004000200020079800670037005a
:101830003000200020079800640037001e00900050
:10184000604090008080fb00d00f2000008060008e
:101850000000e0000a003a001e0090001000900016
:101860000000e00006003a00605a80000000e0003e
:1018700003003a000000eb002007980053003700f7
:101880001e009000604090008080fb00d00f200080
:1018900000806000e10f500039003a001e00900007
:1018a00090009000605a8000808f500034003a0011
:1018b0001e009000404090000080fb006d00600022
:1018c0000000e0002b003a0053cbbf00e24f500075
:1018d0000a003a001e00900090007800f0ff2000ff
:1018e000808f5000050036001e00900090007800a8
:1018f00000002200808f50000800360053cbbf004c
:10190000e24f5000180032001e0090009000780056
:10191000f05a8000808f500013003a00605a800017
:101920000000e0000d0032001e00900040409000da
:101930008080fb00d0022000808060000002200038
:10194000808f500003003a0010c0b30050ebb70086
:10195000020037000040eb0050ebb7000000eb0046
:101960002007980019003700200020002007980069
:1019700016003700400020002007980013003700b1
:101980003000200020079800100037001e00900053
:10199000604090008080fb00d00f2000008060003d
:1019a0000000e00004003a001e00900010009000cb
:1019b0000000e00003003200300020002007980003
:1019c000020037000000eb00200798002e00900076
:1019d0000080fa00000006000600fa004047980068
:1019e0000040eb00104798000040eb0030479800a3
:1019f0001f0037003e409000004f78003e409000ae
:101a00000004e00003003a0010c0b300004f78006b
:101a1000050037003e409000e14f500002003a00c0
:101a20000040eb00004f78001e4078004e08070091
:101a3000800078001e4078001fff070020479800b4
:101a40002e4090000004e000060032001e4090008e
:101a50000004e00003003a001e4078007d40400092
:101a6000104798003e4090000040e8003047980042
:101a7000be4090004e40900080cf5000ddff390006
:101a80001e4090000080fb000080fa00000006006d
:101a90000800fa000000eb00000f78000040eb00a7
:101aa00031080700100798001e0090001000780011
:101ab000e05a880010c0b3002b08070010079800f8
:101ac0001e00900010007800f05a8800705a8000c4
:101ad0006300b90080007800e05a800080804000f8
:101ae000f05a8000808f500009003600f15a8000c3
:101af000605a800080804000e05a8000808f500053
:101b000003003600d001200030079800190037008c
:101b1000605a80000000e0000d00320010c0b300e9
:101b200003080700d00b0700404798004e40900084
:101b30000004e000040032004e4090000080fb00f2
:101b4000300798000b00370010c0b30049ebb70016
:101b5000705a80000000e000020032000040eb00fc
:101b6000f30707001e007800b90707000000eb002c
:101b7000300798003e0090000080fa000000060048
:101b80000c00fa000040eb00404798006600470058
:101b900022002000014020004b0707003e0090007b
:101ba0000000e000230032005acbbf000004e00038
:101bb000200032006800470022002000014220007f
:101bc000410707004e0090000000e0001d003200b9
:101bd0004e00900001002000008fbe003e009000eb
:101be0006103b8009e00780006007800000ab80083
:101bf0001e0078000780b90005017800000141004f
:101c00001e00900000b0b90000014100820278007f
:101c1000048fbe001e00be00821a260003002000b2
:101c200050fa0700008fbe001e007800b05a8800ee
:101c3000040037000000eb00400798000000eb00b4
:101c4000b05a88004e0090000000e00006003a0004
:101c50005acbbf000004e00009003200f001200070
:101c600050079800210037005acbbf000004e00065
:101c700003003a00f0012000500798001b003700d5
:101c8000705a80000000e000090032007e0b07005f
:101c9000404798004e4090000004e00004003200ed
:101ca0004e4090000080fb00500798000f00370066
:101cb00010c0b30048ebb70060cbbf000004e000e9
:101cc00008003a0050cbbf000004e00005003200dd
:101cd000705a80000000e000020032000010200076
:101ce0005b0707000000eb00500798005e009000c3
:101cf0000080fa00000006000200fa000040eb003d
:101d0000004f7800f0ef2f003a0707000040eb008b
:101d10004aebb7000040eb0048ebb700705a800078
:101d20000000e000020032005b0b0700004f78006b
:101d30001e80fb000080fa00000006000200fa008e
:101d40000040eb00004f78000040eb006a070700fe
:101d500030cf2f00270707000040eb0050ebb70003
:101d60000040eb0060ebb7000040eb0049ebb70030
:101d700010c0b300600707003f0b0700004f78005a
:101d80001e80fb000080fa00000006000c00fa0034
:101d9000204798000040eb00104798002e4090002c
:101da0000080fb004400de00610060000004e000f1
:101db0000500320053cbbf00f1ceb30001406000fc
:101dc00053ebb7000e00370053cbbf000080fb0081
:101dd0004400de00610060000004e0000800320002
:101de0002e4090000080fb00ef00600053cbbf004e
:101df0000080fb006f006000808f500047013c00b6
:101e00002e4090006f4060002047980053cbbf00e9
:101e1000004f78001e4078004400dd00004f78003d
:101e20002e4090001e4f40001e4078005bebb70034
:101e30001e80fb003007980040042000be00900088
:101e4000808f50002d003200400420003e019000a1
:101e5000800f51000e003c0020022000be019000c7
:101e6000808f51002800320020022000be00900028
:101e7000808f500001003c0023003700400220000a
:101e80003e019000800f5100170032001e00370005
:101e900020082000be019000808f51001a003200ff
:101ea00020082000be009000808f500005003c00fc
:101eb000800420003e019000800f51000f0032008e
:101ec0001100370040082000be019000808f5100b3
:101ed0000a00320080082000be009000808f500071
:101ee0000600320008003700db0a070010479800a0
:101ef0001e4090000004e00003003a0051cbbf00f8
:101f0000b5fe0700104798001e4090000004e00056
:101f1000af003a001e80fb006101b900f0fe2f0007
:101f2000f1ff2f0002014000838148004207980022
:101f30005307980070072000010020004e01900018
:101f4000de019000800f5100818f59009d003e00fe
:101f50004e009000de00900000600100930037000a
:101f6000bb0037007500370093003700950037003d
:101f700094003700930037008f003700910037003e
:101f8000900037008f0037008e0037008d0037003b
:101f90008c0037008b0037008a003700ac00370018
:101fa0008200370084003700670037008500370063
:101fb00084003700830037007f003700810037003e
:101fc000800037007f0037007e0037007d0037003b
:101fd0007c0037007b0037007a003700790037003b
:101fe000780037007700370076003700750037003b
:101ff000740037007300370072003700710037003b
:10200000700037006f0037006e0037006d0037003a
:102010006c0037006b0037006a0037006000370043
:102020005700370064003700600037006500370054
:102030006400370063003700460037006100370056
:10204000600037005f0037005e0037005d0037003a
:102050005c0037005b0037005a003700590037003a
:10206000580037005700370056003700550037003a
:10207000540037005300370052003700510037003a
:10208000500037004f0037004e0037004d0037003a
:102090004c0037004b0037004a003700490037003a
:1020a000480037004700370046003700450037003a
:1020b000440037004300370042003700410037003a
:1020c000400037003f0037003e0037003d0037003a
:1020d0003c0037003b0037003a003700390037003a
:1020e000380037003700370036003700350037003a
:1020f000340037003300370032003700310037003a
:10210000300037002f0037002e0037002d00370039
:102110002c0037002b0037002a0037001b00370047
:1021200012003700240037000d003700250037006b
:1021300024003700230037001c00370030c1b300f3
:10214000104798004200370051fe070010479800e2
:102150003f0037008afe0700104798003c00370018
:10216000e5fe07001047980039003700e2fe07003f
:10217000104798001e4090000004e00034003a0030
:10218000eefe07001047980031003700dafe070026
:10219000104798001e4090000004e0002c003a0018
:1021a000e6fe07001047980029003700e0cfb30093
:1021b000104798002600370010c1b3001047980060
:1021c0002300370020c1b3001047980020003700db
:1021d00053cbbf000080fb0020079800ae009000aa
:1021e000e48f5000080032002e019000e80f5100eb
:1021f00004003200ae019000e28f51000c0032006a
:1022000013003700bcfe07001e409000fd4f500039
:1022100004003200c9fe070020c0b30053ebb70032
:102220000300370040c0b30053ebb700080037008d
:102230001e409000f64f500003003a0010c0b3005b
:1022400053ebb7000200370020c0b30053ebb700d8
:102250001e409000e14f4000300032002e409000c0
:102260008080fb0053cbbf000080fb006f0060004c
:10227000808f5000260032001e4090000004e000d5
:102280000600320053cbbf0054ebb70053cbbf0066
:102290000044a00053ebb7001700370055cbbf0038
:1022a0000004e0000800320055cbbf001047980042
:1022b0002e40900054ebb7002e4090000044a00048
:1022c000204798000a00370041b52000914078006f
:1022d0002e409000814f500003003e0000c0eb00f4
:1022e00010479800020037000040eb0054ebb700a5
:1022f0002e40900053ebb70053cbbf009e409000a0
:10230000e70507000040eb0055ebb700030037007e
:1023100053cbbf008040eb00e10507000080fa00ce
:10232000000006000000fa000040eb005aebb70086
:102330000040eb0054ebb7000040eb0055ebb7005a
:102340000040eb004aebb7000040eb0048ebb70061
:102350000040eb0049ebb7000040eb0060ebb7003a
:102360000040eb0050ebb70010c0b30053ebb700d8
:1023700053cbbf008040eb00c90507000080fa0086
:10238000000006000000fa00380507000080fa008f
:10239000000006000200fa00000f78001e0078001e
:1023a00080004000c0b22000008040001000780093
:1023b0000080fa00000006000200fa00000f78001a
:1023c0001e0078008000400000b320000080400024
:1023d000100078000080fa00000006000c00fa00ef
:1023e000100798001e0090008000400040b32000bd
:1023f00000804000100078000000e0001d00320066
:102400009e009000600220000088b900fc0040009f
:1024100000812000008040009000780050002500de
:10242000808f50000e003c009e0090006002200053
:102430000088b900fc0040000081200000804000be
:1024400010007800500798005e0090000000e00047
:1024500005003d008000eb005107980002003700a6
:1024600052002500520798005e009000000f78008f
:102470001c0037009e009000600220000088b90018
:10248000fc004000008120000080400090007800a7
:1024900050002500808f50000e003c009e009000f0
:1024a000600220000088b900fc004000008120008c
:1024b000008040001000780040079800ce00900097
:1024c0000100e00005003d000001eb00420798001c
:1024d000020037005000250040079800ce00900011
:1024e000010f78001e019000320798009e009000b6
:1024f000600220000088b900800078000081200080
:1025000000804000100078004400de0061006000a0
:102510000004a2000004e0000a003a001e0090003f
:1025200080004000c0b22000008040001000780011
:102530009e0f500003003d0010002000200798006f
:10254000020037008000eb00210798003e01900058
:102550003e0190008200410040b320000080400016
:10256000ae009000010878001e009000800040003e
:1025700040b3200000804000100078000080fa0086
:10258000000006000c00fa00100798001e009000e2
:102590008000400080b320000080400010007800e0
:1025a0000000e0001d0032009e009000600220004c
:1025b0000088b900fa00400000812000008040003f
:1025c0009000780050002500808f50000e003c00e5
:1025d0009e009000600220000088b900fa004000d0
:1025e0000081200000804000100078005007980013
:1025f0005e0090000000e00005003d008000eb0060
:102600005107980002003700520025005207980039
:102610005e009000000f78001c0037009e009000c4
:10262000600220000088b900fa004000008120000c
:10263000008040009000780050002500808f5000fe
:102640000e003c009e009000600220000088b9004f
:10265000fa00400000812000008040001000780057
:1026600040079800ce0090000100e00005003d000a
:102670000001eb00420798000200370050002500df
:1026800040079800ce009000010f78001e019000d6
:10269000320798009e009000600220000088b90078
:1026a0008000780000812000008040001000780049
:1026b0004400de00610060000004a2000004e000ad
:1026c0000a003a001e00900080004000c0b22000c6
:1026d00000804000100078009e0f5000030034007e
:1026e0001000200020079800020037008000eb0057
:1026f000210798003e0190003e01900082004100b9
:1027000080b3200000804000ae00900001087800f7
:102710001e0090008000400080b320000080400038
:10272000100078000080fa00000006000600fa00a1
:10273000200798002e00900080004000c0b22000ca
:102740000080400090007800100021000088b9004f
:102750000000e800cf80de00008fbe002e00900059
:102760008000400000b3200000804000100078008e
:102770006101b9001e00be006bf70700008fbe00ac
:102780002e0090008000400000b320000080400038
:10279000100078006101b9001e00be0062f707005a
:1027a0000081eb008081eb00021f4000039748008e
:1027b0001e0078000080fa00000006000200fa0007
:1027c000000f78001e00780080004000c0b3200099
:1027d00000804000100078000080fa000000060031
:1027e000809fbe000200fa00205980000000e00037
:1027f0004500320004003700c0588000e0588800cf
:10280000000a8000c058880042c1bf0068406000d4
:102810000004e000f8ff3a000000eb0020598800b7
:10282000211420009140780080cfb30000c06000e8
:1028300042e1b700211420009140780080cfb3001e
:1028400000c060000004a00042e1b7000000eb00ff
:102850004059880030003700405980000000e000f7
:1028600025003200c0588000e0588800000a80002f
:10287000c05888000000eb0040598800c158800013
:10288000e0588000808f500005003400c058800060
:10289000e158800001005000a05888000600370071
:1028a00061088000e058800080805000c05880009f
:1028b00000804000a0588800e15880000059800046
:1028c000808f500005003d0000598000e1588000d5
:1028d00001005000805888000b003700610880001c
:1028e000e058800080805000005980000080400047
:1028f0008058880004003700000a800000598800d2
:10290000100020004059880042c1bf0068406000ac
:102910000004e000d0ff3a00205a80000000e000f0
:1029200004003400205a80000000e900205a88008a
:102930001a003700815880006059800000805000e4
:10294000005a8800005a8000000f78001e007800ae
:102950000000e00003003d009e0078008100ea00d6
:10296000010f7800d0c124009e007800808f5000b5
:102970000a003400005a80000000e00004003d001e
:10298000e05980000000e800e059880003003700ab
:10299000e05980000000e900e0598800805880007c
:1029a00060598800a0588000805988008420a900c0
:1029b0000080fa004f00be0000400600809fbe006d
:1029c0000200fa00305980000000e00045003200ab
:1029d00004003700d0588000f0588800200a80009a
:1029e000d058880046c1bf00684060000004e00085
:1029f000f8ff3a000000eb00305988006114200015
:102a00009140780080cfb30000c0600046e1b7007d
:102a1000611420009140780080cfb30000c06000b6
:102a20000004a00046e1b7000000eb005059880008
:102a300030003700505980000000e00025003200cf
:102a4000d0588000f0588800200a8000d0588800b4
:102a50000000eb0050598800d1588000f0588000e9
:102a6000808f500005003400d0588000f15880005d
:102a700001005000b058880006003700610880004f
:102a8000f058800080805000d058800000804000c6
:102a9000b0588800f158800010598000808f500095
:102aa00005003d0010598000f158800001005000e1
:102ab000905888000b00370061088000f0588000b3
:102ac000808050001059800000804000905888009d
:102ad00004003700200a80001059880010002000f0
:102ae0005059880046c1bf00684060000004e00003
:102af000d0ff3a00305a80000000e00004003400ab
:102b0000305a80000000e900305a88001a0037006f
:102b1000915880007059800000805000105a880041
:102b2000105a8000000f78001e0078000000e000be
:102b300003003d009e0078008100ea00010f78004c
:102b4000d0c124009e007800808f50000a0034001d
:102b5000105a80000000e00004003d00f0598000a1
:102b60000000e800f059880003003700f0598000a9
:102b70000000e900f05988009058800070598800e2
:102b8000b05880009059880084a0a9000080fa0005
:102b90004f00be00004006000200fa000000eb00fb
:102ba000000f7800550037001e00780080004000bc
:102bb00040b2200080804000100020008008780093
:102bc0001e0078008000400080b22000808040001d
:102bd0000000eb00800878001e00780080004000b4
:102be00080b12000808040000000eb008008780069
:102bf0001e00780080004000c0b1200080804000ae
:102c00000000eb00800878001e0078008000400083
:102c100000b22000808040000000eb0080087800b7
:102c20001e0078008000400000b12000808040003d
:102c30000000eb00800878001e0078008000400053
:102c400040b12000808040000000eb008008780048
:102c50001e00780080004000c0b22000808040004c
:102c60000000eb00800878001e0078008000400023
:102c700000b32000808040000000eb008008780056
:102c80001e0078008000400040b32000808040009b
:102c90000000eb00800878001e00780080004000f3
:102ca00080b32000808040000000eb0080087800a6
:102cb0001e0078008000400000b4200080804000aa
:102cc0000000eb00800878001e00780080004000c3
:102cd000c0b32000808040000000eb008008780036
:102ce0001e0078008000400040b42000808040003a
:102cf000a0002000800878001e0fe80010002000cf
:102d00009e0f1000a8ff34000000eb008008880030
:102d10000000eb003008880001112000914078008d
:102d2000f0ccb30000c060000044a00010e1b70088
:102d3000801a26006008880011e1a80021142000f4
:102d40009140780080cfb30000c0600042e1b7003e
:102d500042e1a8002114200091407800f0c9b3009e
:102d600000c0600042e1b7002114200091407800cb
:102d700080cfb30000c060003040b30042e1b70034
:102d80008420a9009420a8006114200091407800bc
:102d900080cfb30000c0600046e1b70046e1a80064
:102da0006114200091407800f0c9b30000c06000b9
:102db00046e1b700611420009140780080cfb30055
:102dc00000c060003040b30046e1b70084a0a90015
:102dd00094a0a8000080fa00000006000200fa009b
:102de000000f78001e0078008000400040b72000ef
:102df00000804000100078000080fa00000006000b
:102e00000600fa0010079800210798009e00900025
:102e1000600220000088b900800078000081200056
:102e2000008040009000780000022000008f6000c9
:102e30001e00900069fd07000000e0000c00320059
:102e40002e0090000000e00002003d001e00e000a7
:102e500005003a002e0090000000e000040034005d
:102e60001e00e00002003a000000eb00200798007e
:102e70001e009000c3fd07000000e0000c003200bf
:102e80002e0090000000e000020034001e00e00070
:102e900005003a002e0090000000e00004003d0014
:102ea0001e00e00002003a000000eb00200798003e
:102eb0002e0090000080fa00000006000800fa00d2
:102ec000000f7800110798001e0090000000e0003d
:102ed00003003a000000eb00300798002d00370097
:102ee0009e007800600220000088b90041022000a6
:102ef00080804000008120000080400010007800a9
:102f00000000e00016003d009e00780060022000f6
:102f10000088b9004102200080804000008120002c
:102f2000008040001000780020079800ae0090005c
:102f30000100e00003003d002e0090000000ea00c8
:102f4000200798001e009000ae009000808f500077
:102f50000e0034000000eb00100798000b00370053
:102f60009e007800600220000088b9004102200025
:102f700080804000008120000080400090007800a8
:102f80001e00900001004000100798001e009000f5
:102f9000300798003e0090000080fa000000060014
:102fa0000c00fa0010079800210798009e0090007e
:102fb000600220000088b900f80040000081200075
:102fc00000804000100078000000e000090032009e
:102fd0009e009000600220000088b900f8004000c8
:102fe0000081200000804000100078000000e00018
:102ff0000f0034009e009000600220000088b9009d
:10300000f80040000081200000804000100078009f
:1030100050079800e0c72000de009000808f50002d
:1030200005003400e0c72000500798000200370078
:103030008000eb00510798005e009000000f7800c0
:10304000e1c720002e00900080805000e0c72000e3
:10305000808f50000e003c00e1c720002e00900041
:1030600080805000e0c720001e005000300798000c
:1030700041079800ce0090003e009000808f5000e5
:1030800005003d00be009000410798000200370097
:10309000e0c72000400798004e0090000080fa0032
:1030a000000006000a00fa001007980021079800a7
:1030b0009e009000600220000088b900f8004000e7
:1030c0000081200000804000100078000000e00037
:1030d000090032009e009000600220000088b900c4
:1030e000f8004000008120000080400010007800bf
:1030f0000000e0000f0034009e00900060022000fd
:103100000088b900f80040000081200000804000e5
:103110001000780040079800e0c72000ce00900023
:10312000808f500005003400e0c720004007980061
:10313000020037008000eb00410798004e0090002d
:10314000000f78002e0090009e0f500008003c00f9
:10315000ae009000310798003e0090000000e000b3
:1031600005003d008000eb003107980002003700a9
:103170001e007800300798003e0090000080fa00a2
:10318000000006001800fa00881f78001007980059
:10319000210798001e009000300f98002e0090002c
:1031a0000000e00003003d008080eb00210f98004c
:1031b0000200370012002000220f9800ae0190009c
:1031c000130f98001e0890000000e00003003d006f
:1031d0009e0890008100ea00110f98009e00900068
:1031e000600220000088b900f80040000081200043
:1031f0000080400010007800000f98001e09900029
:1032000072079800fe0190000e089000808f510018
:10321000020034008e089000710798002e0990007b
:10322000fe0190000390b900000178003e08900074
:103230003e0890008000400040b720000080400021
:10324000020878002e0090000000e00003003d001e
:103250008080eb0061079800020037001200200018
:1032600062079800ee019000030f7800ae00900016
:103270001e009000e2fe0700200798002e0090003c
:1032800050079800de0090000100e00003003d00c0
:103290005e0190000201ea0052079800de009000f3
:1032a0001e00900005ff0700200798001e009000f8
:1032b0000000e00014003a001e049000ae009000f0
:1032c0001e00900077ff070000017800880044008e
:1032d00080b7200000804000020878001e00e00057
:1032e00002003c00cda2a80001003700cda2a90039
:1032f0001e0090008000400080b720000080400049
:1033000010007800c00e88001e009000e10f5000f1
:1033100020003a001e00e0000a003d001e0490005c
:10332000ae0090001e0090001dff07000001780015
:103330008800440080b72000008040000208780028
:10334000090037001e049000ae0090001e0090009f
:1033500054ff0700000178008800440080b7200077
:1033600000804000020878001e00e00002003c00df
:10337000cde2a80001003700cde2a9001e009000b8
:103380008000400080b720000080400010007800de
:10339000b00e88009e019000430798009e009000a8
:1033a000600220000088b900f80040000081200081
:1033b00000804000900078002e009000808f500028
:1033c00009003d009e009000600220000088b900c6
:1033d000f8004000008120000080400010007800cc
:1033e00030079800070037002e0090003007980043
:1033f000be0090000100e00002003d000001eb0073
:10340000320798001e007800be0190000098b900b5
:10341000000178004e0090004e00900080004000b7
:1034200040b7200000804000020878004f04780078
:103430000080fa00000006000200fa000000eb0025
:10344000000f78000d0037001e007800800040005b
:1034500040b72000808040000000eb00800878002a
:103460001e0078008000400080b72000808040006f
:103470000000eb00800878001e0fe800100020001c
:103480009e0f1000f0ff3400c1e1a9000000eb0026
:10349000000e8800c0c1bf006f406000c0e1b700ef
:1034a000011c20009140780030cfb30000c06000c4
:1034b000c0e1b700f0632000200e8800011c20004e
:1034c00091407800c0cfb30000c06000c0e1b700f9
:1034d0000000eb00100e88000000eb00400e88009a
:1034e000c921a800c8a1a800c901a800c881a800d6
:1034f0000000eb00b00e88000000eb00c00e88005a
:103500000000eb00500e8800b11c200091407800b4
:1035100000cfb30000c06000cbe1b700310e8000e7
:103520000000280000806000a10f20000100700052
:10353000300e88000000eb00800e88008b20a90070
:10354000c1e1a8000080fa00000006000000fa00b7
:103550009400a900d4c2a9008540a900000420005d
:103560004012880085c0bf00644060000004e00095
:10357000fcff32004012800066ebb7008540a900d6
:10358000200720004012880085c0bf006440600012
:103590000004e000fcff32004012800067ebb7003f
:1035a0008540a900f00f20004012880085c0bf00b0
:1035b000644060000004e000fcff32004012800024
:1035c00072ebb7008540a900d4c2a8009400a800ff
:1035d0000080fa00000006000000fa00d4c2a90032
:1035e0008540a9000000eb004012880085c0bf00a4
:1035f000644060000004e000fcff320040128000e4
:1036000066ebb7008540a90020002000401288002a
:1036100085c0bf00644060000004e000fcff320091
:103620004012800067ebb7008540a900d4c2a80013
:103630000080fa00000006000600fa00100798005b
:10364000414798001e009000c300dd004e409000ee
:103650000080fb0000807000000f7800d4c2a90039
:103660008540a9001e4090000080fb0040128800a9
:1036700085c0bf00644060000004e000fcff320031
:103680004012800066ebb7008540a9001e4078001c
:103690000080fb004012880085c0bf0064406000cd
:1036a0000004e000fcff32004012800067ebb7002e
:1036b0008540a9000080fa00000006000800fa001a
:1036c00020079800614798002e009000c300dd009d
:1036d0006e4090000080fb00008070001007980092
:1036e000d4c2a9008540a9003e4090000080fb00a4
:1036f0004012880085c0bf00644060000004e00004
:10370000fcff320040128000004f78008540a90085
:103710002e4090000080fb004012880085c0bf0052
:10372000644060000004e000fcff320040128000b2
:10373000004f78008540a9000080fa0000000600d4
:103740000a00fa0020079800310798004207980005
:103750004e009000100798000040eb00004f7800ea
:1037600021c0b3003e009000d4ff070013003700d3
:103770001e0090000000e00002003a0000c0eb00d4
:10378000004f78008540a9001e80fb004012880091
:1037900085c0bf00644060000004e000fcff320010
:1037a00040128000804078002e0090000148780090
:1037b0002e0090000000e800200798001e009000f6
:1037c0000000e900100798001e009000e10f400083
:1037d000e7ff3a008540a900d4c2a8000080fa00a3
:1037e000000006000a00fa00200798003107980040
:1037f000420798004e0090001007980041c0b300a7
:103800003e009000adff07000e0037008540a90084
:103810002e009000104078000080fb0040128800cd
:1038200085c0bf00644060000004e000fcff32007f
:1038300040128000004f78002e0090000000e80049
:10384000200798001e0090000000e9001007980073
:103850001e009000e10f4000ecff3a008540a900f7
:10386000d4c2a8000080fa00000006000000fa00a0
:1038700036ff0700b05a80000000e0000000320070
:1038800066cbbf000080fb00610060000004e00028
:103890000b003200220020000112200040b6200060
:1038a0000900070061b6200091407800e0ceb30027
:1038b00000c0600066ebb70064cbbf0033f90700bf
:1038c0000080fa00000006000800fa0010079800c7
:1038d00021079800320798003e009000000f780002
:1038e000170037009400a90021c0b3002e009000fb
:1038f00051ff0700f00f20004012880085c0bf0074
:10390000644060000004e000fcff320040128000d0
:10391000804078001e009000014878001e00900052
:103920000000e800100798009400a800d4c2a80086
:103930002e0090000000e800200798008540a900b4
:103940001e0fe9000080eb009e0f1000e5ff3a001b
:103950000080fa00000006000a00fa002007980024
:1039600031079800420798004e0090001007980019
:10397000180037009400a90041c0b3003e00900039
:103980002dff07008540a9002e0090001040780010
:103990000080fb00401288002e0090000000e8002c
:1039a0002007980085c0bf00644060000004e0006c
:1039b000fcff320040128000004f78009400a80005
:1039c0003e0090000000e800300798008540a90004
:1039d000d4c2a8001e0090000000e9001007980063
:1039e0001e009000e10f4000e2ff3a000080fa0064
:1039f000000006000400fa00100798000e0078008e
:103a00002200200041202000afff07009e00780028
:103a10001e00900000806000000f78009400a90054
:103a20001e0078000000e00002003a000040eb00b9
:103a300062ebb7000e007800220020004120200039
:103a4000c5ff07009400a8000080fa0000000600ef
:103a50000400fa00100798000e00780022002000f1
:103a60004120200098ff07009e0078001e00900073
:103a700000807000000f78009400a90010c0b3000f
:103a800062ebb7000e0078002200200041202000e9
:103a9000b1ff07009400a8000080fa0000000600b3
:103aa0000400fa0020479800314798002e4090000b
:103ab0000080fb00000f78000e007800220020003c
:103ac00001132000a4ff07003e409000e14f40009a
:103ad000070032003e4090000080fb00000f78009d
:103ae0000e00780022002000411320009aff0700fa
:103af0000080fa00000006000400fa002047980049
:103b000010c0b300004f78002e4090000080fb00f2
:103b1000c300dd0070802000808040001200200083
:103b20000e0078008cff07000080fa0000000600fd
:103b30000400fa00204798000040eb00004f780096
:103b40002e4090000080fb00c300dd00708020004c
:103b500080804000120020000e0078007eff0700e9
:103b60000080fa00000006000200fa00004f780012
:103b70001e80fb00c300dd0000802000808040002c
:103b8000a0b62000820020004fff0700a0b6200052
:103b90000080fa00000006000800fa0030079800d4
:103ba0006000b80010079800210798000000eb00a3
:103bb000000f7800100037003e0090009e00780053
:103bc0004300dd00010040008000400000a520000f
:103bd00000804000100078006101b8001e009000d5
:103be000ae0090000000410081804900100798005d
:103bf000210798001e0fe800700020009e0f1000a3
:103c0000edff34001e009000ae0090004d09dd0075
:103c10004300de0000007100c388de000080fa006f
:103c2000000006000000fa000000eb00605288006f
:103c30000000eb007052880023c3bf007f4060008b
:103c400023e3b700513220009140780000ceb3004a
:103c500000c06000a040b30025e3b700113220008f
:103c600091407800c0cfb30000c0600021e3b700ee
:103c7000013220009140780000ceb30000c07000f7
:103c800020e3b7002043a8002143a8002343a80055
:103c90003132200091407800c0cfb30000c06000f6
:103ca00023e3b70025e3a90080c2b30024e3b700f3
:103cb0002183a900213220009140780030ccb3004c
:103cc00000c060004041b30022e3b7002133200070
:103cd0009140780080cfb30000c060003040b30056
:103ce00032e3b7003003a8003023a8003043a80017
:103cf0000080eb00601988002c03a9002c23a90088
:103d000085a0a90095a0a90021e3a8000080fa00e1
:103d1000000006000000fa00013820009140780001
:103d2000f0ccb30000c0600001c2b30001407000dd
:103d300080e3b7000138200091407800c0cfb30085
:103d400000c060000014a00080e3b7000030200035
:103d5000401c8800f0022000501c8800d000200089
:103d6000101c880000702000201c880000602000cb
:103d7000301c88008480a9009480a80081e3a800fa
:103d80000080fa0000000600809fbe00829fbe00f7
:103d90000200fa000000eb0060528800005c800026
:103da0000000e00068003a000000eb00000f78001f
:103db00061003700605280004300dd001e014000ba
:103dc0001e0078008000400000702200008040004b
:103dd00010007800800178008200410000a52000da
:103de0000080400003087800605280004300dd003e
:103df0009e0140001e00780000004000f0004000de
:103e0000007022000080400010007800000178005f
:103e100003804100f000400000a520000080400029
:103e200002087800605280004300dd009e014000df
:103e30001e00780000004000010220008080400049
:103e4000007022000080400010007800000178001f
:103e500003804100010220008080400000a5200076
:103e60000080400002087800605280004300dd00be
:103e70009e0140001e007800000040000103200069
:103e80008080400000702200008040001000780018
:103e90000001780003804100010320008080400081
:103ea00000a52000008040000208780060528000d9
:103eb0004300dd009e0140001e007800000040002d
:103ec000010420008080400000702200008040003b
:103ed00010007800000178000380410001042000f8
:103ee0008080400000a5200000804000020878008b
:103ef000605280004300dd009e0140001e007800fb
:103f00000000400001052000808040000070220079
:103f1000008040001000780000017800038041001c
:103f2000010520008080400000a5200000804000a6
:103f3000020878001e0fe800700020009e0f10009d
:103f40009cff3400670037000000eb00000f780092
:103f500061003700605280004300dd001e01400018
:103f60001e007800800040000060220000804000b9
:103f700010007800800178008200410000a5200038
:103f80000080400003087800605280004300dd009c
:103f90009e0140001e00780000004000f00040003c
:103fa00000602200008040001000780000017800ce
:103fb00003804100f000400000a520000080400088
:103fc00002087800605280004300dd009e0140003e
:103fd0001e007800000040000102200080804000a8
:103fe000006022000080400010007800000178008e
:103ff00003804100010220008080400000a52000d5
:104000000080400002087800605280004300dd001c
:104010009e0140001e0078000000400001032000c7
:104020008080400000602200008040001000780086
:1040300000017800038041000103200080804000df
:1040400000a5200000804000020878006052800037
:104050004300dd009e0140001e007800000040008b
:1040600001042000808040000060220000804000a9
:104070001000780000017800038041000104200056
:104080008080400000a520000080400002087800e9
:10409000605280004300dd009e0140001e00780059
:1040a00000004000010520008080400000602200e8
:1040b000008040001000780000017800038041007b
:1040c000010520008080400000a520000080400005
:1040d000020878001e0fe800700020009e0f1000fc
:1040e0009cff3400005c80000000a200005c88009f
:1040f0008480a9000080fa004f01be004f00be007e
:10410000004006000000fa0085a0a9000080fa0027
:10411000004006000000fa00c3c2bf00614060001a
:104120000080fb000080fa00000006000000fa009a
:104130000080fa00000006000000fa000080fa008b
:10414000000006000000fa008ef807000000eb00f7
:104150000080fa00000006000000fa000080fa006b
:10416000000006000000fa0067cbbf000080fb00e3
:10417000610060000004e0000b00320010c0b300da
:104180004aebb700725a8000e15a80008089200013
:104190006bfd070000812000818920004b00090091
:1041a00031587800c004b1000080fa000000060019
:1041b0000800fa00140007000e00780082002000ba
:1041c000019c20005efd07003e00be002e01be00e7
:1041d000c4852000009abe000292be00c085200067
:1041e000218f20003b000900b0587800c003b100c7
:1041f000625a8000f15a8000208f200079fd07006c
:104200000080fa00000006000000fa000000eb0049
:1042100069f80700c04388001000200066f8070016
:10422000904488000000eb005af80700b043880073
:104230001000200057f80700804488000000eb00c1
:104240005ef90700d0438800100020005bf90700ea
:10425000a0448800200020004ffe07003043880063
:104260000000eb004cfe07000044880050002000d6
:1042700049fe0700704388004000200046fe07000a
:1042800040448800704380004043880040448000e0
:1042900010448800300020003ffe07008043880063
:1042a000100020003cfe0700504488000000eb0096
:1042b000cafa0700a043880010002000c7fa0700d0
:1042c0007044880010408000204388002040800017
:1042d000f0438800304080000020a000e0438800c8
:1042e000404080000020a000b04488000080fa0018
:1042f000000006003600f800809fbe00829fbe00ce
:10430000849fbe00869fbe000000fa00d4c2a800b1
:104310008400a900b0fc070050cbbf000004e000ff
:104320000a00320048cbbf000004e0000200320067
:104330008cff07000100370087ff070049cbbf0053
:104340000004e0000100320099ff07001000200087
:10435000004088000080fa004f03be004f02be00fc
:104360004f01be004f00be003600f90000400600bd
:104370000400fa000040eb0020479800c003200032
:10438000605a8800a0052000705a8800c08520006f
:10439000c20320008000eb0082f0070000812000b3
:1043a000c20420008000eb007ef00700808920001e
:1043b000a20520008000eb007af00700208f20008b
:1043c000c20320008000eb0076f007000000eb0045
:1043d000000f78000d0037001e00780080004000bc
:1043e00020802000808040000000eb0080087800e2
:1043f0001e00780080004000608020008080400027
:104400000000eb00800878001e0fe800100020007c
:104410009e0f1000f0ff34000000eb0050408800b9
:104420006000b80060408800714088000000eb0028
:1044300000408800160007008200a8008220a80023
:104440008240a800d4c2a8008400a9000e80e80021
:1044500012002000011420001bfd07002e409000d8
:10446000e54f5000f9ff3a001200200051002000f3
:1044700010b5200014fd07000000eb005dfd0700f3
:104480009400a800a7f707000080fa0000000600cb
:104490000000fa008540a9009540a9000000eb004b
:1044a0001012880042a2a800212420009140780028
:1044b000c0cfb30000c060000014a00042e2b7000b
:1044c000212420009140780030ceb30000c060006d
:1044d0008041b30042e2b70042c2a8004302a900f3
:1044e0004322a9004342a90040c2a90041e2a8001a
:1044f000d4c2a8000080fa00000006000000fa0004
:10450000410a20009140780080cfb30000c06000d5
:104510003040b300a4e0b700210b200091407800a8
:10452000f0c8b30000c0600001c2b30001407000d9
:10453000b2e0b700a10a200091407800f0c8b300b3
:1045400000c0600001c5b30001407000aae0b700e0
:10455000810a20009140780080cfb30000c0600045
:104560000024a000a8e0b700410a20009140780094
:10457000f0c8b30000c0600001c3b3000140700088
:10458000a4e0b700610a200091407800f0c8b300b1
:1045900000c0600001c4b30001407000a6e0b70095
:1045a0000080fa00000006000000fa00000a200067
:1045b000303a880044c7bf00f043b20044e7b70078
:1045c000417420009140780000ceb30000c060002c
:1045d0007041b30044e7b70042c7bf000042b200d9
:1045e0000004e000fcff32000080fa00000006003a
:1045f0000000fa000000eb00101688000000eb003d
:10460000501688000000eb0090168800c082a900b8
:10461000c102a800c8e2a800c942a800c962a80057
:10462000d062a900d082a800d0c2a900d0e2a9001f
:10463000d102a900d122a800c002a800c022a8006f
:10464000c802a800c822a800c842a800c862a800e2
:10465000d002a800d022a800d042a800c882a8009a
:10466000c8a2a800c8c2a800c922a800c982a9007f
:10467000c9a2a900c9c2a900c9e2a9000080fa0024
:10468000000006000000fa002174200062042000ef
:1046900073052000824878008348780042c7a9004b
:1046a000216820009140780000ceb30000c0600077
:1046b0004041b30082e6b700816a20009140780053
:1046c00000ceb30000c060009041b300a8e6b70080
:1046d000616d20009140780000ceb30000c0600002
:1046e0009040b300d6e6b700716d2000914078008d
:1046f00000ceb30000c060000034a000d7e6b700d1
:10470000816d20009140780000ceb30000c06000b1
:104710007040b300d8e6b700e1682000914078000f
:1047200000ceb30000c060006040b3008ee6b7006a
:10473000f16820009140780000ceb30000c0600016
:104740005040b3008fe6b7002174200062042000bf
:1047500073052000824878008348780042c7a8008b
:104760000080fa00000006000600fa00200798000a
:104770000000eb00100798000a0037000000eb0073
:10478000000f7800010037001e0fe80070002000c5
:104790009e0f1000fcff34001e0090000000e80097
:1047a000100798009e0090002e009000808f50000f
:1047b000f2ff35000080fa00000006000600fa0053
:1047c000200798000000eb00100798000a0037004f
:1047d0000000eb00000f7800010037001e0fe8001a
:1047e000f0f321009e0f1000fcff34001e0090002b
:1047f0000000e800100798009e0090002e00900036
:10480000808f5000f2ff35000080fa0000000600a3
:104810000600fa00200798000000eb00100798003f
:104820000a0037000000eb00000f7800010037009d
:104830001e0fe800f03120009e0f1000fcff340036
:104840001e0090000000e800100798009e009000f5
:104850002e009000808f5000f2ff35000080fa009b
:10486000000006000000fa000000eb00f05b88008a
:104870000000eb00900888000000eb005008880062
:104880002111200091407800f0ccb30000c06000fe
:104890000044a00012e1b700409c2000700888008e
:1048a0008500a90013e1a8009500a8000080fa0087
:1048b000000006003600f800809fbe00829fbe0008
:1048c000849fbe00869fbe000000fa008500a900fc
:1048d000d462a800d462a90048f10700f05b800010
:1048e0000000e800f05b88000080fa004f03be0083
:1048f0004f02be004f01be004f00be003600f9005f
:10490000004006000600fa0027ff070038ff0700f6
:104910005cff0700f9fe070063000700c6fa070006
:104920001cf107009cf80700befc0700cdff070044
:1049300001003700c482a800f6fd07000000e00077
:10494000fcff32008afe0700c482a900ebfe0700cc
:1049500030118000100798001e00780012e2240039
:10496000110009000200d8008000fd008040eb002b
:10497000414798000000e00002003a0010c0b30078
:10498000404798001e0fe800ce4090000104e00070
:104990000100320047000700eafd0700eeff370084
:020000040000fa
:1049a000800b000002000000020000000000000078
:1049b000400a0000d00000000000000000270000b6
:1049c0006000000000000000002600006000000001
:1049d000000000002e09000012010000000000008d
:1049e000100b00003800000000000000000800006c
:1049f0002e01000000000000820b000002000000f9
:104a000000000000620b0000120000000000000027
:104a1000480b00001a00000000000000740b0000aa
:104a200008000000000000007c0b000004000000f3
:084a300000000000000000007e
:020000040000fa
:104a38000000fa000000eb000080fa000000060009
:104a48000000fa000000eb000080fa0000000600f9
:104a58000000fa000000eb000080fa0000000600e9
:104a68000000fa000000eb000080fa0000000600d9
:104a78000000fa000000eb000080fa0000000600c9
:104a88000000fa000000eb000080fa0000000600b9
:104a98000000fa000000eb000080fa0000000600a9
:104aa8000000fa000080fa00000006000000fa008a
:104ab800c2c2bf00704060000004e0000200320083
:104ac800c482a90001003700c482a8000080fa004f
:044ad80000000600d4
:00000001FF
