:020000040000fa
:080000000018040000000000dc
:020000040000fa
:10300000cfb920000eff20000e0188000000000054
:103010000c000700a041250001002000110007005e
:10302000000020000000e00002003200000002006a
:1030300000000000b2500200000000000040da0072
:103040000000fe004440a900000020000000e00055
:103050000300320000002000a00188004440a800c6
:103060000000060091018800800078000000eb005d
:1030700015003700e280400032a0b4009101ba0090
:10308000e280400032a0b4009102ba00e280400029
:1030900032a0b4000002eb00472bde00f507b200bf
:1030a000602ce10004003a000059eb008301e900c4
:1030b000fdff3e00040037006128e10001003200fe
:1030c0000082eb00040007001101ba000200e000da
:1030d000e8ff3a00000006003159ba008301e90018
:1030e0000c0032002159ba008301e90008003200c7
:1030f0000400e00003003a00e280400032a0b40087
:10310000f5ff370011d9ba008301e900faff3a0050
:103110008100e800e180400032a0b4000000060019
:103120006022b800060220000000d0008180d2009a
:103130000482d2008582d2000000a0000202520068
:1031400083825a00030031000202420083824a0057
:103150000000a1000603e900f3ff3a0000000600aa
:103160008001eb0002003700817178008301e800e4
:10317000828f5100fcff3a00000006006011b80089
:103180000002eb00050220004600dd006180200007
:10319000810040003100780000014100e0814900d9
:1031a0000402e800850f5200faff3a004b1add00d6
:1031b0004510de0000007200c598de000000060029
:1031c0008001eb003348880021e3a90025c3bf003c
:1031d00001ceb300014060005040b30025e3b700ca
:1031e00010c0b30024e3b70023c3bf007f406000da
:1031f00023e3b70025e3a90020c3bf007f406000a0
:103200000046b30020e3b70023c3bf00c2cfb30022
:103210000240600023e3b7002043a8002143a80038
:103220002223a8002063a9002343a80022c3bf00d3
:10323000fdc0500001406000c040b30022e3b70071
:103240003003a8003023a8003043a8003063a80052
:10325000631988002c03a9002c23a9002c43a90082
:103260002c63a9002c83a8002ca3a8002cc3a800c1
:103270002ce3a8002d03a80021c3bf00024060007a
:1032800021e3b70021e3a80085a0a90095a0a8002c
:10329000000006003600f800809fbe00829fbe003e
:1032a000849fbe00869fbe00881f780085a0a9006d
:1032b0002243e2002b00350080188000404888003f
:1032c0009418800054488800a01880006048880046
:1032d000b41880007448880033488000838041001f
:1032e000000c2000010040006280200004307900c2
:1032f000000820000100400064488000043079008c
:1033000040488000803079000104b00054488000bb
:10331000843079000300e800ff0f50000100340002
:103320000000eb0030488800084080000804e800f6
:10333000e40f5400010036000004eb000840880050
:103340000800e000100032004f0478004f03be0078
:103350004f02be004f01be004f00be003600f90014
:1033600000400600001880004048880014188000c3
:103370005448880020188000604888003418800075
:1033800074488800d4ff3700d462a800d462a90032
:10339000c205070075040700a70207000428ec0017
:1033a000915c80008100e800915c8800625580009b
:1033b000805c8000800f51000b003200985c880018
:1033c00018408800825c88004f0478004f03be00dc
:1033d0004f02be004f01be004f00be003600f90094
:1033e00000400600dfff3700401f2000808f5000a4
:1033f000f4ff36001000200010408800825c880036
:10340000f1ff3700620220000281b90064b12000a0
:103410008401410064a92000040141000002400031
:1034200025ad200064807a000000e80000b27a0038
:1034300042039000c601980052039000d601980004
:1034400062039000e601980072039000f601980074
:103450000213900086119800720b9000f6099800f4
:103460000003eb00810f50004b0035000000eb0023
:1034700000b27a0093009000120090001600200025
:10348000808f50000e003200008050000082eb0060
:1034900001003300140020000480500090019800c7
:1034a00001d02700810f500045003c00013028006a
:1034b000810f500042003500900198000003eb009e
:1034c000a300900022009000808f50000e00320078
:1034d000008050000082eb00010033001400200047
:1034e00004805000a001980001d02700810f5000f7
:1034f0002f003c0001302800810f50002c003500c7
:10350000a00198000003eb00b3009000320090008f
:10351000808f50000e003200008050000082eb00cf
:10352000010033001400200004805000b001980016
:1035300001d02700810f500025003c0001302800f9
:10354000810f500022003500b00198000003eb000d
:103550009310900012109000808f50000e003200e7
:10356000008050000081eb000100330012002000b9
:10357000028050009011980001d02700810f500068
:1035800007003c0001302800810f50000400350086
:10359000901198000003eb00060078000000060080
:1035a00001007800901198000003eb00faff37004b
:1035b00001007800a00198000003eb00d2ff370063
:1035c00001007800900198000003eb00bcff370079
:1035d00001007800b00198000003eb00dcff370029
:1035e000620220000281b90064b120008401410020
:1035f00064a92000040141000002400025ad200024
:1036000064807a000000e80000b27a004203900073
:10361000c601980052039000d60198006203900002
:10362000e601980062039000f601980002139000f2
:103630008611980072099000f20998000001eb00d1
:10364000810f5000270035000000eb0000b27a0027
:1036500013009000120020000000e000060032007d
:103660008080eb00010035001100200001005000b7
:10367000900198000001eb00230090000000e000a2
:10368000060032008080eb000100350011002000b0
:1036900001005000a00198000001eb0033009000f1
:1036a0000000e000060032008080eb0001003500e1
:1036b0001100200001005000b00198000001eb0053
:1036c000131090000000e000060032008080eb0044
:1036d00001003500110020000100500090119800f9
:1036e0000001eb000200780000000600889fbe0089
:1036f000800478006002200000c8b90062b1200098
:10370000000141000004eb00180198002801980016
:103710003801980018119800780198004801980025
:10372000580198006801980008119800c248dd000f
:10373000a0ac2000008040006011b8000288be00ec
:10374000e0ac2000808040008288be004648dd005a
:1037500061ad2000010040000204200088007800d4
:103760007ffe07008980440080ac2000883078000c
:1037700060ac20008830780020ad200088307800d0
:103780004f04be00000006002a1b3700ec874700ec
:10379000889fbe008a9fbe008c9fbe008e1f78004f
:1037a00080bf9f0081017800600220000fb9970060
:1037b0000090b90062b1200002014000d2b79f0022
:1037c00062a9200002004000c0b79f00100c9000ca
:1037d000830f54009f0035002008900003047800f8
:1037e000808f5100a4003500cfb19700930178007d
:1037f000628061009b0032000000eb00750407004e
:10380000000578000a015400025a88005fb2970050
:10381000440090000090de00940090000183b90005
:10382000e6b79f00f7b79f008fbb9700423fdd00d0
:10383000e0b42000000047006fb29700ffb297008d
:103840000488be00e6ac200006004700cf91de00f1
:1038500030024100a0824900dfb39700770090005a
:103860006101b900820f5200838f5a0006003c00ac
:103870000000ea00cf80de000401be00800f52008d
:10388000818f5a007a003500060047000288be008a
:103890005fb0970020029000cfa2de0050009000a1
:1038a0000000e900030033008381d1000281d300ce
:1038b000fbff37000416b80003a0b9000d0040005c
:1038c0000591b90082064000a0b420000000470026
:1038d0000c88be000fb997008204410063ac200041
:1038e00069847900a6ac2000060347004512dd007c
:1038f000080242000402420067ad200064817b00a0
:10390000cf91de0036001100a68019000001be0034
:1039100085ac200069807a000000550000b27b0071
:103920008ab47a00cf80de0002054000838548001b
:103930000a8bbe000800e800ff0f500001003400b1
:103940000000eb0061ac200080b478005fb197000c
:1039500032009000cf80de000a02b80001d1b90029
:10396000050141000b80b90080024100dfb19700e2
:10397000630090000000e900030033008582d1005d
:103980000482d300fbff370060b420000000470032
:103990000488be0020b42000000147000009eb00ad
:1039a00032117800000021004fb39700160060002c
:1039b0000300320013109000cf80de000089be00ab
:1039c0006fb39700ffb397000600460087804e0054
:1039d000040040008580480032024000a282480076
:1039e000e4598800f55988000400be00c27d20001b
:1039f00003002000c57d2000850f5000e08f580097
:103a000009003c00e0598000f159800002812f003c
:103a1000f3ff2f00820f5000838f58000200350003
:103a2000e2598000f3598000e2598800f359880078
:103a3000820078000fb897007e1a07004f077800c1
:103a40004f06be004f05be004f04be00cf00b100c0
:103a50000000060080017800930178006280610018
:103a600065ff3a00090407000005780065ff37008c
:103a70000001be0084ff370000047800cfb197003a
:103a80005aff3700ee874700889fbe008a9fbe001e
:103a90008c9fbe008e1f780080bf9f008101780040
:103aa000600220000fb997000090b90062b12000b9
:103ab00002014000d2b79f0062a92000020040002e
:103ac000c0b79f00100c9000830f5400a1003d0070
:103ad0000800e000a5003500830f5400ad003d0054
:103ae0008083eb00b7b79f000300e00002003500c1
:103af00010002000b0b79f005502070000057800b5
:103b000000015400025a8800dfb097004100900085
:103b10000090de00910090000182b900e4b79f00a0
:103b2000f5b79f008fba9700422fdd00e0b4200068
:103b3000000047006fb39700ffb397000688be00f0
:103b4000e6ac200006004700cf91de0030024100c5
:103b5000a0824900dfb39700770090006101b900af
:103b6000820f5200838f5a0006003c000000ea00da
:103b7000cf80de000401be00800f5200818f5a000a
:103b80008f003500060047000288be005fb0970036
:103b900020029000cfa2de00500090000000e9005b
:103ba000030033008381d1000281d300fbff370083
:103bb0000416b80003a0b9000d0040000591b9003b
:103bc00082064000a0b42000000047000c88be0020
:103bd0000fb997008204410063ac2000698479002a
:103be000a6ac2000060347004512dd000802420093
:103bf0000402420067ad200064817b00cf91de00ab
:103c000036001100a68019000001be0085ac20001e
:103c100069807a000000550000b27b008ab47a0007
:103c2000cf80de0002054000838548000a8bbe007d
:103c30000800e800ff0f5000010034000000eb0016
:103c400061ac200080b478005fb197003200900032
:103c5000cf80de000a02b80001d1b90005014100a1
:103c60000b80b90080024100dfb197006300900033
:103c70000000e900030033008582d1000482d300f4
:103c8000fbff370060b42000000047000488be003e
:103c900020b42000000147000009eb003211780039
:103ca000000021004fb397001600600003003200af
:103cb00013109000cf80de000089be006fb3970024
:103cc000ffb397000600460087804e0004004000c6
:103cd0008580480032024000a2824800e4598800f2
:103ce000f55988000400be00c27d200003002000ba
:103cf000c57d2000850f5000e08f580008003c0073
:103d0000e0598000f15980006011b800e00f5000c8
:103d1000e08f580002003500e2598000f35980001e
:103d2000e2598800f35988003fb3970002b0b90008
:103d3000800078000fb89700be1907004f07780081
:103d40004f06be004f05be004f04be00ef00b1009d
:103d500000000600a008900003007800818f510049
:103d6000130035000000e0005bff3d00830f5400ae
:103d700015003500cfb29700a50890000300780029
:103d8000818f510001003d00010078000004ea002d
:103d900053ff37004fb397002608900003047800c4
:103da000808f51004eff3d00000478004cff37002b
:103db000010078000000e00047ff3d00ebff370006
:103dc0000001be006fff37000804ea0044ff37001f
:103dd000881f78000004eb00a8568800c8588800a7
:103de000d8588800e8588800c859880028598800a1
:103df000f85888000859880018598800b859880070
:103e00006000b800505688006156880070568800df
:103e100081568800020420008800780060ad2000f0
:103e2000cffc07004856880038568800985688000e
:103e30004f04780000000600889fbe000208e200e0
:103e400001003200d42aef0069558000f90fb2005a
:103e500032558000a8568000e20f54006000320006
:103e60003b003400e40f5400d20032006b003d00f0
:103e7000915680008100e80091568800f05480003f
:103e8000f0588800005580000059880010558000c7
:103e90001059880020598800b0558000b05988001a
:103ea000a0558000a0598800900f2000808f5000fe
:103eb00023003400d22aef00c058800011002000f7
:103ec0000000e000060032008080eb0001003500b9
:103ed0001100200001005000c05888008000eb0055
:103ee000d05880000000e000060032008080eb0027
:103ef000010035001100200001005000d05888005a
:103f00008000eb00e05880000000e0000600320076
:103f10008080eb00010035001100200001005000fe
:103f2000e05888008000eb00c05980000000e000ed
:103f3000ab003a000100e00001003200a05688000a
:103f40006000b8003b1907004f04be0000000600e7
:103f50000800e00028003a00880078000800780097
:103f600034190700e18f540099003200e28f5400a9
:103f70000f013200e38f5400f3ff3a00600020008d
:103f8000a0568800c8588800d8588800e85888008b
:103f9000c859880028598800f858880008598800ae
:103fa00018598800b8598800ca2aef00cc2aef00b7
:103fb000ce2aef00d02aef0002042000880078000b
:103fc00060ad200066fc070048568800385688001f
:103fd000985688004f04be0000000600dcff370042
:103fe000e28f540016003200d42aef004f04be00c6
:103ff00000000600d6ff3700e10f5400d0ff3a0062
:10400000820078000000eb000a190700e18f5400dd
:10401000cdff3200d42aef00f4ff3700e60f540042
:10402000c7ff3a00e38f5400efff3a006000b8008a
:1040300094fe07004f04be0000000600c4ff3700d6
:10404000915680008100e80091568800f05480006d
:10405000f0588800005580000059880010558000f5
:10406000105988002055800020598800b0558000e4
:10407000b0598800a0558000a0598800900f2000fa
:10408000808f500045003400d22aef00c1588000d4
:10409000c054800013002000808f50000d003200bb
:1040a000008050008081eb000100330013002000ed
:1040b0000380500001d02700810f500064003c00b5
:1040c00001302800810f500061003500c058880081
:1040d0008001eb00d1588000d0548000808f5000c8
:1040e0000d003200008050008081eb0001003300a1
:1040f000130020000380500001d02700810f5000e2
:104100004f003c0001302800810f50004c0035006a
:10411000d05888008001eb00e1588000e054800016
:10412000808f50000d003200008050008081eb0035
:1041300001003300130020000380500001d027004d
:10414000810f50003a003c0001302800810f5000e0
:1041500037003500e05888008001eb00c15980002d
:10416000c0558000808f5000260032000080500033
:104170008081eb0001003300130020000380500019
:1041800001d02700810f500026003c00013028009c
:10419000810f500023003500c0598800820078004c
:1041a0000000eb0079fd07004f04be000000060090
:1041b00067ff3700e28f54002900320030002000f2
:1041c000a05688004f04be000000060060ff3700c4
:1041d000a95688004f04be00000006005cff3700af
:1041e0008080eb000000e00001003500110020009d
:1041f00001005000c05988006000b8008d18070009
:1042000051ff37000300e000e4ff320040002000cf
:10421000a0568800820078000000eb005bfd0700dc
:10422000e1ff370001007800c0598800dbff37004c
:1042300001007800e05888008001eb00c7ff3700dc
:1042400001007800d05888008001eb00b2ff3700f1
:1042500001007800c05888008001eb009dff370006
:10426000915680008100e80091568800f05480004b
:10427000f0588800005580000059880010558000d3
:10428000105988002055800020598800b0558000c2
:10429000b0598800a0558000a0598800900f2000d8
:1042a000808f5000bdff3400d22aef00c15880003b
:1042b000c0548000808f50000c00320000805000fd
:1042c0008081eb00010033001300200003805000c8
:1042d00001d02700810f500032003c00013028003f
:1042e000810f50002f003500c0588800d158800041
:1042f000d0548000808f50000c00320000805000ad
:104300008081eb0001003300130020000380500087
:1043100001d02700810f50001f003c000130280011
:10432000810f50001c003500d0588800e1588000f3
:10433000e0548000808f50000c003200008050005c
:104340008081eb0001003300130020000380500047
:1043500001d02700810f50000c003c0001302800e4
:10436000810f500009003500e0588800c1598000d5
:10437000c0558000808f50007cff3a00820078009a
:104380000000eb0001fd070087ff37000100780007
:10439000e0588800f5ff370001007800d058880009
:1043a000e2ff370001007800c0588800cfff3700d7
:1043b000a9568800c8588800d8588800e85888004e
:1043c000c859880028598800f8588800085988007a
:1043d00018598800b8598800ca2aef00cc2aef0083
:1043e000ce2aef00d02aef000204200088007800d7
:1043f00060ad20005afb07004856880038568800f8
:1044000098568800f3fe37008048800001022000a3
:104410000000e00002003200010078000000060009
:104420000000780000000600fdff37009048800083
:10443000010120000000e0000200320001007800cd
:10444000000006000000780000000600fdff3700b5
:10445000e04f800000000600504980006149800064
:1044600000000600704980008149800000000600bd
:10447000a048800000000600881f78000004eb00c0
:10448000b84888006000b800d0488800e14888003b
:10449000704988008149880018498800c848880008
:1044a000f048880001498800504988006149880027
:1044b000284988000204200088007800609b2000c2
:1044c00027fb070002082000880078006093200086
:1044d00023fb07004f04780000000600881f7800c7
:1044e0000004eb00e84f8800b0772000d04f880030
:1044f000c84f8800a00f2000b04f8800a84988004e
:1045000098498800b84888006000b800d048880002
:10451000e14888007049880081498800184988006e
:104520009848880088488800c8488800f048880073
:10453000014988005049880061498800284988005d
:10454000a84888000204200088007800609b2000b2
:1045500003fb070002082000880078006093200019
:10456000fffa07004f04780000000600881f78005b
:10457000b04f8000f00f500005003c00f609e2004b
:1045800003003400a84880000800e000ae003200bc
:10459000f609ed008000eb0002003300b14f80000f
:1045a0008100e900b14f88001409e20002003a00de
:1045b0004f0478000000060010002000effa07000a
:1045c00080007800c04f8000008050006700b90074
:1045d000e04f8800a05680000000e0009800320004
:1045e000e50f500096003200214980008100e8006c
:1045f0000001eb00700f2000808f500002003c0093
:10460000224980000201e8002249880021498000f7
:104610000100e00035003a001809ec00ef0f5000ef
:10462000ad003c001809ec00c0488800c348800079
:10463000e04f8000e24f80000280b900c219dd0027
:10464000629b2000828141008089be001e29ef000c
:104650002029ef000002eb00820278003501be0045
:10466000f04880000149800002004000838048003b
:10467000f0488800014988000402e800f00f520069
:10468000f6ff3a00f0488000014980004c09dd0047
:104690004400de0000007100c488de00504988003c
:1046a00061498800884880000800e0000f003a0057
:1046b000524980006349800000a4230091d6200065
:1046c000800f5100818f590008003400e14f8000b5
:1046d00080a92300808f50008e003c00e14f8000b5
:1046e00080562c00808f50008a00350011498000d0
:1046f0008100e8000001eb00f0262000808f5000d0
:1047000002003c00124980000201e80012498800c2
:10471000114980000100e00024003a001609ec0075
:10472000ff0f50005c003c001609ec00b048880008
:10473000b3488000e04f8000e24f80000280b90063
:10474000c219dd0062932000828141008089be0091
:104750001a29ef001c29ef000002eb0006022000de
:10476000820278003501be00d0488000e148800018
:104770000200400083804800d0488800e14888005b
:104780000402e800860f5200f6ff3a00d04880008d
:10479000e14880004b09dd004500de0000007100ab
:1047a000c588de00704988008149880098488000eb
:1047b0000800e0007eff3a007249800083498000d3
:1047c00000e42a00b12e2000800f5100818f590093
:1047d00077ff340030002000a0488800100020003f
:1047e00090488800b84888001a29ef001c29ef007b
:1047f0002e29ef003029ef0018498800c8488800aa
:104800001e29ef002029ef002a29ef002c29ef00b4
:10481000284988000204200088007800609b20005e
:104820004ffa0700020820008800780060932000fb
:104830004bfa07004f047800000006005eff3700c7
:10484000fc29ef0068ff3700080078004bfa0700ea
:104850003429b4001000200048fa07003229b400bf
:10486000b14f8000e18f500049ff3a00a04980001d
:104870004400de00d04f8800904980004400de00f4
:10488000c04f8800c04f8000f80f50003a003e0033
:10489000a14888003eff370001007800b04888003a
:1048a000b3488000e04f8000e24f80000280b900f2
:1048b000c219dd0062932000828141008089be0020
:1048c0001a29ef001c29ef000002eb00060220006d
:1048d00082027800a3ff370001007800c0488800fa
:1048e000c3488000e04f8000e24f80000280b900a2
:1048f000c219dd00629b2000828141008089be00d8
:104900001e29ef002029ef000002eb008202780050
:1049100052ff370020002000a0488800100020002f
:1049200080488800b84888001a29ef001c29ef0049
:104930002e29ef003029ef0018498800c848880068
:104940001e29ef002029ef002a29ef002c29ef0073
:10495000284988000204200088007800609b20001d
:10496000fff907000208200088007800609320000b
:10497000fbf907005dff3700a8488800a8498800b8
:104980009849880040062000b04f880000ff37009b
:1049900000000600c4c2bf004400de0061006000e9
:1049a0000004a2004400dd00412c2000914078006a
:1049b0000144a10080c0700001007800c4e2b7008b
:1049c0000000060000004000c1b6200060807800b2
:1049d000000006004200dd0001b720000102400097
:1049e0006011b8008000eb00340078000001410045
:1049f000e08149008100e800e28f5000faff3a00b0
:104a00008380d1000280d3000000060000017800fe
:104a1000c209de0023568800e3806000e18f500069
:104a20000700320096eaab0008003a00020041009d
:104a3000c1b62000010040001008e8000000060098
:104a4000e0fd2300808f5100f6ff3e008200410010
:104a5000a0b720008330780000000600d442a800f0
:104a6000cc62a8000000eb00a3b72000c2b6200073
:104a70008000780001b07900013079000080e80002
:104a8000e40f5000fbff3a00000006000000400069
:104a9000a1b720006080780000000600889fbe005b
:104aa000c8a2a900cea2a800c8c2a900cec2a80070
:104ab000d442a900cc62a900d402a900d422a90042
:104ac00000000000000000000000000000000000e6
:104ad00000000000000000000000000000000000d6
:104ae00000000000000000000000000000000000c6
:104af00000000000000000000000000000000000b6
:104b000000000000000000000000000000000000a5
:104b10000000000000000000000000000000000095
:104b20000000000000000000000000000000000085
:104b30000000000000000000000000000000000075
:104b40000000000000000000000000000000000065
:104b50000000000000000000000000000000000055
:104b60000000000000000000000000000000000045
:104b70000000000000000000000000000000000035
:104b80000000000000000000000000000000000025
:104b90000000000000000000000000000000000015
:104ba0000000000000000000000000000000000005
:104bb00000000000000000000000000000000000f5
:104bc00000000000000000000000000000000000e5
:104bd00000000000000000000000000000000000d5
:104be00000000000000000000000000000000000c5
:104bf00000000000000000000000000000000000b5
:104c000000000000000000000000000000000000a4
:104c10000000000000000000000000000000000094
:104c20000000000000000000000000000000000084
:104c3000d402a800d422a800cca2a800ccc2a8000c
:104c40000000000000000000000000000000000064
:104c50000000000000000000000000000000000054
:104c60000000000000000000000000000000000044
:104c70000000000000000000000000000000000034
:104c80000000000000000000000000000000000024
:104c90000000000000000000000000000000000014
:104ca0000000000000000000000000000000000004
:104cb00000000000000000000000000000000000f4
:104cc00000000000000000000000000000000000e4
:104cd00000000000000000000000000000000000d4
:104ce00000000000000000000000000000000000c4
:104cf00000000000000000000000000000000000b4
:104d0000d402a900d422a900000000000000000085
:104d10000000000000000000000000000000000093
:104d20000000000000000000000000000000000083
:104d30000000000000000000000000000000000073
:104d40000000000000000000000000000000000063
:104d50000000000000000000000000000000000053
:104d60000000000000000000000000000000000043
:104d70000000000000000000000000000000000033
:104d80000000000000000000000000000000000023
:104d90000000000000000000000000000000000013
:104da0000000000000000000000000000000000003
:104db00000000000000000000000000000000000f3
:104dc0000000000000000000d402a800d422a800c7
:104dd000cca2a900ccc2a900000000000000000085
:104de00000000000000000000000000000000000c3
:104df00000000000000000000000000000000000b3
:104e000000000000000000000000000000000000a2
:104e10000000000000000000000000000000000092
:104e20000000000000000000000000000000000082
:104e30000000000000000000000000000000000072
:104e40000000000000000000000000000000000062
:104e50000000000000000000000000000000000052
:104e60000000000000000000000000000000000042
:104e70000000000000000000000000000000000032
:104e80000000000000000000000000000000000022
:104e90000000000000000000d402a900d422a900f4
:104ea0000000000000000000000000000000000002
:104eb00000000000000000000000000000000000f2
:104ec00000000000000000000000000000000000e2
:104ed00000000000000000000000000000000000d2
:104ee00000000000000000000000000000000000c2
:104ef00000000000000000000000000000000000b2
:104f000000000000000000000000000000000000a1
:104f10000000000000000000000000000000000091
:104f20000000000000000000000000000000000081
:104f30000000000000000000000000000000000071
:104f40000000000000000000000000000000000061
:104f50000000000000000000000000000000000051
:104f6000d402a800d422a800cca2a800ccc2a800d9
:104f70000000000000000000000000000000000031
:104f80000000000000000000000000000000000021
:104f90000000000000000000000000000000000011
:104fa0000000000000000000000000000000000001
:104fb00000000000000000000000000000000000f1
:104fc00000000000000000000000000000000000e1
:104fd00000000000000000000000000000000000d1
:104fe00000000000000000000000000000000000c1
:104ff00000000000000000000000000000000000b1
:1050000000000000000000000000000000000000a0
:105010000000000000000000000000000000000090
:105020000000000000000000000000000000000080
:10503000d402a900d422a900000000000000000052
:105040000000000000000000000000000000000060
:105050000000000000000000000000000000000050
:105060000000000000000000000000000000000040
:105070000000000000000000000000000000000030
:105080000000000000000000000000000000000020
:105090000000000000000000000000000000000010
:1050a0000000000000000000000000000000000000
:1050b00000000000000000000000000000000000f0
:1050c00000000000000000000000000000000000e0
:1050d00000000000000000000000000000000000d0
:1050e00000000000000000000000000000000000c0
:1050f0000000000000000000d402a800d422a80094
:10510000cca2a900ccc2a900000000000000000051
:10511000000000000000000000000000000000008f
:10512000000000000000000000000000000000007f
:10513000000000000000000000000000000000006f
:10514000000000000000000000000000000000005f
:10515000000000000000000000000000000000004f
:10516000000000000000000000000000000000003f
:10517000000000000000000000000000000000002f
:10518000000000000000000000000000000000001f
:10519000000000000000000000000000000000000f
:1051a00000000000000000000000000000000000ff
:1051b00000000000000000000000000000000000ef
:1051c0000000000000000000d402a900d422a900c1
:1051d00000000000000000000000000000000000cf
:1051e00000000000000000000000000000000000bf
:1051f00000000000000000000000000000000000af
:10520000000000000000000000000000000000009e
:10521000000000000000000000000000000000008e
:10522000000000000000000000000000000000007e
:10523000000000000000000000000000000000006e
:10524000000000000000000000000000000000005e
:10525000000000000000000000000000000000004e
:10526000000000000000000000000000000000003e
:10527000000000000000000000000000000000002e
:10528000000000000000000000000000000000001e
:10529000d402a800d422a800cca2a800ccc2a800a6
:1052a00000000000000000000000000000000000fe
:1052b00000000000000000000000000000000000ee
:1052c00000000000000000000000000000000000de
:1052d00000000000000000000000000000000000ce
:1052e00000000000000000000000000000000000be
:1052f00000000000000000000000000000000000ae
:10530000000000000000000000000000000000009d
:10531000000000000000000000000000000000008d
:10532000000000000000000000000000000000007d
:10533000000000000000000000000000000000006d
:10534000000000000000000000000000000000005d
:10535000000000000000000000000000000000004d
:10536000d402a900d422a90000000000000000001f
:10537000000000000000000000000000000000002d
:10538000000000000000000000000000000000001d
:10539000000000000000000000000000000000000d
:1053a00000000000000000000000000000000000fd
:1053b00000000000000000000000000000000000ed
:1053c00000000000000000000000000000000000dd
:1053d00000000000000000000000000000000000cd
:1053e00000000000000000000000000000000000bd
:1053f00000000000000000000000000000000000ad
:10540000000000000000000000000000000000009c
:10541000000000000000000000000000000000008c
:105420000000000000000000d402a800d422a80060
:10543000cca2a900ccc2a90000000000000000001e
:10544000000000000000000000000000000000005c
:10545000000000000000000000000000000000004c
:10546000000000000000000000000000000000003c
:10547000000000000000000000000000000000002c
:10548000000000000000000000000000000000001c
:10549000000000000000000000000000000000000c
:1054a00000000000000000000000000000000000fc
:1054b00000000000000000000000000000000000ec
:1054c00000000000000000000000000000000000dc
:1054d00000000000000000000000000000000000cc
:1054e00000000000000000000000000000000000bc
:1054f0000000000000000000d402a900d422a9008e
:10550000000000000000000000000000000000009b
:10551000000000000000000000000000000000008b
:10552000000000000000000000000000000000007b
:10553000000000000000000000000000000000006b
:10554000000000000000000000000000000000005b
:10555000000000000000000000000000000000004b
:10556000000000000000000000000000000000003b
:10557000000000000000000000000000000000002b
:10558000000000000000000000000000000000001b
:10559000000000000000000000000000000000000b
:1055a00000000000000000000000000000000000fb
:1055b00000000000000000000000000000000000eb
:1055c000d402a800d422a800cca2a800ccc2a80073
:1055d00000000000000000000000000000000000cb
:1055e00000000000000000000000000000000000bb
:1055f00000000000000000000000000000000000ab
:10560000000000000000000000000000000000009a
:10561000000000000000000000000000000000008a
:10562000000000000000000000000000000000007a
:10563000000000000000000000000000000000006a
:10564000000000000000000000000000000000005a
:10565000000000000000000000000000000000004a
:10566000000000000000000000000000000000003a
:10567000000000000000000000000000000000002a
:10568000000000000000000000000000000000001a
:10569000d402a900d422a9000000000000000000ec
:1056a00000000000000000000000000000000000fa
:1056b00000000000000000000000000000000000ea
:1056c00000000000000000000000000000000000da
:1056d00000000000000000000000000000000000ca
:1056e00000000000000000000000000000000000ba
:1056f00000000000000000000000000000000000aa
:105700000000000000000000000000000000000099
:105710000000000000000000000000000000000089
:105720000000000000000000000000000000000079
:105730000000000000000000000000000000000069
:105740000000000000000000000000000000000059
:105750000000000000000000d402a800d422a8002d
:10576000cca2a900ccc2a9000000000000000000eb
:105770000000000000000000000000000000000029
:105780000000000000000000000000000000000019
:105790000000000000000000000000000000000009
:1057a00000000000000000000000000000000000f9
:1057b00000000000000000000000000000000000e9
:1057c00000000000000000000000000000000000d9
:1057d00000000000000000000000000000000000c9
:1057e00000000000000000000000000000000000b9
:1057f00000000000000000000000000000000000a9
:105800000000000000000000000000000000000098
:105810000000000000000000000000000000000088
:105820000000000000000000d402a900d422a9005a
:105830000000000000000000000000000000000068
:105840000000000000000000000000000000000058
:105850000000000000000000000000000000000048
:105860000000000000000000000000000000000038
:105870000000000000000000000000000000000028
:105880000000000000000000000000000000000018
:105890000000000000000000000000000000000008
:1058a00000000000000000000000000000000000f8
:1058b00000000000000000000000000000000000e8
:1058c00000000000000000000000000000000000d8
:1058d00000000000000000000000000000000000c8
:1058e00000000000000000000000000000000000b8
:1058f000d0002000b1130700d402a800d422a800d1
:10590000cca2a800ccc2a80000000000000000004b
:105910000000000000000000000000000000000087
:105920000000000000000000000000000000000077
:105930000000000000000000000000000000000067
:105940000000000000000000000000000000000057
:105950000000000000000000000000000000000047
:105960000000000000000000000000000000000037
:105970000000000000000000000000000000000027
:105980000000000000000000000000000000000017
:105990000000000000000000000000000000000007
:1059a00000000000000000000000000000000000f7
:1059b00000000000000000000000000000000000e7
:1059c0000000000000000000d402a900d422a900b9
:1059d00000000000000000000000000000000000c7
:1059e00000000000000000000000000000000000b7
:1059f00000000000000000000000000000000000a7
:105a00000000000000000000000000000000000096
:105a10000000000000000000000000000000000086
:105a20000000000000000000000000000000000076
:105a30000000000000000000000000000000000066
:105a40000000000000000000000000000000000056
:105a50000000000000000000000000000000000046
:105a60000000000000000000000000000000000036
:105a70000000000000000000000000000000000026
:105a80000000000000000000000000000000000016
:105a9000d402a800d422a800cca2a800ccc2a8009e
:105aa00000000000000000000000000000000000f6
:105ab00000000000000000000000000000000000e6
:105ac00000000000000000000000000000000000d6
:105ad00000000000000000000000000000000000c6
:105ae00000000000000000000000000000000000b6
:105af00000000000000000000000000000000000a6
:105b00000000000000000000000000000000000095
:105b10000000000000000000000000000000000085
:105b20000000000000000000000000000000000075
:105b30000000000000000000000000000000000065
:105b40000000000000000000000000000000000055
:105b50000000000000000000000000000000000045
:105b6000d402a900d422a900000000000000000017
:105b70000000000000000000000000000000000025
:105b80000000000000000000000000000000000015
:105b90000000000000000000000000000000000005
:105ba00000000000000000000000000000000000f5
:105bb00000000000000000000000000000000000e5
:105bc00000000000000000000000000000000000d5
:105bd00000000000000000000000000000000000c5
:105be00000000000000000000000000000000000b5
:105bf00000000000000000000000000000000000a5
:105c00000000000000000000000000000000000094
:105c10000000000000000000000000000000000084
:105c20000000000000000000d402a800d422a80058
:105c3000cca2a800ccc2a800000000000000000018
:105c40000000000000000000000000000000000054
:105c50000000000000000000000000000000000044
:105c60000000000000000000000000000000000034
:105c70000000000000000000000000000000000024
:105c80000000000000000000000000000000000014
:105c90000000000000000000000000000000000004
:105ca00000000000000000000000000000000000f4
:105cb00000000000000000000000000000000000e4
:105cc00000000000000000000000000000000000d4
:105cd00000000000000000000000000000000000c4
:105ce00000000000000000000000000000000000b4
:105cf0000000000000000000d402a900d422a90086
:105d00000000000000000000000000000000000093
:105d10000000000000000000000000000000000083
:105d20000000000000000000000000000000000073
:105d30000000000000000000000000000000000063
:105d40000000000000000000000000000000000053
:105d50000000000000000000000000000000000043
:105d60000000000000000000000000000000000033
:105d70000000000000000000000000000000000023
:105d80000000000000000000000000000000000013
:105d90000000000000000000000000000000000003
:105da00000000000000000000000000000000000f3
:105db00000000000000000000000000000000000e3
:105dc000d402a800d422a800cca2a800ccc2a8006b
:105dd00000000000000000000000000000000000c3
:105de00000000000000000000000000000000000b3
:105df00000000000000000000000000000000000a3
:105e00000000000000000000000000000000000092
:105e10000000000000000000000000000000000082
:105e20000000000000000000000000000000000072
:105e30000000000000000000000000000000000062
:105e40000000000000000000000000000000000052
:105e50000000000000000000000000000000000042
:105e60000000000000000000000000000000000032
:105e70000000000000000000000000000000000022
:105e80000000000000000000000000000000000012
:105e9000d402a900d422a9000000000000000000e4
:105ea00000000000000000000000000000000000f2
:105eb00000000000000000000000000000000000e2
:105ec00000000000000000000000000000000000d2
:105ed00000000000000000000000000000000000c2
:105ee00000000000000000000000000000000000b2
:105ef00000000000000000000000000000000000a2
:105f00000000000000000000000000000000000091
:105f10000000000000000000000000000000000081
:105f20000000000000000000000000000000000071
:105f30000000000000000000000000000000000061
:105f40000000000000000000000000000000000051
:105f50000000000000000000d402a800d422a80025
:105f6000cca2a800ccc2a8000000000000000000e5
:105f70000000000000000000000000000000000021
:105f80000000000000000000000000000000000011
:105f90000000000000000000000000000000000001
:105fa00000000000000000000000000000000000f1
:105fb00000000000000000000000000000000000e1
:105fc00000000000000000000000000000000000d1
:105fd00000000000000000000000000000000000c1
:105fe00000000000000000000000000000000000b1
:105ff00000000000000000000000000000000000a1
:106000000000000000000000000000000000000090
:106010000000000000000000000000000000000080
:106020000000000000000000d402a900d422a90052
:106030000000000000000000000000000000000060
:106040000000000000000000000000000000000050
:106050000000000000000000000000000000000040
:106060000000000000000000000000000000000030
:106070000000000000000000000000000000000020
:106080000000000000000000000000000000000010
:106090000000000000000000000000000000000000
:1060a00000000000000000000000000000000000f0
:1060b00000000000000000000000000000000000e0
:1060c00000000000000000000000000000000000d0
:1060d00000000000000000000000000000000000c0
:1060e00000000000000000000000000000000000b0
:1060f000d402a800d422a800cca2a800ccc2a80038
:10610000000000000000000000000000000000008f
:10611000000000000000000000000000000000007f
:10612000000000000000000000000000000000006f
:10613000000000000000000000000000000000005f
:10614000000000000000000000000000000000004f
:10615000000000000000000000000000000000003f
:10616000000000000000000000000000000000002f
:10617000000000000000000000000000000000001f
:10618000000000000000000000000000000000000f
:1061900000000000000000000000000000000000ff
:1061a00000000000000000000000000000000000ef
:1061b00000000000000000000000000000000000df
:1061c000d402a900d422a9000000000000000000b1
:1061d00000000000000000000000000000000000bf
:1061e00000000000000000000000000000000000af
:1061f000000000000000000000000000000000009f
:10620000000000000000000000000000000000008e
:10621000000000000000000000000000000000007e
:10622000000000000000000000000000000000006e
:10623000000000000000000000000000000000005e
:10624000000000000000000000000000000000004e
:10625000000000000000000000000000000000003e
:10626000000000000000000000000000000000002e
:10627000000000000000000000000000000000001e
:106280000000000000000000d402a800d422a800f2
:10629000cca2a800ccc2a8000000000000000000b2
:1062a00000000000000000000000000000000000ee
:1062b00000000000000000000000000000000000de
:1062c00000000000000000000000000000000000ce
:1062d00000000000000000000000000000000000be
:1062e00000000000000000000000000000000000ae
:1062f000000000000000000000000000000000009e
:10630000000000000000000000000000000000008d
:10631000000000000000000000000000000000007d
:10632000000000000000000000000000000000006d
:10633000000000000000000000000000000000005d
:10634000000000000000000000000000000000004d
:106350000000000000000000d402a900d422a9001f
:10636000000000000000000000000000000000002d
:10637000000000000000000000000000000000001d
:10638000000000000000000000000000000000000d
:1063900000000000000000000000000000000000fd
:1063a00000000000000000000000000000000000ed
:1063b00000000000000000000000000000000000dd
:1063c00000000000000000000000000000000000cd
:1063d00000000000000000000000000000000000bd
:1063e00000000000000000000000000000000000ad
:1063f000000000000000000000000000000000009d
:10640000000000000000000000000000000000008c
:10641000000000000000000000000000000000007c
:10642000d402a800d422a800cca2a800ccc2a80004
:10643000000000000000000000000000000000005c
:10644000000000000000000000000000000000004c
:10645000000000000000000000000000000000003c
:10646000000000000000000000000000000000002c
:10647000000000000000000000000000000000001c
:10648000000000000000000000000000000000000c
:1064900000000000000000000000000000000000fc
:1064a00000000000000000000000000000000000ec
:1064b00000000000000000000000000000000000dc
:1064c00000000000000000000000000000000000cc
:1064d00000000000000000000000000000000000bc
:1064e00000000000000000000000000000000000ac
:1064f000d402a900d422a90000000000000000007e
:10650000000000000000000000000000000000008b
:10651000000000000000000000000000000000007b
:10652000000000000000000000000000000000006b
:10653000000000000000000000000000000000005b
:10654000000000000000000000000000000000004b
:10655000000000000000000000000000000000003b
:10656000000000000000000000000000000000002b
:10657000000000000000000000000000000000001b
:10658000000000000000000000000000000000000b
:1065900000000000000000000000000000000000fb
:1065a00000000000000000000000000000000000eb
:1065b0000000000000000000800020007f100700a5
:1065c000c8a2a800cea2a900c8c2a800cec2a90035
:1065d0008000200079100700d402a800d422a8006f
:1065e00000000000000000000000000000000000ab
:1065f000000000000000000000000000000000009b
:10660000000000000000000000000000000000008a
:10661000000000000000000000000000000000007a
:10662000000000000000000000000000000000006a
:10663000000000000000000000000000000000005a
:10664000000000000000000000000000000000004a
:10665000000000000000000000000000000000003a
:10666000000000000000000000000000000000002a
:10667000000000000000000000000000000000001a
:10668000000000000000000000000000000000000a
:1066900000000000000000000000000000000000fa
:1066a000d402a900d422a900a92c20009944780082
:1066b000c54cde00e1846400a82c2000184478005a
:1066c0004644de0061046400000000000000000099
:1066d00000000000000000000000000000000000ba
:1066e00000000000000000000000000000000000aa
:1066f000000000000000000000000000000000009a
:106700000000000000000000000000000000000089
:106710000000000000000000000000000000000079
:106720000000000000000000000000000000000069
:106730000000000000000000000000000000000059
:106740000000000000000000000000000000000049
:106750000000000000000000000000000000000039
:106760000000000000000000000000000000000029
:106770000000000000000000000000000000000019
:1067800000000000000000008984fb0089844400b0
:106790000884fb0008044400d402a800d422a80006
:1067a00000000000000000000000000000000000e9
:1067b00000000000000000000000000000000000d9
:1067c00000000000000000000000000000000000c9
:1067d00000000000000000000000000000000000b9
:1067e00000000000000000000000000000000000a9
:1067f0000000000000000000000000000000000099
:106800000000000000000000000000000000000088
:106810000000000000000000000000000000000078
:106820000000000000000000000000000000000068
:106830000000000000000000000000000000000058
:106840000000000000000000000000000000000048
:106850000000000000000000000000000000000038
:10686000d402a900d422a900cac2bf004500de009c
:106870006100600080847400cac2bf004600de0070
:1068800061006000000474000000000000000000cf
:1068900000000000000000000000000000000000f8
:1068a00000000000000000000000000000000000e8
:1068b00000000000000000000000000000000000d8
:1068c00000000000000000000000000000000000c8
:1068d00000000000000000000000000000000000b8
:1068e00000000000000000000000000000000000a8
:1068f0000000000000000000000000000000000098
:106900000000000000000000000000000000000087
:106910000000000000000000000000000000000077
:106920000000000000000000000000000000000067
:106930000000000000000000000000000000000057
:1069400000000000000000008984440008044400a6
:10695000d402a800d422a80000000000000000001b
:106960000000000000000000000000000000000027
:106970000000000000000000000000000000000017
:106980000000000000000000000000000000000007
:1069900000000000000000000000000000000000f7
:1069a00000000000000000000000000000000000e7
:1069b00000000000000000000000000000000000d7
:1069c00000000000000000000000000000000000c7
:1069d00000000000000000000000000000000000b7
:1069e00000000000000000000000000000000000a7
:1069f0000000000000000000000000000000000097
:106a00000000000000000000000000000000000086
:106a10000000000000000000d402a900d422a90058
:106a2000cac2bf004500de006100600080847400bf
:106a3000cac2bf004600de006100600000047400ae
:106a40000000000000000000000000000000000046
:106a50000000000000000000000000000000000036
:106a60000000000000000000000000000000000026
:106a70000000000000000000000000000000000016
:106a80000000000000000000000000000000000006
:106a900000000000000000000000000000000000f6
:106aa00000000000000000000000000000000000e6
:106ab00000000000000000000000000000000000d6
:106ac00000000000000000000000000000000000c6
:106ad00000000000000000000000000000000000b6
:106ae00000000000000000000000000000000000a6
:106af0000000000000000000000000000000000096
:106b00008984440008044400d402a800d422a800c8
:106b10000000000000000000000000000000000075
:106b20000000000000000000000000000000000065
:106b30000000000000000000000000000000000055
:106b40000000000000000000000000000000000045
:106b50000000000000000000000000000000000035
:106b60000000000000000000000000000000000025
:106b70000000000000000000000000000000000015
:106b80000000000000000000000000000000000005
:106b900000000000000000000000000000000000f5
:106ba00000000000000000000000000000000000e5
:106bb00000000000000000000000000000000000d5
:106bc00000000000000000000000000000000000c5
:106bd000d402a900d422a900cac2bf004500de0029
:106be0006100600080847400cac2bf004600de00fd
:106bf000610060000004740000000000000000005c
:106c00000000000000000000000000000000000084
:106c10000000000000000000000000000000000074
:106c20000000000000000000000000000000000064
:106c30000000000000000000000000000000000054
:106c40000000000000000000000000000000000044
:106c50000000000000000000000000000000000034
:106c60000000000000000000000000000000000024
:106c70000000000000000000000000000000000014
:106c80000000000000000000000000000000000004
:106c900000000000000000000000000000000000f4
:106ca00000000000000000000000000000000000e4
:106cb0000000000000000000898444000804440033
:106cc000d402a800d422a8000000000000000000a8
:106cd00000000000000000000000000000000000b4
:106ce00000000000000000000000000000000000a4
:106cf0000000000000000000000000000000000094
:106d00000000000000000000000000000000000083
:106d10000000000000000000000000000000000073
:106d20000000000000000000000000000000000063
:106d30000000000000000000000000000000000053
:106d40000000000000000000000000000000000043
:106d50000000000000000000000000000000000033
:106d60000000000000000000000000000000000023
:106d70000000000000000000000000000000000013
:106d80000000000000000000d402a900d422a900e5
:106d9000cac2bf004500de0061006000808474004c
:106da000cac2bf004600de0061006000000474003b
:106db00000000000000000000000000000000000d3
:106dc00000000000000000000000000000000000c3
:106dd00000000000000000000000000000000000b3
:106de00000000000000000000000000000000000a3
:106df0000000000000000000000000000000000093
:106e00000000000000000000000000000000000082
:106e10000000000000000000000000000000000072
:106e20000000000000000000000000000000000062
:106e30000000000000000000000000000000000052
:106e40000000000000000000000000000000000042
:106e50000000000000000000000000000000000032
:106e60000000000000000000000000000000000022
:106e70008984440008044400d402a800d422a80055
:106e80000000000000000000000000000000000002
:106e900000000000000000000000000000000000f2
:106ea00000000000000000000000000000000000e2
:106eb00000000000000000000000000000000000d2
:106ec00000000000000000000000000000000000c2
:106ed00000000000000000000000000000000000b2
:106ee00000000000000000000000000000000000a2
:106ef0000000000000000000000000000000000092
:106f00000000000000000000000000000000000081
:106f10000000000000000000000000000000000071
:106f20000000000000000000000000000000000061
:106f30000000000000000000000000000000000051
:106f4000d402a900d422a900cac2bf004500de00b5
:106f50006100600080847400cac2bf004600de0089
:106f600061006000000474000000000000000000e8
:106f70000000000000000000000000000000000011
:106f80000000000000000000000000000000000001
:106f900000000000000000000000000000000000f1
:106fa00000000000000000000000000000000000e1
:106fb00000000000000000000000000000000000d1
:106fc00000000000000000000000000000000000c1
:106fd00000000000000000000000000000000000b1
:106fe00000000000000000000000000000000000a1
:106ff0000000000000000000000000000000000091
:107000000000000000000000000000000000000080
:107010000000000000000000000000000000000070
:1070200000000000000000008984440008044400bf
:10703000d402a800d422a800000000000000000034
:107040000000000000000000000000000000000040
:107050000000000000000000000000000000000030
:107060000000000000000000000000000000000020
:107070000000000000000000000000000000000010
:107080000000000000000000000000000000000000
:1070900000000000000000000000000000000000f0
:1070a00000000000000000000000000000000000e0
:1070b00000000000000000000000000000000000d0
:1070c00000000000000000000000000000000000c0
:1070d00000000000000000000000000000000000b0
:1070e00000000000000000000000000000000000a0
:1070f0000000000000000000d402a900d422a90072
:10710000cac2bf004500de006100600080847400d8
:10711000cac2bf004600de006100600000047400c7
:10712000000000000000000000000000000000005f
:10713000000000000000000000000000000000004f
:10714000000000000000000000000000000000003f
:10715000000000000000000000000000000000002f
:10716000000000000000000000000000000000001f
:10717000000000000000000000000000000000000f
:1071800000000000000000000000000000000000ff
:1071900000000000000000000000000000000000ef
:1071a00000000000000000000000000000000000df
:1071b00000000000000000000000000000000000cf
:1071c00000000000000000000000000000000000bf
:1071d00000000000000000000000000000000000af
:1071e0008984440008044400d402a800d422a800e2
:1071f000000000000000000000000000000000008f
:10720000000000000000000000000000000000007e
:10721000000000000000000000000000000000006e
:10722000000000000000000000000000000000005e
:10723000000000000000000000000000000000004e
:10724000000000000000000000000000000000003e
:10725000000000000000000000000000000000002e
:10726000000000000000000000000000000000001e
:10727000000000000000000000000000000000000e
:1072800000000000000000000000000000000000fe
:1072900000000000000000000000000000000000ee
:1072a00000000000000000000000000000000000de
:1072b000d402a900d422a900cac2bf004500de0042
:1072c0006100600080847400cac2bf004600de0016
:1072d0006100600000047400000000000000000075
:1072e000000000000000000000000000000000009e
:1072f000000000000000000000000000000000008e
:10730000000000000000000000000000000000007d
:10731000000000000000000000000000000000006d
:10732000000000000000000000000000000000005d
:10733000000000000000000000000000000000004d
:10734000000000000000000000000000000000003d
:10735000000000000000000000000000000000002d
:10736000000000000000000000000000000000001d
:10737000000000000000000000000000000000000d
:1073800000000000000000000000000000000000fd
:10739000000000000000000089844400080444004c
:1073a000d0002000050d0700d402a800d422a800b8
:1073b00000000000000000000000000000000000cd
:1073c00000000000000000000000000000000000bd
:1073d00000000000000000000000000000000000ad
:1073e000000000000000000000000000000000009d
:1073f000000000000000000000000000000000008d
:10740000000000000000000000000000000000007c
:10741000000000000000000000000000000000006c
:10742000000000000000000000000000000000005c
:10743000000000000000000000000000000000004c
:10744000000000000000000000000000000000003c
:10745000000000000000000000000000000000002c
:10746000000000000000000000000000000000001c
:10747000d402a900d422a900cac2bf004500de0080
:107480006100600080847400cac2bf004600de0054
:1074900061006000000474000000000000000000b3
:1074a00000000000000000000000000000000000dc
:1074b00000000000000000000000000000000000cc
:1074c00000000000000000000000000000000000bc
:1074d00000000000000000000000000000000000ac
:1074e000000000000000000000000000000000009c
:1074f000000000000000000000000000000000008c
:10750000000000000000000000000000000000007b
:10751000000000000000000000000000000000006b
:10752000000000000000000000000000000000005b
:10753000000000000000000000000000000000004b
:10754000000000000000000000000000000000003b
:10755000000000000000000089844400080444008a
:10756000d402a800d422a8000000000000000000ff
:10757000000000000000000000000000000000000b
:1075800000000000000000000000000000000000fb
:1075900000000000000000000000000000000000eb
:1075a00000000000000000000000000000000000db
:1075b00000000000000000000000000000000000cb
:1075c00000000000000000000000000000000000bb
:1075d00000000000000000000000000000000000ab
:1075e000000000000000000000000000000000009b
:1075f000000000000000000000000000000000008b
:10760000000000000000000000000000000000007a
:10761000000000000000000000000000000000006a
:107620000000000000000000d402a900d422a9003c
:10763000cac2bf004500de006100600080847400a3
:10764000cac2bf004600de00610060000004740092
:10765000000000000000000000000000000000002a
:10766000000000000000000000000000000000001a
:10767000000000000000000000000000000000000a
:1076800000000000000000000000000000000000fa
:1076900000000000000000000000000000000000ea
:1076a00000000000000000000000000000000000da
:1076b00000000000000000000000000000000000ca
:1076c00000000000000000000000000000000000ba
:1076d00000000000000000000000000000000000aa
:1076e000000000000000000000000000000000009a
:1076f000000000000000000000000000000000008a
:107700000000000000000000000000000000000079
:107710008984440008044400d402a800d422a800ac
:107720000000000000000000000000000000000059
:107730000000000000000000000000000000000049
:107740000000000000000000000000000000000039
:107750000000000000000000000000000000000029
:107760000000000000000000000000000000000019
:107770000000000000000000000000000000000009
:1077800000000000000000000000000000000000f9
:1077900000000000000000000000000000000000e9
:1077a00000000000000000000000000000000000d9
:1077b00000000000000000000000000000000000c9
:1077c00000000000000000000000000000000000b9
:1077d00000000000000000000000000000000000a9
:1077e000d402a900d422a900cac2bf004500de000d
:1077f0006100600080847400cac2bf004600de00e1
:10780000610060000004740000000000000000003f
:107810000000000000000000000000000000000068
:107820000000000000000000000000000000000058
:107830000000000000000000000000000000000048
:107840000000000000000000000000000000000038
:107850000000000000000000000000000000000028
:107860000000000000000000000000000000000018
:107870000000000000000000000000000000000008
:1078800000000000000000000000000000000000f8
:1078900000000000000000000000000000000000e8
:1078a00000000000000000000000000000000000d8
:1078b00000000000000000000000000000000000c8
:1078c0000000000000000000898444000804440017
:1078d000d402a800d422a80000000000000000008c
:1078e0000000000000000000000000000000000098
:1078f0000000000000000000000000000000000088
:107900000000000000000000000000000000000077
:107910000000000000000000000000000000000067
:107920000000000000000000000000000000000057
:107930000000000000000000000000000000000047
:107940000000000000000000000000000000000037
:107950000000000000000000000000000000000027
:107960000000000000000000000000000000000017
:107970000000000000000000000000000000000007
:1079800000000000000000000000000000000000f7
:107990000000000000000000d402a900d422a900c9
:1079a000cac2bf004500de00610060008084740030
:1079b000cac2bf004600de0061006000000474001f
:1079c00000000000000000000000000000000000b7
:1079d00000000000000000000000000000000000a7
:1079e0000000000000000000000000000000000097
:1079f0000000000000000000000000000000000087
:107a00000000000000000000000000000000000076
:107a10000000000000000000000000000000000066
:107a20000000000000000000000000000000000056
:107a30000000000000000000000000000000000046
:107a40000000000000000000000000000000000036
:107a50000000000000000000000000000000000026
:107a60000000000000000000000000000000000016
:107a70000000000000000000000000000000000006
:107a80008984440008044400d402a800d422a80039
:107a900000000000000000000000000000000000e6
:107aa00000000000000000000000000000000000d6
:107ab00000000000000000000000000000000000c6
:107ac00000000000000000000000000000000000b6
:107ad00000000000000000000000000000000000a6
:107ae0000000000000000000000000000000000096
:107af0000000000000000000000000000000000086
:107b00000000000000000000000000000000000075
:107b10000000000000000000000000000000000065
:107b20000000000000000000000000000000000055
:107b30000000000000000000000000000000000045
:107b40000000000000000000000000000000000035
:107b5000d402a900d422a900cac2bf004500de0099
:107b60006100600080847400cac2bf004600de006d
:107b700061006000000474000000000000000000cc
:107b800000000000000000000000000000000000f5
:107b900000000000000000000000000000000000e5
:107ba00000000000000000000000000000000000d5
:107bb00000000000000000000000000000000000c5
:107bc00000000000000000000000000000000000b5
:107bd00000000000000000000000000000000000a5
:107be0000000000000000000000000000000000095
:107bf0000000000000000000000000000000000085
:107c00000000000000000000000000000000000074
:107c10000000000000000000000000000000000064
:107c20000000000000000000000000000000000054
:107c300000000000000000008984440008044400a3
:107c4000d402a800d422a800000000000000000018
:107c50000000000000000000000000000000000024
:107c60000000000000000000000000000000000014
:107c70000000000000000000000000000000000004
:107c800000000000000000000000000000000000f4
:107c900000000000000000000000000000000000e4
:107ca00000000000000000000000000000000000d4
:107cb00000000000000000000000000000000000c4
:107cc00000000000000000000000000000000000b4
:107cd00000000000000000000000000000000000a4
:107ce0000000000000000000000000000000000094
:107cf0000000000000000000000000000000000084
:107d00000000000000000000d402a900d422a90055
:107d1000cac2bf004500de006100600080847400bc
:107d2000cac2bf004600de006100600000047400ab
:107d30000000000000000000000000000000000043
:107d40000000000000000000000000000000000033
:107d50000000000000000000000000000000000023
:107d60000000000000000000000000000000000013
:107d70000000000000000000000000000000000003
:107d800000000000000000000000000000000000f3
:107d900000000000000000000000000000000000e3
:107da00000000000000000000000000000000000d3
:107db00000000000000000000000000000000000c3
:107dc00000000000000000000000000000000000b3
:107dd00000000000000000000000000000000000a3
:107de0000000000000000000000000000000000093
:107df0008984440008044400d402a800d422a800c6
:107e00000000000000000000000000000000000072
:107e10000000000000000000000000000000000062
:107e20000000000000000000000000000000000052
:107e30000000000000000000000000000000000042
:107e40000000000000000000000000000000000032
:107e50000000000000000000000000000000000022
:107e60000000000000000000000000000000000012
:107e70000000000000000000000000000000000002
:107e800000000000000000000000000000000000f2
:107e900000000000000000000000000000000000e2
:107ea00000000000000000000000000000000000d2
:107eb00000000000000000000000000000000000c2
:107ec000d402a900d422a900cac2bf004500de0026
:107ed0006100600080847400cac2bf004600de00fa
:107ee0006100600000047400000000000000000059
:107ef0000000000000000000000000000000000082
:107f00000000000000000000000000000000000071
:107f10000000000000000000000000000000000061
:107f20000000000000000000000000000000000051
:107f30000000000000000000000000000000000041
:107f40000000000000000000000000000000000031
:107f50000000000000000000000000000000000021
:107f60000000000000000000000000000000000011
:107f70000000000000000000000000000000000001
:107f800000000000000000000000000000000000f1
:107f900000000000000000000000000000000000e1
:107fa0000000000000000000898444000804440030
:107fb000d402a800d422a8000000000000000000a5
:107fc00000000000000000000000000000000000b1
:107fd00000000000000000000000000000000000a1
:107fe0000000000000000000000000000000000091
:107ff0000000000000000000000000000000000081
:108000000000000000000000000000000000000070
:108010000000000000000000000000000000000060
:108020000000000000000000000000000000000050
:108030000000000000000000000000000000000040
:108040000000000000000000000000000000000030
:108050000000000000000000000000000000000020
:108060000000000000000000000000000000000010
:108070000000000000000000d402a900d422a900e2
:10808000cac2bf004500de00610060008084740049
:10809000cac2bf004600de0061006000000174003b
:1080a00000000000000000000000000000000000d0
:1080b00000000000000000000000000000000000c0
:1080c00000000000000000000000000000000000b0
:1080d00000000000000000000000000000000000a0
:1082d000d442a800cc62a80000000000000000000a
:1082e000000000000000000000000000000000008e
:1082f000000000000000000000000000000000007e
:10830000000000000000000000000000000000006d
:10831000000000000000000000000000000000005d
:10832000000000000000000000000000000000004d
:10833000000000000000000000000000000000003d
:10834000000000000000000000000000000000002d
:10835000000000000000000000000000000000001d
:10836000000000000000000000000000000000000d
:108370000000000000000000d402a900d422a900df
:10838000c8a2a900cea2a800c8c2a900cec2a80057
:10839000c248de00e3846400e18f54001a0032001a
:1083a00096eaab001b003a006c2bec00c210de001a
:1083b0002156880063006100e10f50001b0032006d
:1083c00096eaab001c003a006e2bec00c05b80000c
:1083d0008000400002b72000d35b8000833079002a
:1083e000e4804000e35b8000833079000000e80017
:1083f000e10f5000010034000000eb00c05b88007a
:108400004f04be0000000600e0fd2300808f5000f6
:10841000e3ff3e00d15b8800c210de0021568800d9
:1084200063006100e10f5000e5ff3a00e0fd23002a
:10843000808f5000e2ff3e00e15b8800e3ff3700e1
:10844000c3c2bf006100600000000600c004070056
:108450000000050000000600890bab0001003a0097
:108460000000060010c0b30068ebb700225b80007c
:10847000b15a8000a0a320005301070060a920008a
:10848000a1a3200025000900315878000000060053
:10849000889fbe00100020004af107009054880019
:1084a000100020004bf10700705488000000eb0022
:1084b00048f10700105488000000eb0041f107006c
:1084c00080548800300020002ceb070020548800e6
:1084d0002000200029eb0700305488000000eb004a
:1084e00026eb0700405488001000200023eb070013
:1084f000505488000000eb004107070060548800da
:1085000018568000c0ef070080047800c7ef07000e
:1085100009047400000474000820a000a854880016
:10852000cbef07000000e00006003500c8ef0700b1
:10853000f053880020568000005488004f04be008d
:1085400000000600c2ef07000000ea00f0538800b8
:1085500020568000005488004f04be000000060032
:10856000f8ff37000800fa00c9ff0700820020006a
:10857000019c200068805700130107004fb8970046
:10858000dfb897006fb99700ffb99700b053880024
:10859000c1538800d2538800e3538800e19f200034
:1085a00062a720001f000900b2587800325b8000eb
:1085b000a15a8000e09f2000310107000080fa00ee
:1085c000000006008540a9009540a9004222ef0066
:1085d00042a2a80042c2bf00c1cfb3000140600068
:1085e0000014a00042e2b70042c2bf0031ceb30087
:1085f000014060008041b30042e2b70042c2a800df
:108600004302a9004322a9004342a90040c2a90095
:1086100041e2a800d4c2a800000006000200fa004f
:10862000881f78000040eb00c0ff9f00c8032000b7
:10863000385b8800285b8800020220008000eb0085
:1086400060a72000c6ea0700620220008000eb005d
:1086500060a92000c2ea0700080178008000eb0052
:10866000a0a32000beea0700080178008000eb000c
:10867000e09f2000baea0700c42aef00c22aef00f8
:10868000c02aef00bc2aef00be2aef008540a900f7
:108690009540a9004222ef0042a2a80042c2bf00ba
:1086a000c1cfb300014060000014a00042e2b70057
:1086b00042c2bf0031ceb300014060008041b30030
:1086c00042e2b70042c2a8004302a9004322a90027
:1086d0004342a90040c2a90041e2a800d4c2a800b8
:1086e0008200a8008220a8008240a800d4c2a8006e
:1086f0008400a900120020000114200064805700ab
:10870000050107004ff89700e54f5000f9ff3a00c8
:10871000120020005100200020b62000fe000700bb
:108720000000eb00c90107009400a800f80307004f
:108730004f0478000080fa00000006003600f800c0
:10874000809fbe00829fbe00849fbe00869fbe00a9
:108750000800fa00d4c2a8008400a9005d00070048
:10876000634be200040032006a4be20009003a0069
:10877000694be20015003a000080fa004f03be008a
:108780004f02be004f01be004f00be003600f90090
:1087900000400600890bab00f5ff320010c0b300ab
:1087a00068ebb700225b8000b15a8000a0a32000d4
:1087b0008500070060a92000a1a320002500090072
:1087c00031587800694be200ebff320030ff0700c0
:1087d00082002000019c2000688057007a0007007a
:1087e0004fb89700dfb897006fb99700ffb99700af
:1087f000b0538800c1538800d2538800e3538800e7
:10880000e19f200062a720001f000900b2587800f5
:10881000325b8000a15a8000e09f20009800070092
:108820000080fa004f03be004f02be004f01be00a1
:108830004f00be003600f90000400600d5ff3700ab
:108840000000050000000500000005000000050014
:108850000000050000000500000005009400a900cc
:10886000d4c2a9008540a90000042000401288005d
:1088700085c0bf000028a300fdff32004012800029
:1088800088ebb7008540a90020072000401288002f
:1088900085c0bf000028a300fdff32004012800009
:1088a00089ebb7008540a900f00f20004012880036
:1088b00085c0bf000028a300fdff320040128000e9
:1088c0007eebb7008540a900d4c2a8009400a800a0
:1088d00000000600d4c2a9008540a9004822ef008c
:1088e00085c0bf000028a300fdff320040128000b9
:1088f00088ebb7008540a9002000200040128800c6
:1089000085c0bf000028a300fdff32004012800098
:1089100089ebb7008540a900d4c2a800000006007a
:108920004300dd008180fb0081007000d4c2a900fb
:108930008540a9004808de004012880085c0bf00bd
:108940000028a300fdff32004012800088ebb70032
:108950008540a9000180fb004012880085c0bf004f
:108960000028a300fdff32004012800089ebb70011
:108970008540a900000006004300dd008180fb0067
:1089800081007000d4c2a9008540a9004808de001b
:108990004012880085c0bf000028a300fdff320000
:1089a000401280008540a9000180fb004012880031
:1089b00085c0bf000028a300fdff320040128000e8
:1089c0008540a9000000060080017800c308dd0092
:1089d0000110a000d4c2a9008540a9004808de000b
:1089e0004012880085c0bf000028a300fdff3200b0
:1089f000401280008540a9000180fb0040128800e1
:108a000085c0bf000028a300fdff32004012800097
:108a10008540a9000200e900e10f4000110032008a
:108a2000800078000042eb000081eb000100e000d4
:108a30000f003a0000c2eb00f00f20008540a900b3
:108a40004012880085c0bf000028a300fdff32004f
:108a500040128000805978008100e900810f5100a8
:108a6000f2ff3a008540a900d4c2a8000000060029
:108a70000480fb008540a90040128800f1ff370008
:108a800080017800c308dd000120a000d4c2a90045
:108a90008540a9004808de004012880085c0bf005c
:108aa0000028a300fdff3200401280008540a9008d
:108ab0000180fb004012880085c0bf000028a30091
:108ac000fdff3200401280008540a9000200e9004d
:108ad000e10f40000d0032008300780003004000e9
:108ae0000001e8008540a9001180fb0040128800c9
:108af00085c0bf000028a300fdff320040128000a7
:108b00008100e800810f5100f6ff3a008540a9007e
:108b1000d4c2a80000000600000278000200e900ac
:108b2000e10f40002400320000804000f50f2000db
:108b30000001e8009400a900c309dd000310a000b3
:108b4000d4c2a9008540a9004818de004012880060
:108b500085c0bf000028a300fdff32004012800046
:108b600088ebb7008540a9000380fb004012880015
:108b700085c0bf000028a300fdff32004012800026
:108b800089ebb7008540a9004512880085c0bf0069
:108b90000028a300fdff320040128000005a780038
:108ba0009400a800d4c2a8008100e8008540a90074
:108bb000828f5000dfff3a0000000600800278003c
:108bc0000200e000250032000002eb009400a90042
:108bd000c309dd000320a000d4c2a9008540a9007c
:108be0004818de004012880085c0bf000028a3009e
:108bf000fdff32004012800088ebb7008540a900dd
:108c00000380fb004012880085c0bf000028a3003d
:108c1000fdff32004012800089ebb7008540a900bb
:108c20008540a90064c07a000080fb0040128800e3
:108c300085c0bf000028a300fdff32004012800065
:108c40009400a8008100e8008540a900d4c2a800d3
:108c50000402e800840f5100dcff3a000000060027
:108c60009400a900d4c2a9008540a90000042000f6
:108c70004012880085c0bf000028a300fdff32001d
:108c80004012800088ebb7008540a9002007200033
:108c90004012880085c0bf000028a300fdff3200fd
:108ca0004012800089ebb7008540a900f00f20003a
:108cb0004012880085c0bf000028a300fdff3200dd
