:020000040000fa
:080000000002040000000000f2
:020000040000fa
:100400008fa220000e7f22000e0188000000000055
:100410000c000700403123000100200011000700fc
:10042000000020000000e000020032000000020096
:10043000000000007a330200000000000040da00f3
:100440000000fe004440a900000020000000e00081
:100450000300320000002000a00188004440a800f2
:100460000000060091018800800078000000eb0089
:1004700015003700e280400032a0b4009101ba00bc
:10048000e280400032a0b4009102ba00e280400055
:1004900032a0b4000002eb00472bde00f507b200eb
:1004a000602ce10004003a000059eb008301e900f0
:1004b000fdff3e00040037006128e100010032002a
:1004c0000082eb00040007001101ba000200e00006
:1004d000e8ff3a00000006003159ba008301e90044
:1004e0000c0032002159ba008301e90008003200f3
:1004f0000400e00003003a00e280400032a0b400b3
:10050000f5ff370011d9ba008301e900faff3a007c
:100510008100e800e180400032a0b4000000060045
:100520000040da000000fe006022b8000602200051
:100530000000d0008180d2000482d2008582d200e7
:100540000000a0000202520083825a000300310022
:100550000202420083824a000000a1000603e90073
:10056000f3ff3a00000006008001eb0002003700b4
:10057000817178008301e800828f5100fcff3a000e
:040580000000060071
:020000040000fa
:0200000401f009
:04000800ffff0000f6
:020000040000fa
:0200000401f009
:04000c00fbff0000f6
:020000040000fa
:0200000401f009
:040010009cff000051
:020000040000fa
:0200000401f009
:040014007fff00006a
:020000040000fa
:0200000401f009
:04001800e8ff0000fd
:020000040000fa
:0200000401f009
:04001c00deff000003
:020000040000fa
:1000080090020000900200009002000090020000a0
:100018009002000090020000900200009002000090
:10002800ba2f000090020000900200009002000029
:100038009002000090020000900200009002000070
:10004800f0330000900200009002000090020000cf
:1000580090020000023200009002000090020000ae
:10006800900200009002000090020000a4320000fc
:100078009002000090020000900200009002000030
:100088009002000090020000900200009002000020
:100098009002000090020000900200009002000010
:1000a8009002000090020000900200009002000000
:1000b80090020000900200009002000090020000f0
:1000c80090020000900200009002000090020000e0
:1000d80090020000900200009002000090020000d0
:1000e80090020000900200009002000090020000c0
:1000f80090020000900200009002000090020000b0
:1001080090020000982d000090020000900200006c
:10011800900200009002000090020000900200008f
:10012800900200009002000090020000900200007f
:10013800900200009002000090020000900200006f
:10014800900200009002000090020000900200005f
:10015800900200009002000090020000900200004f
:10016800900200009002000090020000900200003f
:10017800900200009002000090020000900200002f
:10018800900200009002000090020000900200001f
:10019800900200009002000090020000900200000f
:1001a80090020000900200009002000090020000ff
:1001b80090020000900200009002000090020000ef
:1001c80090020000900200009002000090020000df
:1001d80090020000900200009002000090020000cf
:1001e80090020000900200009002000090020000bf
:0801f8009002000090020000db
:020000040000fa
:10020800900200009002000090020000900200009e
:10021800900200009002000090020000900200008e
:10022800ba2f000090020000900200009002000027
:10023800900200009002000090020000900200006e
:10024800f0330000900200009002000090020000cd
:1002580090020000023200009002000090020000ac
:10026800900200009002000090020000a4320000fa
:10027800900200009002000090020000900200002e
:10028800900200009002000090020000900200001e
:10029800900200009002000090020000900200000e
:1002a80090020000900200009002000090020000fe
:1002b80090020000900200009002000090020000ee
:1002c80090020000900200009002000090020000de
:1002d80090020000900200009002000090020000ce
:1002e80090020000900200009002000090020000be
:1002f80090020000900200009002000090020000ae
:1003080090020000982d000090020000900200006a
:10031800900200009002000090020000900200008d
:10032800900200009002000090020000900200007d
:10033800900200009002000090020000900200006d
:10034800900200009002000090020000900200005d
:10035800900200009002000090020000900200004d
:10036800900200009002000090020000900200003d
:10037800900200009002000090020000900200002d
:10038800900200009002000090020000900200001d
:10039800900200009002000090020000900200000d
:1003a80090020000900200009002000090020000fd
:1003b80090020000900200009002000090020000ed
:1003c80090020000900200009002000090020000dd
:1003d80090020000900200009002000090020000cd
:1003e80090020000900200009002000090020000bd
:0803f8009002000090020000d9
:020000040000fa
:1005840000004000219f20006080780000000600e9
:100594004200dd00619f2000010240006011b800ac
:1005a4008000eb003400780000014100e081490044
:1005b4008100e800e28f5000faff3a008380d10006
:1005c4000280d30000000600000178006380600010
:1005d400e10f50000c00320088e9ab0005003a003e
:1005e40002004100219f2000010040001008e800a3
:1005f4000000060002014100c208de0000a0200045
:100604000131780000000600c209de00e0fd23008d
:10061400808f5100f0ff3e008200410000a02000c6
:100624008330780000000600cc82a800cc62a800c9
:100634000000eb0003a02000229f2000800078002f
:1006440001b07900013079000080e800e40f500027
:10065400fbff3a00000006000000400001a020005b
:100664006080780000000600889fbe00c902a900cf
:10067400cf02a800c8c2a900cec2a800cc82a9009b
:10068400cc62a900cd22a900d422a9000000000058
:100694000000000000000000000000000000000056
:1006a4000000000000000000000000000000000046
:1006b4000000000000000000000000000000000036
:1006c4000000000000000000000000000000000026
:1006d4000000000000000000000000000000000016
:1006e4000000000000000000000000000000000006
:1006f40000000000000000000000000000000000f6
:1007040000000000000000000000000000000000e5
:1007140000000000000000000000000000000000d5
:1007240000000000000000000000000000000000c5
:1007340000000000000000000000000000000000b5
:1007440000000000000000000000000000000000a5
:100754000000000000000000000000000000000095
:100764000000000000000000000000000000000085
:100774000000000000000000000000000000000075
:100784000000000000000000000000000000000065
:100794000000000000000000000000000000000055
:1007a4000000000000000000000000000000000045
:1007b4000000000000000000000000000000000035
:1007c4000000000000000000000000000000000025
:1007d4000000000000000000000000000000000015
:1007e4000000000000000000000000000000000005
:1007f400000000000000000000000000cd22a8005e
:10080400d422a800cd02a800ccc2a8000000000099
:1008140000000000000000000000000000000000d4
:1008240000000000000000000000000000000000c4
:1008340000000000000000000000000000000000b4
:1008440000000000000000000000000000000000a4
:100854000000000000000000000000000000000094
:100864000000000000000000000000000000000084
:100874000000000000000000000000000000000074
:100884000000000000000000000000000000000064
:100894000000000000000000000000000000000054
:1008a4000000000000000000000000000000000044
:1008b4000000000000000000000000000000000034
:1008c400000000000000000000000000cd22a9008c
:1008d400d422a90000000000000000000000000075
:1008e4000000000000000000000000000000000004
:1008f40000000000000000000000000000000000f4
:1009040000000000000000000000000000000000e3
:1009140000000000000000000000000000000000d3
:1009240000000000000000000000000000000000c3
:1009340000000000000000000000000000000000b3
:1009440000000000000000000000000000000000a3
:100954000000000000000000000000000000000093
:100964000000000000000000000000000000000083
:100974000000000000000000000000000000000073
:100984000000000000000000000000000000000063
:1009940000000000cd22a800d422a800cd02a900a6
:1009a400ccc2a9000000000000000000000000000c
:1009b4000000000000000000000000000000000033
:1009c4000000000000000000000000000000000023
:1009d4000000000000000000000000000000000013
:1009e4000000000000000000000000000000000003
:1009f40000000000000000000000000000000000f3
:100a040000000000000000000000000000000000e2
:100a140000000000000000000000000000000000d2
:100a240000000000000000000000000000000000c2
:100a340000000000000000000000000000000000b2
:100a440000000000000000000000000000000000a2
:100a54000000000000000000000000000000000092
:100a640000000000cd22a900d422a900000000004b
:100a74000000000000000000000000000000000072
:100a84000000000000000000000000000000000062
:100a94000000000000000000000000000000000052
:100aa4000000000000000000000000000000000042
:100ab4000000000000000000000000000000000032
:100ac4000000000000000000000000000000000022
:100ad4000000000000000000000000000000000012
:100ae4000000000000000000000000000000000002
:100af40000000000000000000000000000000000f2
:100b040000000000000000000000000000000000e1
:100b140000000000000000000000000000000000d1
:100b2400000000000000000000000000cd22a8002a
:100b3400d422a800cd02a800ccc2a8000000000066
:100b440000000000000000000000000000000000a1
:100b54000000000000000000000000000000000091
:100b64000000000000000000000000000000000081
:100b74000000000000000000000000000000000071
:100b84000000000000000000000000000000000061
:100b94000000000000000000000000000000000051
:100ba4000000000000000000000000000000000041
:100bb4000000000000000000000000000000000031
:100bc4000000000000000000000000000000000021
:100bd4000000000000000000000000000000000011
:100be4000000000000000000000000000000000001
:100bf400000000000000000000000000cd22a90059
:100c0400d422a90000000000000000000000000041
:100c140000000000000000000000000000000000d0
:100c240000000000000000000000000000000000c0
:100c340000000000000000000000000000000000b0
:100c440000000000000000000000000000000000a0
:100c54000000000000000000000000000000000090
:100c64000000000000000000000000000000000080
:100c74000000000000000000000000000000000070
:100c84000000000000000000000000000000000060
:100c94000000000000000000000000000000000050
:100ca4000000000000000000000000000000000040
:100cb4000000000000000000000000000000000030
:100cc40000000000cd22a800d422a800cd02a90073
:100cd400ccc2a900000000000000000000000000d9
:100ce4000000000000000000000000000000000000
:100cf40000000000000000000000000000000000f0
:100d040000000000000000000000000000000000df
:100d140000000000000000000000000000000000cf
:100d240000000000000000000000000000000000bf
:100d340000000000000000000000000000000000af
:100d4400000000000000000000000000000000009f
:100d5400000000000000000000000000000000008f
:100d6400000000000000000000000000000000007f
:100d7400000000000000000000000000000000006f
:100d8400000000000000000000000000000000005f
:100d940000000000cd22a900d422a9000000000018
:100da400000000000000000000000000000000003f
:100db400000000000000000000000000000000002f
:100dc400000000000000000000000000000000001f
:100dd400000000000000000000000000000000000f
:100de40000000000000000000000000000000000ff
:100df40000000000000000000000000000000000ef
:100e040000000000000000000000000000000000de
:100e140000000000000000000000000000000000ce
:100e240000000000000000000000000000000000be
:100e340000000000000000000000000000000000ae
:100e4400000000000000000000000000000000009e
:100e5400000000000000000000000000cd22a800f7
:100e6400d422a800cd02a800ccc2a8000000000033
:100e7400000000000000000000000000000000006e
:100e8400000000000000000000000000000000005e
:100e9400000000000000000000000000000000004e
:100ea400000000000000000000000000000000003e
:100eb400000000000000000000000000000000002e
:100ec400000000000000000000000000000000001e
:100ed400000000000000000000000000000000000e
:100ee40000000000000000000000000000000000fe
:100ef40000000000000000000000000000000000ee
:100f040000000000000000000000000000000000dd
:100f140000000000000000000000000000000000cd
:100f2400000000000000000000000000cd22a90025
:100f3400d422a9000000000000000000000000000e
:100f4400000000000000000000000000000000009d
:100f5400000000000000000000000000000000008d
:100f6400000000000000000000000000000000007d
:100f7400000000000000000000000000000000006d
:100f8400000000000000000000000000000000005d
:100f9400000000000000000000000000000000004d
:100fa400000000000000000000000000000000003d
:100fb400000000000000000000000000000000002d
:100fc400000000000000000000000000000000001d
:100fd400000000000000000000000000000000000d
:100fe40000000000000000000000000000000000fd
:100ff40000000000cd22a800d422a800cd02a90040
:10100400ccc2a900000000000000000000000000a5
:1010140000000000000000000000000000000000cc
:1010240000000000000000000000000000000000bc
:1010340000000000000000000000000000000000ac
:10104400000000000000000000000000000000009c
:10105400000000000000000000000000000000008c
:10106400000000000000000000000000000000007c
:10107400000000000000000000000000000000006c
:10108400000000000000000000000000000000005c
:10109400000000000000000000000000000000004c
:1010a400000000000000000000000000000000003c
:1010b400000000000000000000000000000000002c
:1010c40000000000cd22a900d422a90000000000e5
:1010d400000000000000000000000000000000000c
:1010e40000000000000000000000000000000000fc
:1010f40000000000000000000000000000000000ec
:1011040000000000000000000000000000000000db
:1011140000000000000000000000000000000000cb
:1011240000000000000000000000000000000000bb
:1011340000000000000000000000000000000000ab
:10114400000000000000000000000000000000009b
:10115400000000000000000000000000000000008b
:10116400000000000000000000000000000000007b
:10117400000000000000000000000000000000006b
:10118400000000000000000000000000cd22a800c4
:10119400d422a800cd02a800ccc2a8000000000000
:1011a400000000000000000000000000000000003b
:1011b400000000000000000000000000000000002b
:1011c400000000000000000000000000000000001b
:1011d400000000000000000000000000000000000b
:1011e40000000000000000000000000000000000fb
:1011f40000000000000000000000000000000000eb
:1012040000000000000000000000000000000000da
:1012140000000000000000000000000000000000ca
:1012240000000000000000000000000000000000ba
:1012340000000000000000000000000000000000aa
:10124400000000000000000000000000000000009a
:10125400000000000000000000000000cd22a900f2
:10126400d422a900000000000000000000000000db
:10127400000000000000000000000000000000006a
:10128400000000000000000000000000000000005a
:10129400000000000000000000000000000000004a
:1012a400000000000000000000000000000000003a
:1012b400000000000000000000000000000000002a
:1012c400000000000000000000000000000000001a
:1012d400000000000000000000000000000000000a
:1012e40000000000000000000000000000000000fa
:1012f40000000000000000000000000000000000ea
:1013040000000000000000000000000000000000d9
:1013140000000000000000000000000000000000c9
:1013240000000000cd22a800d422a800cd02a9000c
:10133400ccc2a90000000000000000000000000072
:101344000000000000000000000000000000000099
:101354000000000000000000000000000000000089
:101364000000000000000000000000000000000079
:101374000000000000000000000000000000000069
:101384000000000000000000000000000000000059
:101394000000000000000000000000000000000049
:1013a4000000000000000000000000000000000039
:1013b4000000000000000000000000000000000029
:1013c4000000000000000000000000000000000019
:1013d4000000000000000000000000000000000009
:1013e40000000000000000000000000000000000f9
:1013f40000000000cd22a900d422a90000000000b2
:1014040000000000000000000000000000000000d8
:1014140000000000000000000000000000000000c8
:1014240000000000000000000000000000000000b8
:1014340000000000000000000000000000000000a8
:101444000000000000000000000000000000000098
:101454000000000000000000000000000000000088
:101464000000000000000000000000000000000078
:101474000000000000000000000000000000000068
:101484000000000000000000000000000000000058
:101494000000000000000000000000000000000048
:1014a4000000000000000000000000000000000038
:1014b400000000000000000000000000d000200038
:1014c40001130700cd22a800d422a800cd02a80051
:1014d400ccc2a800000000000000000000000000d2
:1014e40000000000000000000000000000000000f8
:1014f40000000000000000000000000000000000e8
:1015040000000000000000000000000000000000d7
:1015140000000000000000000000000000000000c7
:1015240000000000000000000000000000000000b7
:1015340000000000000000000000000000000000a7
:101544000000000000000000000000000000000097
:101554000000000000000000000000000000000087
:101564000000000000000000000000000000000077
:101574000000000000000000000000000000000067
:101584000000000000000000000000000000000057
:1015940000000000cd22a900d422a9000000000010
:1015a4000000000000000000000000000000000037
:1015b4000000000000000000000000000000000027
:1015c4000000000000000000000000000000000017
:1015d4000000000000000000000000000000000007
:1015e40000000000000000000000000000000000f7
:1015f40000000000000000000000000000000000e7
:1016040000000000000000000000000000000000d6
:1016140000000000000000000000000000000000c6
:1016240000000000000000000000000000000000b6
:1016340000000000000000000000000000000000a6
:101644000000000000000000000000000000000096
:10165400000000000000000000000000cd22a800ef
:10166400d422a800cd02a800ccc2a800000000002b
:101674000000000000000000000000000000000066
:101684000000000000000000000000000000000056
:101694000000000000000000000000000000000046
:1016a4000000000000000000000000000000000036
:1016b4000000000000000000000000000000000026
:1016c4000000000000000000000000000000000016
:1016d4000000000000000000000000000000000006
:1016e40000000000000000000000000000000000f6
:1016f40000000000000000000000000000000000e6
:1017040000000000000000000000000000000000d5
:1017140000000000000000000000000000000000c5
:10172400000000000000000000000000cd22a9001d
:10173400d422a90000000000000000000000000006
:101744000000000000000000000000000000000095
:101754000000000000000000000000000000000085
:101764000000000000000000000000000000000075
:101774000000000000000000000000000000000065
:101784000000000000000000000000000000000055
:101794000000000000000000000000000000000045
:1017a4000000000000000000000000000000000035
:1017b4000000000000000000000000000000000025
:1017c4000000000000000000000000000000000015
:1017d4000000000000000000000000000000000005
:1017e40000000000000000000000000000000000f5
:1017f40000000000cd22a800d422a800cd02a80039
:10180400ccc2a8000000000000000000000000009e
:1018140000000000000000000000000000000000c4
:1018240000000000000000000000000000000000b4
:1018340000000000000000000000000000000000a4
:101844000000000000000000000000000000000094
:101854000000000000000000000000000000000084
:101864000000000000000000000000000000000074
:101874000000000000000000000000000000000064
:101884000000000000000000000000000000000054
:101894000000000000000000000000000000000044
:1018a4000000000000000000000000000000000034
:1018b4000000000000000000000000000000000024
:1018c40000000000cd22a900d422a90000000000dd
:1018d4000000000000000000000000000000000004
:1018e40000000000000000000000000000000000f4
:1018f40000000000000000000000000000000000e4
:1019040000000000000000000000000000000000d3
:1019140000000000000000000000000000000000c3
:1019240000000000000000000000000000000000b3
:1019340000000000000000000000000000000000a3
:101944000000000000000000000000000000000093
:101954000000000000000000000000000000000083
:101964000000000000000000000000000000000073
:101974000000000000000000000000000000000063
:10198400000000000000000000000000cd22a800bc
:10199400d422a800cd02a800ccc2a80000000000f8
:1019a4000000000000000000000000000000000033
:1019b4000000000000000000000000000000000023
:1019c4000000000000000000000000000000000013
:1019d4000000000000000000000000000000000003
:1019e40000000000000000000000000000000000f3
:1019f40000000000000000000000000000000000e3
:101a040000000000000000000000000000000000d2
:101a140000000000000000000000000000000000c2
:101a240000000000000000000000000000000000b2
:101a340000000000000000000000000000000000a2
:101a44000000000000000000000000000000000092
:101a5400000000000000000000000000cd22a900ea
:101a6400d422a900000000000000000000000000d3
:101a74000000000000000000000000000000000062
:101a84000000000000000000000000000000000052
:101a94000000000000000000000000000000000042
:101aa4000000000000000000000000000000000032
:101ab4000000000000000000000000000000000022
:101ac4000000000000000000000000000000000012
:101ad4000000000000000000000000000000000002
:101ae40000000000000000000000000000000000f2
:101af40000000000000000000000000000000000e2
:101b040000000000000000000000000000000000d1
:101b140000000000000000000000000000000000c1
:101b240000000000cd22a800d422a800cd02a80005
:101b3400ccc2a8000000000000000000000000006b
:101b44000000000000000000000000000000000091
:101b54000000000000000000000000000000000081
:101b64000000000000000000000000000000000071
:101b74000000000000000000000000000000000061
:101b84000000000000000000000000000000000051
:101b94000000000000000000000000000000000041
:101ba4000000000000000000000000000000000031
:101bb4000000000000000000000000000000000021
:101bc4000000000000000000000000000000000011
:101bd4000000000000000000000000000000000001
:101be40000000000000000000000000000000000f1
:101bf40000000000cd22a900d422a90000000000aa
:101c040000000000000000000000000000000000d0
:101c140000000000000000000000000000000000c0
:101c240000000000000000000000000000000000b0
:101c340000000000000000000000000000000000a0
:101c44000000000000000000000000000000000090
:101c54000000000000000000000000000000000080
:101c64000000000000000000000000000000000070
:101c74000000000000000000000000000000000060
:101c84000000000000000000000000000000000050
:101c94000000000000000000000000000000000040
:101ca4000000000000000000000000000000000030
:101cb400000000000000000000000000cd22a80089
:101cc400d422a800cd02a800ccc2a80000000000c5
:101cd4000000000000000000000000000000000000
:101ce40000000000000000000000000000000000f0
:101cf40000000000000000000000000000000000e0
:101d040000000000000000000000000000000000cf
:101d140000000000000000000000000000000000bf
:101d240000000000000000000000000000000000af
:101d3400000000000000000000000000000000009f
:101d4400000000000000000000000000000000008f
:101d5400000000000000000000000000000000007f
:101d6400000000000000000000000000000000006f
:101d7400000000000000000000000000000000005f
:101d8400000000000000000000000000cd22a900b7
:101d9400d422a900000000000000000000000000a0
:101da400000000000000000000000000000000002f
:101db400000000000000000000000000000000001f
:101dc400000000000000000000000000000000000f
:101dd40000000000000000000000000000000000ff
:101de40000000000000000000000000000000000ef
:101df40000000000000000000000000000000000df
:101e040000000000000000000000000000000000ce
:101e140000000000000000000000000000000000be
:101e240000000000000000000000000000000000ae
:101e3400000000000000000000000000000000009e
:101e4400000000000000000000000000000000008e
:101e540000000000cd22a800d422a800cd02a800d2
:101e6400ccc2a80000000000000000000000000038
:101e7400000000000000000000000000000000005e
:101e8400000000000000000000000000000000004e
:101e9400000000000000000000000000000000003e
:101ea400000000000000000000000000000000002e
:101eb400000000000000000000000000000000001e
:101ec400000000000000000000000000000000000e
:101ed40000000000000000000000000000000000fe
:101ee40000000000000000000000000000000000ee
:101ef40000000000000000000000000000000000de
:101f040000000000000000000000000000000000cd
:101f140000000000000000000000000000000000bd
:101f240000000000cd22a900d422a9000000000076
:101f3400000000000000000000000000000000009d
:101f4400000000000000000000000000000000008d
:101f5400000000000000000000000000000000007d
:101f6400000000000000000000000000000000006d
:101f7400000000000000000000000000000000005d
:101f8400000000000000000000000000000000004d
:101f9400000000000000000000000000000000003d
:101fa400000000000000000000000000000000002d
:101fb400000000000000000000000000000000001d
:101fc400000000000000000000000000000000000d
:101fd40000000000000000000000000000000000fd
:101fe400000000000000000000000000cd22a80056
:101ff400d422a800cd02a800ccc2a8000000000092
:1020040000000000000000000000000000000000cc
:1020140000000000000000000000000000000000bc
:1020240000000000000000000000000000000000ac
:10203400000000000000000000000000000000009c
:10204400000000000000000000000000000000008c
:10205400000000000000000000000000000000007c
:10206400000000000000000000000000000000006c
:10207400000000000000000000000000000000005c
:10208400000000000000000000000000000000004c
:10209400000000000000000000000000000000003c
:1020a400000000000000000000000000000000002c
:1020b400000000000000000000000000cd22a90084
:1020c400d422a9000000000000000000000000006d
:1020d40000000000000000000000000000000000fc
:1020e40000000000000000000000000000000000ec
:1020f40000000000000000000000000000000000dc
:1021040000000000000000000000000000000000cb
:1021140000000000000000000000000000000000bb
:1021240000000000000000000000000000000000ab
:10213400000000000000000000000000000000009b
:10214400000000000000000000000000000000008b
:10215400000000000000000000000000000000007b
:10216400000000000000000000000000000000006b
:10217400000000000000000000000000000000005b
:102184000000000080002000cf0f0700c902a80053
:10219400cf02a900c8c2a800cec2a90080002000b6
:1021a400c90f0700cd22a800d422a8000000000017
:1021b400000000000000000000000000000000001b
:1021c400000000000000000000000000000000000b
:1021d40000000000000000000000000000000000fb
:1021e40000000000000000000000000000000000eb
:1021f40000000000000000000000000000000000db
:1022040000000000000000000000000000000000ca
:1022140000000000000000000000000000000000ba
:1022240000000000000000000000000000000000aa
:10223400000000000000000000000000000000009a
:10224400000000000000000000000000000000008a
:10225400000000000000000000000000000000007a
:10226400000000000000000000000000cd22a900d2
:10227400d422a900b92c200099447800e1c4640058
:10228400a82c2000184478004644de006104640051
:10229400000000000000000000000000000000003a
:1022a400000000000000000000000000000000002a
:1022b400000000000000000000000000000000001a
:1022c400000000000000000000000000000000000a
:1022d40000000000000000000000000000000000fa
:1022e40000000000000000000000000000000000ea
:1022f40000000000000000000000000000000000da
:1023040000000000000000000000000000000000c9
:1023140000000000000000000000000000000000b9
:1023240000000000000000000000000000000000a9
:102334000000000000000000000000000000000099
:102344000000000000000000000000000000000089
:102354008984fb00898444000884fb000804440049
:10236400cd22a800d422a800000000000000000034
:102374000000000000000000000000000000000059
:102384000000000000000000000000000000000049
:102394000000000000000000000000000000000039
:1023a4000000000000000000000000000000000029
:1023b4000000000000000000000000000000000019
:1023c4000000000000000000000000000000000009
:1023d40000000000000000000000000000000000f9
:1023e40000000000000000000000000000000000e9
:1023f40000000000000000000000000000000000d9
:1024040000000000000000000000000000000000c8
:1024140000000000000000000000000000000000b8
:102424000000000000000000cd22a900d422a90071
:10243400cbc2bf006100600080847400cac2bf00c8
:102444004600de006100600000047400000000002b
:102454000000000000000000000000000000000078
:102464000000000000000000000000000000000068
:102474000000000000000000000000000000000058
:102484000000000000000000000000000000000048
:102494000000000000000000000000000000000038
:1024a4000000000000000000000000000000000028
:1024b4000000000000000000000000000000000018
:1024c4000000000000000000000000000000000008
:1024d40000000000000000000000000000000000f8
:1024e40000000000000000000000000000000000e8
:1024f40000000000000000000000000000000000d8
:102504000000000000000000000000008984440076
:1025140008044400cd22a800d422a8000000000032
:1025240000000000000000000000000000000000a7
:102534000000000000000000000000000000000097
:102544000000000000000000000000000000000087
:102554000000000000000000000000000000000077
:102564000000000000000000000000000000000067
:102574000000000000000000000000000000000057
:102584000000000000000000000000000000000047
:102594000000000000000000000000000000000037
:1025a4000000000000000000000000000000000027
:1025b4000000000000000000000000000000000017
:1025c4000000000000000000000000000000000007
:1025d400000000000000000000000000cd22a9005f
:1025e400d422a900cbc2bf006100600080847400c3
:1025f400cac2bf004600de0061006000000474002f
:1026040000000000000000000000000000000000c6
:1026140000000000000000000000000000000000b6
:1026240000000000000000000000000000000000a6
:102634000000000000000000000000000000000096
:102644000000000000000000000000000000000086
:102654000000000000000000000000000000000076
:102664000000000000000000000000000000000066
:102674000000000000000000000000000000000056
:102684000000000000000000000000000000000046
:102694000000000000000000000000000000000036
:1026a4000000000000000000000000000000000026
:1026b4000000000000000000000000000000000016
:1026c4008984440008044400cd22a800d422a80030
:1026d40000000000000000000000000000000000f6
:1026e40000000000000000000000000000000000e6
:1026f40000000000000000000000000000000000d6
:1027040000000000000000000000000000000000c5
:1027140000000000000000000000000000000000b5
:1027240000000000000000000000000000000000a5
:102734000000000000000000000000000000000095
:102744000000000000000000000000000000000085
:102754000000000000000000000000000000000075
:102764000000000000000000000000000000000065
:102774000000000000000000000000000000000055
:102784000000000000000000000000000000000045
:10279400cd22a900d422a900cbc2bf0061006000f1
:1027a40080847400cac2bf004600de00610060007d
:1027b400000474000000000000000000000000009d
:1027c4000000000000000000000000000000000005
:1027d40000000000000000000000000000000000f5
:1027e40000000000000000000000000000000000e5
:1027f40000000000000000000000000000000000d5
:1028040000000000000000000000000000000000c4
:1028140000000000000000000000000000000000b4
:1028240000000000000000000000000000000000a4
:102834000000000000000000000000000000000094
:102844000000000000000000000000000000000084
:102854000000000000000000000000000000000074
:102864000000000000000000000000000000000064
:10287400000000008984440008044400cd22a8001c
:10288400d422a800000000000000000000000000a6
:102894000000000000000000000000000000000034
:1028a4000000000000000000000000000000000024
:1028b4000000000000000000000000000000000014
:1028c4000000000000000000000000000000000004
:1028d40000000000000000000000000000000000f4
:1028e40000000000000000000000000000000000e4
:1028f40000000000000000000000000000000000d4
:1029040000000000000000000000000000000000c3
:1029140000000000000000000000000000000000b3
:1029240000000000000000000000000000000000a3
:102934000000000000000000000000000000000093
:1029440000000000cd22a900d422a900cbc2bf0000
:102954006100600080847400cac2bf004600de00cb
:10296400610060000004740000000000000000002a
:102974000000000000000000000000000000000053
:102984000000000000000000000000000000000043
:102994000000000000000000000000000000000033
:1029a4000000000000000000000000000000000023
:1029b4000000000000000000000000000000000013
:1029c4000000000000000000000000000000000003
:1029d40000000000000000000000000000000000f3
:1029e40000000000000000000000000000000000e3
:1029f40000000000000000000000000000000000d3
:102a040000000000000000000000000000000000c2
:102a140000000000000000000000000000000000b2
:102a24000000000000000000898444000804440001
:102a3400cd22a800d422a80000000000000000005d
:102a44000000000000000000000000000000000082
:102a54000000000000000000000000000000000072
:102a64000000000000000000000000000000000062
:102a74000000000000000000000000000000000052
:102a84000000000000000000000000000000000042
:102a94000000000000000000000000000000000032
:102aa4000000000000000000000000000000000022
:102ab4000000000000000000000000000000000012
:102ac4000000000000000000000000000000000002
:102ad40000000000000000000000000000000000f2
:102ae40000000000000000000000000000000000e2
:102af4000000000000000000cd22a900d422a9009b
:102b0400cbc2bf006100600080847400cac2bf00f1
:102b14004600de0061006000000474000000000054
:102b240000000000000000000000000000000000a1
:102b34000000000000000000000000000000000091
:102b44000000000000000000000000000000000081
:102b54000000000000000000000000000000000071
:102b64000000000000000000000000000000000061
:102b74000000000000000000000000000000000051
:102b84000000000000000000000000000000000041
:102b94000000000000000000000000000000000031
:102ba4000000000000000000000000000000000021
:102bb4000000000000000000000000000000000011
:102bc4000000000000000000000000000000000001
:102bd40000000000000000000000000089844400a0
:102be40008044400cd22a800d422a800000000005c
:102bf40000000000000000000000000000000000d1
:102c040000000000000000000000000000000000c0
:102c140000000000000000000000000000000000b0
:102c240000000000000000000000000000000000a0
:102c34000000000000000000000000000000000090
:102c44000000000000000000000000000000000080
:102c54000000000000000000000000000000000070
:102c64000000000000000000000000000000000060
:102c74000000000000000000000000000000000050
:102c84000000000000000000000000000000000040
:102c94000000000000000000000000000000000030
:102ca400000000000000000000000000cd22a90088
:102cb400d422a900cbc2bf006100600080847400ec
:102cc400cac2bf004600de00610060000004740058
:102cd40000000000000000000000000000000000f0
:102ce40000000000000000000000000000000000e0
:102cf40000000000000000000000000000000000d0
:102d040000000000000000000000000000000000bf
:102d140000000000000000000000000000000000af
:102d2400000000000000000000000000000000009f
:102d3400000000000000000000000000000000008f
:102d4400000000000000000000000000000000007f
:102d5400000000000000000000000000000000006f
:102d6400000000000000000000000000000000005f
:102d7400000000000000000000000000000000004f
:102d8400000000000000000000000000000000003f
:102d94008984440008044400cd22a800d422a80059
:102da400000000000000000000000000000000001f
:102db400000000000000000000000000000000000f
:102dc40000000000000000000000000000000000ff
:102dd40000000000000000000000000000000000ef
:102de40000000000000000000000000000000000df
:102df40000000000000000000000000000000000cf
:102e040000000000000000000000000000000000be
:102e140000000000000000000000000000000000ae
:102e2400000000000000000000000000000000009e
:102e3400000000000000000000000000000000008e
:102e4400000000000000000000000000000000007e
:102e5400000000000000000000000000000000006e
:102e6400cd22a900d422a900cbc2bf00610060001a
:102e740080847400cac2bf004600de0061006000a6
:102e840000047400000000000000000000000000c6
:102e9400000000000000000000000000000000002e
:102ea400000000000000000000000000000000001e
:102eb400000000000000000000000000000000000e
:102ec40000000000000000000000000000000000fe
:102ed40000000000000000000000000000000000ee
:102ee40000000000000000000000000000000000de
:102ef40000000000000000000000000000000000ce
:102f040000000000000000000000000000000000bd
:102f140000000000000000000000000000000000ad
:102f2400000000000000000000000000000000009d
:102f3400000000000000000000000000000000008d
:102f4400000000008984440008044400d0002000ec
:102f54005d0c0700cd22a800d422a80000000000c8
:102f6400000000000000000000000000000000005d
:102f7400000000000000000000000000000000004d
:102f8400000000000000000000000000000000003d
:102f9400000000000000000000000000000000002d
:102fa400000000000000000000000000000000001d
:102fb400000000000000000000000000000000000d
:102fc40000000000000000000000000000000000fd
:102fd40000000000000000000000000000000000ed
:102fe40000000000000000000000000000000000dd
:102ff40000000000000000000000000000000000cd
:1030040000000000000000000000000000000000bc
:10301400000000000000000000000000cd22a90014
:10302400d422a900cbc2bf00610060008084740078
:10303400cac2bf004600de006100600000047400e4
:10304400000000000000000000000000000000007c
:10305400000000000000000000000000000000006c
:10306400000000000000000000000000000000005c
:10307400000000000000000000000000000000004c
:10308400000000000000000000000000000000003c
:10309400000000000000000000000000000000002c
:1030a400000000000000000000000000000000001c
:1030b400000000000000000000000000000000000c
:1030c40000000000000000000000000000000000fc
:1030d40000000000000000000000000000000000ec
:1030e40000000000000000000000000000000000dc
:1030f40000000000000000000000000000000000cc
:103104008984440008044400cd22a800d422a800e5
:1031140000000000000000000000000000000000ab
:10312400000000000000000000000000000000009b
:10313400000000000000000000000000000000008b
:10314400000000000000000000000000000000007b
:10315400000000000000000000000000000000006b
:10316400000000000000000000000000000000005b
:10317400000000000000000000000000000000004b
:10318400000000000000000000000000000000003b
:10319400000000000000000000000000000000002b
:1031a400000000000000000000000000000000001b
:1031b400000000000000000000000000000000000b
:1031c40000000000000000000000000000000000fb
:1031d400cd22a900d422a900cbc2bf0061006000a7
:1031e40080847400cac2bf004600de006100600033
:1031f4000004740000000000000000000000000053
:1032040000000000000000000000000000000000ba
:1032140000000000000000000000000000000000aa
:10322400000000000000000000000000000000009a
:10323400000000000000000000000000000000008a
:10324400000000000000000000000000000000007a
:10325400000000000000000000000000000000006a
:10326400000000000000000000000000000000005a
:10327400000000000000000000000000000000004a
:10328400000000000000000000000000000000003a
:10329400000000000000000000000000000000002a
:1032a400000000000000000000000000000000001a
:1032b400000000008984440008044400cd22a800d2
:1032c400d422a8000000000000000000000000005c
:1032d40000000000000000000000000000000000ea
:1032e40000000000000000000000000000000000da
:1032f40000000000000000000000000000000000ca
:1033040000000000000000000000000000000000b9
:1033140000000000000000000000000000000000a9
:103324000000000000000000000000000000000099
:103334000000000000000000000000000000000089
:103344000000000000000000000000000000000079
:103354000000000000000000000000000000000069
:103364000000000000000000000000000000000059
:103374000000000000000000000000000000000049
:1033840000000000cd22a900d422a900cbc2bf00b6
:103394006100600080847400cac2bf004600de0081
:1033a40061006000000474000000000000000000e0
:1033b4000000000000000000000000000000000009
:1033c40000000000000000000000000000000000f9
:1033d40000000000000000000000000000000000e9
:1033e40000000000000000000000000000000000d9
:1033f40000000000000000000000000000000000c9
:1034040000000000000000000000000000000000b8
:1034140000000000000000000000000000000000a8
:103424000000000000000000000000000000000098
:103434000000000000000000000000000000000088
:103444000000000000000000000000000000000078
:103454000000000000000000000000000000000068
:1034640000000000000000008984440008044400b7
:10347400cd22a800d422a800000000000000000013
:103484000000000000000000000000000000000038
:103494000000000000000000000000000000000028
:1034a4000000000000000000000000000000000018
:1034b4000000000000000000000000000000000008
:1034c40000000000000000000000000000000000f8
:1034d40000000000000000000000000000000000e8
:1034e40000000000000000000000000000000000d8
:1034f40000000000000000000000000000000000c8
:1035040000000000000000000000000000000000b7
:1035140000000000000000000000000000000000a7
:103524000000000000000000000000000000000097
:103534000000000000000000cd22a900d422a90050
:10354400cbc2bf006100600080847400cac2bf00a7
:103554004600de006100600000047400000000000a
:103564000000000000000000000000000000000057
:103574000000000000000000000000000000000047
:103584000000000000000000000000000000000037
:103594000000000000000000000000000000000027
:1035a4000000000000000000000000000000000017
:1035b4000000000000000000000000000000000007
:1035c40000000000000000000000000000000000f7
:1035d40000000000000000000000000000000000e7
:1035e40000000000000000000000000000000000d7
:1035f40000000000000000000000000000000000c7
:1036040000000000000000000000000000000000b6
:103614000000000000000000000000008984440055
:1036240008044400cd22a800d422a8000000000011
:103634000000000000000000000000000000000086
:103644000000000000000000000000000000000076
:103654000000000000000000000000000000000066
:103664000000000000000000000000000000000056
:103674000000000000000000000000000000000046
:103684000000000000000000000000000000000036
:103694000000000000000000000000000000000026
:1036a4000000000000000000000000000000000016
:1036b4000000000000000000000000000000000006
:1036c40000000000000000000000000000000000f6
:1036d40000000000000000000000000000000000e6
:1036e400000000000000000000000000cd22a9003e
:1036f400d422a900cbc2bf006100600080847400a2
:10370400cac2bf004600de0061006000000474000d
:1037140000000000000000000000000000000000a5
:103724000000000000000000000000000000000095
:103734000000000000000000000000000000000085
:103744000000000000000000000000000000000075
:103754000000000000000000000000000000000065
:103764000000000000000000000000000000000055
:103774000000000000000000000000000000000045
:103784000000000000000000000000000000000035
:103794000000000000000000000000000000000025
:1037a4000000000000000000000000000000000015
:1037b4000000000000000000000000000000000005
:1037c40000000000000000000000000000000000f5
:1037d4008984440008044400cd22a800d422a8000f
:1037e40000000000000000000000000000000000d5
:1037f40000000000000000000000000000000000c5
:1038040000000000000000000000000000000000b4
:1038140000000000000000000000000000000000a4
:103824000000000000000000000000000000000094
:103834000000000000000000000000000000000084
:103844000000000000000000000000000000000074
:103854000000000000000000000000000000000064
:103864000000000000000000000000000000000054
:103874000000000000000000000000000000000044
:103884000000000000000000000000000000000034
:103894000000000000000000000000000000000024
:1038a400cd22a900d422a900cbc2bf0061006000d0
:1038b40080847400cac2bf004600de00610060005c
:1038c400000474000000000000000000000000007c
:1038d40000000000000000000000000000000000e4
:1038e40000000000000000000000000000000000d4
:1038f40000000000000000000000000000000000c4
:1039040000000000000000000000000000000000b3
:1039140000000000000000000000000000000000a3
:103924000000000000000000000000000000000093
:103934000000000000000000000000000000000083
:103944000000000000000000000000000000000073
:103954000000000000000000000000000000000063
:103964000000000000000000000000000000000053
:103974000000000000000000000000000000000043
:10398400000000008984440008044400cd22a800fb
:10399400d422a80000000000000000000000000085
:1039a4000000000000000000000000000000000013
:1039b4000000000000000000000000000000000003
:1039c40000000000000000000000000000000000f3
:1039d40000000000000000000000000000000000e3
:1039e40000000000000000000000000000000000d3
:1039f40000000000000000000000000000000000c3
:103a040000000000000000000000000000000000b2
:103a140000000000000000000000000000000000a2
:103a24000000000000000000000000000000000092
:103a34000000000000000000000000000000000082
:103a44000000000000000000000000000000000072
:103a540000000000cd22a900d422a900cbc2bf00df
:103a64006100600080847400cac2bf004600de00aa
:103a74006100600000047400000000000000000009
:103a84000000000000000000000000000000000032
:103a94000000000000000000000000000000000022
:103aa4000000000000000000000000000000000012
:103ab4000000000000000000000000000000000002
:103ac40000000000000000000000000000000000f2
:103ad40000000000000000000000000000000000e2
:103ae40000000000000000000000000000000000d2
:103af40000000000000000000000000000000000c2
:103b040000000000000000000000000000000000b1
:103b140000000000000000000000000000000000a1
:103b24000000000000000000000000000000000091
:103b340000000000000000008984440008044400e0
:103b4400cd22a800d422a80000000000000000003c
:103b54000000000000000000000000000000000061
:103b64000000000000000000000000000000000051
:103b74000000000000000000000000000000000041
:103b84000000000000000000000000000000000031
:103b94000000000000000000000000000000000021
:103ba4000000000000000000000000000000000011
:103bb4000000000000000000000000000000000001
:103bc40000000000000000000000000000000000f1
:103bd40000000000000000000000000000000000e1
:103be40000000000000000000000000000000000d1
:103bf40000000000000000000000000000000000c1
:103c04000000000000000000cd22a900d422a90079
:103c1400cbc2bf006100600000817400cac2bf0053
:103c24004600de0061006000000474000000000033
:103c34000000000000000000000000000000000080
:103c44000000000000000000000000000000000070
:103c54000000000000000000000000000000000060
:103c64000000000000000000000000000000000050
:103e5400000000000000000000000000cc82a80068
:103e6400cc62a80000000000000000000000000078
:103e7400000000000000000000000000000000003e
:103e8400000000000000000000000000000000002e
:103e9400000000000000000000000000000000001e
:103ea400000000000000000000000000000000000e
:103eb40000000000000000000000000000000000fe
:103ec40000000000000000000000000000000000ee
:103ed40000000000000000000000000000000000de
:103ee40000000000000000000000000000000000ce
:103ef40000000000000000000000000000000000be
:103f040000000000cd22a900d422a900c902a90002
:103f1400cf02a800c8c2a900cec2a80063006100f5
:103f2400e10f50001f00320088e9ab0017003a008f
:103f3400f229ec0063006400e10f5000210032001c
:103f440088e9ab00250032004240de0010508800b2
:103f5400f04f800080004000629f200003508000ea
:103f640083307900e480400013508000833079006e
:103f74000000e800e10f5000010034000000eb00f5
:103f8400f04f88004f04be00000006004210de001f
:103f94000050880063006400e10f5000e8ff3a001d
:103fa40008003700c210de00e0fd2300808f5000bf
:103fb400ddff3e000150880063006400e10f500003
:103fc400dfff3a00c240de00e0fd2300808f500096
:103fd400dbff3e0011508800ddff3700f429ec00c0
:103fe400dbff3700010178000004e0000600320026
:103ff400e14f50001900320061409000d00fb20030
:10400400510032003000050061409000d00fb20032
:104014000c003200e10f5000faff3a0091009000ca
:10402400504f8000808f5000f6ff3a0042409000cd
:104034008081fb006d806100e40f500010003200ad
:1040440040000500110090000000e000edff3a0080
:10405400ea09e200ebff3a0000000500614090002d
:10406400d00fb2000e003a00110090000000e000f2
:10407400e4ff3a00ec09e200e2ff3a000000050028
:10408400609e200021c0b30090cf10001d003200bc
:10409400e04e8000920f1000210032002000050045
:1040a400e10f5000d7ff3a0011029000604f8000ea
:1040b400800f5200d3ff3a00414090008081fb0002
:1040c4006d806100deff3a00609e200021c0b300d5
:1040d40090cf100024003200d04e8000920f1000c8
:1040e400eeff3a000400e000dbff3200d302b2002e
:1040f40000022000808f510010003200e969ef00b7
:104104000000050092007800f0ff2000808f50002e
:10411400e2ff360000002200808f5000dfff3e00e7
:10412400030078000004b2000b00320010c0b3009a
:10413400dfe9b700ec09e200c7ff3a0010c0b300a2
:10414400e9e9b70000000500110090000000e0005c
:10415400c1ff320030000500dfe9b700ec09e200de
:10416400f6ff3200bcff370092007800f0ff200019
:10417400808f5000c9ff360000002200808f50005d
:10418400d8ff3600200005000040eb006304070060
:1041940010007800e04e880010c0b3005f040700f0
:1041a40010017800d24e8800e34e8000504f80000a
:1041b4006300b90000804100800f51000500310008
:1041c400604f800000004100d1012000808f510029
:1041d40007003900ec09e20007003a00ea09e200ae
:1041e4000e003a000000eb00d10407008000eb0051
:1041f400010078000000060010c0b3009805070015
:10420400950907000004e0000a003a0010c0b3005a
:10421400efe9b700ea09e200f2ff32000040eb00e8
:104224008f0507000000eb00c10407008000eb00cd
:10423400efff37008080fb000100780000000600db
:10424400edff37000400fa002200200001402000a6
:1042540064805700930307006fb897000000e000e4
:1042640002003200df49e20012003a000000eb00d5
:10427400f0bf9f00104f8800df49e2001c003a00a5
:10428400ea09e2001e003a0010c0b300f0e9b700ea
:10429400d849e20004003a00e949e2000200320091
:1042a400ea09e2001d003a000000eb000080fa0079
:1042b4000000060022002000014220000f80e900d7
:1042c400780307007fb897000000e000eaff32009f
:1042d4006fb997000200b800821a2600030020007c
:1042e40090f00700104f8800df49e200e4ff3a0035
:1042f400f00120000080fa0000000600edff370006
:10430400570907000004e000dfff32000080fb00d3
:104314000080fa0000000600e6ff370000102000cd
:10432400830407000000eb000080fa000000060090
:10433400e0ff3700f0ef2f0027040700ee69ef00dd
:10434400f069ef000000eb00ea09e20001003a0026
:1043540000000600430907000080fb00000006007f
:104364000040eb001a05070030cf2f001a040700a5
:104374000040eb00e9e9b700d8e9b700efe9b7007e
:1043840010c0b30012050700340907000080fb00c9
:10439400000006008040eb008000fd00dfe9b7006c
:1043a400e5e9b700e4e9b700eee9b700f0e9b700e2
:1043b4008000fd008000fd00efe9b700d8e9b700f8
:1043c400e9e9b7008000fd0010c0b300e6e9b700da
:1043d400ac04370085033700889fbe008a9fbe0067
:1043e4008c1f7800804578000000eb000b04e0008f
:1043f4002f00320019c0b3000044eb0008457800d8
:104404000946780009407800c403070000017800d9
:104414000904e0001a003200e1cf540044003200e5
:1044240060409000d00fb20003003a0012009000e8
:104434000000e000030032000a04e00001003a003a
:104444007dc544000844e80088cf550017003200b9
:1044540019c0b3000804e000eaff32008044eb0016
:10446400e14f5400e7ff32008844780009407800a7
:10447400aa030700000178000904e000e6ff3a00ff
:1044840060409000d00fb2000d003a00120090007e
:104494000000e000e8ff3a00ea09e200e6ff3a0023
:1044a4000844e80088cf5500e9ff3a000a80fb0081
:1044b4004f0678004f05be004f04be000000060002
:1044c400e10f5000dcff3a0092009000504f800052
:1044d400808f5000d8ff3a00424090008080fb005b
:1044e4006d806000e40f5000d3ff3a00609e20000e
:1044f40023c0b30090cf11002f003200e04e8000a3
:10450400920f1000ccff3a00010078000004b200c2
:10451400390032000c007800dfe9b700ec09e20052
:10452400c8ff3a000c007800e9e9b700c5ff37007e
:1045340060409000d00fb20019003200e10f50002b
:10454400bdff3a0092009000604f8000808f5000c1
:10455400b9ff3a00424090008081fb006d80610009
:10456400b5ff3a00609e200024c0b300904f1200b3
:1045740019003200d04e8000920f1000aeff3a00b6
:104584000100e000afff3200d302b20000022000bd
:10459400808f5100e3ff3200e969ef00a9ff370083
:1045a400120090000000e000a3ff3a00ec09e200d2
:1045b400a1ff3a00a3ff370012017800f0ff2000aa
:1045c400800f51009cff360000002200800f510034
:1045d400cdff360098ff370012017800f0ff20006d
:1045e400800f510094ff360000002200800f51001c
:1045f400e3ff360090ff3700dfe9b700ec09e20083
:1046040090ff3a00c7ff3700889fbe008a9fbe0014
:104614008c9fbe008e1f7800804178008080fb0054
:104624000148a30057003200629e20001241780026
:104634000244a10002007800e6e9b700efc561007a
:104644004410dd0080c4450009007800dee9b700ad
:1046540080c4b30080cf54002a00320058003600d2
:1046640040c8b30080cf54002600320064404000ac
:1046740080cf5400230032000980fb000100200099
:1046840071005000e080580072072000820f500033
:10469400e08f58005800360028c1b300629e200005
:1046a400124178008b80fb006f006100808f500006
:1046b4002b0032000804e0001701320002007800e9
:1046c400e5e9b7000244a00002007800e6e9b7007b
:1046d4000240780088407800ea030700e469ef00ac
:1046e4004f0778004f06be004f05be004f04be00c2
:1046f4000000060057080700004478000004e000aa
:1047040008003a008d9e20009d4678000000eb00d2
:104714000d04e000b1003a00004478000004e00019
:10472400d5ff3200e6c9bf00e44f50003901320022
:10473400e84f500031013200e24f50004501320091
:10474400e14f4400e6ff3200629e200012417800ef
:104754008b80fb006f006100808f5000d5ff3a0012
:104764008040eb0002407800c60307004f07780042
:104774004f06be004f05be004f04be0000000600f9
:10478400dcff3700629e2000124178000280fb00ab
:104794000048a300a9ff3200ef8060006f006000b2
:1047a400808f5000a5ff34004f0778004f06be00ed
:1047b4004f05be004f04be0000000600cdff3700c9
:1047c40040c2b30080cf5400caff320040c4b300db
:1047d40080cf5400cbff32000980fb000100200091
:1047e40071005000e080580072072000820f5000d2
:1047f400e08f5800a8ff3e00006001003d01370033
:104804004d0137005001370047013700a2ff370040
:10481400a1ff3700a0ff3700430137009eff370098
:104824009dff37009cff37009bff37009aff37003e
:1048340099ff370098ff370097ff37003e01370094
:104844002c013700380137004601370092ff37004a
:1048540091ff370090ff3700330137008eff370098
:104864008dff37008cff37008bff37008aff37003e
:1048740089ff370088ff370087ff370086ff37003e
:1048840085ff370084ff370083ff370082ff37003e
:1048940081ff370080ff37007fff37007eff37003e
:1048a4007dff37007cff37007bff37007aff37003e
:1048b40079ff370078ff370077ff3700f7003700bc
:1048c400f6003700180137000a01370072ff37007d
:1048d40071ff370070ff37001f0137006eff37008c
:1048e4006dff37006cff37006bff37006aff37003e
:1048f40069ff370068ff370067ff370066ff37003e
:1049040065ff370064ff370063ff370062ff37003d
:1049140061ff370060ff37005fff37005eff37003d
:104924005dff37005cff37005bff37005aff37003d
:1049340059ff370058ff370057ff370056ff37003d
:1049440055ff370054ff370053ff370052ff37003d
:1049540051ff370050ff37004fff37004eff37003d
:104964004dff37004cff37004bff37004aff37003d
:1049740049ff370048ff370047ff370046ff37003d
:1049840045ff370044ff370043ff370042ff37003d
:1049940041ff370040ff37003fff37003eff37003d
:1049a4003dff37003cff37003bff37003aff37003d
:1049b40039ff370038ff370037ff3700ab003700c7
:1049c400aa003700d8003700ce00370032ff370086
:1049d40031ff370030ff3700c60037001ac0b3007c
:1049e4000044eb00084678000a4778000a40780043
:1049f4004a020700000178000a04e0001a003200ad
:104a0400e14f55005400320060409000d00fb200d6
:104a140003003a00120090000000e000030032009e
:104a24000c04e00001003a007d4645000844e8001b
:104a340088cf5600170032001ac0b3000804e00003
:104a4400eaff32000045eb00e14f5400e7ff32007b
:104a5400084578000a407800300207000001780019
:104a64000a04e000e6ff3a0060409000d00fb20074
:104a74000d003a00120090000000e000e8ff3a0048
:104a8400ea09e200e6ff3a000844e80088cf56004d
:104a9400e9ff3a000c80fb00004478000004e000c9
:104aa40020ff3a00f4fe3700e10f5000dcff3a002b
:104ab40092009000504f8000808f5000d8ff3a0041
:104ac400424090008080fb006d806000e40f500045
:104ad400d3ff3a00609e200023c0b30090cf1100a2
:104ae400ad003200e04e8000920f1000ccff3a007f
:104af400010078000004b200b70032000e00780014
:104b0400dfe9b700ec09e200c8ff3a000e007800c4
:104b1400e9e9b700c5ff3700489e20001844780033
:104b24000804e00028003a00539e200093417800d6
:104b3400035ce10065003e0000c4eb000b0078005c
:104b4400e6e9b7000b40780088407800cd02070002
:104b5400e469ef00e2fe370060409000d00fb2003d
:104b640020003200e10f5000adff3a0092009000a7
:104b7400604f8000808f5000a9ff3a0042409000af
:104b84008081fb006d806100a5ff3a00609e2000db
:104b940024c0b300904f120087003200d04e800032
:104ba400920f10009eff3a000100e0009fff3200c8
:104bb400d302b20000022000808f5100d3ff3200e4
:104bc400e969ef0099ff37000b007800e5e9b700c9
:104bd4000b44a0000b007800e6e9b7000b40780016
:104be400d9ff3700120090000000e0008cff3a006b
:104bf400ec09e2008aff3a008cff3700f0ef2f0047
:104c0400f5010700ee69ef00f069ef00ea09e20040
:104c140057003a00fd4f5400320032000040eb00d0
:104c2400eb02070030cf2f00eb010700e969ef002a
:104c3400d869ef00ef69ef0010c0b300e402070089
:104c44000607070022c0b3000001fd00e6e9b70033
:104c54000001fd00f64f54004b00320022c0b300a7
:104c640002007800e6e9b700b5fe3700f0ef2f0048
:104c7400d9010700ee69ef00f069ef000000eb00d6
:104c8400ea09e20002003200f60607000080fb0099
:104c9400004478000004e000a9fe3a000040eb0064
:104ca400cb02070030cf2f00cb010700e969ef00ea
:104cb400d869ef00ef69ef0010c0b300c402070029
:104cc400e6060700004478009dfe370008007800df
:104cd400e5e9b7000b007800e6e9b7000b4078007f
:104ce40099ff370042c0b30002007800e6e9b7003c
:104cf4006cfe3700e8cfb300629e200012417800ba
:104d040068fe3700f0ef2f00b3010700ee69ef00f3
:104d1400f069ef000000eb00ea09e20016003a0037
:104d24000044780086fe370018c1b300629e20005c
:104d3400124178005bfe37000044eb00629e2000c5
:104d44001241780057fe370038c1b300629e20003c
:104d54001241780053fe37003afd07000044780002
:104d640077fe370008fd07000044780074fe370022
:104d7400bc060700a7ff3700ba0607000080fb0047
:104d8400004478006efe370012c0b30002007800c1
:104d9400e6e9b70043fe370012017800f0ff200077
:104da400800f51001eff360000002200800f5100ca
:104db4004fff36001aff370012017800f0ff200081
:104dc400800f510016ff360000002200800f5100b2
:104dd40075ff360012ff3700dfe9b700ec09e20087
:104de40012ff3a0049ff37009400a900d4c2a90079
:104df4008540a900000420004012880085c0bf003f
:104e04000028a300fdff3200401280000eeab70024
:104e14008540a900200720004012880085c0bf00fb
:104e24000028a300fdff3200401280000feab70003
:104e34008540a900f00f20004012880085c0bf0003
:104e44000028a300fdff32004012800004eab700ee
:104e54008540a900d4c2a8009400a8000000060060
:104e6400d4c2a9008540a9004822ef0085c0bf0034
:104e74000028a300fdff3200401280000eeab700b4
:104e84008540a900200020004012880085c0bf0092
:104e94000028a300fdff3200401280000feab70093
:104ea4008540a900d4c2a800000006004300dd002c
:104eb4008180fb0081007000d4c2a9008540a90054
:104ec4004808de004012880085c0bf000028a30007
:104ed400fdff3200401280000eeab7008540a900b1
:104ee4000180fb004012880085c0bf000028a30099
:104ef400fdff3200401280000feab7008540a90090
:104f0400000006004300dd008180fb00810070008a
:104f1400d4c2a9008540a9004808de0040128800d8
:104f240085c0bf000028a300fdff320040128000ae
:104f34008540a9000180fb004012880085c0bf00a5
:104f44000028a300fdff3200401280008540a90024
:104f54000000060080017800c308dd000110a000f5
:104f6400d4c2a9008540a9004808de004012880088
:104f740085c0bf000028a300fdff3200401280005e
:104f84008540a9000180fb004012880085c0bf0055
:104f94000028a300fdff3200401280008540a900d4
:104fa4000200e900e10f40001100320080007800a7
:104fb4000042eb000081eb000100e0000f003a002a
:104fc40000c2eb00f00f20008540a90040128800c9
:104fd40085c0bf000028a300fdff320040128000fe
:104fe400805978008100e900810f5100f2ff3a00f6
:104ff4008540a900d4c2a800000006000480fb007c
:105004008540a90040128800f1ff37008001780034
:10501400c308dd000120a000d4c2a9008540a90076
:105024004808de004012880085c0bf000028a300a5
:10503400fdff3200401280008540a9000180fb0082
:105044004012880085c0bf000028a300fdff320085
:10505400401280008540a9000200e900e10f4000f1
:105064000d00320083007800030040000001e800d6
:105074008540a9001180fb004012880085c0bf0054
:105084000028a300fdff3200401280008100e800e8
:10509400810f5100f6ff3a008540a900d4c2a80050
:1050a40000000600000278000200e900e10f400061
:1050b4002400320000804000f50f20000001e800c9
:1050c4009400a900c309dd000310a000d4c2a90004
:1050d4008540a9004818de004012880085c0bf0042
:1050e4000028a300fdff3200401280000eeab70042
:1050f4008540a9000380fb004012880085c0bf00e2
:105104000028a300fdff3200401280000feab70020
:105114008540a9004512880085c0bf000028a3006f
:10512400fdff320040128000005a78009400a8006d
:10513400d4c2a8008100e8008540a900828f5000f5
:10514400dfff3a0000000600800278000200e00061
:10515400250032000002eb009400a900c309dd0021
:105164000320a000d4c2a9008540a9004818de008d
:105174004012880085c0bf000028a300fdff320054
:10518400401280000eeab7008540a9000380fb00ae
:105194004012880085c0bf000028a300fdff320034
:1051a400401280000feab7008540a9008540a9009d
:1051b40065407a000080fb004012880085c0bf0073
:1051c4000028a300fdff3200401280009400a800d4
:1051d4008100e8008540a900d4c2a8000402e800c8
:1051e400840f5100dcff3a00000006009400a9007f
:1051f400d4c2a9008540a900000420004012880000
:1052040085c0bf000028a300fdff320040128000cb
:105214000eeab7008540a90020072000401288004c
:1052240085c0bf000028a300fdff320040128000ab
:105234000feab7008540a900f00f20004012880053
:1052440085c0bf000028a300fdff3200401280008b
:1052540004eab7008540a900d4c2a8009400a800bd
:105264000e0aab002c00320002122000268f200010
:10527400f50f2000241220009400a900c310dd00c3
:105284000110a000d4c2a9008540a9004808de008e
:105294004012880085c0bf000028a300fdff320033
:1052a40040128000804178008540a9000180fb0005
:1052b4004012880085c0bf000028a300fdff320013
:1052c40040128000804078008540a9004512880083
:1052d40085c0bf000028a300fdff320040128000fb
:1052e400007379009400a800d4c2a8000201e80069
:1052f4008540a900840f5100dfff3a0001007800c7
:105304000feab700e0ceb30000c061000eeab700b8
:1053140012cabf00bcfc0700000006000080fb00ae
:105324004300dd0065a02000018020000101400051
:1053340073002000f60f20009400a900c310dd00c4
:105344000110a000d4c2a9008540a9004808de00cd
:105354004012880085c0bf000028a300fdff320072
:1053640040128000004278008540a9000180fb00c3
:105374004012880085c0bf000028a300fdff320052
:1053840040128000804078008540a90046128800c1
:1053940085c0bf000028a300fdff3200401280003a
:1053a400805a78009400a800d4c2a8000201e80042
:1053b4008540a9008301e900e18f4100deff3a0046
:1053c400010078000feab700040078000eeab70085
:1053d40060a02000000006000200fa00000278002d
:1053e4008f83e9008701780042202000f60f200017
:1053f400652020009400a900c310dd000110a00066
:10540400d4c2a9008540a9004808de0040128800e3
:1054140085c0bf000028a300fdff320040128000b9
:105424000eeab7008540a9000180fb004012880005
:1054340085c0bf000028a300fdff32004012800099
:105444000feab7008540a9004612880085c0bf0056
:105454000028a300fdff320040128000805978002c
:105464009400a800d4c2a8000201e8008540a90065
:10547400850f5100dfff3a00ffb89700010062007a
:10548400f0bf9f009400a900422020000000e0002b
:1054940001003a0014eab7009400a900c310dd002b
:1054a4000120a000d4c2a9008540a9004808de005c
:1054b4004012880085c0bf000028a300fdff320011
:1054c400401280000eeab7008540a9000180fb006d
:1054d4004012880085c0bf000028a300fdff3200f1
:1054e400401280000feab7008540a9008540a9005a
:1054f4003780fb004012880085c0bf000028a3004d
:10550400fdff3200401280009400a8000201e80070
:105514008540a900d4c2a80060202000800f51005b
:10552400ddff3a009400a8000080fa0000000600a5
:105534000200fa00000278008f83e90087017800f6
:1055440042202000f60f2000652020009400a900ce
:10555400c310dd000110a000d4c2a9008540a90039
:105564004808de004012880085c0bf000028a30060
:10557400fdff3200401280000eeab7008540a9000a
:105584000180fb004012880085c0bf000028a300f2
:10559400fdff3200401280000feab7008540a900e9
:1055a4004612880085c0bf000028a300fdff32001a
:1055b40040128000805978009400a800d4c2a8004a
:1055c4000201e8008540a900850f5100dfff3a0081
:1055d4007fb8970000007200f0bf9f009400a900fc
:1055e40010c0b30014eab70042202000632020005a
:1055f4009400a900c310dd000120a000d4c2a900ba
:105604008540a9004808de004012880085c0bf001c
:105614000028a300fdff3200401280000eeab7000c
:105624008540a9000180fb004012880085c0bf00ae
:105634000028a300fdff3200401280000feab700eb
:105644008540a9008540a9003780fb0040128800ee
:1056540085c0bf000028a300fdff32004012800077
:105664009400a8000201e8008540a900d4c2a80063
:10567400830f5100deff3a009400a8000080fa0076
:10568400000006000200fa000080fb00f0bf9f004b
:105694000f83e9000602780003132000251320007d
:1056a4009400a9004319dd000220a000d4c2a9007f
:1056b4008540a9004810de004012880085c0bf0064
:1056c4000028a300fdff3200401280000eeab7005c
:1056d4008540a9000280fb004012880085c0bf00fd
:1056e4000028a300fdff3200401280000feab7003b
:1056f4008540a9008540a9003480fb004012880041
:1057040085c0bf000028a300fdff320040128000c6
:105714009400a8008301e8008540a900d4c2a80031
:10572400858f5100deff3a00e1cf400026003200b1
:105734000180fb00f0bf9f00421320006313200090
:105744009400a900c310dd000120a000d4c2a90068
:105754008540a9004808de004012880085c0bf00cb
:105764000028a300fdff3200401280000eeab700bb
:105774008540a9000180fb004012880085c0bf005d
:105784000028a300fdff3200401280000feab7009a
:105794008540a9008540a9003680fb00401288009e
:1057a40085c0bf000028a300fdff32004012800026
:1057b4009400a8000201e8008540a900d4c2a80012
:1057c400830f5100deff3a000080fa00000006005b
:1057d4009400a9000080fb004300dd0071802000dc
:1057e40001004000c300dd000120a000d4c2a900d4
:1057f4008540a9004808de004012880085c0bf002b
:105804000028a300fdff3200401280000eeab7001a
:105814008540a9000180fb004012880085c0bf00bc
:105824000028a300fdff3200401280000feab700f9
:105834008540a9008540a90010002000401288007e
:1058440085c0bf000028a300fdff32004012800085
:105854009400a8008540a900d4c2a8000000060056
:105864009400a9000080fb004300dd00718020004b
:1058740001004000c300dd000120a000d4c2a90043
:105884008540a9004808de004012880085c0bf009a
:105894000028a300fdff3200401280000eeab7008a
:1058a4008540a9000180fb004012880085c0bf002c
:1058b4000028a300fdff3200401280000feab70069
:1058c4008540a9008540a9004822ef0085c0bf009b
:1058d4000028a300fdff3200401280009400a800bd
:1058e4008540a900d4c2a8000000060000004000c2
:1058f40001a2200060807800000006000001be00c4
:105904000100e0000d003200600220000090b900a8
:105914004002b00082982000600079000000e0009e
:105924000300350080814100030078000000060078
:105934000000ea00808f5100fbff3d0000002000c2
:1059440000000600faff3700000178006002200022
:105954000091b9007801410080982000620078002d
:1059640053002000e40f500004003400800178004c
:10597400c07d2000808f51000b003c00c27d2000c0
:1059840001005100717d2000810f50000c003c008b
:1059940083005100810f5000010035000000060013
:1059a400010078000000060080017800c27d20001c
:1059b40001005100717d2000810f5000f4ff34007c
:1059c4000100780000000600000178006002200059
:1059d4000091b900780141008098200062017800ac
:1059e40050002000e40f510004003400020078004d
:1059f400c27d2000820f500007003c00810f500040
:105a04000300350001007800e58f500001003500e7
:105a1400000006005000050002007800f7ff370080
:105a24000001eb0002518800f2508800c1e1a90096
:105a3400020e8800c0c1bf006f406000c0e1b70023
:105a4400c0c1bf0031cfb30001406000c0e1b70066
:105a5400303f2000200e8800c0c1bf00c1cfb3007a
:105a640001406000c0e1b700120e8800420e8800b9
:105a7400c901a900c921a900c941a900c881a80078
:105a8400c801a800c8a1a800c821a800520e880017
:105a9400cbc1bf0001cfb30001406000cbe1b70030
:105aa400ca41a800300e80000100280001006000f7
:105ab4004006b300300e8800620e8800ccc1bf00df
:105ac40001ccb300014060006040b300cce1b700fa
:105ad400cdc1bf00014060006040b300cde1b7001c
:105ae400720e8800ce21a900ce01a800ce61a900c3
:105af400ce41a800b20e8800c20e8800c941a90098
:105b0400c8c1a800c841a800cea1a900ce81a800a0
:105b1400d20e8800ca21a900820e88008b20a90019
:105b24009b20a900c1e1a800000006008b20a90069
:105b340000400600881f7800000178000084eb0014
:105b44000100e00001003500180020008101780008
:105b54000100e00054003500600220000090b9000c
:105b640080027800780040008698200060027b0064
:105b74008203410003007800848f51000100340047
:105b84000400780000c0b90002a22000803379002c
:105b94000300e0002a00320040022000050040001b
:105ba40060007b000000e00041003500808041007f
:105bb4004289de00c07d20008101500020032000c6
:105bc400800f510001003d000001780002f0a100a7
:105bd400300e800001002800010060000200700007
:105be400300e880051002000e40f520004003400fd
:105bf40084007800c07d2000800f520028003c0003
:105c0400707d2000808f51001000340080007800e7
:105c140000017800e0a1200081337800b20e8800f2
:105c2400c20e8800d20e88000800e0001400340080
